{
  "contractName": "DominionDAO",
  "abi": [
    {
      "anonymous": false,
      "inputs": [
        {
          "indexed": true,
          "internalType": "address",
          "name": "initiator",
          "type": "address"
        },
        {
          "indexed": false,
          "internalType": "bytes32",
          "name": "role",
          "type": "bytes32"
        },
        {
          "indexed": false,
          "internalType": "string",
          "name": "message",
          "type": "string"
        },
        {
          "indexed": true,
          "internalType": "address",
          "name": "beneficiary",
          "type": "address"
        },
        {
          "indexed": false,
          "internalType": "uint256",
          "name": "amount",
          "type": "uint256"
        }
      ],
      "name": "Action",
      "type": "event"
    },
    {
      "anonymous": false,
      "inputs": [
        {
          "indexed": true,
          "internalType": "bytes32",
          "name": "role",
          "type": "bytes32"
        },
        {
          "indexed": true,
          "internalType": "bytes32",
          "name": "previousAdminRole",
          "type": "bytes32"
        },
        {
          "indexed": true,
          "internalType": "bytes32",
          "name": "newAdminRole",
          "type": "bytes32"
        }
      ],
      "name": "RoleAdminChanged",
      "type": "event"
    },
    {
      "anonymous": false,
      "inputs": [
        {
          "indexed": true,
          "internalType": "bytes32",
          "name": "role",
          "type": "bytes32"
        },
        {
          "indexed": true,
          "internalType": "address",
          "name": "account",
          "type": "address"
        },
        {
          "indexed": true,
          "internalType": "address",
          "name": "sender",
          "type": "address"
        }
      ],
      "name": "RoleGranted",
      "type": "event"
    },
    {
      "anonymous": false,
      "inputs": [
        {
          "indexed": true,
          "internalType": "bytes32",
          "name": "role",
          "type": "bytes32"
        },
        {
          "indexed": true,
          "internalType": "address",
          "name": "account",
          "type": "address"
        },
        {
          "indexed": true,
          "internalType": "address",
          "name": "sender",
          "type": "address"
        }
      ],
      "name": "RoleRevoked",
      "type": "event"
    },
    {
      "inputs": [],
      "name": "DEFAULT_ADMIN_ROLE",
      "outputs": [
        {
          "internalType": "bytes32",
          "name": "",
          "type": "bytes32"
        }
      ],
      "stateMutability": "view",
      "type": "function"
    },
    {
      "inputs": [],
      "name": "daoBalance",
      "outputs": [
        {
          "internalType": "uint256",
          "name": "",
          "type": "uint256"
        }
      ],
      "stateMutability": "view",
      "type": "function"
    },
    {
      "inputs": [
        {
          "internalType": "bytes32",
          "name": "role",
          "type": "bytes32"
        }
      ],
      "name": "getRoleAdmin",
      "outputs": [
        {
          "internalType": "bytes32",
          "name": "",
          "type": "bytes32"
        }
      ],
      "stateMutability": "view",
      "type": "function"
    },
    {
      "inputs": [
        {
          "internalType": "bytes32",
          "name": "role",
          "type": "bytes32"
        },
        {
          "internalType": "address",
          "name": "account",
          "type": "address"
        }
      ],
      "name": "grantRole",
      "outputs": [],
      "stateMutability": "nonpayable",
      "type": "function"
    },
    {
      "inputs": [
        {
          "internalType": "bytes32",
          "name": "role",
          "type": "bytes32"
        },
        {
          "internalType": "address",
          "name": "account",
          "type": "address"
        }
      ],
      "name": "hasRole",
      "outputs": [
        {
          "internalType": "bool",
          "name": "",
          "type": "bool"
        }
      ],
      "stateMutability": "view",
      "type": "function"
    },
    {
      "inputs": [
        {
          "internalType": "bytes32",
          "name": "role",
          "type": "bytes32"
        },
        {
          "internalType": "address",
          "name": "account",
          "type": "address"
        }
      ],
      "name": "renounceRole",
      "outputs": [],
      "stateMutability": "nonpayable",
      "type": "function"
    },
    {
      "inputs": [
        {
          "internalType": "bytes32",
          "name": "role",
          "type": "bytes32"
        },
        {
          "internalType": "address",
          "name": "account",
          "type": "address"
        }
      ],
      "name": "revokeRole",
      "outputs": [],
      "stateMutability": "nonpayable",
      "type": "function"
    },
    {
      "inputs": [
        {
          "internalType": "bytes4",
          "name": "interfaceId",
          "type": "bytes4"
        }
      ],
      "name": "supportsInterface",
      "outputs": [
        {
          "internalType": "bool",
          "name": "",
          "type": "bool"
        }
      ],
      "stateMutability": "view",
      "type": "function"
    },
    {
      "inputs": [
        {
          "internalType": "string",
          "name": "title",
          "type": "string"
        },
        {
          "internalType": "string",
          "name": "description",
          "type": "string"
        },
        {
          "internalType": "address",
          "name": "beneficiary",
          "type": "address"
        },
        {
          "internalType": "uint256",
          "name": "amount",
          "type": "uint256"
        }
      ],
      "name": "createProposal",
      "outputs": [
        {
          "components": [
            {
              "internalType": "uint256",
              "name": "id",
              "type": "uint256"
            },
            {
              "internalType": "uint256",
              "name": "amount",
              "type": "uint256"
            },
            {
              "internalType": "uint256",
              "name": "duration",
              "type": "uint256"
            },
            {
              "internalType": "uint256",
              "name": "upvotes",
              "type": "uint256"
            },
            {
              "internalType": "uint256",
              "name": "downvotes",
              "type": "uint256"
            },
            {
              "internalType": "string",
              "name": "title",
              "type": "string"
            },
            {
              "internalType": "string",
              "name": "description",
              "type": "string"
            },
            {
              "internalType": "bool",
              "name": "passed",
              "type": "bool"
            },
            {
              "internalType": "bool",
              "name": "paid",
              "type": "bool"
            },
            {
              "internalType": "address payable",
              "name": "beneficiary",
              "type": "address"
            },
            {
              "internalType": "address",
              "name": "proposer",
              "type": "address"
            },
            {
              "internalType": "address",
              "name": "executor",
              "type": "address"
            }
          ],
          "internalType": "struct DominionDAO.ProposalStruct",
          "name": "",
          "type": "tuple"
        }
      ],
      "stateMutability": "nonpayable",
      "type": "function"
    },
    {
      "inputs": [
        {
          "internalType": "uint256",
          "name": "proposalId",
          "type": "uint256"
        },
        {
          "internalType": "bool",
          "name": "choosen",
          "type": "bool"
        }
      ],
      "name": "performVote",
      "outputs": [
        {
          "components": [
            {
              "internalType": "address",
              "name": "voter",
              "type": "address"
            },
            {
              "internalType": "uint256",
              "name": "timestamp",
              "type": "uint256"
            },
            {
              "internalType": "bool",
              "name": "choosen",
              "type": "bool"
            }
          ],
          "internalType": "struct DominionDAO.VotedStruct",
          "name": "",
          "type": "tuple"
        }
      ],
      "stateMutability": "nonpayable",
      "type": "function"
    },
    {
      "inputs": [
        {
          "internalType": "uint256",
          "name": "proposalId",
          "type": "uint256"
        }
      ],
      "name": "payBeneficiary",
      "outputs": [
        {
          "internalType": "uint256",
          "name": "",
          "type": "uint256"
        }
      ],
      "stateMutability": "nonpayable",
      "type": "function"
    },
    {
      "inputs": [],
      "name": "contribute",
      "outputs": [
        {
          "internalType": "uint256",
          "name": "",
          "type": "uint256"
        }
      ],
      "stateMutability": "payable",
      "type": "function"
    },
    {
      "inputs": [],
      "name": "getProposals",
      "outputs": [
        {
          "components": [
            {
              "internalType": "uint256",
              "name": "id",
              "type": "uint256"
            },
            {
              "internalType": "uint256",
              "name": "amount",
              "type": "uint256"
            },
            {
              "internalType": "uint256",
              "name": "duration",
              "type": "uint256"
            },
            {
              "internalType": "uint256",
              "name": "upvotes",
              "type": "uint256"
            },
            {
              "internalType": "uint256",
              "name": "downvotes",
              "type": "uint256"
            },
            {
              "internalType": "string",
              "name": "title",
              "type": "string"
            },
            {
              "internalType": "string",
              "name": "description",
              "type": "string"
            },
            {
              "internalType": "bool",
              "name": "passed",
              "type": "bool"
            },
            {
              "internalType": "bool",
              "name": "paid",
              "type": "bool"
            },
            {
              "internalType": "address payable",
              "name": "beneficiary",
              "type": "address"
            },
            {
              "internalType": "address",
              "name": "proposer",
              "type": "address"
            },
            {
              "internalType": "address",
              "name": "executor",
              "type": "address"
            }
          ],
          "internalType": "struct DominionDAO.ProposalStruct[]",
          "name": "props",
          "type": "tuple[]"
        }
      ],
      "stateMutability": "view",
      "type": "function"
    },
    {
      "inputs": [
        {
          "internalType": "uint256",
          "name": "proposalId",
          "type": "uint256"
        }
      ],
      "name": "getProposal",
      "outputs": [
        {
          "components": [
            {
              "internalType": "uint256",
              "name": "id",
              "type": "uint256"
            },
            {
              "internalType": "uint256",
              "name": "amount",
              "type": "uint256"
            },
            {
              "internalType": "uint256",
              "name": "duration",
              "type": "uint256"
            },
            {
              "internalType": "uint256",
              "name": "upvotes",
              "type": "uint256"
            },
            {
              "internalType": "uint256",
              "name": "downvotes",
              "type": "uint256"
            },
            {
              "internalType": "string",
              "name": "title",
              "type": "string"
            },
            {
              "internalType": "string",
              "name": "description",
              "type": "string"
            },
            {
              "internalType": "bool",
              "name": "passed",
              "type": "bool"
            },
            {
              "internalType": "bool",
              "name": "paid",
              "type": "bool"
            },
            {
              "internalType": "address payable",
              "name": "beneficiary",
              "type": "address"
            },
            {
              "internalType": "address",
              "name": "proposer",
              "type": "address"
            },
            {
              "internalType": "address",
              "name": "executor",
              "type": "address"
            }
          ],
          "internalType": "struct DominionDAO.ProposalStruct",
          "name": "",
          "type": "tuple"
        }
      ],
      "stateMutability": "view",
      "type": "function"
    },
    {
      "inputs": [
        {
          "internalType": "uint256",
          "name": "proposalId",
          "type": "uint256"
        }
      ],
      "name": "getVotesOf",
      "outputs": [
        {
          "components": [
            {
              "internalType": "address",
              "name": "voter",
              "type": "address"
            },
            {
              "internalType": "uint256",
              "name": "timestamp",
              "type": "uint256"
            },
            {
              "internalType": "bool",
              "name": "choosen",
              "type": "bool"
            }
          ],
          "internalType": "struct DominionDAO.VotedStruct[]",
          "name": "",
          "type": "tuple[]"
        }
      ],
      "stateMutability": "view",
      "type": "function"
    },
    {
      "inputs": [],
      "name": "getStakeholderVotes",
      "outputs": [
        {
          "internalType": "uint256[]",
          "name": "",
          "type": "uint256[]"
        }
      ],
      "stateMutability": "view",
      "type": "function"
    },
    {
      "inputs": [],
      "name": "getStakeholderBalance",
      "outputs": [
        {
          "internalType": "uint256",
          "name": "",
          "type": "uint256"
        }
      ],
      "stateMutability": "view",
      "type": "function"
    },
    {
      "inputs": [],
      "name": "isStakeholder",
      "outputs": [
        {
          "internalType": "bool",
          "name": "",
          "type": "bool"
        }
      ],
      "stateMutability": "view",
      "type": "function"
    },
    {
      "inputs": [],
      "name": "getContributorBalance",
      "outputs": [
        {
          "internalType": "uint256",
          "name": "",
          "type": "uint256"
        }
      ],
      "stateMutability": "view",
      "type": "function"
    },
    {
      "inputs": [],
      "name": "isContributor",
      "outputs": [
        {
          "internalType": "bool",
          "name": "",
          "type": "bool"
        }
      ],
      "stateMutability": "view",
      "type": "function"
    },
    {
      "inputs": [],
      "name": "getBalance",
      "outputs": [
        {
          "internalType": "uint256",
          "name": "",
          "type": "uint256"
        }
      ],
      "stateMutability": "view",
      "type": "function"
    }
  ],
  "bytecode": "0x6101006040527fa0bb1af1c90aa52ed052b92714ff0087008cc720049bf1af77cca2600b31e80c6080908152507ff4bb84e1768dd286358a736d195a0b228621173f655a73b89bf8b191ed0ba07d60a090815250670de0b6b3a764000060c09081525061012c63ffffffff1660e09063ffffffff1681525034801561008357600080fd5b50600160008190555060805160a05160c05160e051613fa2610119600039600061114501526000611dd80152600081816105ea0152818161087b01528181610f1501528181610fe90152818161155d0152818161169c0152818161192901528181611d5e01528181611e9c015261208e0152600081816109f4015281816111ce01528181611ec60152611f4b0152613fa26000f3fe60806040526004361061012a5760003560e01c80637cdc2eb7116100ab578063bd9728161161006f578063bd9728161461042e578063c02146ac14610459578063c7f758a814610484578063d547741f146104c1578063d6cc8016146104ea578063d7bb99ba146105155761012a565b80637cdc2eb71461032157806391d148541461035e578063a217fddf1461039b578063a22f1db7146103c6578063b31f111c146103f15761012a565b806336568abe116100f257806336568abe1461023a5780633cdb48c21461026357806362564c481461028e57806369a136dc146102b95780636a80d84d146102f65761012a565b806301ffc9a71461012f578063119c37c81461016c57806312065fe0146101a9578063248a9ca3146101d45780632f2ff15d14610211575b600080fd5b34801561013b57600080fd5b5061015660048036038101906101519190612a9c565b610533565b6040516101639190612ae4565b60405180910390f35b34801561017857600080fd5b50610193600480360381019061018e9190612b35565b6105ad565b6040516101a09190612b71565b60405180910390f35b3480156101b557600080fd5b506101be6108c9565b6040516101cb9190612b71565b60405180910390f35b3480156101e057600080fd5b506101fb60048036038101906101f69190612bc2565b610910565b6040516102089190612bfe565b60405180910390f35b34801561021d57600080fd5b5061023860048036038101906102339190612c77565b610930565b005b34801561024657600080fd5b50610261600480360381019061025c9190612c77565b610951565b005b34801561026f57600080fd5b506102786109d4565b6040516102859190612b71565b60405180910390f35b34801561029a57600080fd5b506102a3610aa2565b6040516102b09190612f6b565b60405180910390f35b3480156102c557600080fd5b506102e060048036038101906102db9190612b35565b610deb565b6040516102ed919061307e565b60405180910390f35b34801561030257600080fd5b5061030b610ed8565b6040516103189190612b71565b60405180910390f35b34801561032d57600080fd5b5061034860048036038101906103439190613105565b610fc3565b60405161035591906132b7565b60405180910390f35b34801561036a57600080fd5b5061038560048036038101906103809190612c77565b6114ae565b6040516103929190612ae4565b60405180910390f35b3480156103a757600080fd5b506103b0611519565b6040516103bd9190612bfe565b60405180910390f35b3480156103d257600080fd5b506103db611520565b6040516103e89190613388565b60405180910390f35b3480156103fd57600080fd5b50610418600480360381019061041391906133d6565b611659565b6040516104259190613458565b60405180910390f35b34801561043a57600080fd5b506104436119a0565b6040516104509190612b71565b60405180910390f35b34801561046557600080fd5b5061046e6119a6565b60405161047b9190612ae4565b60405180910390f35b34801561049057600080fd5b506104ab60048036038101906104a69190612b35565b6119ef565b6040516104b891906132b7565b60405180910390f35b3480156104cd57600080fd5b506104e860048036038101906104e39190612c77565b611cab565b005b3480156104f657600080fd5b506104ff611ccc565b60405161050c9190612ae4565b60405180910390f35b61051d611d15565b60405161052a9190612b71565b60405180910390f35b60007f7965db0b000000000000000000000000000000000000000000000000000000007bffffffffffffffffffffffffffffffffffffffffffffffffffffffff1916827bffffffffffffffffffffffffffffffffffffffffffffffffffffffff191614806105a657506105a5826120cc565b5b9050919050565b60006040518060400160405280601f81526020017f556e617574686f72697a65643a205374616b65686f6c64657273206f6e6c790081525061060f7f0000000000000000000000000000000000000000000000000000000000000000336114ae565b8190610651576040517f08c379a000000000000000000000000000000000000000000000000000000000815260040161064891906134bd565b60405180910390fd5b5061065a612136565b6000600460008581526020019081526020016000209050806001015460035410156106ba576040517f08c379a00000000000000000000000000000000000000000000000000000000081526004016106b19061352b565b60405180910390fd5b8060070160019054906101000a900460ff161561070c576040517f08c379a000000000000000000000000000000000000000000000000000000000815260040161070390613597565b60405180910390fd5b8060040154816003015411610756576040517f08c379a000000000000000000000000000000000000000000000000000000000815260040161074d90613603565b60405180910390fd5b6107888160070160029054906101000a900473ffffffffffffffffffffffffffffffffffffffff168260010154612186565b5060018160070160016101000a81548160ff021916908315150217905550338160090160006101000a81548173ffffffffffffffffffffffffffffffffffffffff021916908373ffffffffffffffffffffffffffffffffffffffff1602179055508060010154600360008282546107ff9190613652565b925050819055508060070160029054906101000a900473ffffffffffffffffffffffffffffffffffffffff1673ffffffffffffffffffffffffffffffffffffffff163373ffffffffffffffffffffffffffffffffffffffff167fa596782d699d74613fcbf59d33e720baabd313d6be9c95e2268f305430305eb77f000000000000000000000000000000000000000000000000000000000000000084600101546040516108ad9291906136d2565b60405180910390a36003549250506108c361223e565b50919050565b6000600760003373ffffffffffffffffffffffffffffffffffffffff1673ffffffffffffffffffffffffffffffffffffffff16815260200190815260200160002054905090565b600060016000838152602001908152602001600020600101549050919050565b61093982610910565b61094281612248565b61094c838361225c565b505050565b61095961233c565b73ffffffffffffffffffffffffffffffffffffffff168173ffffffffffffffffffffffffffffffffffffffff16146109c6576040517f08c379a00000000000000000000000000000000000000000000000000000000081526004016109bd90613780565b60405180910390fd5b6109d08282612344565b5050565b6000604051806060016040528060218152602001613f1d60219139610a197f0000000000000000000000000000000000000000000000000000000000000000336114ae565b8190610a5b576040517f08c379a0000000000000000000000000000000000000000000000000000000008152600401610a5291906134bd565b60405180910390fd5b50600760003373ffffffffffffffffffffffffffffffffffffffff1673ffffffffffffffffffffffffffffffffffffffff1681526020019081526020016000205491505090565b606060025467ffffffffffffffff811115610ac057610abf6137a0565b5b604051908082528060200260200182016040528015610af957816020015b610ae66128b7565b815260200190600190039081610ade5790505b50905060005b600254811015610de75760046000828152602001908152602001600020604051806101800160405290816000820154815260200160018201548152602001600282015481526020016003820154815260200160048201548152602001600582018054610b6a906137fe565b80601f0160208091040260200160405190810160405280929190818152602001828054610b96906137fe565b8015610be35780601f10610bb857610100808354040283529160200191610be3565b820191906000526020600020905b815481529060010190602001808311610bc657829003601f168201915b50505050508152602001600682018054610bfc906137fe565b80601f0160208091040260200160405190810160405280929190818152602001828054610c28906137fe565b8015610c755780601f10610c4a57610100808354040283529160200191610c75565b820191906000526020600020905b815481529060010190602001808311610c5857829003601f168201915b505050505081526020016007820160009054906101000a900460ff161515151581526020016007820160019054906101000a900460ff161515151581526020016007820160029054906101000a900473ffffffffffffffffffffffffffffffffffffffff1673ffffffffffffffffffffffffffffffffffffffff1673ffffffffffffffffffffffffffffffffffffffff1681526020016008820160009054906101000a900473ffffffffffffffffffffffffffffffffffffffff1673ffffffffffffffffffffffffffffffffffffffff1673ffffffffffffffffffffffffffffffffffffffff1681526020016009820160009054906101000a900473ffffffffffffffffffffffffffffffffffffffff1673ffffffffffffffffffffffffffffffffffffffff1673ffffffffffffffffffffffffffffffffffffffff1681525050828281518110610dc957610dc8613830565b5b60200260200101819052508080610ddf9061385f565b915050610aff565b5090565b606060066000838152602001908152602001600020805480602002602001604051908101604052809291908181526020016000905b82821015610ecd57838290600052602060002090600302016040518060600160405290816000820160009054906101000a900473ffffffffffffffffffffffffffffffffffffffff1673ffffffffffffffffffffffffffffffffffffffff1673ffffffffffffffffffffffffffffffffffffffff168152602001600182015481526020016002820160009054906101000a900460ff16151515158152505081526020019060010190610e20565b505050509050919050565b60006040518060400160405280601f81526020017f556e617574686f72697a65643a206e6f742061207374616b65686f6c64657200815250610f3a7f0000000000000000000000000000000000000000000000000000000000000000336114ae565b8190610f7c576040517f08c379a0000000000000000000000000000000000000000000000000000000008152600401610f7391906134bd565b60405180910390fd5b50600860003373ffffffffffffffffffffffffffffffffffffffff1673ffffffffffffffffffffffffffffffffffffffff1681526020019081526020016000205491505090565b610fcb6128b7565b6040518060600160405280602f8152602001613f3e602f913961100e7f0000000000000000000000000000000000000000000000000000000000000000336114ae565b8190611050576040517f08c379a000000000000000000000000000000000000000000000000000000000815260040161104791906134bd565b60405180910390fd5b506000600260008154809291906110669061385f565b9190505590506000600460008381526020019081526020016000209050818160000181905550338160080160006101000a81548173ffffffffffffffffffffffffffffffffffffffff021916908373ffffffffffffffffffffffffffffffffffffffff16021790555089898260050191906110e292919061295e565b5087878260060191906110f692919061295e565b50858160070160026101000a81548173ffffffffffffffffffffffffffffffffffffffff021916908373ffffffffffffffffffffffffffffffffffffffff1602179055508481600101819055507f000000000000000000000000000000000000000000000000000000000000000063ffffffff164261117591906138a8565b81600201819055508573ffffffffffffffffffffffffffffffffffffffff163373ffffffffffffffffffffffffffffffffffffffff167fa596782d699d74613fcbf59d33e720baabd313d6be9c95e2268f305430305eb77f0000000000000000000000000000000000000000000000000000000000000000886040516111fc92919061394a565b60405180910390a380604051806101800160405290816000820154815260200160018201548152602001600282015481526020016003820154815260200160048201548152602001600582018054611253906137fe565b80601f016020809104026020016040519081016040528092919081815260200182805461127f906137fe565b80156112cc5780601f106112a1576101008083540402835291602001916112cc565b820191906000526020600020905b8154815290600101906020018083116112af57829003601f168201915b505050505081526020016006820180546112e5906137fe565b80601f0160208091040260200160405190810160405280929190818152602001828054611311906137fe565b801561135e5780601f106113335761010080835404028352916020019161135e565b820191906000526020600020905b81548152906001019060200180831161134157829003601f168201915b505050505081526020016007820160009054906101000a900460ff161515151581526020016007820160019054906101000a900460ff161515151581526020016007820160029054906101000a900473ffffffffffffffffffffffffffffffffffffffff1673ffffffffffffffffffffffffffffffffffffffff1673ffffffffffffffffffffffffffffffffffffffff1681526020016008820160009054906101000a900473ffffffffffffffffffffffffffffffffffffffff1673ffffffffffffffffffffffffffffffffffffffff1673ffffffffffffffffffffffffffffffffffffffff1681526020016009820160009054906101000a900473ffffffffffffffffffffffffffffffffffffffff1673ffffffffffffffffffffffffffffffffffffffff1673ffffffffffffffffffffffffffffffffffffffff168152505093505050509695505050505050565b60006001600084815260200190815260200160002060000160008373ffffffffffffffffffffffffffffffffffffffff1673ffffffffffffffffffffffffffffffffffffffff16815260200190815260200160002060009054906101000a900460ff16905092915050565b6000801b81565b60606040518060400160405280601f81526020017f556e617574686f72697a65643a206e6f742061207374616b65686f6c646572008152506115827f0000000000000000000000000000000000000000000000000000000000000000336114ae565b81906115c4576040517f08c379a00000000000000000000000000000000000000000000000000000000081526004016115bb91906134bd565b60405180910390fd5b50600560003373ffffffffffffffffffffffffffffffffffffffff1673ffffffffffffffffffffffffffffffffffffffff16815260200190815260200160002080548060200260200160405190810160405280929190818152602001828054801561164e57602002820191906000526020600020905b81548152602001906001019080831161163a575b505050505091505090565b6116616129e4565b6040518060400160405280601f81526020017f556e617574686f72697a65643a205374616b65686f6c64657273206f6e6c79008152506116c17f0000000000000000000000000000000000000000000000000000000000000000336114ae565b8190611703576040517f08c379a00000000000000000000000000000000000000000000000000000000081526004016116fa91906134bd565b60405180910390fd5b50600060046000868152602001908152602001600020905061172481612426565b83156117495780600301600081548092919061173f9061385f565b9190505550611764565b80600401600081548092919061175e9061385f565b91905055505b600560003373ffffffffffffffffffffffffffffffffffffffff1673ffffffffffffffffffffffffffffffffffffffff16815260200190815260200160002081600001549080600181540180825580915050600190039060005260206000200160009091909190915055600660008260000154815260200190815260200160002060405180606001604052803373ffffffffffffffffffffffffffffffffffffffff168152602001428152602001861515815250908060018154018082558091505060019003906000526020600020906003020160009091909190915060008201518160000160006101000a81548173ffffffffffffffffffffffffffffffffffffffff021916908373ffffffffffffffffffffffffffffffffffffffff1602179055506020820151816001015560408201518160020160006101000a81548160ff02191690831515021790555050508060070160029054906101000a900473ffffffffffffffffffffffffffffffffffffffff1673ffffffffffffffffffffffffffffffffffffffff163373ffffffffffffffffffffffffffffffffffffffff167fa596782d699d74613fcbf59d33e720baabd313d6be9c95e2268f305430305eb77f0000000000000000000000000000000000000000000000000000000000000000846001015460405161195b9291906139d2565b60405180910390a360405180606001604052803373ffffffffffffffffffffffffffffffffffffffff1681526020014281526020018515158152509250505092915050565b60035481565b600080600860003373ffffffffffffffffffffffffffffffffffffffff1673ffffffffffffffffffffffffffffffffffffffff1681526020019081526020016000205411905090565b6119f76128b7565b60046000838152602001908152602001600020604051806101800160405290816000820154815260200160018201548152602001600282015481526020016003820154815260200160048201548152602001600582018054611a58906137fe565b80601f0160208091040260200160405190810160405280929190818152602001828054611a84906137fe565b8015611ad15780601f10611aa657610100808354040283529160200191611ad1565b820191906000526020600020905b815481529060010190602001808311611ab457829003601f168201915b50505050508152602001600682018054611aea906137fe565b80601f0160208091040260200160405190810160405280929190818152602001828054611b16906137fe565b8015611b635780601f10611b3857610100808354040283529160200191611b63565b820191906000526020600020905b815481529060010190602001808311611b4657829003601f168201915b505050505081526020016007820160009054906101000a900460ff161515151581526020016007820160019054906101000a900460ff161515151581526020016007820160029054906101000a900473ffffffffffffffffffffffffffffffffffffffff1673ffffffffffffffffffffffffffffffffffffffff1673ffffffffffffffffffffffffffffffffffffffff1681526020016008820160009054906101000a900473ffffffffffffffffffffffffffffffffffffffff1673ffffffffffffffffffffffffffffffffffffffff1673ffffffffffffffffffffffffffffffffffffffff1681526020016009820160009054906101000a900473ffffffffffffffffffffffffffffffffffffffff1673ffffffffffffffffffffffffffffffffffffffff1673ffffffffffffffffffffffffffffffffffffffff16815250509050919050565b611cb482610910565b611cbd81612248565b611cc78383612344565b505050565b600080600760003373ffffffffffffffffffffffffffffffffffffffff1673ffffffffffffffffffffffffffffffffffffffff1681526020019081526020016000205411905090565b6000803411611d59576040517f08c379a0000000000000000000000000000000000000000000000000000000008152600401611d5090613a80565b60405180910390fd5b611d837f0000000000000000000000000000000000000000000000000000000000000000336114ae565b611f7757600034600760003373ffffffffffffffffffffffffffffffffffffffff1673ffffffffffffffffffffffffffffffffffffffff16815260200190815260200160002054611dd491906138a8565b90507f00000000000000000000000000000000000000000000000000000000000000008110611ef05780600860003373ffffffffffffffffffffffffffffffffffffffff1673ffffffffffffffffffffffffffffffffffffffff1681526020019081526020016000208190555034600760003373ffffffffffffffffffffffffffffffffffffffff1673ffffffffffffffffffffffffffffffffffffffff1681526020019081526020016000206000828254611e9091906138a8565b92505081905550611ec17f0000000000000000000000000000000000000000000000000000000000000000336125bb565b611eeb7f0000000000000000000000000000000000000000000000000000000000000000336125bb565b611f71565b34600760003373ffffffffffffffffffffffffffffffffffffffff1673ffffffffffffffffffffffffffffffffffffffff1681526020019081526020016000206000828254611f3f91906138a8565b92505081905550611f707f0000000000000000000000000000000000000000000000000000000000000000336125bb565b5b50612024565b34600760003373ffffffffffffffffffffffffffffffffffffffff1673ffffffffffffffffffffffffffffffffffffffff1681526020019081526020016000206000828254611fc691906138a8565b9250508190555034600860003373ffffffffffffffffffffffffffffffffffffffff1673ffffffffffffffffffffffffffffffffffffffff168152602001908152602001600020600082825461201c91906138a8565b925050819055505b346003600082825461203691906138a8565b925050819055503073ffffffffffffffffffffffffffffffffffffffff163373ffffffffffffffffffffffffffffffffffffffff167fa596782d699d74613fcbf59d33e720baabd313d6be9c95e2268f305430305eb77f0000000000000000000000000000000000000000000000000000000000000000346040516120bc929190613aec565b60405180910390a3600354905090565b60007f01ffc9a7000000000000000000000000000000000000000000000000000000007bffffffffffffffffffffffffffffffffffffffffffffffffffffffff1916827bffffffffffffffffffffffffffffffffffffffffffffffffffffffff1916149050919050565b6002600054141561217c576040517f08c379a000000000000000000000000000000000000000000000000000000000815260040161217390613b74565b60405180910390fd5b6002600081905550565b6000808373ffffffffffffffffffffffffffffffffffffffff16836040516121ad90613bc5565b60006040518083038185875af1925050503d80600081146121ea576040519150601f19603f3d011682016040523d82523d6000602084013e6121ef565b606091505b5050905080612233576040517f08c379a000000000000000000000000000000000000000000000000000000000815260040161222a90613c26565b60405180910390fd5b600191505092915050565b6001600081905550565b6122598161225461233c565b6125c9565b50565b61226682826114ae565b61233857600180600084815260200190815260200160002060000160008373ffffffffffffffffffffffffffffffffffffffff1673ffffffffffffffffffffffffffffffffffffffff16815260200190815260200160002060006101000a81548160ff0219169083151502179055506122dd61233c565b73ffffffffffffffffffffffffffffffffffffffff168173ffffffffffffffffffffffffffffffffffffffff16837f2f8788117e7eff1d82e926ec794901d17c78024a50270940304540a733656f0d60405160405180910390a45b5050565b600033905090565b61234e82826114ae565b156124225760006001600084815260200190815260200160002060000160008373ffffffffffffffffffffffffffffffffffffffff1673ffffffffffffffffffffffffffffffffffffffff16815260200190815260200160002060006101000a81548160ff0219169083151502179055506123c761233c565b73ffffffffffffffffffffffffffffffffffffffff168173ffffffffffffffffffffffffffffffffffffffff16837ff6391f5c32d9c69d2a47ea670b442974b53935d1edc7fd64eb21e047a839171b60405160405180910390a45b5050565b8060070160009054906101000a900460ff1680612447575042816002015411155b156124a45760018160070160006101000a81548160ff0219169083151502179055506040517f08c379a000000000000000000000000000000000000000000000000000000000815260040161249b90613c92565b60405180910390fd5b6000600560003373ffffffffffffffffffffffffffffffffffffffff1673ffffffffffffffffffffffffffffffffffffffff16815260200190815260200160002080548060200260200160405190810160405280929190818152602001828054801561252f57602002820191906000526020600020905b81548152602001906001019080831161251b575b5050505050905060005b81518110156125b65781818151811061255557612554613830565b5b6020026020010151836000015414156125a3576040517f08c379a000000000000000000000000000000000000000000000000000000000815260040161259a90613cfe565b60405180910390fd5b80806125ae9061385f565b915050612539565b505050565b6125c5828261225c565b5050565b6125d382826114ae565b61264a576125e08161264e565b6125ee8360001c602061267b565b6040516020016125ff929190613df2565b6040516020818303038152906040526040517f08c379a000000000000000000000000000000000000000000000000000000000815260040161264191906134bd565b60405180910390fd5b5050565b60606126748273ffffffffffffffffffffffffffffffffffffffff16601460ff1661267b565b9050919050565b60606000600283600261268e9190613e2c565b61269891906138a8565b67ffffffffffffffff8111156126b1576126b06137a0565b5b6040519080825280601f01601f1916602001820160405280156126e35781602001600182028036833780820191505090505b5090507f30000000000000000000000000000000000000000000000000000000000000008160008151811061271b5761271a613830565b5b60200101907effffffffffffffffffffffffffffffffffffffffffffffffffffffffffffff1916908160001a9053507f78000000000000000000000000000000000000000000000000000000000000008160018151811061277f5761277e613830565b5b60200101907effffffffffffffffffffffffffffffffffffffffffffffffffffffffffffff1916908160001a905350600060018460026127bf9190613e2c565b6127c991906138a8565b90505b6001811115612869577f3031323334353637383961626364656600000000000000000000000000000000600f86166010811061280b5761280a613830565b5b1a60f81b82828151811061282257612821613830565b5b60200101907effffffffffffffffffffffffffffffffffffffffffffffffffffffffffffff1916908160001a905350600485901c94508061286290613e86565b90506127cc565b50600084146128ad576040517f08c379a00000000000000000000000000000000000000000000000000000000081526004016128a490613efc565b60405180910390fd5b8091505092915050565b60405180610180016040528060008152602001600081526020016000815260200160008152602001600081526020016060815260200160608152602001600015158152602001600015158152602001600073ffffffffffffffffffffffffffffffffffffffff168152602001600073ffffffffffffffffffffffffffffffffffffffff168152602001600073ffffffffffffffffffffffffffffffffffffffff1681525090565b82805461296a906137fe565b90600052602060002090601f01602090048101928261298c57600085556129d3565b82601f106129a557803560ff19168380011785556129d3565b828001600101855582156129d3579182015b828111156129d25782358255916020019190600101906129b7565b5b5090506129e09190612a1d565b5090565b6040518060600160405280600073ffffffffffffffffffffffffffffffffffffffff168152602001600081526020016000151581525090565b5b80821115612a36576000816000905550600101612a1e565b5090565b600080fd5b600080fd5b60007fffffffff0000000000000000000000000000000000000000000000000000000082169050919050565b612a7981612a44565b8114612a8457600080fd5b50565b600081359050612a9681612a70565b92915050565b600060208284031215612ab257612ab1612a3a565b5b6000612ac084828501612a87565b91505092915050565b60008115159050919050565b612ade81612ac9565b82525050565b6000602082019050612af96000830184612ad5565b92915050565b6000819050919050565b612b1281612aff565b8114612b1d57600080fd5b50565b600081359050612b2f81612b09565b92915050565b600060208284031215612b4b57612b4a612a3a565b5b6000612b5984828501612b20565b91505092915050565b612b6b81612aff565b82525050565b6000602082019050612b866000830184612b62565b92915050565b6000819050919050565b612b9f81612b8c565b8114612baa57600080fd5b50565b600081359050612bbc81612b96565b92915050565b600060208284031215612bd857612bd7612a3a565b5b6000612be684828501612bad565b91505092915050565b612bf881612b8c565b82525050565b6000602082019050612c136000830184612bef565b92915050565b600073ffffffffffffffffffffffffffffffffffffffff82169050919050565b6000612c4482612c19565b9050919050565b612c5481612c39565b8114612c5f57600080fd5b50565b600081359050612c7181612c4b565b92915050565b60008060408385031215612c8e57612c8d612a3a565b5b6000612c9c85828601612bad565b9250506020612cad85828601612c62565b9150509250929050565b600081519050919050565b600082825260208201905092915050565b6000819050602082019050919050565b612cec81612aff565b82525050565b600081519050919050565b600082825260208201905092915050565b60005b83811015612d2c578082015181840152602081019050612d11565b83811115612d3b576000848401525b50505050565b6000601f19601f8301169050919050565b6000612d5d82612cf2565b612d678185612cfd565b9350612d77818560208601612d0e565b612d8081612d41565b840191505092915050565b612d9481612ac9565b82525050565b6000612da582612c19565b9050919050565b612db581612d9a565b82525050565b612dc481612c39565b82525050565b600061018083016000830151612de36000860182612ce3565b506020830151612df66020860182612ce3565b506040830151612e096040860182612ce3565b506060830151612e1c6060860182612ce3565b506080830151612e2f6080860182612ce3565b5060a083015184820360a0860152612e478282612d52565b91505060c083015184820360c0860152612e618282612d52565b91505060e0830151612e7660e0860182612d8b565b50610100830151612e8b610100860182612d8b565b50610120830151612ea0610120860182612dac565b50610140830151612eb5610140860182612dbb565b50610160830151612eca610160860182612dbb565b508091505092915050565b6000612ee18383612dca565b905092915050565b6000602082019050919050565b6000612f0182612cb7565b612f0b8185612cc2565b935083602082028501612f1d85612cd3565b8060005b85811015612f595784840389528151612f3a8582612ed5565b9450612f4583612ee9565b925060208a01995050600181019050612f21565b50829750879550505050505092915050565b60006020820190508181036000830152612f858184612ef6565b905092915050565b600081519050919050565b600082825260208201905092915050565b6000819050602082019050919050565b606082016000820151612fcf6000850182612dbb565b506020820151612fe26020850182612ce3565b506040820151612ff56040850182612d8b565b50505050565b60006130078383612fb9565b60608301905092915050565b6000602082019050919050565b600061302b82612f8d565b6130358185612f98565b935061304083612fa9565b8060005b838110156130715781516130588882612ffb565b975061306383613013565b925050600181019050613044565b5085935050505092915050565b600060208201905081810360008301526130988184613020565b905092915050565b600080fd5b600080fd5b600080fd5b60008083601f8401126130c5576130c46130a0565b5b8235905067ffffffffffffffff8111156130e2576130e16130a5565b5b6020830191508360018202830111156130fe576130fd6130aa565b5b9250929050565b6000806000806000806080878903121561312257613121612a3a565b5b600087013567ffffffffffffffff8111156131405761313f612a3f565b5b61314c89828a016130af565b9650965050602087013567ffffffffffffffff81111561316f5761316e612a3f565b5b61317b89828a016130af565b9450945050604061318e89828a01612c62565b925050606061319f89828a01612b20565b9150509295509295509295565b6000610180830160008301516131c56000860182612ce3565b5060208301516131d86020860182612ce3565b5060408301516131eb6040860182612ce3565b5060608301516131fe6060860182612ce3565b5060808301516132116080860182612ce3565b5060a083015184820360a08601526132298282612d52565b91505060c083015184820360c08601526132438282612d52565b91505060e083015161325860e0860182612d8b565b5061010083015161326d610100860182612d8b565b50610120830151613282610120860182612dac565b50610140830151613297610140860182612dbb565b506101608301516132ac610160860182612dbb565b508091505092915050565b600060208201905081810360008301526132d181846131ac565b905092915050565b600081519050919050565b600082825260208201905092915050565b6000819050602082019050919050565b60006133118383612ce3565b60208301905092915050565b6000602082019050919050565b6000613335826132d9565b61333f81856132e4565b935061334a836132f5565b8060005b8381101561337b5781516133628882613305565b975061336d8361331d565b92505060018101905061334e565b5085935050505092915050565b600060208201905081810360008301526133a2818461332a565b905092915050565b6133b381612ac9565b81146133be57600080fd5b50565b6000813590506133d0816133aa565b92915050565b600080604083850312156133ed576133ec612a3a565b5b60006133fb85828601612b20565b925050602061340c858286016133c1565b9150509250929050565b60608201600082015161342c6000850182612dbb565b50602082015161343f6020850182612ce3565b5060408201516134526040850182612d8b565b50505050565b600060608201905061346d6000830184613416565b92915050565b600082825260208201905092915050565b600061348f82612cf2565b6134998185613473565b93506134a9818560208601612d0e565b6134b281612d41565b840191505092915050565b600060208201905081810360008301526134d78184613484565b905092915050565b7f496e73756666696369656e742066756e64000000000000000000000000000000600082015250565b6000613515601183613473565b9150613520826134df565b602082019050919050565b6000602082019050818103600083015261354481613508565b9050919050565b7f5061796d656e742073656e74206265666f726500000000000000000000000000600082015250565b6000613581601383613473565b915061358c8261354b565b602082019050919050565b600060208201905081810360008301526135b081613574565b9050919050565b7f496e73756666696369656e7420766f7465730000000000000000000000000000600082015250565b60006135ed601283613473565b91506135f8826135b7565b602082019050919050565b6000602082019050818103600083015261361c816135e0565b9050919050565b7f4e487b7100000000000000000000000000000000000000000000000000000000600052601160045260246000fd5b600061365d82612aff565b915061366883612aff565b92508282101561367b5761367a613623565b5b828203905092915050565b7f5041594d454e54205452414e5346455245440000000000000000000000000000600082015250565b60006136bc601283613473565b91506136c782613686565b602082019050919050565b60006060820190506136e76000830185612bef565b81810360208301526136f8816136af565b90506137076040830184612b62565b9392505050565b7f416363657373436f6e74726f6c3a2063616e206f6e6c792072656e6f756e636560008201527f20726f6c657320666f722073656c660000000000000000000000000000000000602082015250565b600061376a602f83613473565b91506137758261370e565b604082019050919050565b600060208201905081810360008301526137998161375d565b9050919050565b7f4e487b7100000000000000000000000000000000000000000000000000000000600052604160045260246000fd5b7f4e487b7100000000000000000000000000000000000000000000000000000000600052602260045260246000fd5b6000600282049050600182168061381657607f821691505b6020821081141561382a576138296137cf565b5b50919050565b7f4e487b7100000000000000000000000000000000000000000000000000000000600052603260045260246000fd5b600061386a82612aff565b91507fffffffffffffffffffffffffffffffffffffffffffffffffffffffffffffffff82141561389d5761389c613623565b5b600182019050919050565b60006138b382612aff565b91506138be83612aff565b9250827fffffffffffffffffffffffffffffffffffffffffffffffffffffffffffffffff038211156138f3576138f2613623565b5b828201905092915050565b7f50524f504f53414c205241495345440000000000000000000000000000000000600082015250565b6000613934600f83613473565b915061393f826138fe565b602082019050919050565b600060608201905061395f6000830185612bef565b818103602083015261397081613927565b905061397f6040830184612b62565b9392505050565b7f50524f504f53414c20564f544500000000000000000000000000000000000000600082015250565b60006139bc600d83613473565b91506139c782613986565b602082019050919050565b60006060820190506139e76000830185612bef565b81810360208301526139f8816139af565b9050613a076040830184612b62565b9392505050565b7f436f6e747269627574696e67207a65726f206973206e6f7420616c6c6f77656460008201527f2e00000000000000000000000000000000000000000000000000000000000000602082015250565b6000613a6a602183613473565b9150613a7582613a0e565b604082019050919050565b60006020820190508181036000830152613a9981613a5d565b9050919050565b7f434f4e545249425554494f4e2052454345495645440000000000000000000000600082015250565b6000613ad6601583613473565b9150613ae182613aa0565b602082019050919050565b6000606082019050613b016000830185612bef565b8181036020830152613b1281613ac9565b9050613b216040830184612b62565b9392505050565b7f5265656e7472616e637947756172643a207265656e7472616e742063616c6c00600082015250565b6000613b5e601f83613473565b9150613b6982613b28565b602082019050919050565b60006020820190508181036000830152613b8d81613b51565b9050919050565b600081905092915050565b50565b6000613baf600083613b94565b9150613bba82613b9f565b600082019050919050565b6000613bd082613ba2565b9150819050919050565b7f5061796d656e74206661696c6564000000000000000000000000000000000000600082015250565b6000613c10600e83613473565b9150613c1b82613bda565b602082019050919050565b60006020820190508181036000830152613c3f81613c03565b9050919050565b7f50726f706f73616c206475726174696f6e206578706972656400000000000000600082015250565b6000613c7c601983613473565b9150613c8782613c46565b602082019050919050565b60006020820190508181036000830152613cab81613c6f565b9050919050565b7f446f75626c6520766f74696e67206e6f7420616c6c6f77656400000000000000600082015250565b6000613ce8601983613473565b9150613cf382613cb2565b602082019050919050565b60006020820190508181036000830152613d1781613cdb565b9050919050565b600081905092915050565b7f416363657373436f6e74726f6c3a206163636f756e7420000000000000000000600082015250565b6000613d5f601783613d1e565b9150613d6a82613d29565b601782019050919050565b6000613d8082612cf2565b613d8a8185613d1e565b9350613d9a818560208601612d0e565b80840191505092915050565b7f206973206d697373696e6720726f6c6520000000000000000000000000000000600082015250565b6000613ddc601183613d1e565b9150613de782613da6565b601182019050919050565b6000613dfd82613d52565b9150613e098285613d75565b9150613e1482613dcf565b9150613e208284613d75565b91508190509392505050565b6000613e3782612aff565b9150613e4283612aff565b9250817fffffffffffffffffffffffffffffffffffffffffffffffffffffffffffffffff0483118215151615613e7b57613e7a613623565b5b828202905092915050565b6000613e9182612aff565b91506000821415613ea557613ea4613623565b5b600182039050919050565b7f537472696e67733a20686578206c656e67746820696e73756666696369656e74600082015250565b6000613ee6602083613473565b9150613ef182613eb0565b602082019050919050565b60006020820190508181036000830152613f1581613ed9565b905091905056fe44656e6965643a2055736572206973206e6f74206120636f6e7472696275746f7250726f706f73616c204372656174696f6e20416c6c6f77656420666f72205374616b65686f6c64657273206f6e6c79a26469706673582212205fb8566cf8c59318d56c398bf6f69e38d2f74d72ee9cfae73313eaaf5097596764736f6c634300080b0033",
  "immutableReferences": {
    "8123": [
      {
        "length": 32,
        "start": 2548
      },
      {
        "length": 32,
        "start": 4558
      },
      {
        "length": 32,
        "start": 7878
      },
      {
        "length": 32,
        "start": 8011
      }
    ],
    "8128": [
      {
        "length": 32,
        "start": 1514
      },
      {
        "length": 32,
        "start": 2171
      },
      {
        "length": 32,
        "start": 3861
      },
      {
        "length": 32,
        "start": 4073
      },
      {
        "length": 32,
        "start": 5469
      },
      {
        "length": 32,
        "start": 5788
      },
      {
        "length": 32,
        "start": 6441
      },
      {
        "length": 32,
        "start": 7518
      },
      {
        "length": 32,
        "start": 7836
      },
      {
        "length": 32,
        "start": 8334
      }
    ],
    "8131": [
      {
        "length": 32,
        "start": 7640
      }
    ],
    "8134": [
      {
        "length": 32,
        "start": 4421
      }
    ]
  },
  "source": "// SPDX-License-Identifier: MIT\npragma solidity ^0.8.7;\n\nimport \"@openzeppelin/contracts/access/AccessControl.sol\";\nimport \"@openzeppelin/contracts/security/ReentrancyGuard.sol\";\n\ncontract DominionDAO is ReentrancyGuard, AccessControl {\n    bytes32 private immutable CONTRIBUTOR_ROLE = keccak256(\"CONTRIBUTOR\");\n    bytes32 private immutable STAKEHOLDER_ROLE = keccak256(\"STAKEHOLDER\");\n    uint256 immutable MIN_STAKEHOLDER_CONTRIBUTION = 1 ether;\n    // uint32 immutable MIN_VOTE_DURATION = 1 weeks;\n    uint32 immutable MIN_VOTE_DURATION = 5 minutes;\n    uint256 totalProposals;\n    uint256 public daoBalance;\n\n    mapping(uint256 => ProposalStruct) private raisedProposals;\n    mapping(address => uint256[]) private stakeholderVotes;\n    mapping(uint256 => VotedStruct[]) private votedOn;\n    mapping(address => uint256) private contributors;\n    mapping(address => uint256) private stakeholders;\n\n    struct ProposalStruct {\n        uint256 id;\n        uint256 amount;\n        uint256 duration;\n        uint256 upvotes;\n        uint256 downvotes;\n        string title;\n        string description;\n        bool passed;\n        bool paid;\n        address payable beneficiary;\n        address proposer;\n        address executor;\n    }\n\n    struct VotedStruct {\n        address voter;\n        uint256 timestamp;\n        bool choosen;\n    }\n\n    event Action(\n        address indexed initiator,\n        bytes32 role,\n        string message,\n        address indexed beneficiary,\n        uint256 amount\n    );\n\n    modifier stakeholderOnly(string memory message) {\n        require(hasRole(STAKEHOLDER_ROLE, msg.sender), message);\n        _;\n    }\n\n    modifier contributorOnly(string memory message) {\n        require(hasRole(CONTRIBUTOR_ROLE, msg.sender), message);\n        _;\n    }\n\n    function createProposal(\n        string calldata title,\n        string calldata description,\n        address beneficiary,\n        uint256 amount\n    )external\n     stakeholderOnly(\"Proposal Creation Allowed for Stakeholders only\")\n     returns (ProposalStruct memory)\n    {\n        uint256 proposalId = totalProposals++;\n        ProposalStruct storage proposal = raisedProposals[proposalId];\n\n        proposal.id = proposalId;\n        proposal.proposer = payable(msg.sender);\n        proposal.title = title;\n        proposal.description = description;\n        proposal.beneficiary = payable(beneficiary);\n        proposal.amount = amount;\n        proposal.duration = block.timestamp + MIN_VOTE_DURATION;\n\n        emit Action(\n            msg.sender,\n            CONTRIBUTOR_ROLE,\n            \"PROPOSAL RAISED\",\n            beneficiary,\n            amount\n        );\n\n        return proposal;\n    }\n\n    function performVote(uint256 proposalId, bool choosen)\n        external\n        stakeholderOnly(\"Unauthorized: Stakeholders only\")\n        returns (VotedStruct memory)\n    {\n        ProposalStruct storage proposal = raisedProposals[proposalId];\n\n        handleVoting(proposal);\n\n        if (choosen) proposal.upvotes++;\n        else proposal.downvotes++;\n\n        stakeholderVotes[msg.sender].push(proposal.id);\n\n        votedOn[proposal.id].push(\n            VotedStruct(\n                msg.sender,\n                block.timestamp,\n                choosen\n            )\n        );\n\n        emit Action(\n            msg.sender,\n            STAKEHOLDER_ROLE,\n            \"PROPOSAL VOTE\",\n            proposal.beneficiary,\n            proposal.amount\n        );\n\n        return VotedStruct(\n                msg.sender,\n                block.timestamp,\n                choosen\n            );\n    }\n\n    function handleVoting(ProposalStruct storage proposal) private {\n        if (\n            proposal.passed ||\n            proposal.duration <= block.timestamp\n        ) {\n            proposal.passed = true;\n            revert(\"Proposal duration expired\");\n        }\n\n        uint256[] memory tempVotes = stakeholderVotes[msg.sender];\n        for (uint256 votes = 0; votes < tempVotes.length; votes++) {\n            if (proposal.id == tempVotes[votes])\n                revert(\"Double voting not allowed\");\n        }\n    }\n\n    function payBeneficiary(uint256 proposalId)\n        external\n        stakeholderOnly(\"Unauthorized: Stakeholders only\")\n        nonReentrant()\n        returns (uint256)\n    {\n        ProposalStruct storage proposal = raisedProposals[proposalId];\n        require(daoBalance >= proposal.amount, \"Insufficient fund\");\n\n        if (proposal.paid) revert(\"Payment sent before\");\n\n        if (proposal.upvotes <= proposal.downvotes)\n            revert(\"Insufficient votes\");\n\n        payTo(proposal.beneficiary, proposal.amount);\n\n        proposal.paid = true;\n        proposal.executor = msg.sender;\n        daoBalance -= proposal.amount;\n\n        emit Action(\n            msg.sender,\n            STAKEHOLDER_ROLE,\n            \"PAYMENT TRANSFERED\",\n            proposal.beneficiary,\n            proposal.amount\n        );\n\n        return daoBalance;\n    }\n\n    function contribute() payable external returns (uint256) {\n        require(msg.value > 0 ether, \"Contributing zero is not allowed.\");\n        if (!hasRole(STAKEHOLDER_ROLE, msg.sender)) {\n            uint256 totalContribution =\n                contributors[msg.sender] + msg.value;\n\n            if (totalContribution >= MIN_STAKEHOLDER_CONTRIBUTION) {\n                stakeholders[msg.sender] = totalContribution;\n                contributors[msg.sender] += msg.value;\n                _setupRole(STAKEHOLDER_ROLE, msg.sender);\n                _setupRole(CONTRIBUTOR_ROLE, msg.sender);\n            } else {\n                contributors[msg.sender] += msg.value;\n                _setupRole(CONTRIBUTOR_ROLE, msg.sender);\n            }\n        } else {\n            contributors[msg.sender] += msg.value;\n            stakeholders[msg.sender] += msg.value;\n        }\n        \n        daoBalance += msg.value;\n\n        emit Action(\n            msg.sender,\n            STAKEHOLDER_ROLE,\n            \"CONTRIBUTION RECEIVED\",\n            address(this),\n            msg.value\n        );\n\n        return daoBalance;\n    }\n\n    function getProposals()\n        external\n        view\n        returns (ProposalStruct[] memory props)\n    {\n        props = new ProposalStruct[](totalProposals);\n\n        for (uint256 i = 0; i < totalProposals; i++) {\n            props[i] = raisedProposals[i];\n        }\n    }\n\n    function getProposal(uint256 proposalId)\n        external\n        view\n        returns (ProposalStruct memory)\n    {\n        return raisedProposals[proposalId];\n    }\n    \n    function getVotesOf(uint256 proposalId)\n        external\n        view\n        returns (VotedStruct[] memory)\n    {\n        return votedOn[proposalId];\n    }\n\n    function getStakeholderVotes()\n        external\n        view\n        stakeholderOnly(\"Unauthorized: not a stakeholder\")\n        returns (uint256[] memory)\n    {\n        return stakeholderVotes[msg.sender];\n    }\n\n    function getStakeholderBalance()\n        external\n        view\n        stakeholderOnly(\"Unauthorized: not a stakeholder\")\n        returns (uint256)\n    {\n        return stakeholders[msg.sender];\n    }\n\n    function isStakeholder() external view returns (bool) {\n        return stakeholders[msg.sender] > 0;\n    }\n\n    function getContributorBalance()\n        external\n        view\n        contributorOnly(\"Denied: User is not a contributor\")\n        returns (uint256)\n    {\n        return contributors[msg.sender];\n    }\n\n    function isContributor() external view returns (bool) {\n        return contributors[msg.sender] > 0;\n    }\n\n    function getBalance() external view returns (uint256) {\n        return contributors[msg.sender];\n    }\n\n    function payTo(\n        address to, \n        uint256 amount\n    ) internal returns (bool) {\n        (bool success,) = payable(to).call{value: amount}(\"\");\n        require(success, \"Payment failed\");\n        return true;\n    }\n}\n\n",
  "sourcePath": "/Users/abdullahmohamed/CodeProjects/ECE1770-QV-DAO-DApp-Project/src/contracts/DominionDao.sol",
  "compiler": {
    "name": "solc",
    "version": "0.8.11+commit.d7f03943.Emscripten.clang"
  },
  "schemaVersion": "3.4.16",
  "updatedAt": "2024-04-13T21:45:52.295Z",
  "devdoc": {
    "kind": "dev",
    "methods": {
      "getRoleAdmin(bytes32)": {
        "details": "Returns the admin role that controls `role`. See {grantRole} and {revokeRole}. To change a role's admin, use {_setRoleAdmin}."
      },
      "grantRole(bytes32,address)": {
        "details": "Grants `role` to `account`. If `account` had not been already granted `role`, emits a {RoleGranted} event. Requirements: - the caller must have ``role``'s admin role. May emit a {RoleGranted} event."
      },
      "hasRole(bytes32,address)": {
        "details": "Returns `true` if `account` has been granted `role`."
      },
      "renounceRole(bytes32,address)": {
        "details": "Revokes `role` from the calling account. Roles are often managed via {grantRole} and {revokeRole}: this function's purpose is to provide a mechanism for accounts to lose their privileges if they are compromised (such as when a trusted device is misplaced). If the calling account had been revoked `role`, emits a {RoleRevoked} event. Requirements: - the caller must be `account`. May emit a {RoleRevoked} event."
      },
      "revokeRole(bytes32,address)": {
        "details": "Revokes `role` from `account`. If `account` had been granted `role`, emits a {RoleRevoked} event. Requirements: - the caller must have ``role``'s admin role. May emit a {RoleRevoked} event."
      },
      "supportsInterface(bytes4)": {
        "details": "See {IERC165-supportsInterface}."
      }
    },
    "version": 1
  },
  "userdoc": {
    "kind": "user",
    "methods": {},
    "version": 1
  }
}