{
  "contractName": "Election",
  "abi": [
    {
      "inputs": [
        {
          "internalType": "contract QuadraNFT",
          "name": "_token",
          "type": "address"
        }
      ],
      "stateMutability": "nonpayable",
      "type": "constructor"
    },
    {
      "anonymous": false,
      "inputs": [
        {
          "indexed": true,
          "internalType": "address",
          "name": "initiator",
          "type": "address"
        },
        {
          "indexed": false,
          "internalType": "string",
          "name": "message",
          "type": "string"
        }
      ],
      "name": "Action",
      "type": "event"
    },
    {
      "anonymous": false,
      "inputs": [
        {
          "indexed": true,
          "internalType": "bytes32",
          "name": "role",
          "type": "bytes32"
        },
        {
          "indexed": true,
          "internalType": "bytes32",
          "name": "previousAdminRole",
          "type": "bytes32"
        },
        {
          "indexed": true,
          "internalType": "bytes32",
          "name": "newAdminRole",
          "type": "bytes32"
        }
      ],
      "name": "RoleAdminChanged",
      "type": "event"
    },
    {
      "anonymous": false,
      "inputs": [
        {
          "indexed": true,
          "internalType": "bytes32",
          "name": "role",
          "type": "bytes32"
        },
        {
          "indexed": true,
          "internalType": "address",
          "name": "account",
          "type": "address"
        },
        {
          "indexed": true,
          "internalType": "address",
          "name": "sender",
          "type": "address"
        }
      ],
      "name": "RoleGranted",
      "type": "event"
    },
    {
      "anonymous": false,
      "inputs": [
        {
          "indexed": true,
          "internalType": "bytes32",
          "name": "role",
          "type": "bytes32"
        },
        {
          "indexed": true,
          "internalType": "address",
          "name": "account",
          "type": "address"
        },
        {
          "indexed": true,
          "internalType": "address",
          "name": "sender",
          "type": "address"
        }
      ],
      "name": "RoleRevoked",
      "type": "event"
    },
    {
      "inputs": [],
      "name": "DEFAULT_ADMIN_ROLE",
      "outputs": [
        {
          "internalType": "bytes32",
          "name": "",
          "type": "bytes32"
        }
      ],
      "stateMutability": "view",
      "type": "function",
      "constant": true
    },
    {
      "inputs": [],
      "name": "daoBalance",
      "outputs": [
        {
          "internalType": "uint256",
          "name": "",
          "type": "uint256"
        }
      ],
      "stateMutability": "view",
      "type": "function",
      "constant": true
    },
    {
      "inputs": [
        {
          "internalType": "bytes32",
          "name": "role",
          "type": "bytes32"
        }
      ],
      "name": "getRoleAdmin",
      "outputs": [
        {
          "internalType": "bytes32",
          "name": "",
          "type": "bytes32"
        }
      ],
      "stateMutability": "view",
      "type": "function",
      "constant": true
    },
    {
      "inputs": [
        {
          "internalType": "bytes32",
          "name": "role",
          "type": "bytes32"
        },
        {
          "internalType": "address",
          "name": "account",
          "type": "address"
        }
      ],
      "name": "grantRole",
      "outputs": [],
      "stateMutability": "nonpayable",
      "type": "function"
    },
    {
      "inputs": [
        {
          "internalType": "bytes32",
          "name": "role",
          "type": "bytes32"
        },
        {
          "internalType": "address",
          "name": "account",
          "type": "address"
        }
      ],
      "name": "hasRole",
      "outputs": [
        {
          "internalType": "bool",
          "name": "",
          "type": "bool"
        }
      ],
      "stateMutability": "view",
      "type": "function",
      "constant": true
    },
    {
      "inputs": [
        {
          "internalType": "bytes32",
          "name": "role",
          "type": "bytes32"
        },
        {
          "internalType": "address",
          "name": "account",
          "type": "address"
        }
      ],
      "name": "renounceRole",
      "outputs": [],
      "stateMutability": "nonpayable",
      "type": "function"
    },
    {
      "inputs": [
        {
          "internalType": "bytes32",
          "name": "role",
          "type": "bytes32"
        },
        {
          "internalType": "address",
          "name": "account",
          "type": "address"
        }
      ],
      "name": "revokeRole",
      "outputs": [],
      "stateMutability": "nonpayable",
      "type": "function"
    },
    {
      "inputs": [
        {
          "internalType": "bytes4",
          "name": "interfaceId",
          "type": "bytes4"
        }
      ],
      "name": "supportsInterface",
      "outputs": [
        {
          "internalType": "bool",
          "name": "",
          "type": "bool"
        }
      ],
      "stateMutability": "view",
      "type": "function",
      "constant": true
    },
    {
      "inputs": [],
      "name": "token",
      "outputs": [
        {
          "internalType": "contract QuadraNFT",
          "name": "",
          "type": "address"
        }
      ],
      "stateMutability": "view",
      "type": "function",
      "constant": true
    },
    {
      "inputs": [
        {
          "internalType": "string",
          "name": "username",
          "type": "string"
        }
      ],
      "name": "addVoter",
      "outputs": [],
      "stateMutability": "nonpayable",
      "type": "function"
    },
    {
      "inputs": [
        {
          "internalType": "address",
          "name": "account",
          "type": "address"
        }
      ],
      "name": "grantAdminRole",
      "outputs": [],
      "stateMutability": "nonpayable",
      "type": "function"
    },
    {
      "inputs": [
        {
          "internalType": "address",
          "name": "account",
          "type": "address"
        }
      ],
      "name": "getVoter",
      "outputs": [
        {
          "components": [
            {
              "internalType": "string",
              "name": "username",
              "type": "string"
            },
            {
              "internalType": "enum Election.VoterStatus",
              "name": "status",
              "type": "uint8"
            },
            {
              "internalType": "uint256",
              "name": "depositedAmount",
              "type": "uint256"
            },
            {
              "internalType": "address",
              "name": "voterAddress",
              "type": "address"
            }
          ],
          "internalType": "struct Election.Voter",
          "name": "voter",
          "type": "tuple"
        },
        {
          "internalType": "bool",
          "name": "isAdmin",
          "type": "bool"
        }
      ],
      "stateMutability": "view",
      "type": "function",
      "constant": true
    },
    {
      "inputs": [],
      "name": "getVoters",
      "outputs": [
        {
          "components": [
            {
              "internalType": "string",
              "name": "username",
              "type": "string"
            },
            {
              "internalType": "enum Election.VoterStatus",
              "name": "status",
              "type": "uint8"
            },
            {
              "internalType": "uint256",
              "name": "depositedAmount",
              "type": "uint256"
            },
            {
              "internalType": "address",
              "name": "voterAddress",
              "type": "address"
            }
          ],
          "internalType": "struct Election.Voter[]",
          "name": "",
          "type": "tuple[]"
        },
        {
          "internalType": "bool[]",
          "name": "",
          "type": "bool[]"
        }
      ],
      "stateMutability": "view",
      "type": "function",
      "constant": true
    },
    {
      "inputs": [],
      "name": "applyNFT",
      "outputs": [],
      "stateMutability": "nonpayable",
      "type": "function"
    },
    {
      "inputs": [
        {
          "internalType": "address",
          "name": "to",
          "type": "address"
        }
      ],
      "name": "mintNFT",
      "outputs": [],
      "stateMutability": "nonpayable",
      "type": "function"
    },
    {
      "inputs": [],
      "name": "getNFTAddress",
      "outputs": [
        {
          "internalType": "address",
          "name": "",
          "type": "address"
        }
      ],
      "stateMutability": "view",
      "type": "function",
      "constant": true
    },
    {
      "inputs": [
        {
          "internalType": "address",
          "name": "_voter",
          "type": "address"
        }
      ],
      "name": "isStakeholder",
      "outputs": [
        {
          "internalType": "bool",
          "name": "",
          "type": "bool"
        }
      ],
      "stateMutability": "view",
      "type": "function",
      "constant": true
    },
    {
      "inputs": [],
      "name": "contribute",
      "outputs": [
        {
          "internalType": "uint256",
          "name": "",
          "type": "uint256"
        }
      ],
      "stateMutability": "payable",
      "type": "function",
      "payable": true
    },
    {
      "inputs": [
        {
          "internalType": "uint256",
          "name": "voted",
          "type": "uint256"
        },
        {
          "internalType": "uint256",
          "name": "new_votes",
          "type": "uint256"
        }
      ],
      "name": "quadraticVote",
      "outputs": [
        {
          "internalType": "uint256",
          "name": "",
          "type": "uint256"
        }
      ],
      "stateMutability": "pure",
      "type": "function",
      "constant": true
    },
    {
      "inputs": [
        {
          "internalType": "string",
          "name": "title",
          "type": "string"
        },
        {
          "internalType": "string",
          "name": "description",
          "type": "string"
        },
        {
          "internalType": "string[]",
          "name": "_candidateNames",
          "type": "string[]"
        }
      ],
      "name": "createProposal",
      "outputs": [
        {
          "components": [
            {
              "internalType": "uint256",
              "name": "id",
              "type": "uint256"
            },
            {
              "internalType": "uint256",
              "name": "duration",
              "type": "uint256"
            },
            {
              "internalType": "string",
              "name": "title",
              "type": "string"
            },
            {
              "internalType": "string",
              "name": "description",
              "type": "string"
            },
            {
              "internalType": "bool",
              "name": "ended",
              "type": "bool"
            },
            {
              "internalType": "address",
              "name": "proposer",
              "type": "address"
            },
            {
              "internalType": "address",
              "name": "executor",
              "type": "address"
            },
            {
              "components": [
                {
                  "internalType": "uint256",
                  "name": "id",
                  "type": "uint256"
                },
                {
                  "internalType": "string",
                  "name": "name",
                  "type": "string"
                },
                {
                  "internalType": "uint256",
                  "name": "votes",
                  "type": "uint256"
                }
              ],
              "internalType": "struct Election.Candidate[]",
              "name": "candidates",
              "type": "tuple[]"
            }
          ],
          "internalType": "struct Election.Proposal",
          "name": "",
          "type": "tuple"
        }
      ],
      "stateMutability": "nonpayable",
      "type": "function"
    },
    {
      "inputs": [],
      "name": "getProposals",
      "outputs": [
        {
          "components": [
            {
              "internalType": "uint256",
              "name": "id",
              "type": "uint256"
            },
            {
              "internalType": "uint256",
              "name": "duration",
              "type": "uint256"
            },
            {
              "internalType": "string",
              "name": "title",
              "type": "string"
            },
            {
              "internalType": "string",
              "name": "description",
              "type": "string"
            },
            {
              "internalType": "bool",
              "name": "ended",
              "type": "bool"
            },
            {
              "internalType": "address",
              "name": "proposer",
              "type": "address"
            },
            {
              "internalType": "address",
              "name": "executor",
              "type": "address"
            },
            {
              "components": [
                {
                  "internalType": "uint256",
                  "name": "id",
                  "type": "uint256"
                },
                {
                  "internalType": "string",
                  "name": "name",
                  "type": "string"
                },
                {
                  "internalType": "uint256",
                  "name": "votes",
                  "type": "uint256"
                }
              ],
              "internalType": "struct Election.Candidate[]",
              "name": "candidates",
              "type": "tuple[]"
            }
          ],
          "internalType": "struct Election.Proposal[]",
          "name": "props",
          "type": "tuple[]"
        }
      ],
      "stateMutability": "view",
      "type": "function",
      "constant": true
    },
    {
      "inputs": [
        {
          "internalType": "uint256",
          "name": "proposalId",
          "type": "uint256"
        }
      ],
      "name": "getProposal",
      "outputs": [
        {
          "components": [
            {
              "internalType": "uint256",
              "name": "id",
              "type": "uint256"
            },
            {
              "internalType": "uint256",
              "name": "duration",
              "type": "uint256"
            },
            {
              "internalType": "string",
              "name": "title",
              "type": "string"
            },
            {
              "internalType": "string",
              "name": "description",
              "type": "string"
            },
            {
              "internalType": "bool",
              "name": "ended",
              "type": "bool"
            },
            {
              "internalType": "address",
              "name": "proposer",
              "type": "address"
            },
            {
              "internalType": "address",
              "name": "executor",
              "type": "address"
            },
            {
              "components": [
                {
                  "internalType": "uint256",
                  "name": "id",
                  "type": "uint256"
                },
                {
                  "internalType": "string",
                  "name": "name",
                  "type": "string"
                },
                {
                  "internalType": "uint256",
                  "name": "votes",
                  "type": "uint256"
                }
              ],
              "internalType": "struct Election.Candidate[]",
              "name": "candidates",
              "type": "tuple[]"
            }
          ],
          "internalType": "struct Election.Proposal",
          "name": "",
          "type": "tuple"
        }
      ],
      "stateMutability": "view",
      "type": "function",
      "constant": true
    },
    {
      "inputs": [
        {
          "internalType": "uint256",
          "name": "proposalId",
          "type": "uint256"
        }
      ],
      "name": "getCandidates",
      "outputs": [
        {
          "components": [
            {
              "internalType": "uint256",
              "name": "id",
              "type": "uint256"
            },
            {
              "internalType": "string",
              "name": "name",
              "type": "string"
            },
            {
              "internalType": "uint256",
              "name": "votes",
              "type": "uint256"
            }
          ],
          "internalType": "struct Election.Candidate[]",
          "name": "",
          "type": "tuple[]"
        }
      ],
      "stateMutability": "view",
      "type": "function",
      "constant": true
    },
    {
      "inputs": [
        {
          "internalType": "uint256",
          "name": "proposalId",
          "type": "uint256"
        }
      ],
      "name": "getTokensLeftForProposal",
      "outputs": [
        {
          "internalType": "uint256",
          "name": "",
          "type": "uint256"
        }
      ],
      "stateMutability": "view",
      "type": "function",
      "constant": true
    },
    {
      "inputs": [
        {
          "internalType": "uint256",
          "name": "proposalId",
          "type": "uint256"
        },
        {
          "internalType": "uint256",
          "name": "candidateId",
          "type": "uint256"
        },
        {
          "internalType": "uint256",
          "name": "numVotes",
          "type": "uint256"
        }
      ],
      "name": "voteForCandidate",
      "outputs": [
        {
          "components": [
            {
              "internalType": "uint256",
              "name": "id",
              "type": "uint256"
            },
            {
              "internalType": "string",
              "name": "name",
              "type": "string"
            },
            {
              "internalType": "uint256",
              "name": "votes",
              "type": "uint256"
            }
          ],
          "internalType": "struct Election.Candidate",
          "name": "",
          "type": "tuple"
        }
      ],
      "stateMutability": "nonpayable",
      "type": "function"
    },
    {
      "inputs": [
        {
          "internalType": "uint256",
          "name": "proposalId",
          "type": "uint256"
        }
      ],
      "name": "getVotesOfProposal",
      "outputs": [
        {
          "components": [
            {
              "internalType": "address",
              "name": "voter",
              "type": "address"
            },
            {
              "internalType": "uint256",
              "name": "candidateId",
              "type": "uint256"
            },
            {
              "internalType": "uint256",
              "name": "timestamp",
              "type": "uint256"
            },
            {
              "internalType": "uint256",
              "name": "numVotes",
              "type": "uint256"
            }
          ],
          "internalType": "struct Election.Vote[]",
          "name": "",
          "type": "tuple[]"
        }
      ],
      "stateMutability": "view",
      "type": "function",
      "constant": true
    }
  ],
  "bytecode": "0x6101006040527fa49807205ce4d355092ef5a8a18f56e8913cf4a201fbe287825b095693c217756080908152507fa0bb1af1c90aa52ed052b92714ff0087008cc720049bf1af77cca2600b31e80c60a09081525061012c63ffffffff1660c09063ffffffff16815250600a60e09081525060006003553480156200008257600080fd5b5060405162005410380380620054108339818101604052810190620000a891906200055a565b600160008190555080600460006101000a81548173ffffffffffffffffffffffffffffffffffffffff021916908373ffffffffffffffffffffffffffffffffffffffff16021790555062000105608051336200015760201b60201c565b62000150336040518060400160405280600581526020017f41646d696e000000000000000000000000000000000000000000000000000000815250600260006200024860201b60201c565b50620006a7565b620001698282620003b960201b60201c565b6200024457600180600084815260200190815260200160002060000160008373ffffffffffffffffffffffffffffffffffffffff1673ffffffffffffffffffffffffffffffffffffffff16815260200190815260200160002060006101000a81548160ff021916908315150217905550620001e96200042460201b60201c565b73ffffffffffffffffffffffffffffffffffffffff168173ffffffffffffffffffffffffffffffffffffffff16837f2f8788117e7eff1d82e926ec794901d17c78024a50270940304540a733656f0d60405160405180910390a45b5050565b600360008154809291906200025d90620005c5565b91905055506000600354905080600a60008773ffffffffffffffffffffffffffffffffffffffff1673ffffffffffffffffffffffffffffffffffffffff168152602001908152602001600020819055506040518060800160405280858152602001846002811115620002d457620002d362000613565b5b81526020018381526020018673ffffffffffffffffffffffffffffffffffffffff168152506009600083815260200190815260200160002060008201518160000190805190602001906200032a9291906200042c565b5060208201518160010160006101000a81548160ff0219169083600281111562000359576200035862000613565b5b02179055506040820151816002015560608201518160030160006101000a81548173ffffffffffffffffffffffffffffffffffffffff021916908373ffffffffffffffffffffffffffffffffffffffff1602179055509050505050505050565b60006001600084815260200190815260200160002060000160008373ffffffffffffffffffffffffffffffffffffffff1673ffffffffffffffffffffffffffffffffffffffff16815260200190815260200160002060009054906101000a900460ff16905092915050565b600033905090565b8280546200043a9062000671565b90600052602060002090601f0160209004810192826200045e5760008555620004aa565b82601f106200047957805160ff1916838001178555620004aa565b82800160010185558215620004aa579182015b82811115620004a95782518255916020019190600101906200048c565b5b509050620004b99190620004bd565b5090565b5b80821115620004d8576000816000905550600101620004be565b5090565b600080fd5b600073ffffffffffffffffffffffffffffffffffffffff82169050919050565b60006200050e82620004e1565b9050919050565b6000620005228262000501565b9050919050565b620005348162000515565b81146200054057600080fd5b50565b600081519050620005548162000529565b92915050565b600060208284031215620005735762000572620004dc565b5b6000620005838482850162000543565b91505092915050565b7f4e487b7100000000000000000000000000000000000000000000000000000000600052601160045260246000fd5b6000819050919050565b6000620005d282620005bb565b91507fffffffffffffffffffffffffffffffffffffffffffffffffffffffffffffffff8214156200060857620006076200058c565b5b600182019050919050565b7f4e487b7100000000000000000000000000000000000000000000000000000000600052602160045260246000fd5b7f4e487b7100000000000000000000000000000000000000000000000000000000600052602260045260246000fd5b600060028204905060018216806200068a57607f821691505b60208210811415620006a157620006a062000642565b5b50919050565b60805160a05160c05160e051614cf76200071960003960008181610dab0152611c9d015260006110bf0152600081816126ba01526126e8015260008181610b3001528181610fa30152818161151901528181611cff01528181611d2c015281816122bd015261258b0152614cf76000f3fe6080604052600436106101815760003560e01c8063a217fddf116100d1578063c7f758a81161008a578063d547741f11610064578063d547741f146105e2578063d7bb99ba1461060b578063ef037b9014610629578063fc0c546a1461066657610181565b8063c7f758a81461053b578063cdd7225314610578578063d4f50f98146105a457610181565b8063a217fddf1461042b578063aca8489214610456578063b32f14861461047f578063b9618478146104bc578063bd972816146104e7578063c634b78e1461051257610181565b80633e39a7a51161013e57806354ba0f271161011857806354ba0f271461035d57806362564c4814610386578063829a0ade146103b157806391d14854146103ee57610181565b80633e39a7a5146102a6578063417d14cb146102e35780634724c40c1461032057610181565b806301ffc9a714610186578063075bb589146101c3578063248a9ca3146102005780632f2ff15d1461023d57806336568abe146102665780633a6a137b1461028f575b600080fd5b34801561019257600080fd5b506101ad60048036038101906101a89190613151565b610691565b6040516101ba9190613199565b60405180910390f35b3480156101cf57600080fd5b506101ea60048036038101906101e591906131ea565b61070b565b6040516101f7919061336b565b60405180910390f35b34801561020c57600080fd5b50610227600480360381019061022291906133c3565b6107f1565b60405161023491906133ff565b60405180910390f35b34801561024957600080fd5b50610264600480360381019061025f9190613446565b610811565b005b34801561027257600080fd5b5061028d60048036038101906102889190613446565b610832565b005b34801561029b57600080fd5b506102a46108b5565b005b3480156102b257600080fd5b506102cd60048036038101906102c891906131ea565b610a08565b6040516102da9190613631565b60405180910390f35b3480156102ef57600080fd5b5061030a60048036038101906103059190613653565b610b23565b60405161031791906136f6565b60405180910390f35b34801561032c57600080fd5b506103476004803603810190610342919061398e565b610f96565b6040516103549190613b92565b60405180910390f35b34801561036957600080fd5b50610384600480360381019061037f9190613bb4565b611517565b005b34801561039257600080fd5b5061039b611723565b6040516103a89190613d61565b60405180910390f35b3480156103bd57600080fd5b506103d860048036038101906103d39190613d83565b611ae2565b6040516103e59190613dd2565b60405180910390f35b3480156103fa57600080fd5b5061041560048036038101906104109190613446565b611b44565b6040516104229190613199565b60405180910390f35b34801561043757600080fd5b50610440611baf565b60405161044d91906133ff565b60405180910390f35b34801561046257600080fd5b5061047d60048036038101906104789190613ded565b611bb6565b005b34801561048b57600080fd5b506104a660048036038101906104a191906131ea565b611c48565b6040516104b39190613dd2565b60405180910390f35b3480156104c857600080fd5b506104d1611ccd565b6040516104de9190613e45565b60405180910390f35b3480156104f357600080fd5b506104fc611cf7565b6040516105099190613dd2565b60405180910390f35b34801561051e57600080fd5b5061053960048036038101906105349190613bb4565b611cfd565b005b34801561054757600080fd5b50610562600480360381019061055d91906131ea565b611d55565b60405161056f9190613b92565b60405180910390f35b34801561058457600080fd5b5061058d612087565b60405161059b9291906140ab565b60405180910390f35b3480156105b057600080fd5b506105cb60048036038101906105c69190613bb4565b6123a9565b6040516105d9929190614145565b60405180910390f35b3480156105ee57600080fd5b5061060960048036038101906106049190613446565b6125c9565b005b6106136125ea565b6040516106209190613dd2565b60405180910390f35b34801561063557600080fd5b50610650600480360381019061064b9190613bb4565b61275d565b60405161065d9190613199565b60405180910390f35b34801561067257600080fd5b5061067b612815565b60405161068891906141d4565b60405180910390f35b60007f7965db0b000000000000000000000000000000000000000000000000000000007bffffffffffffffffffffffffffffffffffffffffffffffffffffffff1916827bffffffffffffffffffffffffffffffffffffffffffffffffffffffff1916148061070457506107038261283b565b5b9050919050565b6060600b6000838152602001908152602001600020805480602002602001604051908101604052809291908181526020016000905b828210156107e657838290600052602060002090600402016040518060800160405290816000820160009054906101000a900473ffffffffffffffffffffffffffffffffffffffff1673ffffffffffffffffffffffffffffffffffffffff1673ffffffffffffffffffffffffffffffffffffffff168152602001600182015481526020016002820154815260200160038201548152505081526020019060010190610740565b505050509050919050565b600060016000838152602001908152602001600020600101549050919050565b61081a826107f1565b610823816128a5565b61082d83836128b9565b505050565b61083a612999565b73ffffffffffffffffffffffffffffffffffffffff168173ffffffffffffffffffffffffffffffffffffffff16146108a7576040517f08c379a000000000000000000000000000000000000000000000000000000000815260040161089e90614272565b60405180910390fd5b6108b182826129a1565b5050565b6000600a60003373ffffffffffffffffffffffffffffffffffffffff1673ffffffffffffffffffffffffffffffffffffffff1681526020019081526020016000205490506000811161093c576040517f08c379a0000000000000000000000000000000000000000000000000000000008152600401610933906142de565b60405180910390fd5b600060028111156109505761094f613e8c565b5b6009600083815260200190815260200160002060010160009054906101000a900460ff16600281111561098657610985613e8c565b5b146109c6576040517f08c379a00000000000000000000000000000000000000000000000000000000081526004016109bd90614370565b60405180910390fd5b60016009600083815260200190815260200160002060010160006101000a81548160ff02191690836002811115610a00576109ff613e8c565b5b021790555050565b606060066000838152602001908152602001600020600601805480602002602001604051908101604052809291908181526020016000905b82821015610b18578382906000526020600020906003020160405180606001604052908160008201548152602001600182018054610a7d906143bf565b80601f0160208091040260200160405190810160405280929190818152602001828054610aa9906143bf565b8015610af65780601f10610acb57610100808354040283529160200191610af6565b820191906000526020600020905b815481529060010190602001808311610ad957829003601f168201915b5050505050815260200160028201548152505081526020019060010190610a40565b505050509050919050565b610b2b612ed8565b610b557f000000000000000000000000000000000000000000000000000000000000000033611b44565b80610b655750610b643361275d565b5b610ba4576040517f08c379a0000000000000000000000000000000000000000000000000000000008152600401610b9b90614463565b60405180910390fd5b6000600660008681526020019081526020016000209050600081600601805480602002602001604051908101604052809291908181526020016000905b82821015610cb9578382906000526020600020906003020160405180606001604052908160008201548152602001600182018054610c1e906143bf565b80601f0160208091040260200160405190810160405280929190818152602001828054610c4a906143bf565b8015610c975780601f10610c6c57610100808354040283529160200191610c97565b820191906000526020600020905b815481529060010190602001808311610c7a57829003601f168201915b5050505050815260200160028201548152505081526020019060010190610be1565b5050505090508160040160009054906101000a900460ff1680610ce0575042826001015411155b15610d3d5760018260040160006101000a81548160ff0219169083151502179055506040517f08c379a0000000000000000000000000000000000000000000000000000000008152600401610d34906144cf565b60405180910390fd5b6000600185610d4c919061451e565b600860003373ffffffffffffffffffffffffffffffffffffffff1673ffffffffffffffffffffffffffffffffffffffff168152602001908152602001600020600089815260200190815260200160002054610da79190614578565b90507f00000000000000000000000000000000000000000000000000000000000000008110610e0b576040517f08c379a0000000000000000000000000000000000000000000000000000000008152600401610e029061461a565b60405180910390fd5b84836006018781548110610e2257610e2161463a565b5b90600052602060002090600302016002016000828254610e429190614578565b92505081905550600b600088815260200190815260200160002060405180608001604052803373ffffffffffffffffffffffffffffffffffffffff16815260200188815260200142815260200187815250908060018154018082558091505060019003906000526020600020906004020160009091909190915060008201518160000160006101000a81548173ffffffffffffffffffffffffffffffffffffffff021916908373ffffffffffffffffffffffffffffffffffffffff16021790555060208201518160010155604082015181600201556060820151816003015550503373ffffffffffffffffffffffffffffffffffffffff167fa6f6fe9139f021af0f5a3b1c2eca6a1c371d77c4c99fdf2be0a2fdbd215baa8d604051610f67906146b5565b60405180910390a2818681518110610f8257610f8161463a565b5b602002602001015193505050509392505050565b610f9e612ef9565b610fc87f000000000000000000000000000000000000000000000000000000000000000033611b44565b80610fd85750610fd73361275d565b5b611017576040517f08c379a000000000000000000000000000000000000000000000000000000000815260040161100e90614747565b60405180910390fd5b60006002600081548092919061102c90614767565b91905055905060006006600083815260200190815260200160002090508181600001819055508787826002019190611065929190612f6c565b508585826003019190611079929190612f6c565b50338160040160016101000a81548173ffffffffffffffffffffffffffffffffffffffff021916908373ffffffffffffffffffffffffffffffffffffffff1602179055507f000000000000000000000000000000000000000000000000000000000000000063ffffffff16426110ef9190614578565b816001018190555060005b84518110156111ac5781600601604051806060016040528083815260200187848151811061112b5761112a61463a565b5b602002602001015181526020016000815250908060018154018082558091505060019003906000526020600020906003020160009091909190915060008201518160000155602082015181600101908051906020019061118c929190612ff2565b5060408201518160020155505080806111a490614767565b9150506110fa565b503373ffffffffffffffffffffffffffffffffffffffff167fa6f6fe9139f021af0f5a3b1c2eca6a1c371d77c4c99fdf2be0a2fdbd215baa8d6040516111f1906147fc565b60405180910390a28060405180610100016040529081600082015481526020016001820154815260200160028201805461122a906143bf565b80601f0160208091040260200160405190810160405280929190818152602001828054611256906143bf565b80156112a35780601f10611278576101008083540402835291602001916112a3565b820191906000526020600020905b81548152906001019060200180831161128657829003601f168201915b505050505081526020016003820180546112bc906143bf565b80601f01602080910402602001604051908101604052809291908181526020018280546112e8906143bf565b80156113355780601f1061130a57610100808354040283529160200191611335565b820191906000526020600020905b81548152906001019060200180831161131857829003601f168201915b505050505081526020016004820160009054906101000a900460ff161515151581526020016004820160019054906101000a900473ffffffffffffffffffffffffffffffffffffffff1673ffffffffffffffffffffffffffffffffffffffff1673ffffffffffffffffffffffffffffffffffffffff1681526020016005820160009054906101000a900473ffffffffffffffffffffffffffffffffffffffff1673ffffffffffffffffffffffffffffffffffffffff1673ffffffffffffffffffffffffffffffffffffffff16815260200160068201805480602002602001604051908101604052809291908181526020016000905b82821015611502578382906000526020600020906003020160405180606001604052908160008201548152602001600182018054611467906143bf565b80601f0160208091040260200160405190810160405280929190818152602001828054611493906143bf565b80156114e05780601f106114b5576101008083540402835291602001916114e0565b820191906000526020600020905b8154815290600101906020018083116114c357829003601f168201915b505050505081526020016002820154815250508152602001906001019061142a565b50505050815250509250505095945050505050565b7f0000000000000000000000000000000000000000000000000000000000000000611541816128a5565b6000600a60008473ffffffffffffffffffffffffffffffffffffffff1673ffffffffffffffffffffffffffffffffffffffff168152602001908152602001600020549050600081116115c8576040517f08c379a00000000000000000000000000000000000000000000000000000000081526004016115bf906142de565b60405180910390fd5b6002808111156115db576115da613e8c565b5b6009600083815260200190815260200160002060010160009054906101000a900460ff16600281111561161157611610613e8c565b5b1415611652576040517f08c379a000000000000000000000000000000000000000000000000000000000815260040161164990614868565b60405180910390fd5b600460009054906101000a900473ffffffffffffffffffffffffffffffffffffffff1673ffffffffffffffffffffffffffffffffffffffff1663d204c45e846040518263ffffffff1660e01b81526004016116ad9190614920565b600060405180830381600087803b1580156116c757600080fd5b505af11580156116db573d6000803e3d6000fd5b5050505060026009600083815260200190815260200160002060010160006101000a81548160ff0219169083600281111561171957611718613e8c565b5b0217905550505050565b606060025467ffffffffffffffff8111156117415761174061377d565b5b60405190808252806020026020018201604052801561177a57816020015b611767612ef9565b81526020019060019003908161175f5790505b50905060005b600254811015611ade57600660008281526020019081526020016000206040518061010001604052908160008201548152602001600182015481526020016002820180546117cd906143bf565b80601f01602080910402602001604051908101604052809291908181526020018280546117f9906143bf565b80156118465780601f1061181b57610100808354040283529160200191611846565b820191906000526020600020905b81548152906001019060200180831161182957829003601f168201915b5050505050815260200160038201805461185f906143bf565b80601f016020809104026020016040519081016040528092919081815260200182805461188b906143bf565b80156118d85780601f106118ad576101008083540402835291602001916118d8565b820191906000526020600020905b8154815290600101906020018083116118bb57829003601f168201915b505050505081526020016004820160009054906101000a900460ff161515151581526020016004820160019054906101000a900473ffffffffffffffffffffffffffffffffffffffff1673ffffffffffffffffffffffffffffffffffffffff1673ffffffffffffffffffffffffffffffffffffffff1681526020016005820160009054906101000a900473ffffffffffffffffffffffffffffffffffffffff1673ffffffffffffffffffffffffffffffffffffffff1673ffffffffffffffffffffffffffffffffffffffff16815260200160068201805480602002602001604051908101604052809291908181526020016000905b82821015611aa5578382906000526020600020906003020160405180606001604052908160008201548152602001600182018054611a0a906143bf565b80601f0160208091040260200160405190810160405280929190818152602001828054611a36906143bf565b8015611a835780601f10611a5857610100808354040283529160200191611a83565b820191906000526020600020905b815481529060010190602001808311611a6657829003601f168201915b50505050508152602001600282015481525050815260200190600101906119cd565b5050505081525050828281518110611ac057611abf61463a565b5b60200260200101819052508080611ad690614767565b915050611780565b5090565b600080600090506000600190505b838111611b39578085611b039190614578565b8186611b0f9190614578565b611b19919061451e565b82611b249190614578565b91508080611b3190614767565b915050611af0565b508091505092915050565b60006001600084815260200190815260200160002060000160008373ffffffffffffffffffffffffffffffffffffffff1673ffffffffffffffffffffffffffffffffffffffff16815260200190815260200160002060009054906101000a900460ff16905092915050565b6000801b81565b6000600a60003373ffffffffffffffffffffffffffffffffffffffff1673ffffffffffffffffffffffffffffffffffffffff1681526020019081526020016000205414611c38576040517f08c379a0000000000000000000000000000000000000000000000000000000008152600401611c2f9061499a565b60405180910390fd5b611c453382600080612a83565b50565b6000600860003373ffffffffffffffffffffffffffffffffffffffff1673ffffffffffffffffffffffffffffffffffffffff1681526020019081526020016000206000838152602001908152602001600020547f0000000000000000000000000000000000000000000000000000000000000000611cc691906149ba565b9050919050565b6000600460009054906101000a900473ffffffffffffffffffffffffffffffffffffffff16905090565b60055481565b7f0000000000000000000000000000000000000000000000000000000000000000611d27816128a5565b611d517f0000000000000000000000000000000000000000000000000000000000000000836128b9565b5050565b611d5d612ef9565b60066000838152602001908152602001600020604051806101000160405290816000820154815260200160018201548152602001600282018054611da0906143bf565b80601f0160208091040260200160405190810160405280929190818152602001828054611dcc906143bf565b8015611e195780601f10611dee57610100808354040283529160200191611e19565b820191906000526020600020905b815481529060010190602001808311611dfc57829003601f168201915b50505050508152602001600382018054611e32906143bf565b80601f0160208091040260200160405190810160405280929190818152602001828054611e5e906143bf565b8015611eab5780601f10611e8057610100808354040283529160200191611eab565b820191906000526020600020905b815481529060010190602001808311611e8e57829003601f168201915b505050505081526020016004820160009054906101000a900460ff161515151581526020016004820160019054906101000a900473ffffffffffffffffffffffffffffffffffffffff1673ffffffffffffffffffffffffffffffffffffffff1673ffffffffffffffffffffffffffffffffffffffff1681526020016005820160009054906101000a900473ffffffffffffffffffffffffffffffffffffffff1673ffffffffffffffffffffffffffffffffffffffff1673ffffffffffffffffffffffffffffffffffffffff16815260200160068201805480602002602001604051908101604052809291908181526020016000905b82821015612078578382906000526020600020906003020160405180606001604052908160008201548152602001600182018054611fdd906143bf565b80601f0160208091040260200160405190810160405280929190818152602001828054612009906143bf565b80156120565780601f1061202b57610100808354040283529160200191612056565b820191906000526020600020905b81548152906001019060200180831161203957829003601f168201915b5050505050815260200160028201548152505081526020019060010190611fa0565b50505050815250509050919050565b606080600060035467ffffffffffffffff8111156120a8576120a761377d565b5b6040519080825280602002602001820160405280156120e157816020015b6120ce613078565b8152602001906001900390816120c65790505b509050600060035467ffffffffffffffff8111156121025761210161377d565b5b6040519080825280602002602001820160405280156121305781602001602082028036833780820191505090505b5090506000600190505b600354811161239c5760096000828152602001908152602001600020604051806080016040529081600082018054612171906143bf565b80601f016020809104026020016040519081016040528092919081815260200182805461219d906143bf565b80156121ea5780601f106121bf576101008083540402835291602001916121ea565b820191906000526020600020905b8154815290600101906020018083116121cd57829003601f168201915b505050505081526020016001820160009054906101000a900460ff16600281111561221857612217613e8c565b5b600281111561222a57612229613e8c565b5b8152602001600282015481526020016003820160009054906101000a900473ffffffffffffffffffffffffffffffffffffffff1673ffffffffffffffffffffffffffffffffffffffff1673ffffffffffffffffffffffffffffffffffffffff16815250508360018361229c91906149ba565b815181106122ad576122ac61463a565b5b60200260200101819052506123187f00000000000000000000000000000000000000000000000000000000000000006009600084815260200190815260200160002060030160009054906101000a900473ffffffffffffffffffffffffffffffffffffffff16611b44565b156123555760018260018361232d91906149ba565b8151811061233e5761233d61463a565b5b602002602001019015159081151581525050612389565b60008260018361236591906149ba565b815181106123765761237561463a565b5b6020026020010190151590811515815250505b808061239490614767565b91505061213a565b5081819350935050509091565b6123b1613078565b600080600a60008573ffffffffffffffffffffffffffffffffffffffff1673ffffffffffffffffffffffffffffffffffffffff16815260200190815260200160002054905060008111612439576040517f08c379a0000000000000000000000000000000000000000000000000000000008152600401612430906142de565b60405180910390fd5b60096000828152602001908152602001600020604051806080016040529081600082018054612467906143bf565b80601f0160208091040260200160405190810160405280929190818152602001828054612493906143bf565b80156124e05780601f106124b5576101008083540402835291602001916124e0565b820191906000526020600020905b8154815290600101906020018083116124c357829003601f168201915b505050505081526020016001820160009054906101000a900460ff16600281111561250e5761250d613e8c565b5b60028111156125205761251f613e8c565b5b8152602001600282015481526020016003820160009054906101000a900473ffffffffffffffffffffffffffffffffffffffff1673ffffffffffffffffffffffffffffffffffffffff1673ffffffffffffffffffffffffffffffffffffffff168152505092506125b07f000000000000000000000000000000000000000000000000000000000000000085611b44565b156125be57600191506125c3565b600091505b50915091565b6125d2826107f1565b6125db816128a5565b6125e583836129a1565b505050565b600080600a60003373ffffffffffffffffffffffffffffffffffffffff1673ffffffffffffffffffffffffffffffffffffffff16815260200190815260200160002054905060008111612672576040517f08c379a0000000000000000000000000000000000000000000000000000000008152600401612669906142de565b60405180910390fd5b600034116126b5576040517f08c379a00000000000000000000000000000000000000000000000000000000081526004016126ac90614a60565b60405180910390fd5b6126df7f000000000000000000000000000000000000000000000000000000000000000033611b44565b61270e5761270d7f0000000000000000000000000000000000000000000000000000000000000000336128b9565b5b346009600083815260200190815260200160002060020160008282546127349190614578565b92505081905550346005600082825461274d9190614578565b9250508190555060055491505090565b600080600460009054906101000a900473ffffffffffffffffffffffffffffffffffffffff1673ffffffffffffffffffffffffffffffffffffffff166370a08231846040518263ffffffff1660e01b81526004016127bb9190613e45565b602060405180830381865afa1580156127d8573d6000803e3d6000fd5b505050506040513d601f19601f820116820180604052508101906127fc9190614a95565b111561280b5760019050612810565b600090505b919050565b600460009054906101000a900473ffffffffffffffffffffffffffffffffffffffff1681565b60007f01ffc9a7000000000000000000000000000000000000000000000000000000007bffffffffffffffffffffffffffffffffffffffffffffffffffffffff1916827bffffffffffffffffffffffffffffffffffffffffffffffffffffffff1916149050919050565b6128b6816128b1612999565b612bea565b50565b6128c38282611b44565b61299557600180600084815260200190815260200160002060000160008373ffffffffffffffffffffffffffffffffffffffff1673ffffffffffffffffffffffffffffffffffffffff16815260200190815260200160002060006101000a81548160ff02191690831515021790555061293a612999565b73ffffffffffffffffffffffffffffffffffffffff168173ffffffffffffffffffffffffffffffffffffffff16837f2f8788117e7eff1d82e926ec794901d17c78024a50270940304540a733656f0d60405160405180910390a45b5050565b600033905090565b6129ab8282611b44565b15612a7f5760006001600084815260200190815260200160002060000160008373ffffffffffffffffffffffffffffffffffffffff1673ffffffffffffffffffffffffffffffffffffffff16815260200190815260200160002060006101000a81548160ff021916908315150217905550612a24612999565b73ffffffffffffffffffffffffffffffffffffffff168173ffffffffffffffffffffffffffffffffffffffff16837ff6391f5c32d9c69d2a47ea670b442974b53935d1edc7fd64eb21e047a839171b60405160405180910390a45b5050565b60036000815480929190612a9690614767565b91905055506000600354905080600a60008773ffffffffffffffffffffffffffffffffffffffff1673ffffffffffffffffffffffffffffffffffffffff168152602001908152602001600020819055506040518060800160405280858152602001846002811115612b0a57612b09613e8c565b5b81526020018381526020018673ffffffffffffffffffffffffffffffffffffffff16815250600960008381526020019081526020016000206000820151816000019080519060200190612b5e929190612ff2565b5060208201518160010160006101000a81548160ff02191690836002811115612b8a57612b89613e8c565b5b02179055506040820151816002015560608201518160030160006101000a81548173ffffffffffffffffffffffffffffffffffffffff021916908373ffffffffffffffffffffffffffffffffffffffff1602179055509050505050505050565b612bf48282611b44565b612c6b57612c0181612c6f565b612c0f8360001c6020612c9c565b604051602001612c20929190614b96565b6040516020818303038152906040526040517f08c379a0000000000000000000000000000000000000000000000000000000008152600401612c629190614c09565b60405180910390fd5b5050565b6060612c958273ffffffffffffffffffffffffffffffffffffffff16601460ff16612c9c565b9050919050565b606060006002836002612caf919061451e565b612cb99190614578565b67ffffffffffffffff811115612cd257612cd161377d565b5b6040519080825280601f01601f191660200182016040528015612d045781602001600182028036833780820191505090505b5090507f300000000000000000000000000000000000000000000000000000000000000081600081518110612d3c57612d3b61463a565b5b60200101907effffffffffffffffffffffffffffffffffffffffffffffffffffffffffffff1916908160001a9053507f780000000000000000000000000000000000000000000000000000000000000081600181518110612da057612d9f61463a565b5b60200101907effffffffffffffffffffffffffffffffffffffffffffffffffffffffffffff1916908160001a90535060006001846002612de0919061451e565b612dea9190614578565b90505b6001811115612e8a577f3031323334353637383961626364656600000000000000000000000000000000600f861660108110612e2c57612e2b61463a565b5b1a60f81b828281518110612e4357612e4261463a565b5b60200101907effffffffffffffffffffffffffffffffffffffffffffffffffffffffffffff1916908160001a905350600485901c945080612e8390614c2b565b9050612ded565b5060008414612ece576040517f08c379a0000000000000000000000000000000000000000000000000000000008152600401612ec590614ca1565b60405180910390fd5b8091505092915050565b60405180606001604052806000815260200160608152602001600081525090565b60405180610100016040528060008152602001600081526020016060815260200160608152602001600015158152602001600073ffffffffffffffffffffffffffffffffffffffff168152602001600073ffffffffffffffffffffffffffffffffffffffff168152602001606081525090565b828054612f78906143bf565b90600052602060002090601f016020900481019282612f9a5760008555612fe1565b82601f10612fb357803560ff1916838001178555612fe1565b82800160010185558215612fe1579182015b82811115612fe0578235825591602001919060010190612fc5565b5b509050612fee91906130c8565b5090565b828054612ffe906143bf565b90600052602060002090601f0160209004810192826130205760008555613067565b82601f1061303957805160ff1916838001178555613067565b82800160010185558215613067579182015b8281111561306657825182559160200191906001019061304b565b5b50905061307491906130c8565b5090565b6040518060800160405280606081526020016000600281111561309e5761309d613e8c565b5b815260200160008152602001600073ffffffffffffffffffffffffffffffffffffffff1681525090565b5b808211156130e15760008160009055506001016130c9565b5090565b6000604051905090565b600080fd5b600080fd5b60007fffffffff0000000000000000000000000000000000000000000000000000000082169050919050565b61312e816130f9565b811461313957600080fd5b50565b60008135905061314b81613125565b92915050565b600060208284031215613167576131666130ef565b5b60006131758482850161313c565b91505092915050565b60008115159050919050565b6131938161317e565b82525050565b60006020820190506131ae600083018461318a565b92915050565b6000819050919050565b6131c7816131b4565b81146131d257600080fd5b50565b6000813590506131e4816131be565b92915050565b600060208284031215613200576131ff6130ef565b5b600061320e848285016131d5565b91505092915050565b600081519050919050565b600082825260208201905092915050565b6000819050602082019050919050565b600073ffffffffffffffffffffffffffffffffffffffff82169050919050565b600061326e82613243565b9050919050565b61327e81613263565b82525050565b61328d816131b4565b82525050565b6080820160008201516132a96000850182613275565b5060208201516132bc6020850182613284565b5060408201516132cf6040850182613284565b5060608201516132e26060850182613284565b50505050565b60006132f48383613293565b60808301905092915050565b6000602082019050919050565b600061331882613217565b6133228185613222565b935061332d83613233565b8060005b8381101561335e57815161334588826132e8565b975061335083613300565b925050600181019050613331565b5085935050505092915050565b60006020820190508181036000830152613385818461330d565b905092915050565b6000819050919050565b6133a08161338d565b81146133ab57600080fd5b50565b6000813590506133bd81613397565b92915050565b6000602082840312156133d9576133d86130ef565b5b60006133e7848285016133ae565b91505092915050565b6133f98161338d565b82525050565b600060208201905061341460008301846133f0565b92915050565b61342381613263565b811461342e57600080fd5b50565b6000813590506134408161341a565b92915050565b6000806040838503121561345d5761345c6130ef565b5b600061346b858286016133ae565b925050602061347c85828601613431565b9150509250929050565b600081519050919050565b600082825260208201905092915050565b6000819050602082019050919050565b600081519050919050565b600082825260208201905092915050565b60005b838110156134ec5780820151818401526020810190506134d1565b838111156134fb576000848401525b50505050565b6000601f19601f8301169050919050565b600061351d826134b2565b61352781856134bd565b93506135378185602086016134ce565b61354081613501565b840191505092915050565b60006060830160008301516135636000860182613284565b506020830151848203602086015261357b8282613512565b91505060408301516135906040860182613284565b508091505092915050565b60006135a7838361354b565b905092915050565b6000602082019050919050565b60006135c782613486565b6135d18185613491565b9350836020820285016135e3856134a2565b8060005b8581101561361f5784840389528151613600858261359b565b945061360b836135af565b925060208a019950506001810190506135e7565b50829750879550505050505092915050565b6000602082019050818103600083015261364b81846135bc565b905092915050565b60008060006060848603121561366c5761366b6130ef565b5b600061367a868287016131d5565b935050602061368b868287016131d5565b925050604061369c868287016131d5565b9150509250925092565b60006060830160008301516136be6000860182613284565b50602083015184820360208601526136d68282613512565b91505060408301516136eb6040860182613284565b508091505092915050565b6000602082019050818103600083015261371081846136a6565b905092915050565b600080fd5b600080fd5b600080fd5b60008083601f84011261373d5761373c613718565b5b8235905067ffffffffffffffff81111561375a5761375961371d565b5b60208301915083600182028301111561377657613775613722565b5b9250929050565b7f4e487b7100000000000000000000000000000000000000000000000000000000600052604160045260246000fd5b6137b582613501565b810181811067ffffffffffffffff821117156137d4576137d361377d565b5b80604052505050565b60006137e76130e5565b90506137f382826137ac565b919050565b600067ffffffffffffffff8211156138135761381261377d565b5b602082029050602081019050919050565b600080fd5b600067ffffffffffffffff8211156138445761384361377d565b5b61384d82613501565b9050602081019050919050565b82818337600083830152505050565b600061387c61387784613829565b6137dd565b90508281526020810184848401111561389857613897613824565b5b6138a384828561385a565b509392505050565b600082601f8301126138c0576138bf613718565b5b81356138d0848260208601613869565b91505092915050565b60006138ec6138e7846137f8565b6137dd565b9050808382526020820190506020840283018581111561390f5761390e613722565b5b835b8181101561395657803567ffffffffffffffff81111561393457613933613718565b5b80860161394189826138ab565b85526020850194505050602081019050613911565b5050509392505050565b600082601f83011261397557613974613718565b5b81356139858482602086016138d9565b91505092915050565b6000806000806000606086880312156139aa576139a96130ef565b5b600086013567ffffffffffffffff8111156139c8576139c76130f4565b5b6139d488828901613727565b9550955050602086013567ffffffffffffffff8111156139f7576139f66130f4565b5b613a0388828901613727565b9350935050604086013567ffffffffffffffff811115613a2657613a256130f4565b5b613a3288828901613960565b9150509295509295909350565b613a488161317e565b82525050565b600082825260208201905092915050565b6000613a6a82613486565b613a748185613a4e565b935083602082028501613a86856134a2565b8060005b85811015613ac25784840389528151613aa3858261359b565b9450613aae836135af565b925060208a01995050600181019050613a8a565b50829750879550505050505092915050565b600061010083016000830151613aed6000860182613284565b506020830151613b006020860182613284565b5060408301518482036040860152613b188282613512565b91505060608301518482036060860152613b328282613512565b9150506080830151613b476080860182613a3f565b5060a0830151613b5a60a0860182613275565b5060c0830151613b6d60c0860182613275565b5060e083015184820360e0860152613b858282613a5f565b9150508091505092915050565b60006020820190508181036000830152613bac8184613ad4565b905092915050565b600060208284031215613bca57613bc96130ef565b5b6000613bd884828501613431565b91505092915050565b600081519050919050565b600082825260208201905092915050565b6000819050602082019050919050565b600061010083016000830151613c266000860182613284565b506020830151613c396020860182613284565b5060408301518482036040860152613c518282613512565b91505060608301518482036060860152613c6b8282613512565b9150506080830151613c806080860182613a3f565b5060a0830151613c9360a0860182613275565b5060c0830151613ca660c0860182613275565b5060e083015184820360e0860152613cbe8282613a5f565b9150508091505092915050565b6000613cd78383613c0d565b905092915050565b6000602082019050919050565b6000613cf782613be1565b613d018185613bec565b935083602082028501613d1385613bfd565b8060005b85811015613d4f5784840389528151613d308582613ccb565b9450613d3b83613cdf565b925060208a01995050600181019050613d17565b50829750879550505050505092915050565b60006020820190508181036000830152613d7b8184613cec565b905092915050565b60008060408385031215613d9a57613d996130ef565b5b6000613da8858286016131d5565b9250506020613db9858286016131d5565b9150509250929050565b613dcc816131b4565b82525050565b6000602082019050613de76000830184613dc3565b92915050565b600060208284031215613e0357613e026130ef565b5b600082013567ffffffffffffffff811115613e2157613e206130f4565b5b613e2d848285016138ab565b91505092915050565b613e3f81613263565b82525050565b6000602082019050613e5a6000830184613e36565b92915050565b600081519050919050565b600082825260208201905092915050565b6000819050602082019050919050565b7f4e487b7100000000000000000000000000000000000000000000000000000000600052602160045260246000fd5b60038110613ecc57613ecb613e8c565b5b50565b6000819050613edd82613ebb565b919050565b6000613eed82613ecf565b9050919050565b613efd81613ee2565b82525050565b60006080830160008301518482036000860152613f208282613512565b9150506020830151613f356020860182613ef4565b506040830151613f486040860182613284565b506060830151613f5b6060860182613275565b508091505092915050565b6000613f728383613f03565b905092915050565b6000602082019050919050565b6000613f9282613e60565b613f9c8185613e6b565b935083602082028501613fae85613e7c565b8060005b85811015613fea5784840389528151613fcb8582613f66565b9450613fd683613f7a565b925060208a01995050600181019050613fb2565b50829750879550505050505092915050565b600081519050919050565b600082825260208201905092915050565b6000819050602082019050919050565b60006140348383613a3f565b60208301905092915050565b6000602082019050919050565b600061405882613ffc565b6140628185614007565b935061406d83614018565b8060005b8381101561409e5781516140858882614028565b975061409083614040565b925050600181019050614071565b5085935050505092915050565b600060408201905081810360008301526140c58185613f87565b905081810360208301526140d9818461404d565b90509392505050565b600060808301600083015184820360008601526140ff8282613512565b91505060208301516141146020860182613ef4565b5060408301516141276040860182613284565b50606083015161413a6060860182613275565b508091505092915050565b6000604082019050818103600083015261415f81856140e2565b905061416e602083018461318a565b9392505050565b6000819050919050565b600061419a61419561419084613243565b614175565b613243565b9050919050565b60006141ac8261417f565b9050919050565b60006141be826141a1565b9050919050565b6141ce816141b3565b82525050565b60006020820190506141e960008301846141c5565b92915050565b600082825260208201905092915050565b7f416363657373436f6e74726f6c3a2063616e206f6e6c792072656e6f756e636560008201527f20726f6c657320666f722073656c660000000000000000000000000000000000602082015250565b600061425c602f836141ef565b915061426782614200565b604082019050919050565b6000602082019050818103600083015261428b8161424f565b9050919050565b7f55736572206e6f742072656769737465726564206f6e2044414f000000000000600082015250565b60006142c8601a836141ef565b91506142d382614292565b602082019050919050565b600060208201905081810360008301526142f7816142bb565b9050919050565b7f5573657220616c7265616479206170706c696564206f72206861732061204e4660008201527f5400000000000000000000000000000000000000000000000000000000000000602082015250565b600061435a6021836141ef565b9150614365826142fe565b604082019050919050565b600060208201905081810360008301526143898161434d565b9050919050565b7f4e487b7100000000000000000000000000000000000000000000000000000000600052602260045260246000fd5b600060028204905060018216806143d757607f821691505b602082108114156143eb576143ea614390565b5b50919050565b7f4f6e6c792041646d696e7320616e64205374616b65686f6c646572732063616e60008201527f20766f7465000000000000000000000000000000000000000000000000000000602082015250565b600061444d6025836141ef565b9150614458826143f1565b604082019050919050565b6000602082019050818103600083015261447c81614440565b9050919050565b7f50726f706f73616c206475726174696f6e206578706972656400000000000000600082015250565b60006144b96019836141ef565b91506144c482614483565b602082019050919050565b600060208201905081810360008301526144e8816144ac565b9050919050565b7f4e487b7100000000000000000000000000000000000000000000000000000000600052601160045260246000fd5b6000614529826131b4565b9150614534836131b4565b9250817fffffffffffffffffffffffffffffffffffffffffffffffffffffffffffffffff048311821515161561456d5761456c6144ef565b5b828202905092915050565b6000614583826131b4565b915061458e836131b4565b9250827fffffffffffffffffffffffffffffffffffffffffffffffffffffffffffffffff038211156145c3576145c26144ef565b5b828201905092915050565b7f496e73756666696369656e7420746f6b656e7320666f7220616464726573732e600082015250565b60006146046020836141ef565b915061460f826145ce565b602082019050919050565b60006020820190508181036000830152614633816145f7565b9050919050565b7f4e487b7100000000000000000000000000000000000000000000000000000000600052603260045260246000fd5b7f50524f504f53414c5f564f544500000000000000000000000000000000000000600082015250565b600061469f600d836141ef565b91506146aa82614669565b602082019050919050565b600060208201905081810360008301526146ce81614692565b9050919050565b7f4f6e6c792041646d696e7320616e64205374616b65686f6c646572732063616e60008201527f206372656174652070726f706f73616c73000000000000000000000000000000602082015250565b60006147316031836141ef565b915061473c826146d5565b604082019050919050565b6000602082019050818103600083015261476081614724565b9050919050565b6000614772826131b4565b91507fffffffffffffffffffffffffffffffffffffffffffffffffffffffffffffffff8214156147a5576147a46144ef565b5b600182019050919050565b7f50524f504f53414c5f5241495345440000000000000000000000000000000000600082015250565b60006147e6600f836141ef565b91506147f1826147b0565b602082019050919050565b60006020820190508181036000830152614815816147d9565b9050919050565b7f416c7265616479206d696e746564204e465420746f2074686520757365720000600082015250565b6000614852601e836141ef565b915061485d8261481c565b602082019050919050565b6000602082019050818103600083015261488181614845565b9050919050565b7f68747470733a2f2f697066732e696f2f697066732f516d53367066417264536560008201527f66704239463375656d777672414364657854695175513169416f6e4d686d794260208201527f7736360000000000000000000000000000000000000000000000000000000000604082015250565b600061490a6043836141ef565b915061491582614888565b606082019050919050565b60006040820190506149356000830184613e36565b8181036020830152614946816148fd565b905092915050565b7f5573657220616c72656164792072656769737465726564000000000000000000600082015250565b60006149846017836141ef565b915061498f8261494e565b602082019050919050565b600060208201905081810360008301526149b381614977565b9050919050565b60006149c5826131b4565b91506149d0836131b4565b9250828210156149e3576149e26144ef565b5b828203905092915050565b7f436f6e747269627574696e67207a65726f206973206e6f7420616c6c6f77656460008201527f2e00000000000000000000000000000000000000000000000000000000000000602082015250565b6000614a4a6021836141ef565b9150614a55826149ee565b604082019050919050565b60006020820190508181036000830152614a7981614a3d565b9050919050565b600081519050614a8f816131be565b92915050565b600060208284031215614aab57614aaa6130ef565b5b6000614ab984828501614a80565b91505092915050565b600081905092915050565b7f416363657373436f6e74726f6c3a206163636f756e7420000000000000000000600082015250565b6000614b03601783614ac2565b9150614b0e82614acd565b601782019050919050565b6000614b24826134b2565b614b2e8185614ac2565b9350614b3e8185602086016134ce565b80840191505092915050565b7f206973206d697373696e6720726f6c6520000000000000000000000000000000600082015250565b6000614b80601183614ac2565b9150614b8b82614b4a565b601182019050919050565b6000614ba182614af6565b9150614bad8285614b19565b9150614bb882614b73565b9150614bc48284614b19565b91508190509392505050565b6000614bdb826134b2565b614be581856141ef565b9350614bf58185602086016134ce565b614bfe81613501565b840191505092915050565b60006020820190508181036000830152614c238184614bd0565b905092915050565b6000614c36826131b4565b91506000821415614c4a57614c496144ef565b5b600182039050919050565b7f537472696e67733a20686578206c656e67746820696e73756666696369656e74600082015250565b6000614c8b6020836141ef565b9150614c9682614c55565b602082019050919050565b60006020820190508181036000830152614cba81614c7e565b905091905056fea2646970667358221220df477ccb837e67f512a46a84381df1587cdd44d5ec16136a056b1787a642cc7364736f6c634300080b0033",
  "immutableReferences": {
    "8856": [
      {
        "length": 32,
        "start": 2864
      },
      {
        "length": 32,
        "start": 4003
      },
      {
        "length": 32,
        "start": 5401
      },
      {
        "length": 32,
        "start": 7423
      },
      {
        "length": 32,
        "start": 7468
      },
      {
        "length": 32,
        "start": 8893
      },
      {
        "length": 32,
        "start": 9611
      }
    ],
    "8861": [
      {
        "length": 32,
        "start": 9914
      },
      {
        "length": 32,
        "start": 9960
      }
    ],
    "8864": [
      {
        "length": 32,
        "start": 4287
      }
    ],
    "8867": [
      {
        "length": 32,
        "start": 3499
      },
      {
        "length": 32,
        "start": 7325
      }
    ]
  },
  "source": "// SPDX-License-Identifier: MIT\r\npragma solidity ^0.8.7;\r\n\r\nimport \"@openzeppelin/contracts/access/AccessControl.sol\";\r\nimport \"@openzeppelin/contracts/security/ReentrancyGuard.sol\";\r\nimport \"./QuadraNFT.sol\";\r\n\r\ncontract Election is ReentrancyGuard, AccessControl {\r\n    bytes32 private immutable ADMIN_ROLE = keccak256(\"ADMIN_ROLE\");\r\n    bytes32 private immutable CONTRIBUTOR_ROLE = keccak256(\"CONTRIBUTOR\");\r\n    uint32 immutable MIN_VOTE_DURATION = 5 minutes;\r\n    uint256 immutable MAX_TOKENS = 10;\r\n    uint256 totalProposals;\r\n    uint256 totalVoters = 0;\r\n    QuadraNFT public token;\r\n    uint256 public daoBalance;\r\n\r\n    struct Candidate {\r\n        uint256 id;\r\n        string name;\r\n        uint256 votes;\r\n    }\r\n\r\n    struct Proposal {\r\n        uint256 id;\r\n        uint256 duration;\r\n        string title;\r\n        string description;\r\n        bool ended;\r\n        address proposer;\r\n        address executor; // ??\r\n        Candidate[] candidates;\r\n    }\r\n\r\n    // Vote object to keep track of votes in a proposal\r\n    struct Vote {\r\n        address voter;\r\n        uint256 candidateId;\r\n        uint256 timestamp;\r\n        uint256 numVotes;\r\n    }\r\n\r\n    //voter status for anonymous voting\r\n    enum VoterStatus {\r\n        INITIAL,\r\n        IN_PROGRESS,\r\n        VALID\r\n    }\r\n\r\n    struct Voter {\r\n        string username;\r\n        VoterStatus status;\r\n        uint256 depositedAmount;\r\n        address voterAddress;\r\n    }\r\n\r\n    mapping(uint256 => Proposal) private raisedProposals;\r\n    mapping(address => Vote) private votes; // Keep track of Vote per address\r\n\r\n    // Keep track of tokens spent per address for each proposdal\r\n    mapping(address => mapping(uint256 => uint256)) private tokensSpent;\r\n\r\n    // Keep track of all voters\r\n    mapping(uint256 => Voter) private voters;\r\n    mapping(address => uint256) private voterIds;\r\n\r\n    // All vote objects for a proposal\r\n    mapping(uint256 => Vote[]) private votedOn;\r\n\r\n    // ??\r\n    // mapping(address => uint256) private contributors;\r\n    // mapping(address => uint256) private stakeholders;\r\n\r\n    event Action(address indexed initiator, string message);\r\n    constructor(QuadraNFT _token) {\r\n        token = _token;\r\n        _grantRole(ADMIN_ROLE, msg.sender);\r\n        _addVoter(msg.sender, \"Admin\", VoterStatus.VALID, 0);\r\n    }\r\n\r\n    function _addVoter(address account, string memory username, VoterStatus status, uint256 depositedAmount) private{\r\n        totalVoters++;\r\n        uint256 voterId = totalVoters;\r\n        voterIds[account] = voterId;\r\n        voters[voterId] = Voter(username, status, depositedAmount, account);\r\n    }\r\n\r\n    function addVoter(string memory username) public {\r\n        require(voterIds[msg.sender] == 0, \"User already registered\");\r\n        _addVoter(msg.sender, username, VoterStatus.INITIAL, 0);\r\n    }\r\n\r\n    function grantAdminRole(address account) public onlyRole(ADMIN_ROLE) {\r\n        _grantRole(ADMIN_ROLE, account);\r\n    }\r\n\r\n    function getVoter(address account) external view returns (Voter memory voter, bool isAdmin) {\r\n        uint256 id = voterIds[account];\r\n        require(\r\n            id > 0,\r\n            \"User not registered on DAO\"\r\n        );\r\n        voter = voters[id];\r\n        // add is is admin role, add a bool to reply\r\n        if (hasRole(ADMIN_ROLE, account)) {\r\n            isAdmin = true;\r\n        }else{\r\n            isAdmin = false;\r\n        }\r\n        return (voter, isAdmin);\r\n    }\r\n\r\n    function getVoters() external view returns (Voter[] memory,  bool[] memory) {\r\n        Voter[] memory _voters = new Voter[](totalVoters);\r\n        bool[] memory _isAdmin = new bool[](totalVoters);\r\n        for (uint256 i = 1; i <= totalVoters; i++) {\r\n            _voters[i-1] = voters[i];\r\n            if (hasRole(ADMIN_ROLE, voters[i].voterAddress)) {\r\n                _isAdmin[i-1] = true;\r\n            }else{\r\n                _isAdmin[i-1] = false;\r\n            }\r\n        }\r\n        return (_voters, _isAdmin);\r\n    }\r\n\r\n    function applyNFT() public {\r\n        uint256 id = voterIds[msg.sender];\r\n        require(\r\n            id > 0,\r\n            \"User not registered on DAO\"\r\n        );\r\n        require(\r\n            voters[id].status == VoterStatus.INITIAL,\r\n            \"User already applied or has a NFT\"\r\n        );\r\n        voters[id].status = VoterStatus.IN_PROGRESS;\r\n    }\r\n\r\n    function mintNFT(address to) public onlyRole(ADMIN_ROLE) {\r\n        uint256 id = voterIds[to];\r\n        require(\r\n            id > 0,\r\n            \"User not registered on DAO\"\r\n        );\r\n        require(\r\n            voters[id].status != VoterStatus.VALID,\r\n            \"Already minted NFT to the user\"\r\n        );\r\n        token.safeMint(to, \"https://ipfs.io/ipfs/QmS6pfArdSefpB9F3uemwvrACdexTiQuQ1iAonMhmyBw66\");\r\n        voters[id].status = VoterStatus.VALID;\r\n    }\r\n\r\n    function getNFTAddress() public view returns (address) {\r\n        return address(token);\r\n    }\r\n\r\n    function isStakeholder(address _voter) public view returns (bool) {\r\n        // if the voter has a token in the Token contract\r\n        // cast the function BalanceOf to the token contract QUadraDAO with address _token\r\n        if(token.balanceOf(_voter) > 0) return true;\r\n        return false;\r\n    }\r\n\r\n    function contribute() payable external returns (uint256) {\r\n        uint256 id = voterIds[msg.sender];\r\n        require(\r\n            id > 0,\r\n            \"User not registered on DAO\"\r\n        );\r\n        require(msg.value > 0 ether, \"Contributing zero is not allowed.\");\r\n        if (!hasRole(CONTRIBUTOR_ROLE, msg.sender)) {\r\n            _grantRole(CONTRIBUTOR_ROLE, msg.sender);\r\n        }\r\n        voters[id].depositedAmount += msg.value;\r\n        \r\n        daoBalance += msg.value;\r\n\r\n        return daoBalance;\r\n    }\r\n\r\n    function quadraticVote(uint256 voted, uint256 new_votes) public pure returns (uint) {\r\n        uint256 tokens = 0;\r\n        for (uint i = 1; i <= new_votes; i++) {\r\n            tokens += (voted + i) * (voted + i);\r\n        }\r\n        return tokens;\r\n    }\r\n\r\n    function createProposal(\r\n        string calldata title,\r\n        string calldata description,\r\n        string[] memory _candidateNames\r\n    ) external returns (Proposal memory) {\r\n        require(\r\n            hasRole(ADMIN_ROLE, msg.sender) || isStakeholder(msg.sender), \"Only Admins and Stakeholders can create proposals\"\r\n        );\r\n        uint256 proposalId = totalProposals++;\r\n        Proposal storage proposal = raisedProposals[proposalId];\r\n        proposal.id = proposalId;\r\n        proposal.title = title;\r\n        proposal.description = description;\r\n        proposal.proposer = payable(msg.sender);\r\n\r\n        // TODO: Make this variable\r\n        proposal.duration = block.timestamp + MIN_VOTE_DURATION;\r\n\r\n        // Init candidates\r\n        for (uint256 i = 0; i < _candidateNames.length; i++) {\r\n            proposal.candidates.push(Candidate(i, _candidateNames[i], 0));\r\n        }\r\n\r\n        emit Action(msg.sender, \"PROPOSAL_RAISED\");\r\n\r\n        return proposal;\r\n    }\r\n\r\n    function getProposals() external view returns (Proposal[] memory props) {\r\n        props = new Proposal[](totalProposals);\r\n\r\n        for (uint256 i = 0; i < totalProposals; i++) {\r\n            props[i] = raisedProposals[i];\r\n        }\r\n    }\r\n\r\n    function getProposal(\r\n        uint256 proposalId\r\n    ) external view returns (Proposal memory) {\r\n        return raisedProposals[proposalId];\r\n    }\r\n\r\n    // Might be redundant in client code\r\n    function getCandidates(\r\n        uint256 proposalId\r\n    ) public view returns (Candidate[] memory) {\r\n        return raisedProposals[proposalId].candidates;\r\n    }\r\n\r\n    function getTokensLeftForProposal(\r\n        uint256 proposalId\r\n    ) public view returns (uint256) {\r\n        return MAX_TOKENS - tokensSpent[msg.sender][proposalId];\r\n    }\r\n\r\n    function voteForCandidate(\r\n        uint256 proposalId,\r\n        uint256 candidateId,\r\n        uint256 numVotes\r\n    ) public returns (Candidate memory) {\r\n        require(\r\n            hasRole(ADMIN_ROLE, msg.sender) || isStakeholder(msg.sender), \"Only Admins and Stakeholders can vote\"\r\n        );\r\n        Proposal storage proposal = raisedProposals[proposalId];\r\n        Candidate[] memory candidates = proposal.candidates;\r\n\r\n        if (proposal.ended || proposal.duration <= block.timestamp) {\r\n            proposal.ended = true;\r\n            revert(\"Proposal duration expired\");\r\n        }\r\n\r\n        // Check if msg.sender has enough tokens\r\n        // TODO: Implement quadratic voiting here\r\n        uint256 totalNumTokensSpent = tokensSpent[msg.sender][proposalId] +\r\n            numVotes *\r\n            1;\r\n        if (totalNumTokensSpent >= MAX_TOKENS) {\r\n            revert(\"Insufficient tokens for address.\");\r\n        }\r\n\r\n        // Add vote to candidate\r\n        proposal.candidates[candidateId].votes += numVotes; // TODO: Implement time decay here\r\n\r\n        // proposal.candidates = candidates; // Updated candidates\r\n\r\n        // Add vote to Address -> Vote map\r\n        // votes[msg.sender] = Vote(msg.sender, proposalId, candidateId, block.timestamp);\r\n        votedOn[proposalId].push(\r\n            Vote(msg.sender, candidateId, block.timestamp, numVotes)\r\n        );\r\n\r\n        emit Action(msg.sender, \"PROPOSAL_VOTE\");\r\n\r\n        // TODO: Should candidate be returned here or vote?\r\n        return candidates[candidateId];\r\n    }\r\n\r\n    function getVotesOfProposal(\r\n        uint256 proposalId\r\n    ) public view returns (Vote[] memory) {\r\n        return votedOn[proposalId];\r\n    }\r\n}\r\n",
  "sourcePath": "C:\\Users\\shang\\Documents\\GitHub\\ECE1770-QV-DAO-DApp\\src\\contracts\\Election.sol",
  "compiler": {
    "name": "solc",
    "version": "0.8.11+commit.d7f03943.Emscripten.clang"
  },
  "schemaVersion": "3.4.16",
  "updatedAt": "2024-04-13T05:22:49.538Z",
  "networkType": "ethereum",
  "devdoc": {
    "kind": "dev",
    "methods": {
      "getRoleAdmin(bytes32)": {
        "details": "Returns the admin role that controls `role`. See {grantRole} and {revokeRole}. To change a role's admin, use {_setRoleAdmin}."
      },
      "grantRole(bytes32,address)": {
        "details": "Grants `role` to `account`. If `account` had not been already granted `role`, emits a {RoleGranted} event. Requirements: - the caller must have ``role``'s admin role. May emit a {RoleGranted} event."
      },
      "hasRole(bytes32,address)": {
        "details": "Returns `true` if `account` has been granted `role`."
      },
      "renounceRole(bytes32,address)": {
        "details": "Revokes `role` from the calling account. Roles are often managed via {grantRole} and {revokeRole}: this function's purpose is to provide a mechanism for accounts to lose their privileges if they are compromised (such as when a trusted device is misplaced). If the calling account had been revoked `role`, emits a {RoleRevoked} event. Requirements: - the caller must be `account`. May emit a {RoleRevoked} event."
      },
      "revokeRole(bytes32,address)": {
        "details": "Revokes `role` from `account`. If `account` had been granted `role`, emits a {RoleRevoked} event. Requirements: - the caller must have ``role``'s admin role. May emit a {RoleRevoked} event."
      },
      "supportsInterface(bytes4)": {
        "details": "See {IERC165-supportsInterface}."
      }
    },
    "version": 1
  },
  "userdoc": {
    "kind": "user",
    "methods": {},
    "version": 1
  }
}