{
  "contractName": "Election",
  "abi": [
    {
      "inputs": [
        {
          "internalType": "contract QuadraNFT",
          "name": "_token",
          "type": "address"
        }
      ],
      "stateMutability": "nonpayable",
      "type": "constructor"
    },
    {
      "anonymous": false,
      "inputs": [
        {
          "indexed": true,
          "internalType": "address",
          "name": "initiator",
          "type": "address"
        },
        {
          "indexed": false,
          "internalType": "string",
          "name": "message",
          "type": "string"
        }
      ],
      "name": "Action",
      "type": "event"
    },
    {
      "anonymous": false,
      "inputs": [
        {
          "indexed": true,
          "internalType": "bytes32",
          "name": "role",
          "type": "bytes32"
        },
        {
          "indexed": true,
          "internalType": "bytes32",
          "name": "previousAdminRole",
          "type": "bytes32"
        },
        {
          "indexed": true,
          "internalType": "bytes32",
          "name": "newAdminRole",
          "type": "bytes32"
        }
      ],
      "name": "RoleAdminChanged",
      "type": "event"
    },
    {
      "anonymous": false,
      "inputs": [
        {
          "indexed": true,
          "internalType": "bytes32",
          "name": "role",
          "type": "bytes32"
        },
        {
          "indexed": true,
          "internalType": "address",
          "name": "account",
          "type": "address"
        },
        {
          "indexed": true,
          "internalType": "address",
          "name": "sender",
          "type": "address"
        }
      ],
      "name": "RoleGranted",
      "type": "event"
    },
    {
      "anonymous": false,
      "inputs": [
        {
          "indexed": true,
          "internalType": "bytes32",
          "name": "role",
          "type": "bytes32"
        },
        {
          "indexed": true,
          "internalType": "address",
          "name": "account",
          "type": "address"
        },
        {
          "indexed": true,
          "internalType": "address",
          "name": "sender",
          "type": "address"
        }
      ],
      "name": "RoleRevoked",
      "type": "event"
    },
    {
      "inputs": [],
      "name": "DEFAULT_ADMIN_ROLE",
      "outputs": [
        {
          "internalType": "bytes32",
          "name": "",
          "type": "bytes32"
        }
      ],
      "stateMutability": "view",
      "type": "function",
      "constant": true
    },
    {
      "inputs": [],
      "name": "daoBalance",
      "outputs": [
        {
          "internalType": "uint256",
          "name": "",
          "type": "uint256"
        }
      ],
      "stateMutability": "view",
      "type": "function",
      "constant": true
    },
    {
      "inputs": [
        {
          "internalType": "bytes32",
          "name": "role",
          "type": "bytes32"
        }
      ],
      "name": "getRoleAdmin",
      "outputs": [
        {
          "internalType": "bytes32",
          "name": "",
          "type": "bytes32"
        }
      ],
      "stateMutability": "view",
      "type": "function",
      "constant": true
    },
    {
      "inputs": [
        {
          "internalType": "bytes32",
          "name": "role",
          "type": "bytes32"
        },
        {
          "internalType": "address",
          "name": "account",
          "type": "address"
        }
      ],
      "name": "grantRole",
      "outputs": [],
      "stateMutability": "nonpayable",
      "type": "function"
    },
    {
      "inputs": [
        {
          "internalType": "bytes32",
          "name": "role",
          "type": "bytes32"
        },
        {
          "internalType": "address",
          "name": "account",
          "type": "address"
        }
      ],
      "name": "hasRole",
      "outputs": [
        {
          "internalType": "bool",
          "name": "",
          "type": "bool"
        }
      ],
      "stateMutability": "view",
      "type": "function",
      "constant": true
    },
    {
      "inputs": [
        {
          "internalType": "bytes32",
          "name": "role",
          "type": "bytes32"
        },
        {
          "internalType": "address",
          "name": "account",
          "type": "address"
        }
      ],
      "name": "renounceRole",
      "outputs": [],
      "stateMutability": "nonpayable",
      "type": "function"
    },
    {
      "inputs": [
        {
          "internalType": "bytes32",
          "name": "role",
          "type": "bytes32"
        },
        {
          "internalType": "address",
          "name": "account",
          "type": "address"
        }
      ],
      "name": "revokeRole",
      "outputs": [],
      "stateMutability": "nonpayable",
      "type": "function"
    },
    {
      "inputs": [
        {
          "internalType": "bytes4",
          "name": "interfaceId",
          "type": "bytes4"
        }
      ],
      "name": "supportsInterface",
      "outputs": [
        {
          "internalType": "bool",
          "name": "",
          "type": "bool"
        }
      ],
      "stateMutability": "view",
      "type": "function",
      "constant": true
    },
    {
      "inputs": [],
      "name": "token",
      "outputs": [
        {
          "internalType": "contract QuadraNFT",
          "name": "",
          "type": "address"
        }
      ],
      "stateMutability": "view",
      "type": "function",
      "constant": true
    },
    {
      "inputs": [
        {
          "internalType": "string",
          "name": "username",
          "type": "string"
        }
      ],
      "name": "addVoter",
      "outputs": [],
      "stateMutability": "nonpayable",
      "type": "function"
    },
    {
      "inputs": [
        {
          "internalType": "address",
          "name": "account",
          "type": "address"
        }
      ],
      "name": "grantAdminRole",
      "outputs": [],
      "stateMutability": "nonpayable",
      "type": "function"
    },
    {
      "inputs": [
        {
          "internalType": "address",
          "name": "account",
          "type": "address"
        }
      ],
      "name": "getVoter",
      "outputs": [
        {
          "components": [
            {
              "internalType": "string",
              "name": "username",
              "type": "string"
            },
            {
              "internalType": "enum Election.VoterStatus",
              "name": "status",
              "type": "uint8"
            },
            {
              "internalType": "uint256",
              "name": "depositedAmount",
              "type": "uint256"
            },
            {
              "internalType": "address",
              "name": "voterAddress",
              "type": "address"
            }
          ],
          "internalType": "struct Election.Voter",
          "name": "voter",
          "type": "tuple"
        },
        {
          "internalType": "bool",
          "name": "isAdmin",
          "type": "bool"
        }
      ],
      "stateMutability": "view",
      "type": "function",
      "constant": true
    },
    {
      "inputs": [],
      "name": "getVoters",
      "outputs": [
        {
          "components": [
            {
              "internalType": "string",
              "name": "username",
              "type": "string"
            },
            {
              "internalType": "enum Election.VoterStatus",
              "name": "status",
              "type": "uint8"
            },
            {
              "internalType": "uint256",
              "name": "depositedAmount",
              "type": "uint256"
            },
            {
              "internalType": "address",
              "name": "voterAddress",
              "type": "address"
            }
          ],
          "internalType": "struct Election.Voter[]",
          "name": "",
          "type": "tuple[]"
        }
      ],
      "stateMutability": "view",
      "type": "function",
      "constant": true
    },
    {
      "inputs": [],
      "name": "applyNFT",
      "outputs": [],
      "stateMutability": "nonpayable",
      "type": "function"
    },
    {
      "inputs": [
        {
          "internalType": "address",
          "name": "to",
          "type": "address"
        }
      ],
      "name": "mintNFT",
      "outputs": [],
      "stateMutability": "nonpayable",
      "type": "function"
    },
    {
      "inputs": [],
      "name": "getNFTAddress",
      "outputs": [
        {
          "internalType": "address",
          "name": "",
          "type": "address"
        }
      ],
      "stateMutability": "view",
      "type": "function",
      "constant": true
    },
    {
      "inputs": [
        {
          "internalType": "address",
          "name": "_voter",
          "type": "address"
        }
      ],
      "name": "isStakeholder",
      "outputs": [
        {
          "internalType": "bool",
          "name": "",
          "type": "bool"
        }
      ],
      "stateMutability": "view",
      "type": "function",
      "constant": true
    },
    {
      "inputs": [],
      "name": "contribute",
      "outputs": [
        {
          "internalType": "uint256",
          "name": "",
          "type": "uint256"
        }
      ],
      "stateMutability": "payable",
      "type": "function",
      "payable": true
    },
    {
      "inputs": [
        {
          "internalType": "uint256",
          "name": "voted",
          "type": "uint256"
        },
        {
          "internalType": "uint256",
          "name": "new_votes",
          "type": "uint256"
        }
      ],
      "name": "quadraticVote",
      "outputs": [
        {
          "internalType": "uint256",
          "name": "",
          "type": "uint256"
        }
      ],
      "stateMutability": "pure",
      "type": "function",
      "constant": true
    },
    {
      "inputs": [
        {
          "internalType": "string",
          "name": "title",
          "type": "string"
        },
        {
          "internalType": "string",
          "name": "description",
          "type": "string"
        },
        {
          "internalType": "string[]",
          "name": "_candidateNames",
          "type": "string[]"
        }
      ],
      "name": "createProposal",
      "outputs": [
        {
          "components": [
            {
              "internalType": "uint256",
              "name": "id",
              "type": "uint256"
            },
            {
              "internalType": "uint256",
              "name": "duration",
              "type": "uint256"
            },
            {
              "internalType": "string",
              "name": "title",
              "type": "string"
            },
            {
              "internalType": "string",
              "name": "description",
              "type": "string"
            },
            {
              "internalType": "bool",
              "name": "ended",
              "type": "bool"
            },
            {
              "internalType": "address",
              "name": "proposer",
              "type": "address"
            },
            {
              "internalType": "address",
              "name": "executor",
              "type": "address"
            },
            {
              "components": [
                {
                  "internalType": "uint256",
                  "name": "id",
                  "type": "uint256"
                },
                {
                  "internalType": "string",
                  "name": "name",
                  "type": "string"
                },
                {
                  "internalType": "uint256",
                  "name": "votes",
                  "type": "uint256"
                }
              ],
              "internalType": "struct Election.Candidate[]",
              "name": "candidates",
              "type": "tuple[]"
            }
          ],
          "internalType": "struct Election.Proposal",
          "name": "",
          "type": "tuple"
        }
      ],
      "stateMutability": "nonpayable",
      "type": "function"
    },
    {
      "inputs": [],
      "name": "getProposals",
      "outputs": [
        {
          "components": [
            {
              "internalType": "uint256",
              "name": "id",
              "type": "uint256"
            },
            {
              "internalType": "uint256",
              "name": "duration",
              "type": "uint256"
            },
            {
              "internalType": "string",
              "name": "title",
              "type": "string"
            },
            {
              "internalType": "string",
              "name": "description",
              "type": "string"
            },
            {
              "internalType": "bool",
              "name": "ended",
              "type": "bool"
            },
            {
              "internalType": "address",
              "name": "proposer",
              "type": "address"
            },
            {
              "internalType": "address",
              "name": "executor",
              "type": "address"
            },
            {
              "components": [
                {
                  "internalType": "uint256",
                  "name": "id",
                  "type": "uint256"
                },
                {
                  "internalType": "string",
                  "name": "name",
                  "type": "string"
                },
                {
                  "internalType": "uint256",
                  "name": "votes",
                  "type": "uint256"
                }
              ],
              "internalType": "struct Election.Candidate[]",
              "name": "candidates",
              "type": "tuple[]"
            }
          ],
          "internalType": "struct Election.Proposal[]",
          "name": "props",
          "type": "tuple[]"
        }
      ],
      "stateMutability": "view",
      "type": "function",
      "constant": true
    },
    {
      "inputs": [
        {
          "internalType": "uint256",
          "name": "proposalId",
          "type": "uint256"
        }
      ],
      "name": "getProposal",
      "outputs": [
        {
          "components": [
            {
              "internalType": "uint256",
              "name": "id",
              "type": "uint256"
            },
            {
              "internalType": "uint256",
              "name": "duration",
              "type": "uint256"
            },
            {
              "internalType": "string",
              "name": "title",
              "type": "string"
            },
            {
              "internalType": "string",
              "name": "description",
              "type": "string"
            },
            {
              "internalType": "bool",
              "name": "ended",
              "type": "bool"
            },
            {
              "internalType": "address",
              "name": "proposer",
              "type": "address"
            },
            {
              "internalType": "address",
              "name": "executor",
              "type": "address"
            },
            {
              "components": [
                {
                  "internalType": "uint256",
                  "name": "id",
                  "type": "uint256"
                },
                {
                  "internalType": "string",
                  "name": "name",
                  "type": "string"
                },
                {
                  "internalType": "uint256",
                  "name": "votes",
                  "type": "uint256"
                }
              ],
              "internalType": "struct Election.Candidate[]",
              "name": "candidates",
              "type": "tuple[]"
            }
          ],
          "internalType": "struct Election.Proposal",
          "name": "",
          "type": "tuple"
        }
      ],
      "stateMutability": "view",
      "type": "function",
      "constant": true
    },
    {
      "inputs": [
        {
          "internalType": "uint256",
          "name": "proposalId",
          "type": "uint256"
        }
      ],
      "name": "getCandidates",
      "outputs": [
        {
          "components": [
            {
              "internalType": "uint256",
              "name": "id",
              "type": "uint256"
            },
            {
              "internalType": "string",
              "name": "name",
              "type": "string"
            },
            {
              "internalType": "uint256",
              "name": "votes",
              "type": "uint256"
            }
          ],
          "internalType": "struct Election.Candidate[]",
          "name": "",
          "type": "tuple[]"
        }
      ],
      "stateMutability": "view",
      "type": "function",
      "constant": true
    },
    {
      "inputs": [
        {
          "internalType": "uint256",
          "name": "proposalId",
          "type": "uint256"
        }
      ],
      "name": "getTokensLeftForProposal",
      "outputs": [
        {
          "internalType": "uint256",
          "name": "",
          "type": "uint256"
        }
      ],
      "stateMutability": "view",
      "type": "function",
      "constant": true
    },
    {
      "inputs": [
        {
          "internalType": "uint256",
          "name": "proposalId",
          "type": "uint256"
        },
        {
          "internalType": "uint256",
          "name": "candidateId",
          "type": "uint256"
        },
        {
          "internalType": "uint256",
          "name": "numVotes",
          "type": "uint256"
        }
      ],
      "name": "voteForCandidate",
      "outputs": [
        {
          "components": [
            {
              "internalType": "uint256",
              "name": "id",
              "type": "uint256"
            },
            {
              "internalType": "string",
              "name": "name",
              "type": "string"
            },
            {
              "internalType": "uint256",
              "name": "votes",
              "type": "uint256"
            }
          ],
          "internalType": "struct Election.Candidate",
          "name": "",
          "type": "tuple"
        }
      ],
      "stateMutability": "nonpayable",
      "type": "function"
    },
    {
      "inputs": [
        {
          "internalType": "uint256",
          "name": "proposalId",
          "type": "uint256"
        }
      ],
      "name": "getVotesOfProposal",
      "outputs": [
        {
          "components": [
            {
              "internalType": "address",
              "name": "voter",
              "type": "address"
            },
            {
              "internalType": "uint256",
              "name": "candidateId",
              "type": "uint256"
            },
            {
              "internalType": "uint256",
              "name": "timestamp",
              "type": "uint256"
            },
            {
              "internalType": "uint256",
              "name": "numVotes",
              "type": "uint256"
            }
          ],
          "internalType": "struct Election.Vote[]",
          "name": "",
          "type": "tuple[]"
        }
      ],
      "stateMutability": "view",
      "type": "function",
      "constant": true
    }
  ],
  "bytecode": "0x6101006040527fa49807205ce4d355092ef5a8a18f56e8913cf4a201fbe287825b095693c217756080908152507fa0bb1af1c90aa52ed052b92714ff0087008cc720049bf1af77cca2600b31e80c60a09081525061012c63ffffffff1660c09063ffffffff16815250600a60e09081525060006003553480156200008257600080fd5b506040516200521e3803806200521e8339818101604052810190620000a891906200055a565b600160008190555080600460006101000a81548173ffffffffffffffffffffffffffffffffffffffff021916908373ffffffffffffffffffffffffffffffffffffffff16021790555062000105608051336200015760201b60201c565b62000150336040518060400160405280600581526020017f41646d696e000000000000000000000000000000000000000000000000000000815250600260006200024860201b60201c565b50620006a7565b620001698282620003b960201b60201c565b6200024457600180600084815260200190815260200160002060000160008373ffffffffffffffffffffffffffffffffffffffff1673ffffffffffffffffffffffffffffffffffffffff16815260200190815260200160002060006101000a81548160ff021916908315150217905550620001e96200042460201b60201c565b73ffffffffffffffffffffffffffffffffffffffff168173ffffffffffffffffffffffffffffffffffffffff16837f2f8788117e7eff1d82e926ec794901d17c78024a50270940304540a733656f0d60405160405180910390a45b5050565b600360008154809291906200025d90620005c5565b91905055506000600354905080600a60008773ffffffffffffffffffffffffffffffffffffffff1673ffffffffffffffffffffffffffffffffffffffff168152602001908152602001600020819055506040518060800160405280858152602001846002811115620002d457620002d362000613565b5b81526020018381526020018673ffffffffffffffffffffffffffffffffffffffff168152506009600083815260200190815260200160002060008201518160000190805190602001906200032a9291906200042c565b5060208201518160010160006101000a81548160ff0219169083600281111562000359576200035862000613565b5b02179055506040820151816002015560608201518160030160006101000a81548173ffffffffffffffffffffffffffffffffffffffff021916908373ffffffffffffffffffffffffffffffffffffffff1602179055509050505050505050565b60006001600084815260200190815260200160002060000160008373ffffffffffffffffffffffffffffffffffffffff1673ffffffffffffffffffffffffffffffffffffffff16815260200190815260200160002060009054906101000a900460ff16905092915050565b600033905090565b8280546200043a9062000671565b90600052602060002090601f0160209004810192826200045e5760008555620004aa565b82601f106200047957805160ff1916838001178555620004aa565b82800160010185558215620004aa579182015b82811115620004a95782518255916020019190600101906200048c565b5b509050620004b99190620004bd565b5090565b5b80821115620004d8576000816000905550600101620004be565b5090565b600080fd5b600073ffffffffffffffffffffffffffffffffffffffff82169050919050565b60006200050e82620004e1565b9050919050565b6000620005228262000501565b9050919050565b620005348162000515565b81146200054057600080fd5b50565b600081519050620005548162000529565b92915050565b600060208284031215620005735762000572620004dc565b5b6000620005838482850162000543565b91505092915050565b7f4e487b7100000000000000000000000000000000000000000000000000000000600052601160045260246000fd5b6000819050919050565b6000620005d282620005bb565b91507fffffffffffffffffffffffffffffffffffffffffffffffffffffffffffffffff8214156200060857620006076200058c565b5b600182019050919050565b7f4e487b7100000000000000000000000000000000000000000000000000000000600052602160045260246000fd5b7f4e487b7100000000000000000000000000000000000000000000000000000000600052602260045260246000fd5b600060028204905060018216806200068a57607f821691505b60208210811415620006a157620006a062000642565b5b50919050565b60805160a05160c05160e051614b0c6200071260003960008181610daa0152611c9c015260006110be01526000818161259301526125c1015260008181610b2f01528181610fa20152818161151801528181611cfe01528181611d2b01526124640152614b0c6000f3fe6080604052600436106101815760003560e01c8063a217fddf116100d1578063c7f758a81161008a578063d547741f11610064578063d547741f146105e1578063d7bb99ba1461060a578063ef037b9014610628578063fc0c546a1461066557610181565b8063c7f758a81461053b578063cdd7225314610578578063d4f50f98146105a357610181565b8063a217fddf1461042b578063aca8489214610456578063b32f14861461047f578063b9618478146104bc578063bd972816146104e7578063c634b78e1461051257610181565b80633e39a7a51161013e57806354ba0f271161011857806354ba0f271461035d57806362564c4814610386578063829a0ade146103b157806391d14854146103ee57610181565b80633e39a7a5146102a6578063417d14cb146102e35780634724c40c1461032057610181565b806301ffc9a714610186578063075bb589146101c3578063248a9ca3146102005780632f2ff15d1461023d57806336568abe146102665780633a6a137b1461028f575b600080fd5b34801561019257600080fd5b506101ad60048036038101906101a8919061302a565b610690565b6040516101ba9190613072565b60405180910390f35b3480156101cf57600080fd5b506101ea60048036038101906101e591906130c3565b61070a565b6040516101f79190613244565b60405180910390f35b34801561020c57600080fd5b506102276004803603810190610222919061329c565b6107f0565b60405161023491906132d8565b60405180910390f35b34801561024957600080fd5b50610264600480360381019061025f919061331f565b610810565b005b34801561027257600080fd5b5061028d6004803603810190610288919061331f565b610831565b005b34801561029b57600080fd5b506102a46108b4565b005b3480156102b257600080fd5b506102cd60048036038101906102c891906130c3565b610a07565b6040516102da919061350a565b60405180910390f35b3480156102ef57600080fd5b5061030a6004803603810190610305919061352c565b610b22565b60405161031791906135cf565b60405180910390f35b34801561032c57600080fd5b5061034760048036038101906103429190613867565b610f95565b6040516103549190613a6b565b60405180910390f35b34801561036957600080fd5b50610384600480360381019061037f9190613a8d565b611516565b005b34801561039257600080fd5b5061039b611722565b6040516103a89190613c3a565b60405180910390f35b3480156103bd57600080fd5b506103d860048036038101906103d39190613c5c565b611ae1565b6040516103e59190613cab565b60405180910390f35b3480156103fa57600080fd5b506104156004803603810190610410919061331f565b611b43565b6040516104229190613072565b60405180910390f35b34801561043757600080fd5b50610440611bae565b60405161044d91906132d8565b60405180910390f35b34801561046257600080fd5b5061047d60048036038101906104789190613cc6565b611bb5565b005b34801561048b57600080fd5b506104a660048036038101906104a191906130c3565b611c47565b6040516104b39190613cab565b60405180910390f35b3480156104c857600080fd5b506104d1611ccc565b6040516104de9190613d1e565b60405180910390f35b3480156104f357600080fd5b506104fc611cf6565b6040516105099190613cab565b60405180910390f35b34801561051e57600080fd5b5061053960048036038101906105349190613a8d565b611cfc565b005b34801561054757600080fd5b50610562600480360381019061055d91906130c3565b611d54565b60405161056f9190613a6b565b60405180910390f35b34801561058457600080fd5b5061058d612086565b60405161059a9190613ed5565b60405180910390f35b3480156105af57600080fd5b506105ca60048036038101906105c59190613a8d565b612282565b6040516105d8929190613f5a565b60405180910390f35b3480156105ed57600080fd5b506106086004803603810190610603919061331f565b6124a2565b005b6106126124c3565b60405161061f9190613cab565b60405180910390f35b34801561063457600080fd5b5061064f600480360381019061064a9190613a8d565b612636565b60405161065c9190613072565b60405180910390f35b34801561067157600080fd5b5061067a6126ee565b6040516106879190613fe9565b60405180910390f35b60007f7965db0b000000000000000000000000000000000000000000000000000000007bffffffffffffffffffffffffffffffffffffffffffffffffffffffff1916827bffffffffffffffffffffffffffffffffffffffffffffffffffffffff19161480610703575061070282612714565b5b9050919050565b6060600b6000838152602001908152602001600020805480602002602001604051908101604052809291908181526020016000905b828210156107e557838290600052602060002090600402016040518060800160405290816000820160009054906101000a900473ffffffffffffffffffffffffffffffffffffffff1673ffffffffffffffffffffffffffffffffffffffff1673ffffffffffffffffffffffffffffffffffffffff16815260200160018201548152602001600282015481526020016003820154815250508152602001906001019061073f565b505050509050919050565b600060016000838152602001908152602001600020600101549050919050565b610819826107f0565b6108228161277e565b61082c8383612792565b505050565b610839612872565b73ffffffffffffffffffffffffffffffffffffffff168173ffffffffffffffffffffffffffffffffffffffff16146108a6576040517f08c379a000000000000000000000000000000000000000000000000000000000815260040161089d90614087565b60405180910390fd5b6108b0828261287a565b5050565b6000600a60003373ffffffffffffffffffffffffffffffffffffffff1673ffffffffffffffffffffffffffffffffffffffff1681526020019081526020016000205490506000811161093b576040517f08c379a0000000000000000000000000000000000000000000000000000000008152600401610932906140f3565b60405180910390fd5b6000600281111561094f5761094e613d65565b5b6009600083815260200190815260200160002060010160009054906101000a900460ff16600281111561098557610984613d65565b5b146109c5576040517f08c379a00000000000000000000000000000000000000000000000000000000081526004016109bc90614185565b60405180910390fd5b60016009600083815260200190815260200160002060010160006101000a81548160ff021916908360028111156109ff576109fe613d65565b5b021790555050565b606060066000838152602001908152602001600020600601805480602002602001604051908101604052809291908181526020016000905b82821015610b17578382906000526020600020906003020160405180606001604052908160008201548152602001600182018054610a7c906141d4565b80601f0160208091040260200160405190810160405280929190818152602001828054610aa8906141d4565b8015610af55780601f10610aca57610100808354040283529160200191610af5565b820191906000526020600020905b815481529060010190602001808311610ad857829003601f168201915b5050505050815260200160028201548152505081526020019060010190610a3f565b505050509050919050565b610b2a612db1565b610b547f000000000000000000000000000000000000000000000000000000000000000033611b43565b80610b645750610b6333612636565b5b610ba3576040517f08c379a0000000000000000000000000000000000000000000000000000000008152600401610b9a90614278565b60405180910390fd5b6000600660008681526020019081526020016000209050600081600601805480602002602001604051908101604052809291908181526020016000905b82821015610cb8578382906000526020600020906003020160405180606001604052908160008201548152602001600182018054610c1d906141d4565b80601f0160208091040260200160405190810160405280929190818152602001828054610c49906141d4565b8015610c965780601f10610c6b57610100808354040283529160200191610c96565b820191906000526020600020905b815481529060010190602001808311610c7957829003601f168201915b5050505050815260200160028201548152505081526020019060010190610be0565b5050505090508160040160009054906101000a900460ff1680610cdf575042826001015411155b15610d3c5760018260040160006101000a81548160ff0219169083151502179055506040517f08c379a0000000000000000000000000000000000000000000000000000000008152600401610d33906142e4565b60405180910390fd5b6000600185610d4b9190614333565b600860003373ffffffffffffffffffffffffffffffffffffffff1673ffffffffffffffffffffffffffffffffffffffff168152602001908152602001600020600089815260200190815260200160002054610da6919061438d565b90507f00000000000000000000000000000000000000000000000000000000000000008110610e0a576040517f08c379a0000000000000000000000000000000000000000000000000000000008152600401610e019061442f565b60405180910390fd5b84836006018781548110610e2157610e2061444f565b5b90600052602060002090600302016002016000828254610e41919061438d565b92505081905550600b600088815260200190815260200160002060405180608001604052803373ffffffffffffffffffffffffffffffffffffffff16815260200188815260200142815260200187815250908060018154018082558091505060019003906000526020600020906004020160009091909190915060008201518160000160006101000a81548173ffffffffffffffffffffffffffffffffffffffff021916908373ffffffffffffffffffffffffffffffffffffffff16021790555060208201518160010155604082015181600201556060820151816003015550503373ffffffffffffffffffffffffffffffffffffffff167fa6f6fe9139f021af0f5a3b1c2eca6a1c371d77c4c99fdf2be0a2fdbd215baa8d604051610f66906144ca565b60405180910390a2818681518110610f8157610f8061444f565b5b602002602001015193505050509392505050565b610f9d612dd2565b610fc77f000000000000000000000000000000000000000000000000000000000000000033611b43565b80610fd75750610fd633612636565b5b611016576040517f08c379a000000000000000000000000000000000000000000000000000000000815260040161100d9061455c565b60405180910390fd5b60006002600081548092919061102b9061457c565b91905055905060006006600083815260200190815260200160002090508181600001819055508787826002019190611064929190612e45565b508585826003019190611078929190612e45565b50338160040160016101000a81548173ffffffffffffffffffffffffffffffffffffffff021916908373ffffffffffffffffffffffffffffffffffffffff1602179055507f000000000000000000000000000000000000000000000000000000000000000063ffffffff16426110ee919061438d565b816001018190555060005b84518110156111ab5781600601604051806060016040528083815260200187848151811061112a5761112961444f565b5b602002602001015181526020016000815250908060018154018082558091505060019003906000526020600020906003020160009091909190915060008201518160000155602082015181600101908051906020019061118b929190612ecb565b5060408201518160020155505080806111a39061457c565b9150506110f9565b503373ffffffffffffffffffffffffffffffffffffffff167fa6f6fe9139f021af0f5a3b1c2eca6a1c371d77c4c99fdf2be0a2fdbd215baa8d6040516111f090614611565b60405180910390a280604051806101000160405290816000820154815260200160018201548152602001600282018054611229906141d4565b80601f0160208091040260200160405190810160405280929190818152602001828054611255906141d4565b80156112a25780601f10611277576101008083540402835291602001916112a2565b820191906000526020600020905b81548152906001019060200180831161128557829003601f168201915b505050505081526020016003820180546112bb906141d4565b80601f01602080910402602001604051908101604052809291908181526020018280546112e7906141d4565b80156113345780601f1061130957610100808354040283529160200191611334565b820191906000526020600020905b81548152906001019060200180831161131757829003601f168201915b505050505081526020016004820160009054906101000a900460ff161515151581526020016004820160019054906101000a900473ffffffffffffffffffffffffffffffffffffffff1673ffffffffffffffffffffffffffffffffffffffff1673ffffffffffffffffffffffffffffffffffffffff1681526020016005820160009054906101000a900473ffffffffffffffffffffffffffffffffffffffff1673ffffffffffffffffffffffffffffffffffffffff1673ffffffffffffffffffffffffffffffffffffffff16815260200160068201805480602002602001604051908101604052809291908181526020016000905b82821015611501578382906000526020600020906003020160405180606001604052908160008201548152602001600182018054611466906141d4565b80601f0160208091040260200160405190810160405280929190818152602001828054611492906141d4565b80156114df5780601f106114b4576101008083540402835291602001916114df565b820191906000526020600020905b8154815290600101906020018083116114c257829003601f168201915b5050505050815260200160028201548152505081526020019060010190611429565b50505050815250509250505095945050505050565b7f00000000000000000000000000000000000000000000000000000000000000006115408161277e565b6000600a60008473ffffffffffffffffffffffffffffffffffffffff1673ffffffffffffffffffffffffffffffffffffffff168152602001908152602001600020549050600081116115c7576040517f08c379a00000000000000000000000000000000000000000000000000000000081526004016115be906140f3565b60405180910390fd5b6002808111156115da576115d9613d65565b5b6009600083815260200190815260200160002060010160009054906101000a900460ff1660028111156116105761160f613d65565b5b1415611651576040517f08c379a00000000000000000000000000000000000000000000000000000000081526004016116489061467d565b60405180910390fd5b600460009054906101000a900473ffffffffffffffffffffffffffffffffffffffff1673ffffffffffffffffffffffffffffffffffffffff1663d204c45e846040518263ffffffff1660e01b81526004016116ac9190614735565b600060405180830381600087803b1580156116c657600080fd5b505af11580156116da573d6000803e3d6000fd5b5050505060026009600083815260200190815260200160002060010160006101000a81548160ff0219169083600281111561171857611717613d65565b5b0217905550505050565b606060025467ffffffffffffffff8111156117405761173f613656565b5b60405190808252806020026020018201604052801561177957816020015b611766612dd2565b81526020019060019003908161175e5790505b50905060005b600254811015611add57600660008281526020019081526020016000206040518061010001604052908160008201548152602001600182015481526020016002820180546117cc906141d4565b80601f01602080910402602001604051908101604052809291908181526020018280546117f8906141d4565b80156118455780601f1061181a57610100808354040283529160200191611845565b820191906000526020600020905b81548152906001019060200180831161182857829003601f168201915b5050505050815260200160038201805461185e906141d4565b80601f016020809104026020016040519081016040528092919081815260200182805461188a906141d4565b80156118d75780601f106118ac576101008083540402835291602001916118d7565b820191906000526020600020905b8154815290600101906020018083116118ba57829003601f168201915b505050505081526020016004820160009054906101000a900460ff161515151581526020016004820160019054906101000a900473ffffffffffffffffffffffffffffffffffffffff1673ffffffffffffffffffffffffffffffffffffffff1673ffffffffffffffffffffffffffffffffffffffff1681526020016005820160009054906101000a900473ffffffffffffffffffffffffffffffffffffffff1673ffffffffffffffffffffffffffffffffffffffff1673ffffffffffffffffffffffffffffffffffffffff16815260200160068201805480602002602001604051908101604052809291908181526020016000905b82821015611aa4578382906000526020600020906003020160405180606001604052908160008201548152602001600182018054611a09906141d4565b80601f0160208091040260200160405190810160405280929190818152602001828054611a35906141d4565b8015611a825780601f10611a5757610100808354040283529160200191611a82565b820191906000526020600020905b815481529060010190602001808311611a6557829003601f168201915b50505050508152602001600282015481525050815260200190600101906119cc565b5050505081525050828281518110611abf57611abe61444f565b5b60200260200101819052508080611ad59061457c565b91505061177f565b5090565b600080600090506000600190505b838111611b38578085611b02919061438d565b8186611b0e919061438d565b611b189190614333565b82611b23919061438d565b91508080611b309061457c565b915050611aef565b508091505092915050565b60006001600084815260200190815260200160002060000160008373ffffffffffffffffffffffffffffffffffffffff1673ffffffffffffffffffffffffffffffffffffffff16815260200190815260200160002060009054906101000a900460ff16905092915050565b6000801b81565b6000600a60003373ffffffffffffffffffffffffffffffffffffffff1673ffffffffffffffffffffffffffffffffffffffff1681526020019081526020016000205414611c37576040517f08c379a0000000000000000000000000000000000000000000000000000000008152600401611c2e906147af565b60405180910390fd5b611c44338260008061295c565b50565b6000600860003373ffffffffffffffffffffffffffffffffffffffff1673ffffffffffffffffffffffffffffffffffffffff1681526020019081526020016000206000838152602001908152602001600020547f0000000000000000000000000000000000000000000000000000000000000000611cc591906147cf565b9050919050565b6000600460009054906101000a900473ffffffffffffffffffffffffffffffffffffffff16905090565b60055481565b7f0000000000000000000000000000000000000000000000000000000000000000611d268161277e565b611d507f000000000000000000000000000000000000000000000000000000000000000083612792565b5050565b611d5c612dd2565b60066000838152602001908152602001600020604051806101000160405290816000820154815260200160018201548152602001600282018054611d9f906141d4565b80601f0160208091040260200160405190810160405280929190818152602001828054611dcb906141d4565b8015611e185780601f10611ded57610100808354040283529160200191611e18565b820191906000526020600020905b815481529060010190602001808311611dfb57829003601f168201915b50505050508152602001600382018054611e31906141d4565b80601f0160208091040260200160405190810160405280929190818152602001828054611e5d906141d4565b8015611eaa5780601f10611e7f57610100808354040283529160200191611eaa565b820191906000526020600020905b815481529060010190602001808311611e8d57829003601f168201915b505050505081526020016004820160009054906101000a900460ff161515151581526020016004820160019054906101000a900473ffffffffffffffffffffffffffffffffffffffff1673ffffffffffffffffffffffffffffffffffffffff1673ffffffffffffffffffffffffffffffffffffffff1681526020016005820160009054906101000a900473ffffffffffffffffffffffffffffffffffffffff1673ffffffffffffffffffffffffffffffffffffffff1673ffffffffffffffffffffffffffffffffffffffff16815260200160068201805480602002602001604051908101604052809291908181526020016000905b82821015612077578382906000526020600020906003020160405180606001604052908160008201548152602001600182018054611fdc906141d4565b80601f0160208091040260200160405190810160405280929190818152602001828054612008906141d4565b80156120555780601f1061202a57610100808354040283529160200191612055565b820191906000526020600020905b81548152906001019060200180831161203857829003601f168201915b5050505050815260200160028201548152505081526020019060010190611f9f565b50505050815250509050919050565b6060600060035467ffffffffffffffff8111156120a6576120a5613656565b5b6040519080825280602002602001820160405280156120df57816020015b6120cc612f51565b8152602001906001900390816120c45790505b5090506000600190505b600354811161227a5760096000828152602001908152602001600020604051806080016040529081600082018054612120906141d4565b80601f016020809104026020016040519081016040528092919081815260200182805461214c906141d4565b80156121995780601f1061216e57610100808354040283529160200191612199565b820191906000526020600020905b81548152906001019060200180831161217c57829003601f168201915b505050505081526020016001820160009054906101000a900460ff1660028111156121c7576121c6613d65565b5b60028111156121d9576121d8613d65565b5b8152602001600282015481526020016003820160009054906101000a900473ffffffffffffffffffffffffffffffffffffffff1673ffffffffffffffffffffffffffffffffffffffff1673ffffffffffffffffffffffffffffffffffffffff16815250508260018361224b91906147cf565b8151811061225c5761225b61444f565b5b602002602001018190525080806122729061457c565b9150506120e9565b508091505090565b61228a612f51565b600080600a60008573ffffffffffffffffffffffffffffffffffffffff1673ffffffffffffffffffffffffffffffffffffffff16815260200190815260200160002054905060008111612312576040517f08c379a0000000000000000000000000000000000000000000000000000000008152600401612309906140f3565b60405180910390fd5b60096000828152602001908152602001600020604051806080016040529081600082018054612340906141d4565b80601f016020809104026020016040519081016040528092919081815260200182805461236c906141d4565b80156123b95780601f1061238e576101008083540402835291602001916123b9565b820191906000526020600020905b81548152906001019060200180831161239c57829003601f168201915b505050505081526020016001820160009054906101000a900460ff1660028111156123e7576123e6613d65565b5b60028111156123f9576123f8613d65565b5b8152602001600282015481526020016003820160009054906101000a900473ffffffffffffffffffffffffffffffffffffffff1673ffffffffffffffffffffffffffffffffffffffff1673ffffffffffffffffffffffffffffffffffffffff168152505092506124897f000000000000000000000000000000000000000000000000000000000000000085611b43565b15612497576001915061249c565b600091505b50915091565b6124ab826107f0565b6124b48161277e565b6124be838361287a565b505050565b600080600a60003373ffffffffffffffffffffffffffffffffffffffff1673ffffffffffffffffffffffffffffffffffffffff1681526020019081526020016000205490506000811161254b576040517f08c379a0000000000000000000000000000000000000000000000000000000008152600401612542906140f3565b60405180910390fd5b6000341161258e576040517f08c379a000000000000000000000000000000000000000000000000000000000815260040161258590614875565b60405180910390fd5b6125b87f000000000000000000000000000000000000000000000000000000000000000033611b43565b6125e7576125e67f000000000000000000000000000000000000000000000000000000000000000033612792565b5b3460096000838152602001908152602001600020600201600082825461260d919061438d565b925050819055503460056000828254612626919061438d565b9250508190555060055491505090565b600080600460009054906101000a900473ffffffffffffffffffffffffffffffffffffffff1673ffffffffffffffffffffffffffffffffffffffff166370a08231846040518263ffffffff1660e01b81526004016126949190613d1e565b602060405180830381865afa1580156126b1573d6000803e3d6000fd5b505050506040513d601f19601f820116820180604052508101906126d591906148aa565b11156126e457600190506126e9565b600090505b919050565b600460009054906101000a900473ffffffffffffffffffffffffffffffffffffffff1681565b60007f01ffc9a7000000000000000000000000000000000000000000000000000000007bffffffffffffffffffffffffffffffffffffffffffffffffffffffff1916827bffffffffffffffffffffffffffffffffffffffffffffffffffffffff1916149050919050565b61278f8161278a612872565b612ac3565b50565b61279c8282611b43565b61286e57600180600084815260200190815260200160002060000160008373ffffffffffffffffffffffffffffffffffffffff1673ffffffffffffffffffffffffffffffffffffffff16815260200190815260200160002060006101000a81548160ff021916908315150217905550612813612872565b73ffffffffffffffffffffffffffffffffffffffff168173ffffffffffffffffffffffffffffffffffffffff16837f2f8788117e7eff1d82e926ec794901d17c78024a50270940304540a733656f0d60405160405180910390a45b5050565b600033905090565b6128848282611b43565b156129585760006001600084815260200190815260200160002060000160008373ffffffffffffffffffffffffffffffffffffffff1673ffffffffffffffffffffffffffffffffffffffff16815260200190815260200160002060006101000a81548160ff0219169083151502179055506128fd612872565b73ffffffffffffffffffffffffffffffffffffffff168173ffffffffffffffffffffffffffffffffffffffff16837ff6391f5c32d9c69d2a47ea670b442974b53935d1edc7fd64eb21e047a839171b60405160405180910390a45b5050565b6003600081548092919061296f9061457c565b91905055506000600354905080600a60008773ffffffffffffffffffffffffffffffffffffffff1673ffffffffffffffffffffffffffffffffffffffff1681526020019081526020016000208190555060405180608001604052808581526020018460028111156129e3576129e2613d65565b5b81526020018381526020018673ffffffffffffffffffffffffffffffffffffffff16815250600960008381526020019081526020016000206000820151816000019080519060200190612a37929190612ecb565b5060208201518160010160006101000a81548160ff02191690836002811115612a6357612a62613d65565b5b02179055506040820151816002015560608201518160030160006101000a81548173ffffffffffffffffffffffffffffffffffffffff021916908373ffffffffffffffffffffffffffffffffffffffff1602179055509050505050505050565b612acd8282611b43565b612b4457612ada81612b48565b612ae88360001c6020612b75565b604051602001612af99291906149ab565b6040516020818303038152906040526040517f08c379a0000000000000000000000000000000000000000000000000000000008152600401612b3b9190614a1e565b60405180910390fd5b5050565b6060612b6e8273ffffffffffffffffffffffffffffffffffffffff16601460ff16612b75565b9050919050565b606060006002836002612b889190614333565b612b92919061438d565b67ffffffffffffffff811115612bab57612baa613656565b5b6040519080825280601f01601f191660200182016040528015612bdd5781602001600182028036833780820191505090505b5090507f300000000000000000000000000000000000000000000000000000000000000081600081518110612c1557612c1461444f565b5b60200101907effffffffffffffffffffffffffffffffffffffffffffffffffffffffffffff1916908160001a9053507f780000000000000000000000000000000000000000000000000000000000000081600181518110612c7957612c7861444f565b5b60200101907effffffffffffffffffffffffffffffffffffffffffffffffffffffffffffff1916908160001a90535060006001846002612cb99190614333565b612cc3919061438d565b90505b6001811115612d63577f3031323334353637383961626364656600000000000000000000000000000000600f861660108110612d0557612d0461444f565b5b1a60f81b828281518110612d1c57612d1b61444f565b5b60200101907effffffffffffffffffffffffffffffffffffffffffffffffffffffffffffff1916908160001a905350600485901c945080612d5c90614a40565b9050612cc6565b5060008414612da7576040517f08c379a0000000000000000000000000000000000000000000000000000000008152600401612d9e90614ab6565b60405180910390fd5b8091505092915050565b60405180606001604052806000815260200160608152602001600081525090565b60405180610100016040528060008152602001600081526020016060815260200160608152602001600015158152602001600073ffffffffffffffffffffffffffffffffffffffff168152602001600073ffffffffffffffffffffffffffffffffffffffff168152602001606081525090565b828054612e51906141d4565b90600052602060002090601f016020900481019282612e735760008555612eba565b82601f10612e8c57803560ff1916838001178555612eba565b82800160010185558215612eba579182015b82811115612eb9578235825591602001919060010190612e9e565b5b509050612ec79190612fa1565b5090565b828054612ed7906141d4565b90600052602060002090601f016020900481019282612ef95760008555612f40565b82601f10612f1257805160ff1916838001178555612f40565b82800160010185558215612f40579182015b82811115612f3f578251825591602001919060010190612f24565b5b509050612f4d9190612fa1565b5090565b60405180608001604052806060815260200160006002811115612f7757612f76613d65565b5b815260200160008152602001600073ffffffffffffffffffffffffffffffffffffffff1681525090565b5b80821115612fba576000816000905550600101612fa2565b5090565b6000604051905090565b600080fd5b600080fd5b60007fffffffff0000000000000000000000000000000000000000000000000000000082169050919050565b61300781612fd2565b811461301257600080fd5b50565b60008135905061302481612ffe565b92915050565b6000602082840312156130405761303f612fc8565b5b600061304e84828501613015565b91505092915050565b60008115159050919050565b61306c81613057565b82525050565b60006020820190506130876000830184613063565b92915050565b6000819050919050565b6130a08161308d565b81146130ab57600080fd5b50565b6000813590506130bd81613097565b92915050565b6000602082840312156130d9576130d8612fc8565b5b60006130e7848285016130ae565b91505092915050565b600081519050919050565b600082825260208201905092915050565b6000819050602082019050919050565b600073ffffffffffffffffffffffffffffffffffffffff82169050919050565b60006131478261311c565b9050919050565b6131578161313c565b82525050565b6131668161308d565b82525050565b608082016000820151613182600085018261314e565b506020820151613195602085018261315d565b5060408201516131a8604085018261315d565b5060608201516131bb606085018261315d565b50505050565b60006131cd838361316c565b60808301905092915050565b6000602082019050919050565b60006131f1826130f0565b6131fb81856130fb565b93506132068361310c565b8060005b8381101561323757815161321e88826131c1565b9750613229836131d9565b92505060018101905061320a565b5085935050505092915050565b6000602082019050818103600083015261325e81846131e6565b905092915050565b6000819050919050565b61327981613266565b811461328457600080fd5b50565b60008135905061329681613270565b92915050565b6000602082840312156132b2576132b1612fc8565b5b60006132c084828501613287565b91505092915050565b6132d281613266565b82525050565b60006020820190506132ed60008301846132c9565b92915050565b6132fc8161313c565b811461330757600080fd5b50565b600081359050613319816132f3565b92915050565b6000806040838503121561333657613335612fc8565b5b600061334485828601613287565b92505060206133558582860161330a565b9150509250929050565b600081519050919050565b600082825260208201905092915050565b6000819050602082019050919050565b600081519050919050565b600082825260208201905092915050565b60005b838110156133c55780820151818401526020810190506133aa565b838111156133d4576000848401525b50505050565b6000601f19601f8301169050919050565b60006133f68261338b565b6134008185613396565b93506134108185602086016133a7565b613419816133da565b840191505092915050565b600060608301600083015161343c600086018261315d565b506020830151848203602086015261345482826133eb565b9150506040830151613469604086018261315d565b508091505092915050565b60006134808383613424565b905092915050565b6000602082019050919050565b60006134a08261335f565b6134aa818561336a565b9350836020820285016134bc8561337b565b8060005b858110156134f857848403895281516134d98582613474565b94506134e483613488565b925060208a019950506001810190506134c0565b50829750879550505050505092915050565b600060208201905081810360008301526135248184613495565b905092915050565b60008060006060848603121561354557613544612fc8565b5b6000613553868287016130ae565b9350506020613564868287016130ae565b9250506040613575868287016130ae565b9150509250925092565b6000606083016000830151613597600086018261315d565b50602083015184820360208601526135af82826133eb565b91505060408301516135c4604086018261315d565b508091505092915050565b600060208201905081810360008301526135e9818461357f565b905092915050565b600080fd5b600080fd5b600080fd5b60008083601f840112613616576136156135f1565b5b8235905067ffffffffffffffff811115613633576136326135f6565b5b60208301915083600182028301111561364f5761364e6135fb565b5b9250929050565b7f4e487b7100000000000000000000000000000000000000000000000000000000600052604160045260246000fd5b61368e826133da565b810181811067ffffffffffffffff821117156136ad576136ac613656565b5b80604052505050565b60006136c0612fbe565b90506136cc8282613685565b919050565b600067ffffffffffffffff8211156136ec576136eb613656565b5b602082029050602081019050919050565b600080fd5b600067ffffffffffffffff82111561371d5761371c613656565b5b613726826133da565b9050602081019050919050565b82818337600083830152505050565b600061375561375084613702565b6136b6565b905082815260208101848484011115613771576137706136fd565b5b61377c848285613733565b509392505050565b600082601f830112613799576137986135f1565b5b81356137a9848260208601613742565b91505092915050565b60006137c56137c0846136d1565b6136b6565b905080838252602082019050602084028301858111156137e8576137e76135fb565b5b835b8181101561382f57803567ffffffffffffffff81111561380d5761380c6135f1565b5b80860161381a8982613784565b855260208501945050506020810190506137ea565b5050509392505050565b600082601f83011261384e5761384d6135f1565b5b813561385e8482602086016137b2565b91505092915050565b60008060008060006060868803121561388357613882612fc8565b5b600086013567ffffffffffffffff8111156138a1576138a0612fcd565b5b6138ad88828901613600565b9550955050602086013567ffffffffffffffff8111156138d0576138cf612fcd565b5b6138dc88828901613600565b9350935050604086013567ffffffffffffffff8111156138ff576138fe612fcd565b5b61390b88828901613839565b9150509295509295909350565b61392181613057565b82525050565b600082825260208201905092915050565b60006139438261335f565b61394d8185613927565b93508360208202850161395f8561337b565b8060005b8581101561399b578484038952815161397c8582613474565b945061398783613488565b925060208a01995050600181019050613963565b50829750879550505050505092915050565b6000610100830160008301516139c6600086018261315d565b5060208301516139d9602086018261315d565b50604083015184820360408601526139f182826133eb565b91505060608301518482036060860152613a0b82826133eb565b9150506080830151613a206080860182613918565b5060a0830151613a3360a086018261314e565b5060c0830151613a4660c086018261314e565b5060e083015184820360e0860152613a5e8282613938565b9150508091505092915050565b60006020820190508181036000830152613a8581846139ad565b905092915050565b600060208284031215613aa357613aa2612fc8565b5b6000613ab18482850161330a565b91505092915050565b600081519050919050565b600082825260208201905092915050565b6000819050602082019050919050565b600061010083016000830151613aff600086018261315d565b506020830151613b12602086018261315d565b5060408301518482036040860152613b2a82826133eb565b91505060608301518482036060860152613b4482826133eb565b9150506080830151613b596080860182613918565b5060a0830151613b6c60a086018261314e565b5060c0830151613b7f60c086018261314e565b5060e083015184820360e0860152613b978282613938565b9150508091505092915050565b6000613bb08383613ae6565b905092915050565b6000602082019050919050565b6000613bd082613aba565b613bda8185613ac5565b935083602082028501613bec85613ad6565b8060005b85811015613c285784840389528151613c098582613ba4565b9450613c1483613bb8565b925060208a01995050600181019050613bf0565b50829750879550505050505092915050565b60006020820190508181036000830152613c548184613bc5565b905092915050565b60008060408385031215613c7357613c72612fc8565b5b6000613c81858286016130ae565b9250506020613c92858286016130ae565b9150509250929050565b613ca58161308d565b82525050565b6000602082019050613cc06000830184613c9c565b92915050565b600060208284031215613cdc57613cdb612fc8565b5b600082013567ffffffffffffffff811115613cfa57613cf9612fcd565b5b613d0684828501613784565b91505092915050565b613d188161313c565b82525050565b6000602082019050613d336000830184613d0f565b92915050565b600081519050919050565b600082825260208201905092915050565b6000819050602082019050919050565b7f4e487b7100000000000000000000000000000000000000000000000000000000600052602160045260246000fd5b60038110613da557613da4613d65565b5b50565b6000819050613db682613d94565b919050565b6000613dc682613da8565b9050919050565b613dd681613dbb565b82525050565b60006080830160008301518482036000860152613df982826133eb565b9150506020830151613e0e6020860182613dcd565b506040830151613e21604086018261315d565b506060830151613e34606086018261314e565b508091505092915050565b6000613e4b8383613ddc565b905092915050565b6000602082019050919050565b6000613e6b82613d39565b613e758185613d44565b935083602082028501613e8785613d55565b8060005b85811015613ec35784840389528151613ea48582613e3f565b9450613eaf83613e53565b925060208a01995050600181019050613e8b565b50829750879550505050505092915050565b60006020820190508181036000830152613eef8184613e60565b905092915050565b60006080830160008301518482036000860152613f1482826133eb565b9150506020830151613f296020860182613dcd565b506040830151613f3c604086018261315d565b506060830151613f4f606086018261314e565b508091505092915050565b60006040820190508181036000830152613f748185613ef7565b9050613f836020830184613063565b9392505050565b6000819050919050565b6000613faf613faa613fa58461311c565b613f8a565b61311c565b9050919050565b6000613fc182613f94565b9050919050565b6000613fd382613fb6565b9050919050565b613fe381613fc8565b82525050565b6000602082019050613ffe6000830184613fda565b92915050565b600082825260208201905092915050565b7f416363657373436f6e74726f6c3a2063616e206f6e6c792072656e6f756e636560008201527f20726f6c657320666f722073656c660000000000000000000000000000000000602082015250565b6000614071602f83614004565b915061407c82614015565b604082019050919050565b600060208201905081810360008301526140a081614064565b9050919050565b7f55736572206e6f742072656769737465726564206f6e2044414f000000000000600082015250565b60006140dd601a83614004565b91506140e8826140a7565b602082019050919050565b6000602082019050818103600083015261410c816140d0565b9050919050565b7f5573657220616c7265616479206170706c696564206f72206861732061204e4660008201527f5400000000000000000000000000000000000000000000000000000000000000602082015250565b600061416f602183614004565b915061417a82614113565b604082019050919050565b6000602082019050818103600083015261419e81614162565b9050919050565b7f4e487b7100000000000000000000000000000000000000000000000000000000600052602260045260246000fd5b600060028204905060018216806141ec57607f821691505b60208210811415614200576141ff6141a5565b5b50919050565b7f4f6e6c792041646d696e7320616e64205374616b65686f6c646572732063616e60008201527f20766f7465000000000000000000000000000000000000000000000000000000602082015250565b6000614262602583614004565b915061426d82614206565b604082019050919050565b6000602082019050818103600083015261429181614255565b9050919050565b7f50726f706f73616c206475726174696f6e206578706972656400000000000000600082015250565b60006142ce601983614004565b91506142d982614298565b602082019050919050565b600060208201905081810360008301526142fd816142c1565b9050919050565b7f4e487b7100000000000000000000000000000000000000000000000000000000600052601160045260246000fd5b600061433e8261308d565b91506143498361308d565b9250817fffffffffffffffffffffffffffffffffffffffffffffffffffffffffffffffff048311821515161561438257614381614304565b5b828202905092915050565b60006143988261308d565b91506143a38361308d565b9250827fffffffffffffffffffffffffffffffffffffffffffffffffffffffffffffffff038211156143d8576143d7614304565b5b828201905092915050565b7f496e73756666696369656e7420746f6b656e7320666f7220616464726573732e600082015250565b6000614419602083614004565b9150614424826143e3565b602082019050919050565b600060208201905081810360008301526144488161440c565b9050919050565b7f4e487b7100000000000000000000000000000000000000000000000000000000600052603260045260246000fd5b7f50524f504f53414c5f564f544500000000000000000000000000000000000000600082015250565b60006144b4600d83614004565b91506144bf8261447e565b602082019050919050565b600060208201905081810360008301526144e3816144a7565b9050919050565b7f4f6e6c792041646d696e7320616e64205374616b65686f6c646572732063616e60008201527f206372656174652070726f706f73616c73000000000000000000000000000000602082015250565b6000614546603183614004565b9150614551826144ea565b604082019050919050565b6000602082019050818103600083015261457581614539565b9050919050565b60006145878261308d565b91507fffffffffffffffffffffffffffffffffffffffffffffffffffffffffffffffff8214156145ba576145b9614304565b5b600182019050919050565b7f50524f504f53414c5f5241495345440000000000000000000000000000000000600082015250565b60006145fb600f83614004565b9150614606826145c5565b602082019050919050565b6000602082019050818103600083015261462a816145ee565b9050919050565b7f416c7265616479206d696e746564204e465420746f2074686520757365720000600082015250565b6000614667601e83614004565b915061467282614631565b602082019050919050565b600060208201905081810360008301526146968161465a565b9050919050565b7f68747470733a2f2f697066732e696f2f697066732f516d53367066417264536560008201527f66704239463375656d777672414364657854695175513169416f6e4d686d794260208201527f7736360000000000000000000000000000000000000000000000000000000000604082015250565b600061471f604383614004565b915061472a8261469d565b606082019050919050565b600060408201905061474a6000830184613d0f565b818103602083015261475b81614712565b905092915050565b7f5573657220616c72656164792072656769737465726564000000000000000000600082015250565b6000614799601783614004565b91506147a482614763565b602082019050919050565b600060208201905081810360008301526147c88161478c565b9050919050565b60006147da8261308d565b91506147e58361308d565b9250828210156147f8576147f7614304565b5b828203905092915050565b7f436f6e747269627574696e67207a65726f206973206e6f7420616c6c6f77656460008201527f2e00000000000000000000000000000000000000000000000000000000000000602082015250565b600061485f602183614004565b915061486a82614803565b604082019050919050565b6000602082019050818103600083015261488e81614852565b9050919050565b6000815190506148a481613097565b92915050565b6000602082840312156148c0576148bf612fc8565b5b60006148ce84828501614895565b91505092915050565b600081905092915050565b7f416363657373436f6e74726f6c3a206163636f756e7420000000000000000000600082015250565b60006149186017836148d7565b9150614923826148e2565b601782019050919050565b60006149398261338b565b61494381856148d7565b93506149538185602086016133a7565b80840191505092915050565b7f206973206d697373696e6720726f6c6520000000000000000000000000000000600082015250565b60006149956011836148d7565b91506149a08261495f565b601182019050919050565b60006149b68261490b565b91506149c2828561492e565b91506149cd82614988565b91506149d9828461492e565b91508190509392505050565b60006149f08261338b565b6149fa8185614004565b9350614a0a8185602086016133a7565b614a13816133da565b840191505092915050565b60006020820190508181036000830152614a3881846149e5565b905092915050565b6000614a4b8261308d565b91506000821415614a5f57614a5e614304565b5b600182039050919050565b7f537472696e67733a20686578206c656e67746820696e73756666696369656e74600082015250565b6000614aa0602083614004565b9150614aab82614a6a565b602082019050919050565b60006020820190508181036000830152614acf81614a93565b905091905056fea2646970667358221220125e688222c46461e8508dba8ade7ebc57419c9a02b9b5fb7271b783a96283f564736f6c634300080b0033",
  "immutableReferences": {
    "8856": [
      {
        "length": 32,
        "start": 2863
      },
      {
        "length": 32,
        "start": 4002
      },
      {
        "length": 32,
        "start": 5400
      },
      {
        "length": 32,
        "start": 7422
      },
      {
        "length": 32,
        "start": 7467
      },
      {
        "length": 32,
        "start": 9316
      }
    ],
    "8861": [
      {
        "length": 32,
        "start": 9619
      },
      {
        "length": 32,
        "start": 9665
      }
    ],
    "8864": [
      {
        "length": 32,
        "start": 4286
      }
    ],
    "8867": [
      {
        "length": 32,
        "start": 3498
      },
      {
        "length": 32,
        "start": 7324
      }
    ]
  },
  "source": "// SPDX-License-Identifier: MIT\r\npragma solidity ^0.8.7;\r\n\r\nimport \"@openzeppelin/contracts/access/AccessControl.sol\";\r\nimport \"@openzeppelin/contracts/security/ReentrancyGuard.sol\";\r\nimport \"./QuadraNFT.sol\";\r\n\r\ncontract Election is ReentrancyGuard, AccessControl {\r\n    bytes32 private immutable ADMIN_ROLE = keccak256(\"ADMIN_ROLE\");\r\n    bytes32 private immutable CONTRIBUTOR_ROLE = keccak256(\"CONTRIBUTOR\");\r\n    uint32 immutable MIN_VOTE_DURATION = 5 minutes;\r\n    uint256 immutable MAX_TOKENS = 10;\r\n    uint256 totalProposals;\r\n    uint256 totalVoters = 0;\r\n    QuadraNFT public token;\r\n    uint256 public daoBalance;\r\n\r\n    struct Candidate {\r\n        uint256 id;\r\n        string name;\r\n        uint256 votes;\r\n    }\r\n\r\n    struct Proposal {\r\n        uint256 id;\r\n        uint256 duration;\r\n        string title;\r\n        string description;\r\n        bool ended;\r\n        address proposer;\r\n        address executor; // ??\r\n        Candidate[] candidates;\r\n    }\r\n\r\n    // Vote object to keep track of votes in a proposal\r\n    struct Vote {\r\n        address voter;\r\n        uint256 candidateId;\r\n        uint256 timestamp;\r\n        uint256 numVotes;\r\n    }\r\n\r\n    //voter status for anonymous voting\r\n    enum VoterStatus {\r\n        INITIAL,\r\n        IN_PROGRESS,\r\n        VALID\r\n    }\r\n\r\n    struct Voter {\r\n        string username;\r\n        VoterStatus status;\r\n        uint256 depositedAmount;\r\n        address voterAddress;\r\n    }\r\n\r\n    mapping(uint256 => Proposal) private raisedProposals;\r\n    mapping(address => Vote) private votes; // Keep track of Vote per address\r\n\r\n    // Keep track of tokens spent per address for each proposdal\r\n    mapping(address => mapping(uint256 => uint256)) private tokensSpent;\r\n\r\n    // Keep track of all voters\r\n    mapping(uint256 => Voter) private voters;\r\n    mapping(address => uint256) private voterIds;\r\n\r\n    // All vote objects for a proposal\r\n    mapping(uint256 => Vote[]) private votedOn;\r\n\r\n    // ??\r\n    // mapping(address => uint256) private contributors;\r\n    // mapping(address => uint256) private stakeholders;\r\n\r\n    event Action(address indexed initiator, string message);\r\n    constructor(QuadraNFT _token) {\r\n        token = _token;\r\n        _grantRole(ADMIN_ROLE, msg.sender);\r\n        _addVoter(msg.sender, \"Admin\", VoterStatus.VALID, 0);\r\n    }\r\n\r\n    function _addVoter(address account, string memory username, VoterStatus status, uint256 depositedAmount) private{\r\n        totalVoters++;\r\n        uint256 voterId = totalVoters;\r\n        voterIds[account] = voterId;\r\n        voters[voterId] = Voter(username, status, depositedAmount, account);\r\n    }\r\n\r\n    function addVoter(string memory username) public {\r\n        require(voterIds[msg.sender] == 0, \"User already registered\");\r\n        _addVoter(msg.sender, username, VoterStatus.INITIAL, 0);\r\n    }\r\n\r\n    function grantAdminRole(address account) public onlyRole(ADMIN_ROLE) {\r\n        _grantRole(ADMIN_ROLE, account);\r\n    }\r\n\r\n    function getVoter(address account) external view returns (Voter memory voter, bool isAdmin) {\r\n        uint256 id = voterIds[account];\r\n        require(\r\n            id > 0,\r\n            \"User not registered on DAO\"\r\n        );\r\n        voter = voters[id];\r\n        // add is is admin role, add a bool to reply\r\n        if (hasRole(ADMIN_ROLE, account)) {\r\n            isAdmin = true;\r\n        }else{\r\n            isAdmin = false;\r\n        }\r\n        return (voter, isAdmin);\r\n    }\r\n\r\n    function getVoters() external view returns (Voter[] memory) {\r\n        Voter[] memory _voters = new Voter[](totalVoters);\r\n        for (uint256 i = 1; i <= totalVoters; i++) {\r\n            _voters[i-1] = voters[i];\r\n        }\r\n        return _voters;\r\n    }\r\n\r\n    function applyNFT() public {\r\n        uint256 id = voterIds[msg.sender];\r\n        require(\r\n            id > 0,\r\n            \"User not registered on DAO\"\r\n        );\r\n        require(\r\n            voters[id].status == VoterStatus.INITIAL,\r\n            \"User already applied or has a NFT\"\r\n        );\r\n        voters[id].status = VoterStatus.IN_PROGRESS;\r\n    }\r\n\r\n    function mintNFT(address to) public onlyRole(ADMIN_ROLE) {\r\n        uint256 id = voterIds[to];\r\n        require(\r\n            id > 0,\r\n            \"User not registered on DAO\"\r\n        );\r\n        require(\r\n            voters[id].status != VoterStatus.VALID,\r\n            \"Already minted NFT to the user\"\r\n        );\r\n        token.safeMint(to, \"https://ipfs.io/ipfs/QmS6pfArdSefpB9F3uemwvrACdexTiQuQ1iAonMhmyBw66\");\r\n        voters[id].status = VoterStatus.VALID;\r\n    }\r\n\r\n    function getNFTAddress() public view returns (address) {\r\n        return address(token);\r\n    }\r\n\r\n    function isStakeholder(address _voter) public view returns (bool) {\r\n        // if the voter has a token in the Token contract\r\n        // cast the function BalanceOf to the token contract QUadraDAO with address _token\r\n        if(token.balanceOf(_voter) > 0) return true;\r\n        return false;\r\n    }\r\n\r\n    function contribute() payable external returns (uint256) {\r\n        uint256 id = voterIds[msg.sender];\r\n        require(\r\n            id > 0,\r\n            \"User not registered on DAO\"\r\n        );\r\n        require(msg.value > 0 ether, \"Contributing zero is not allowed.\");\r\n        if (!hasRole(CONTRIBUTOR_ROLE, msg.sender)) {\r\n            _grantRole(CONTRIBUTOR_ROLE, msg.sender);\r\n        }\r\n        voters[id].depositedAmount += msg.value;\r\n        \r\n        daoBalance += msg.value;\r\n\r\n        return daoBalance;\r\n    }\r\n\r\n    function quadraticVote(uint256 voted, uint256 new_votes) public pure returns (uint) {\r\n        uint256 tokens = 0;\r\n        for (uint i = 1; i <= new_votes; i++) {\r\n            tokens += (voted + i) * (voted + i);\r\n        }\r\n        return tokens;\r\n    }\r\n\r\n    function createProposal(\r\n        string calldata title,\r\n        string calldata description,\r\n        string[] memory _candidateNames\r\n    ) external returns (Proposal memory) {\r\n        require(\r\n            hasRole(ADMIN_ROLE, msg.sender) || isStakeholder(msg.sender), \"Only Admins and Stakeholders can create proposals\"\r\n        );\r\n        uint256 proposalId = totalProposals++;\r\n        Proposal storage proposal = raisedProposals[proposalId];\r\n        proposal.id = proposalId;\r\n        proposal.title = title;\r\n        proposal.description = description;\r\n        proposal.proposer = payable(msg.sender);\r\n\r\n        // TODO: Make this variable\r\n        proposal.duration = block.timestamp + MIN_VOTE_DURATION;\r\n\r\n        // Init candidates\r\n        for (uint256 i = 0; i < _candidateNames.length; i++) {\r\n            proposal.candidates.push(Candidate(i, _candidateNames[i], 0));\r\n        }\r\n\r\n        emit Action(msg.sender, \"PROPOSAL_RAISED\");\r\n\r\n        return proposal;\r\n    }\r\n\r\n    function getProposals() external view returns (Proposal[] memory props) {\r\n        props = new Proposal[](totalProposals);\r\n\r\n        for (uint256 i = 0; i < totalProposals; i++) {\r\n            props[i] = raisedProposals[i];\r\n        }\r\n    }\r\n\r\n    function getProposal(\r\n        uint256 proposalId\r\n    ) external view returns (Proposal memory) {\r\n        return raisedProposals[proposalId];\r\n    }\r\n\r\n    // Might be redundant in client code\r\n    function getCandidates(\r\n        uint256 proposalId\r\n    ) public view returns (Candidate[] memory) {\r\n        return raisedProposals[proposalId].candidates;\r\n    }\r\n\r\n    function getTokensLeftForProposal(\r\n        uint256 proposalId\r\n    ) public view returns (uint256) {\r\n        return MAX_TOKENS - tokensSpent[msg.sender][proposalId];\r\n    }\r\n\r\n    function voteForCandidate(\r\n        uint256 proposalId,\r\n        uint256 candidateId,\r\n        uint256 numVotes\r\n    ) public returns (Candidate memory) {\r\n        require(\r\n            hasRole(ADMIN_ROLE, msg.sender) || isStakeholder(msg.sender), \"Only Admins and Stakeholders can vote\"\r\n        );\r\n        Proposal storage proposal = raisedProposals[proposalId];\r\n        Candidate[] memory candidates = proposal.candidates;\r\n\r\n        if (proposal.ended || proposal.duration <= block.timestamp) {\r\n            proposal.ended = true;\r\n            revert(\"Proposal duration expired\");\r\n        }\r\n\r\n        // Check if msg.sender has enough tokens\r\n        // TODO: Implement quadratic voiting here\r\n        uint256 totalNumTokensSpent = tokensSpent[msg.sender][proposalId] +\r\n            numVotes *\r\n            1;\r\n        if (totalNumTokensSpent >= MAX_TOKENS) {\r\n            revert(\"Insufficient tokens for address.\");\r\n        }\r\n\r\n        // Add vote to candidate\r\n        proposal.candidates[candidateId].votes += numVotes; // TODO: Implement time decay here\r\n\r\n        // proposal.candidates = candidates; // Updated candidates\r\n\r\n        // Add vote to Address -> Vote map\r\n        // votes[msg.sender] = Vote(msg.sender, proposalId, candidateId, block.timestamp);\r\n        votedOn[proposalId].push(\r\n            Vote(msg.sender, candidateId, block.timestamp, numVotes)\r\n        );\r\n\r\n        emit Action(msg.sender, \"PROPOSAL_VOTE\");\r\n\r\n        // TODO: Should candidate be returned here or vote?\r\n        return candidates[candidateId];\r\n    }\r\n\r\n    function getVotesOfProposal(\r\n        uint256 proposalId\r\n    ) public view returns (Vote[] memory) {\r\n        return votedOn[proposalId];\r\n    }\r\n}\r\n",
  "sourcePath": "C:\\Users\\shang\\Documents\\GitHub\\ECE1770-QV-DAO-DApp\\src\\contracts\\Election.sol",
  "compiler": {
    "name": "solc",
    "version": "0.8.11+commit.d7f03943.Emscripten.clang"
  },
  "schemaVersion": "3.4.16",
  "updatedAt": "2024-04-13T05:13:49.904Z",
  "networkType": "ethereum",
  "devdoc": {
    "kind": "dev",
    "methods": {
      "getRoleAdmin(bytes32)": {
        "details": "Returns the admin role that controls `role`. See {grantRole} and {revokeRole}. To change a role's admin, use {_setRoleAdmin}."
      },
      "grantRole(bytes32,address)": {
        "details": "Grants `role` to `account`. If `account` had not been already granted `role`, emits a {RoleGranted} event. Requirements: - the caller must have ``role``'s admin role. May emit a {RoleGranted} event."
      },
      "hasRole(bytes32,address)": {
        "details": "Returns `true` if `account` has been granted `role`."
      },
      "renounceRole(bytes32,address)": {
        "details": "Revokes `role` from the calling account. Roles are often managed via {grantRole} and {revokeRole}: this function's purpose is to provide a mechanism for accounts to lose their privileges if they are compromised (such as when a trusted device is misplaced). If the calling account had been revoked `role`, emits a {RoleRevoked} event. Requirements: - the caller must be `account`. May emit a {RoleRevoked} event."
      },
      "revokeRole(bytes32,address)": {
        "details": "Revokes `role` from `account`. If `account` had been granted `role`, emits a {RoleRevoked} event. Requirements: - the caller must have ``role``'s admin role. May emit a {RoleRevoked} event."
      },
      "supportsInterface(bytes4)": {
        "details": "See {IERC165-supportsInterface}."
      }
    },
    "version": 1
  },
  "userdoc": {
    "kind": "user",
    "methods": {},
    "version": 1
  }
}