{
  "contractName": "Election",
  "abi": [
    {
      "inputs": [
        {
          "internalType": "contract QuadraNFT",
          "name": "_token",
          "type": "address"
        }
      ],
      "stateMutability": "nonpayable",
      "type": "constructor"
    },
    {
      "anonymous": false,
      "inputs": [
        {
          "indexed": true,
          "internalType": "address",
          "name": "initiator",
          "type": "address"
        },
        {
          "indexed": false,
          "internalType": "string",
          "name": "message",
          "type": "string"
        }
      ],
      "name": "Action",
      "type": "event"
    },
    {
      "anonymous": false,
      "inputs": [
        {
          "indexed": true,
          "internalType": "bytes32",
          "name": "role",
          "type": "bytes32"
        },
        {
          "indexed": true,
          "internalType": "bytes32",
          "name": "previousAdminRole",
          "type": "bytes32"
        },
        {
          "indexed": true,
          "internalType": "bytes32",
          "name": "newAdminRole",
          "type": "bytes32"
        }
      ],
      "name": "RoleAdminChanged",
      "type": "event"
    },
    {
      "anonymous": false,
      "inputs": [
        {
          "indexed": true,
          "internalType": "bytes32",
          "name": "role",
          "type": "bytes32"
        },
        {
          "indexed": true,
          "internalType": "address",
          "name": "account",
          "type": "address"
        },
        {
          "indexed": true,
          "internalType": "address",
          "name": "sender",
          "type": "address"
        }
      ],
      "name": "RoleGranted",
      "type": "event"
    },
    {
      "anonymous": false,
      "inputs": [
        {
          "indexed": true,
          "internalType": "bytes32",
          "name": "role",
          "type": "bytes32"
        },
        {
          "indexed": true,
          "internalType": "address",
          "name": "account",
          "type": "address"
        },
        {
          "indexed": true,
          "internalType": "address",
          "name": "sender",
          "type": "address"
        }
      ],
      "name": "RoleRevoked",
      "type": "event"
    },
    {
      "inputs": [],
      "name": "DEFAULT_ADMIN_ROLE",
      "outputs": [
        {
          "internalType": "bytes32",
          "name": "",
          "type": "bytes32"
        }
      ],
      "stateMutability": "view",
      "type": "function",
      "constant": true
    },
    {
      "inputs": [],
      "name": "daoBalance",
      "outputs": [
        {
          "internalType": "uint256",
          "name": "",
          "type": "uint256"
        }
      ],
      "stateMutability": "view",
      "type": "function",
      "constant": true
    },
    {
      "inputs": [
        {
          "internalType": "bytes32",
          "name": "role",
          "type": "bytes32"
        }
      ],
      "name": "getRoleAdmin",
      "outputs": [
        {
          "internalType": "bytes32",
          "name": "",
          "type": "bytes32"
        }
      ],
      "stateMutability": "view",
      "type": "function",
      "constant": true
    },
    {
      "inputs": [
        {
          "internalType": "bytes32",
          "name": "role",
          "type": "bytes32"
        },
        {
          "internalType": "address",
          "name": "account",
          "type": "address"
        }
      ],
      "name": "grantRole",
      "outputs": [],
      "stateMutability": "nonpayable",
      "type": "function"
    },
    {
      "inputs": [
        {
          "internalType": "bytes32",
          "name": "role",
          "type": "bytes32"
        },
        {
          "internalType": "address",
          "name": "account",
          "type": "address"
        }
      ],
      "name": "hasRole",
      "outputs": [
        {
          "internalType": "bool",
          "name": "",
          "type": "bool"
        }
      ],
      "stateMutability": "view",
      "type": "function",
      "constant": true
    },
    {
      "inputs": [
        {
          "internalType": "bytes32",
          "name": "role",
          "type": "bytes32"
        },
        {
          "internalType": "address",
          "name": "account",
          "type": "address"
        }
      ],
      "name": "renounceRole",
      "outputs": [],
      "stateMutability": "nonpayable",
      "type": "function"
    },
    {
      "inputs": [
        {
          "internalType": "bytes32",
          "name": "role",
          "type": "bytes32"
        },
        {
          "internalType": "address",
          "name": "account",
          "type": "address"
        }
      ],
      "name": "revokeRole",
      "outputs": [],
      "stateMutability": "nonpayable",
      "type": "function"
    },
    {
      "inputs": [
        {
          "internalType": "bytes4",
          "name": "interfaceId",
          "type": "bytes4"
        }
      ],
      "name": "supportsInterface",
      "outputs": [
        {
          "internalType": "bool",
          "name": "",
          "type": "bool"
        }
      ],
      "stateMutability": "view",
      "type": "function",
      "constant": true
    },
    {
      "inputs": [],
      "name": "token",
      "outputs": [
        {
          "internalType": "contract QuadraNFT",
          "name": "",
          "type": "address"
        }
      ],
      "stateMutability": "view",
      "type": "function",
      "constant": true
    },
    {
      "inputs": [
        {
          "internalType": "address",
          "name": "account",
          "type": "address"
        },
        {
          "internalType": "string",
          "name": "username",
          "type": "string"
        },
        {
          "internalType": "enum Election.VoterStatus",
          "name": "status",
          "type": "uint8"
        },
        {
          "internalType": "uint256",
          "name": "depositedAmount",
          "type": "uint256"
        }
      ],
      "name": "addVoter",
      "outputs": [],
      "stateMutability": "nonpayable",
      "type": "function"
    },
    {
      "inputs": [
        {
          "internalType": "address",
          "name": "account",
          "type": "address"
        }
      ],
      "name": "grantAdminRole",
      "outputs": [],
      "stateMutability": "nonpayable",
      "type": "function"
    },
    {
      "inputs": [
        {
          "internalType": "address",
          "name": "account",
          "type": "address"
        }
      ],
      "name": "getVoter",
      "outputs": [
        {
          "components": [
            {
              "internalType": "string",
              "name": "username",
              "type": "string"
            },
            {
              "internalType": "enum Election.VoterStatus",
              "name": "status",
              "type": "uint8"
            },
            {
              "internalType": "uint256",
              "name": "depositedAmount",
              "type": "uint256"
            }
          ],
          "internalType": "struct Election.Voter",
          "name": "voter",
          "type": "tuple"
        },
        {
          "internalType": "bool",
          "name": "isAdmin",
          "type": "bool"
        }
      ],
      "stateMutability": "view",
      "type": "function",
      "constant": true
    },
    {
      "inputs": [],
      "name": "applyNFT",
      "outputs": [],
      "stateMutability": "nonpayable",
      "type": "function"
    },
    {
      "inputs": [
        {
          "internalType": "address",
          "name": "to",
          "type": "address"
        }
      ],
      "name": "mintNFT",
      "outputs": [],
      "stateMutability": "nonpayable",
      "type": "function"
    },
    {
      "inputs": [],
      "name": "getNFTAddress",
      "outputs": [
        {
          "internalType": "address",
          "name": "",
          "type": "address"
        }
      ],
      "stateMutability": "view",
      "type": "function",
      "constant": true
    },
    {
      "inputs": [
        {
          "internalType": "address",
          "name": "_voter",
          "type": "address"
        }
      ],
      "name": "isStakeholder",
      "outputs": [
        {
          "internalType": "bool",
          "name": "",
          "type": "bool"
        }
      ],
      "stateMutability": "view",
      "type": "function",
      "constant": true
    },
    {
      "inputs": [],
      "name": "contribute",
      "outputs": [
        {
          "internalType": "uint256",
          "name": "",
          "type": "uint256"
        }
      ],
      "stateMutability": "payable",
      "type": "function",
      "payable": true
    },
    {
      "inputs": [
        {
          "internalType": "uint256",
          "name": "voted",
          "type": "uint256"
        },
        {
          "internalType": "uint256",
          "name": "new_votes",
          "type": "uint256"
        }
      ],
      "name": "quadraticVote",
      "outputs": [
        {
          "internalType": "uint256",
          "name": "",
          "type": "uint256"
        }
      ],
      "stateMutability": "pure",
      "type": "function",
      "constant": true
    },
    {
      "inputs": [
        {
          "internalType": "string",
          "name": "title",
          "type": "string"
        },
        {
          "internalType": "string",
          "name": "description",
          "type": "string"
        },
        {
          "internalType": "string[]",
          "name": "_candidateNames",
          "type": "string[]"
        }
      ],
      "name": "createProposal",
      "outputs": [
        {
          "components": [
            {
              "internalType": "uint256",
              "name": "id",
              "type": "uint256"
            },
            {
              "internalType": "uint256",
              "name": "duration",
              "type": "uint256"
            },
            {
              "internalType": "string",
              "name": "title",
              "type": "string"
            },
            {
              "internalType": "string",
              "name": "description",
              "type": "string"
            },
            {
              "internalType": "bool",
              "name": "ended",
              "type": "bool"
            },
            {
              "internalType": "address",
              "name": "proposer",
              "type": "address"
            },
            {
              "internalType": "address",
              "name": "executor",
              "type": "address"
            },
            {
              "components": [
                {
                  "internalType": "uint256",
                  "name": "id",
                  "type": "uint256"
                },
                {
                  "internalType": "string",
                  "name": "name",
                  "type": "string"
                },
                {
                  "internalType": "uint256",
                  "name": "votes",
                  "type": "uint256"
                }
              ],
              "internalType": "struct Election.Candidate[]",
              "name": "candidates",
              "type": "tuple[]"
            }
          ],
          "internalType": "struct Election.Proposal",
          "name": "",
          "type": "tuple"
        }
      ],
      "stateMutability": "nonpayable",
      "type": "function"
    },
    {
      "inputs": [],
      "name": "getProposals",
      "outputs": [
        {
          "components": [
            {
              "internalType": "uint256",
              "name": "id",
              "type": "uint256"
            },
            {
              "internalType": "uint256",
              "name": "duration",
              "type": "uint256"
            },
            {
              "internalType": "string",
              "name": "title",
              "type": "string"
            },
            {
              "internalType": "string",
              "name": "description",
              "type": "string"
            },
            {
              "internalType": "bool",
              "name": "ended",
              "type": "bool"
            },
            {
              "internalType": "address",
              "name": "proposer",
              "type": "address"
            },
            {
              "internalType": "address",
              "name": "executor",
              "type": "address"
            },
            {
              "components": [
                {
                  "internalType": "uint256",
                  "name": "id",
                  "type": "uint256"
                },
                {
                  "internalType": "string",
                  "name": "name",
                  "type": "string"
                },
                {
                  "internalType": "uint256",
                  "name": "votes",
                  "type": "uint256"
                }
              ],
              "internalType": "struct Election.Candidate[]",
              "name": "candidates",
              "type": "tuple[]"
            }
          ],
          "internalType": "struct Election.Proposal[]",
          "name": "props",
          "type": "tuple[]"
        }
      ],
      "stateMutability": "view",
      "type": "function",
      "constant": true
    },
    {
      "inputs": [
        {
          "internalType": "uint256",
          "name": "proposalId",
          "type": "uint256"
        }
      ],
      "name": "getProposal",
      "outputs": [
        {
          "components": [
            {
              "internalType": "uint256",
              "name": "id",
              "type": "uint256"
            },
            {
              "internalType": "uint256",
              "name": "duration",
              "type": "uint256"
            },
            {
              "internalType": "string",
              "name": "title",
              "type": "string"
            },
            {
              "internalType": "string",
              "name": "description",
              "type": "string"
            },
            {
              "internalType": "bool",
              "name": "ended",
              "type": "bool"
            },
            {
              "internalType": "address",
              "name": "proposer",
              "type": "address"
            },
            {
              "internalType": "address",
              "name": "executor",
              "type": "address"
            },
            {
              "components": [
                {
                  "internalType": "uint256",
                  "name": "id",
                  "type": "uint256"
                },
                {
                  "internalType": "string",
                  "name": "name",
                  "type": "string"
                },
                {
                  "internalType": "uint256",
                  "name": "votes",
                  "type": "uint256"
                }
              ],
              "internalType": "struct Election.Candidate[]",
              "name": "candidates",
              "type": "tuple[]"
            }
          ],
          "internalType": "struct Election.Proposal",
          "name": "",
          "type": "tuple"
        }
      ],
      "stateMutability": "view",
      "type": "function",
      "constant": true
    },
    {
      "inputs": [
        {
          "internalType": "uint256",
          "name": "proposalId",
          "type": "uint256"
        }
      ],
      "name": "getCandidates",
      "outputs": [
        {
          "components": [
            {
              "internalType": "uint256",
              "name": "id",
              "type": "uint256"
            },
            {
              "internalType": "string",
              "name": "name",
              "type": "string"
            },
            {
              "internalType": "uint256",
              "name": "votes",
              "type": "uint256"
            }
          ],
          "internalType": "struct Election.Candidate[]",
          "name": "",
          "type": "tuple[]"
        }
      ],
      "stateMutability": "view",
      "type": "function",
      "constant": true
    },
    {
      "inputs": [
        {
          "internalType": "uint256",
          "name": "proposalId",
          "type": "uint256"
        }
      ],
      "name": "getTokensLeftForProposal",
      "outputs": [
        {
          "internalType": "uint256",
          "name": "",
          "type": "uint256"
        }
      ],
      "stateMutability": "view",
      "type": "function",
      "constant": true
    },
    {
      "inputs": [
        {
          "internalType": "uint256",
          "name": "proposalId",
          "type": "uint256"
        },
        {
          "internalType": "uint256",
          "name": "candidateId",
          "type": "uint256"
        },
        {
          "internalType": "uint256",
          "name": "numVotes",
          "type": "uint256"
        }
      ],
      "name": "voteForCandidate",
      "outputs": [
        {
          "components": [
            {
              "internalType": "uint256",
              "name": "id",
              "type": "uint256"
            },
            {
              "internalType": "string",
              "name": "name",
              "type": "string"
            },
            {
              "internalType": "uint256",
              "name": "votes",
              "type": "uint256"
            }
          ],
          "internalType": "struct Election.Candidate",
          "name": "",
          "type": "tuple"
        }
      ],
      "stateMutability": "nonpayable",
      "type": "function"
    },
    {
      "inputs": [
        {
          "internalType": "uint256",
          "name": "proposalId",
          "type": "uint256"
        }
      ],
      "name": "getVotesOfProposal",
      "outputs": [
        {
          "components": [
            {
              "internalType": "address",
              "name": "voter",
              "type": "address"
            },
            {
              "internalType": "uint256",
              "name": "candidateId",
              "type": "uint256"
            },
            {
              "internalType": "uint256",
              "name": "timestamp",
              "type": "uint256"
            },
            {
              "internalType": "uint256",
              "name": "numVotes",
              "type": "uint256"
            }
          ],
          "internalType": "struct Election.Vote[]",
          "name": "",
          "type": "tuple[]"
        }
      ],
      "stateMutability": "view",
      "type": "function",
      "constant": true
    }
  ],
  "bytecode": "0x6101006040527fa49807205ce4d355092ef5a8a18f56e8913cf4a201fbe287825b095693c217756080908152507fa0bb1af1c90aa52ed052b92714ff0087008cc720049bf1af77cca2600b31e80c60a09081525061012c63ffffffff1660c09063ffffffff16815250600a60e0908152503480156200007d57600080fd5b506040516200518c3803806200518c8339818101604052810190620000a391906200082d565b600160008190555080600360006101000a81548173ffffffffffffffffffffffffffffffffffffffff021916908373ffffffffffffffffffffffffffffffffffffffff16021790555062000100608051336200015260201b60201c565b6200014b336040518060400160405280600581526020017f41646d696e000000000000000000000000000000000000000000000000000000815250600260006200024360201b60201c565b5062000cd5565b6200016482826200032c60201b60201c565b6200023f57600180600084815260200190815260200160002060000160008373ffffffffffffffffffffffffffffffffffffffff1673ffffffffffffffffffffffffffffffffffffffff16815260200190815260200160002060006101000a81548160ff021916908315150217905550620001e46200039760201b60201c565b73ffffffffffffffffffffffffffffffffffffffff168173ffffffffffffffffffffffffffffffffffffffff16837f2f8788117e7eff1d82e926ec794901d17c78024a50270940304540a733656f0d60405160405180910390a45b5050565b60805162000257816200039f60201b60201c565b60405180606001604052808581526020018460028111156200027e576200027d6200085f565b5b815260200183815250600860008773ffffffffffffffffffffffffffffffffffffffff1673ffffffffffffffffffffffffffffffffffffffff1681526020019081526020016000206000820151816000019080519060200190620002e4929190620006ff565b5060208201518160010160006101000a81548160ff021916908360028111156200031357620003126200085f565b5b0217905550604082015181600201559050505050505050565b60006001600084815260200190815260200160002060000160008373ffffffffffffffffffffffffffffffffffffffff1673ffffffffffffffffffffffffffffffffffffffff16815260200190815260200160002060009054906101000a900460ff16905092915050565b600033905090565b620003c081620003b46200039760201b60201c565b620003c360201b60201c565b50565b620003d582826200032c60201b60201c565b6200046b57620003f0816200046f60201b620023ca1760201c565b6200040b8360001c6020620004a460201b620023f71760201c565b6040516020016200041e929190620009b1565b6040516020818303038152906040526040517f08c379a000000000000000000000000000000000000000000000000000000000815260040162000462919062000a56565b60405180910390fd5b5050565b60606200049d8273ffffffffffffffffffffffffffffffffffffffff16601460ff16620004a460201b60201c565b9050919050565b606060006002836002620004b9919062000ab3565b620004c5919062000b14565b67ffffffffffffffff811115620004e157620004e062000b71565b5b6040519080825280601f01601f191660200182016040528015620005145781602001600182028036833780820191505090505b5090507f3000000000000000000000000000000000000000000000000000000000000000816000815181106200054f576200054e62000ba0565b5b60200101907effffffffffffffffffffffffffffffffffffffffffffffffffffffffffffff1916908160001a9053507f780000000000000000000000000000000000000000000000000000000000000081600181518110620005b657620005b562000ba0565b5b60200101907effffffffffffffffffffffffffffffffffffffffffffffffffffffffffffff1916908160001a90535060006001846002620005f8919062000ab3565b62000604919062000b14565b90505b6001811115620006ae577f3031323334353637383961626364656600000000000000000000000000000000600f8616601081106200064a576200064962000ba0565b5b1a60f81b82828151811062000664576200066362000ba0565b5b60200101907effffffffffffffffffffffffffffffffffffffffffffffffffffffffffffff1916908160001a905350600485901c945080620006a69062000bcf565b905062000607565b5060008414620006f5576040517f08c379a0000000000000000000000000000000000000000000000000000000008152600401620006ec9062000c4e565b60405180910390fd5b8091505092915050565b8280546200070d9062000c9f565b90600052602060002090601f0160209004810192826200073157600085556200077d565b82601f106200074c57805160ff19168380011785556200077d565b828001600101855582156200077d579182015b828111156200077c5782518255916020019190600101906200075f565b5b5090506200078c919062000790565b5090565b5b80821115620007ab57600081600090555060010162000791565b5090565b600080fd5b600073ffffffffffffffffffffffffffffffffffffffff82169050919050565b6000620007e182620007b4565b9050919050565b6000620007f582620007d4565b9050919050565b6200080781620007e8565b81146200081357600080fd5b50565b6000815190506200082781620007fc565b92915050565b600060208284031215620008465762000845620007af565b5b6000620008568482850162000816565b91505092915050565b7f4e487b7100000000000000000000000000000000000000000000000000000000600052602160045260246000fd5b600081905092915050565b7f416363657373436f6e74726f6c3a206163636f756e7420000000000000000000600082015250565b6000620008d16017836200088e565b9150620008de8262000899565b601782019050919050565b600081519050919050565b60005b8381101562000914578082015181840152602081019050620008f7565b8381111562000924576000848401525b50505050565b60006200093782620008e9565b6200094381856200088e565b935062000955818560208601620008f4565b80840191505092915050565b7f206973206d697373696e6720726f6c6520000000000000000000000000000000600082015250565b6000620009996011836200088e565b9150620009a68262000961565b601182019050919050565b6000620009be82620008c2565b9150620009cc82856200092a565b9150620009d9826200098a565b9150620009e782846200092a565b91508190509392505050565b600082825260208201905092915050565b6000601f19601f8301169050919050565b600062000a2282620008e9565b62000a2e8185620009f3565b935062000a40818560208601620008f4565b62000a4b8162000a04565b840191505092915050565b6000602082019050818103600083015262000a72818462000a15565b905092915050565b6000819050919050565b7f4e487b7100000000000000000000000000000000000000000000000000000000600052601160045260246000fd5b600062000ac08262000a7a565b915062000acd8362000a7a565b9250817fffffffffffffffffffffffffffffffffffffffffffffffffffffffffffffffff048311821515161562000b095762000b0862000a84565b5b828202905092915050565b600062000b218262000a7a565b915062000b2e8362000a7a565b9250827fffffffffffffffffffffffffffffffffffffffffffffffffffffffffffffffff0382111562000b665762000b6562000a84565b5b828201905092915050565b7f4e487b7100000000000000000000000000000000000000000000000000000000600052604160045260246000fd5b7f4e487b7100000000000000000000000000000000000000000000000000000000600052603260045260246000fd5b600062000bdc8262000a7a565b9150600082141562000bf35762000bf262000a84565b5b600182039050919050565b7f537472696e67733a20686578206c656e67746820696e73756666696369656e74600082015250565b600062000c36602083620009f3565b915062000c438262000bfe565b602082019050919050565b6000602082019050818103600083015262000c698162000c27565b9050919050565b7f4e487b7100000000000000000000000000000000000000000000000000000000600052602260045260246000fd5b6000600282049050600182168062000cb857607f821691505b6020821081141562000ccf5762000cce62000c70565b5b50919050565b60805160a05160c05160e05161444562000d4760003960008181610d340152611c5b0152600061104801526000818161221e015261224c015260008181610ab901528181610f2c015281816114a201528181611a3d01528181611cbd01528181611cea015261217701526144456000f3fe6080604052600436106101665760003560e01c8063829a0ade116100d1578063c634b78e1161008a578063d547741f11610064578063d547741f1461059b578063d7bb99ba146105c4578063ef037b90146105e2578063fc0c546a1461061f57610166565b8063c634b78e146104f7578063c7f758a814610520578063d4f50f981461055d57610166565b8063829a0ade146103bf57806391d14854146103fc578063a217fddf14610439578063b32f148614610464578063b9618478146104a1578063bd972816146104cc57610166565b80633e39a7a5116101235780633e39a7a51461028b578063417d14cb146102c85780634724c40c1461030557806354ba0f271461034257806362564c481461036b57806379ff8e331461039657610166565b806301ffc9a71461016b578063075bb589146101a8578063248a9ca3146101e55780632f2ff15d1461022257806336568abe1461024b5780633a6a137b14610274575b600080fd5b34801561017757600080fd5b50610192600480360381019061018d9190612b5c565b61064a565b60405161019f9190612ba4565b60405180910390f35b3480156101b457600080fd5b506101cf60048036038101906101ca9190612bf5565b6106c4565b6040516101dc9190612d76565b60405180910390f35b3480156101f157600080fd5b5061020c60048036038101906102079190612dce565b6107aa565b6040516102199190612e0a565b60405180910390f35b34801561022e57600080fd5b5061024960048036038101906102449190612e51565b6107ca565b005b34801561025757600080fd5b50610272600480360381019061026d9190612e51565b6107eb565b005b34801561028057600080fd5b5061028961086e565b005b34801561029757600080fd5b506102b260048036038101906102ad9190612bf5565b610991565b6040516102bf919061303c565b60405180910390f35b3480156102d457600080fd5b506102ef60048036038101906102ea919061305e565b610aac565b6040516102fc9190613101565b60405180910390f35b34801561031157600080fd5b5061032c60048036038101906103279190613399565b610f1f565b604051610339919061359d565b60405180910390f35b34801561034e57600080fd5b50610369600480360381019061036491906135bf565b6114a0565b005b34801561037757600080fd5b5061038061167c565b60405161038d919061376c565b60405180910390f35b3480156103a257600080fd5b506103bd60048036038101906103b891906137b3565b611a3b565b005b3480156103cb57600080fd5b506103e660048036038101906103e19190613836565b611b32565b6040516103f39190613885565b60405180910390f35b34801561040857600080fd5b50610423600480360381019061041e9190612e51565b611b94565b6040516104309190612ba4565b60405180910390f35b34801561044557600080fd5b5061044e611bff565b60405161045b9190612e0a565b60405180910390f35b34801561047057600080fd5b5061048b60048036038101906104869190612bf5565b611c06565b6040516104989190613885565b60405180910390f35b3480156104ad57600080fd5b506104b6611c8b565b6040516104c391906138af565b60405180910390f35b3480156104d857600080fd5b506104e1611cb5565b6040516104ee9190613885565b60405180910390f35b34801561050357600080fd5b5061051e600480360381019061051991906135bf565b611cbb565b005b34801561052c57600080fd5b5061054760048036038101906105429190612bf5565b611d13565b604051610554919061359d565b60405180910390f35b34801561056957600080fd5b50610584600480360381019061057f91906135bf565b612045565b604051610592929190613991565b60405180910390f35b3480156105a757600080fd5b506105c260048036038101906105bd9190612e51565b6121b4565b005b6105cc6121d5565b6040516105d99190613885565b60405180910390f35b3480156105ee57600080fd5b50610609600480360381019061060491906135bf565b6122ec565b6040516106169190612ba4565b60405180910390f35b34801561062b57600080fd5b506106346123a4565b6040516106419190613a20565b60405180910390f35b60007f7965db0b000000000000000000000000000000000000000000000000000000007bffffffffffffffffffffffffffffffffffffffffffffffffffffffff1916827bffffffffffffffffffffffffffffffffffffffffffffffffffffffff191614806106bd57506106bc82612633565b5b9050919050565b606060096000838152602001908152602001600020805480602002602001604051908101604052809291908181526020016000905b8282101561079f57838290600052602060002090600402016040518060800160405290816000820160009054906101000a900473ffffffffffffffffffffffffffffffffffffffff1673ffffffffffffffffffffffffffffffffffffffff1673ffffffffffffffffffffffffffffffffffffffff1681526020016001820154815260200160028201548152602001600382015481525050815260200190600101906106f9565b505050509050919050565b600060016000838152602001908152602001600020600101549050919050565b6107d3826107aa565b6107dc8161269d565b6107e683836126b1565b505050565b6107f3612791565b73ffffffffffffffffffffffffffffffffffffffff168173ffffffffffffffffffffffffffffffffffffffff1614610860576040517f08c379a000000000000000000000000000000000000000000000000000000000815260040161085790613abe565b60405180910390fd5b61086a8282612799565b5050565b60006002811115610882576108816138ca565b5b600860003373ffffffffffffffffffffffffffffffffffffffff1673ffffffffffffffffffffffffffffffffffffffff16815260200190815260200160002060010160009054906101000a900460ff1660028111156108e4576108e36138ca565b5b14610924576040517f08c379a000000000000000000000000000000000000000000000000000000000815260040161091b90613b2a565b60405180910390fd5b6001600860003373ffffffffffffffffffffffffffffffffffffffff1673ffffffffffffffffffffffffffffffffffffffff16815260200190815260200160002060010160006101000a81548160ff0219169083600281111561098a576109896138ca565b5b0217905550565b606060056000838152602001908152602001600020600601805480602002602001604051908101604052809291908181526020016000905b82821015610aa1578382906000526020600020906003020160405180606001604052908160008201548152602001600182018054610a0690613b79565b80601f0160208091040260200160405190810160405280929190818152602001828054610a3290613b79565b8015610a7f5780601f10610a5457610100808354040283529160200191610a7f565b820191906000526020600020905b815481529060010190602001808311610a6257829003601f168201915b50505050508152602001600282015481525050815260200190600101906109c9565b505050509050919050565b610ab4612900565b610ade7f000000000000000000000000000000000000000000000000000000000000000033611b94565b80610aee5750610aed336122ec565b5b610b2d576040517f08c379a0000000000000000000000000000000000000000000000000000000008152600401610b2490613c1d565b60405180910390fd5b6000600560008681526020019081526020016000209050600081600601805480602002602001604051908101604052809291908181526020016000905b82821015610c42578382906000526020600020906003020160405180606001604052908160008201548152602001600182018054610ba790613b79565b80601f0160208091040260200160405190810160405280929190818152602001828054610bd390613b79565b8015610c205780601f10610bf557610100808354040283529160200191610c20565b820191906000526020600020905b815481529060010190602001808311610c0357829003601f168201915b5050505050815260200160028201548152505081526020019060010190610b6a565b5050505090508160040160009054906101000a900460ff1680610c69575042826001015411155b15610cc65760018260040160006101000a81548160ff0219169083151502179055506040517f08c379a0000000000000000000000000000000000000000000000000000000008152600401610cbd90613c89565b60405180910390fd5b6000600185610cd59190613cd8565b600760003373ffffffffffffffffffffffffffffffffffffffff1673ffffffffffffffffffffffffffffffffffffffff168152602001908152602001600020600089815260200190815260200160002054610d309190613d32565b90507f00000000000000000000000000000000000000000000000000000000000000008110610d94576040517f08c379a0000000000000000000000000000000000000000000000000000000008152600401610d8b90613dd4565b60405180910390fd5b84836006018781548110610dab57610daa613df4565b5b90600052602060002090600302016002016000828254610dcb9190613d32565b925050819055506009600088815260200190815260200160002060405180608001604052803373ffffffffffffffffffffffffffffffffffffffff16815260200188815260200142815260200187815250908060018154018082558091505060019003906000526020600020906004020160009091909190915060008201518160000160006101000a81548173ffffffffffffffffffffffffffffffffffffffff021916908373ffffffffffffffffffffffffffffffffffffffff16021790555060208201518160010155604082015181600201556060820151816003015550503373ffffffffffffffffffffffffffffffffffffffff167fa6f6fe9139f021af0f5a3b1c2eca6a1c371d77c4c99fdf2be0a2fdbd215baa8d604051610ef090613e6f565b60405180910390a2818681518110610f0b57610f0a613df4565b5b602002602001015193505050509392505050565b610f27612921565b610f517f000000000000000000000000000000000000000000000000000000000000000033611b94565b80610f615750610f60336122ec565b5b610fa0576040517f08c379a0000000000000000000000000000000000000000000000000000000008152600401610f9790613f01565b60405180910390fd5b600060026000815480929190610fb590613f21565b91905055905060006005600083815260200190815260200160002090508181600001819055508787826002019190610fee929190612994565b508585826003019190611002929190612994565b50338160040160016101000a81548173ffffffffffffffffffffffffffffffffffffffff021916908373ffffffffffffffffffffffffffffffffffffffff1602179055507f000000000000000000000000000000000000000000000000000000000000000063ffffffff16426110789190613d32565b816001018190555060005b8451811015611135578160060160405180606001604052808381526020018784815181106110b4576110b3613df4565b5b6020026020010151815260200160008152509080600181540180825580915050600190039060005260206000209060030201600090919091909150600082015181600001556020820151816001019080519060200190611115929190612a1a565b50604082015181600201555050808061112d90613f21565b915050611083565b503373ffffffffffffffffffffffffffffffffffffffff167fa6f6fe9139f021af0f5a3b1c2eca6a1c371d77c4c99fdf2be0a2fdbd215baa8d60405161117a90613fb6565b60405180910390a2806040518061010001604052908160008201548152602001600182015481526020016002820180546111b390613b79565b80601f01602080910402602001604051908101604052809291908181526020018280546111df90613b79565b801561122c5780601f106112015761010080835404028352916020019161122c565b820191906000526020600020905b81548152906001019060200180831161120f57829003601f168201915b5050505050815260200160038201805461124590613b79565b80601f016020809104026020016040519081016040528092919081815260200182805461127190613b79565b80156112be5780601f10611293576101008083540402835291602001916112be565b820191906000526020600020905b8154815290600101906020018083116112a157829003601f168201915b505050505081526020016004820160009054906101000a900460ff161515151581526020016004820160019054906101000a900473ffffffffffffffffffffffffffffffffffffffff1673ffffffffffffffffffffffffffffffffffffffff1673ffffffffffffffffffffffffffffffffffffffff1681526020016005820160009054906101000a900473ffffffffffffffffffffffffffffffffffffffff1673ffffffffffffffffffffffffffffffffffffffff1673ffffffffffffffffffffffffffffffffffffffff16815260200160068201805480602002602001604051908101604052809291908181526020016000905b8282101561148b5783829060005260206000209060030201604051806060016040529081600082015481526020016001820180546113f090613b79565b80601f016020809104026020016040519081016040528092919081815260200182805461141c90613b79565b80156114695780601f1061143e57610100808354040283529160200191611469565b820191906000526020600020905b81548152906001019060200180831161144c57829003601f168201915b50505050508152602001600282015481525050815260200190600101906113b3565b50505050815250509250505095945050505050565b7f00000000000000000000000000000000000000000000000000000000000000006114ca8161269d565b600160028111156114de576114dd6138ca565b5b600860008473ffffffffffffffffffffffffffffffffffffffff1673ffffffffffffffffffffffffffffffffffffffff16815260200190815260200160002060010160009054906101000a900460ff1660028111156115405761153f6138ca565b5b14611580576040517f08c379a000000000000000000000000000000000000000000000000000000000815260040161157790614022565b60405180910390fd5b600360009054906101000a900473ffffffffffffffffffffffffffffffffffffffff1673ffffffffffffffffffffffffffffffffffffffff1663d204c45e836040518263ffffffff1660e01b81526004016115db91906140da565b600060405180830381600087803b1580156115f557600080fd5b505af1158015611609573d6000803e3d6000fd5b505050506002600860008473ffffffffffffffffffffffffffffffffffffffff1673ffffffffffffffffffffffffffffffffffffffff16815260200190815260200160002060010160006101000a81548160ff02191690836002811115611673576116726138ca565b5b02179055505050565b606060025467ffffffffffffffff81111561169a57611699613188565b5b6040519080825280602002602001820160405280156116d357816020015b6116c0612921565b8152602001906001900390816116b85790505b50905060005b600254811015611a37576005600082815260200190815260200160002060405180610100016040529081600082015481526020016001820154815260200160028201805461172690613b79565b80601f016020809104026020016040519081016040528092919081815260200182805461175290613b79565b801561179f5780601f106117745761010080835404028352916020019161179f565b820191906000526020600020905b81548152906001019060200180831161178257829003601f168201915b505050505081526020016003820180546117b890613b79565b80601f01602080910402602001604051908101604052809291908181526020018280546117e490613b79565b80156118315780601f1061180657610100808354040283529160200191611831565b820191906000526020600020905b81548152906001019060200180831161181457829003601f168201915b505050505081526020016004820160009054906101000a900460ff161515151581526020016004820160019054906101000a900473ffffffffffffffffffffffffffffffffffffffff1673ffffffffffffffffffffffffffffffffffffffff1673ffffffffffffffffffffffffffffffffffffffff1681526020016005820160009054906101000a900473ffffffffffffffffffffffffffffffffffffffff1673ffffffffffffffffffffffffffffffffffffffff1673ffffffffffffffffffffffffffffffffffffffff16815260200160068201805480602002602001604051908101604052809291908181526020016000905b828210156119fe57838290600052602060002090600302016040518060600160405290816000820154815260200160018201805461196390613b79565b80601f016020809104026020016040519081016040528092919081815260200182805461198f90613b79565b80156119dc5780601f106119b1576101008083540402835291602001916119dc565b820191906000526020600020905b8154815290600101906020018083116119bf57829003601f168201915b5050505050815260200160028201548152505081526020019060010190611926565b5050505081525050828281518110611a1957611a18613df4565b5b60200260200101819052508080611a2f90613f21565b9150506116d9565b5090565b7f0000000000000000000000000000000000000000000000000000000000000000611a658161269d565b6040518060600160405280858152602001846002811115611a8957611a886138ca565b5b815260200183815250600860008773ffffffffffffffffffffffffffffffffffffffff1673ffffffffffffffffffffffffffffffffffffffff1681526020019081526020016000206000820151816000019080519060200190611aed929190612a1a565b5060208201518160010160006101000a81548160ff02191690836002811115611b1957611b186138ca565b5b0217905550604082015181600201559050505050505050565b600080600090506000600190505b838111611b89578085611b539190613d32565b8186611b5f9190613d32565b611b699190613cd8565b82611b749190613d32565b91508080611b8190613f21565b915050611b40565b508091505092915050565b60006001600084815260200190815260200160002060000160008373ffffffffffffffffffffffffffffffffffffffff1673ffffffffffffffffffffffffffffffffffffffff16815260200190815260200160002060009054906101000a900460ff16905092915050565b6000801b81565b6000600760003373ffffffffffffffffffffffffffffffffffffffff1673ffffffffffffffffffffffffffffffffffffffff1681526020019081526020016000206000838152602001908152602001600020547f0000000000000000000000000000000000000000000000000000000000000000611c849190614108565b9050919050565b6000600360009054906101000a900473ffffffffffffffffffffffffffffffffffffffff16905090565b60045481565b7f0000000000000000000000000000000000000000000000000000000000000000611ce58161269d565b611d0f7f0000000000000000000000000000000000000000000000000000000000000000836126b1565b5050565b611d1b612921565b60056000838152602001908152602001600020604051806101000160405290816000820154815260200160018201548152602001600282018054611d5e90613b79565b80601f0160208091040260200160405190810160405280929190818152602001828054611d8a90613b79565b8015611dd75780601f10611dac57610100808354040283529160200191611dd7565b820191906000526020600020905b815481529060010190602001808311611dba57829003601f168201915b50505050508152602001600382018054611df090613b79565b80601f0160208091040260200160405190810160405280929190818152602001828054611e1c90613b79565b8015611e695780601f10611e3e57610100808354040283529160200191611e69565b820191906000526020600020905b815481529060010190602001808311611e4c57829003601f168201915b505050505081526020016004820160009054906101000a900460ff161515151581526020016004820160019054906101000a900473ffffffffffffffffffffffffffffffffffffffff1673ffffffffffffffffffffffffffffffffffffffff1673ffffffffffffffffffffffffffffffffffffffff1681526020016005820160009054906101000a900473ffffffffffffffffffffffffffffffffffffffff1673ffffffffffffffffffffffffffffffffffffffff1673ffffffffffffffffffffffffffffffffffffffff16815260200160068201805480602002602001604051908101604052809291908181526020016000905b82821015612036578382906000526020600020906003020160405180606001604052908160008201548152602001600182018054611f9b90613b79565b80601f0160208091040260200160405190810160405280929190818152602001828054611fc790613b79565b80156120145780601f10611fe957610100808354040283529160200191612014565b820191906000526020600020905b815481529060010190602001808311611ff757829003601f168201915b5050505050815260200160028201548152505081526020019060010190611f5e565b50505050815250509050919050565b61204d612aa0565b6000600860008473ffffffffffffffffffffffffffffffffffffffff1673ffffffffffffffffffffffffffffffffffffffff1681526020019081526020016000206040518060600160405290816000820180546120a990613b79565b80601f01602080910402602001604051908101604052809291908181526020018280546120d590613b79565b80156121225780601f106120f757610100808354040283529160200191612122565b820191906000526020600020905b81548152906001019060200180831161210557829003601f168201915b505050505081526020016001820160009054906101000a900460ff1660028111156121505761214f6138ca565b5b6002811115612162576121616138ca565b5b8152602001600282015481525050915061219c7f000000000000000000000000000000000000000000000000000000000000000084611b94565b156121aa57600190506121af565b600090505b915091565b6121bd826107aa565b6121c68161269d565b6121d08383612799565b505050565b6000803411612219576040517f08c379a0000000000000000000000000000000000000000000000000000000008152600401612210906141ae565b60405180910390fd5b6122437f000000000000000000000000000000000000000000000000000000000000000033611b94565b612272576122717f0000000000000000000000000000000000000000000000000000000000000000336126b1565b5b34600860003373ffffffffffffffffffffffffffffffffffffffff1673ffffffffffffffffffffffffffffffffffffffff16815260200190815260200160002060020160008282546122c49190613d32565b9250508190555034600460008282546122dd9190613d32565b92505081905550600454905090565b600080600360009054906101000a900473ffffffffffffffffffffffffffffffffffffffff1673ffffffffffffffffffffffffffffffffffffffff166370a08231846040518263ffffffff1660e01b815260040161234a91906138af565b602060405180830381865afa158015612367573d6000803e3d6000fd5b505050506040513d601f19601f8201168201806040525081019061238b91906141e3565b111561239a576001905061239f565b600090505b919050565b600360009054906101000a900473ffffffffffffffffffffffffffffffffffffffff1681565b60606123f08273ffffffffffffffffffffffffffffffffffffffff16601460ff166123f7565b9050919050565b60606000600283600261240a9190613cd8565b6124149190613d32565b67ffffffffffffffff81111561242d5761242c613188565b5b6040519080825280601f01601f19166020018201604052801561245f5781602001600182028036833780820191505090505b5090507f30000000000000000000000000000000000000000000000000000000000000008160008151811061249757612496613df4565b5b60200101907effffffffffffffffffffffffffffffffffffffffffffffffffffffffffffff1916908160001a9053507f7800000000000000000000000000000000000000000000000000000000000000816001815181106124fb576124fa613df4565b5b60200101907effffffffffffffffffffffffffffffffffffffffffffffffffffffffffffff1916908160001a9053506000600184600261253b9190613cd8565b6125459190613d32565b90505b60018111156125e5577f3031323334353637383961626364656600000000000000000000000000000000600f86166010811061258757612586613df4565b5b1a60f81b82828151811061259e5761259d613df4565b5b60200101907effffffffffffffffffffffffffffffffffffffffffffffffffffffffffffff1916908160001a905350600485901c9450806125de90614210565b9050612548565b5060008414612629576040517f08c379a000000000000000000000000000000000000000000000000000000000815260040161262090614286565b60405180910390fd5b8091505092915050565b60007f01ffc9a7000000000000000000000000000000000000000000000000000000007bffffffffffffffffffffffffffffffffffffffffffffffffffffffff1916827bffffffffffffffffffffffffffffffffffffffffffffffffffffffff1916149050919050565b6126ae816126a9612791565b61287b565b50565b6126bb8282611b94565b61278d57600180600084815260200190815260200160002060000160008373ffffffffffffffffffffffffffffffffffffffff1673ffffffffffffffffffffffffffffffffffffffff16815260200190815260200160002060006101000a81548160ff021916908315150217905550612732612791565b73ffffffffffffffffffffffffffffffffffffffff168173ffffffffffffffffffffffffffffffffffffffff16837f2f8788117e7eff1d82e926ec794901d17c78024a50270940304540a733656f0d60405160405180910390a45b5050565b600033905090565b6127a38282611b94565b156128775760006001600084815260200190815260200160002060000160008373ffffffffffffffffffffffffffffffffffffffff1673ffffffffffffffffffffffffffffffffffffffff16815260200190815260200160002060006101000a81548160ff02191690831515021790555061281c612791565b73ffffffffffffffffffffffffffffffffffffffff168173ffffffffffffffffffffffffffffffffffffffff16837ff6391f5c32d9c69d2a47ea670b442974b53935d1edc7fd64eb21e047a839171b60405160405180910390a45b5050565b6128858282611b94565b6128fc57612892816123ca565b6128a08360001c60206123f7565b6040516020016128b192919061437a565b6040516020818303038152906040526040517f08c379a00000000000000000000000000000000000000000000000000000000081526004016128f391906143ed565b60405180910390fd5b5050565b60405180606001604052806000815260200160608152602001600081525090565b60405180610100016040528060008152602001600081526020016060815260200160608152602001600015158152602001600073ffffffffffffffffffffffffffffffffffffffff168152602001600073ffffffffffffffffffffffffffffffffffffffff168152602001606081525090565b8280546129a090613b79565b90600052602060002090601f0160209004810192826129c25760008555612a09565b82601f106129db57803560ff1916838001178555612a09565b82800160010185558215612a09579182015b82811115612a085782358255916020019190600101906129ed565b5b509050612a169190612ad3565b5090565b828054612a2690613b79565b90600052602060002090601f016020900481019282612a485760008555612a8f565b82601f10612a6157805160ff1916838001178555612a8f565b82800160010185558215612a8f579182015b82811115612a8e578251825591602001919060010190612a73565b5b509050612a9c9190612ad3565b5090565b60405180606001604052806060815260200160006002811115612ac657612ac56138ca565b5b8152602001600081525090565b5b80821115612aec576000816000905550600101612ad4565b5090565b6000604051905090565b600080fd5b600080fd5b60007fffffffff0000000000000000000000000000000000000000000000000000000082169050919050565b612b3981612b04565b8114612b4457600080fd5b50565b600081359050612b5681612b30565b92915050565b600060208284031215612b7257612b71612afa565b5b6000612b8084828501612b47565b91505092915050565b60008115159050919050565b612b9e81612b89565b82525050565b6000602082019050612bb96000830184612b95565b92915050565b6000819050919050565b612bd281612bbf565b8114612bdd57600080fd5b50565b600081359050612bef81612bc9565b92915050565b600060208284031215612c0b57612c0a612afa565b5b6000612c1984828501612be0565b91505092915050565b600081519050919050565b600082825260208201905092915050565b6000819050602082019050919050565b600073ffffffffffffffffffffffffffffffffffffffff82169050919050565b6000612c7982612c4e565b9050919050565b612c8981612c6e565b82525050565b612c9881612bbf565b82525050565b608082016000820151612cb46000850182612c80565b506020820151612cc76020850182612c8f565b506040820151612cda6040850182612c8f565b506060820151612ced6060850182612c8f565b50505050565b6000612cff8383612c9e565b60808301905092915050565b6000602082019050919050565b6000612d2382612c22565b612d2d8185612c2d565b9350612d3883612c3e565b8060005b83811015612d69578151612d508882612cf3565b9750612d5b83612d0b565b925050600181019050612d3c565b5085935050505092915050565b60006020820190508181036000830152612d908184612d18565b905092915050565b6000819050919050565b612dab81612d98565b8114612db657600080fd5b50565b600081359050612dc881612da2565b92915050565b600060208284031215612de457612de3612afa565b5b6000612df284828501612db9565b91505092915050565b612e0481612d98565b82525050565b6000602082019050612e1f6000830184612dfb565b92915050565b612e2e81612c6e565b8114612e3957600080fd5b50565b600081359050612e4b81612e25565b92915050565b60008060408385031215612e6857612e67612afa565b5b6000612e7685828601612db9565b9250506020612e8785828601612e3c565b9150509250929050565b600081519050919050565b600082825260208201905092915050565b6000819050602082019050919050565b600081519050919050565b600082825260208201905092915050565b60005b83811015612ef7578082015181840152602081019050612edc565b83811115612f06576000848401525b50505050565b6000601f19601f8301169050919050565b6000612f2882612ebd565b612f328185612ec8565b9350612f42818560208601612ed9565b612f4b81612f0c565b840191505092915050565b6000606083016000830151612f6e6000860182612c8f565b5060208301518482036020860152612f868282612f1d565b9150506040830151612f9b6040860182612c8f565b508091505092915050565b6000612fb28383612f56565b905092915050565b6000602082019050919050565b6000612fd282612e91565b612fdc8185612e9c565b935083602082028501612fee85612ead565b8060005b8581101561302a578484038952815161300b8582612fa6565b945061301683612fba565b925060208a01995050600181019050612ff2565b50829750879550505050505092915050565b600060208201905081810360008301526130568184612fc7565b905092915050565b60008060006060848603121561307757613076612afa565b5b600061308586828701612be0565b935050602061309686828701612be0565b92505060406130a786828701612be0565b9150509250925092565b60006060830160008301516130c96000860182612c8f565b50602083015184820360208601526130e18282612f1d565b91505060408301516130f66040860182612c8f565b508091505092915050565b6000602082019050818103600083015261311b81846130b1565b905092915050565b600080fd5b600080fd5b600080fd5b60008083601f84011261314857613147613123565b5b8235905067ffffffffffffffff81111561316557613164613128565b5b6020830191508360018202830111156131815761318061312d565b5b9250929050565b7f4e487b7100000000000000000000000000000000000000000000000000000000600052604160045260246000fd5b6131c082612f0c565b810181811067ffffffffffffffff821117156131df576131de613188565b5b80604052505050565b60006131f2612af0565b90506131fe82826131b7565b919050565b600067ffffffffffffffff82111561321e5761321d613188565b5b602082029050602081019050919050565b600080fd5b600067ffffffffffffffff82111561324f5761324e613188565b5b61325882612f0c565b9050602081019050919050565b82818337600083830152505050565b600061328761328284613234565b6131e8565b9050828152602081018484840111156132a3576132a261322f565b5b6132ae848285613265565b509392505050565b600082601f8301126132cb576132ca613123565b5b81356132db848260208601613274565b91505092915050565b60006132f76132f284613203565b6131e8565b9050808382526020820190506020840283018581111561331a5761331961312d565b5b835b8181101561336157803567ffffffffffffffff81111561333f5761333e613123565b5b80860161334c89826132b6565b8552602085019450505060208101905061331c565b5050509392505050565b600082601f8301126133805761337f613123565b5b81356133908482602086016132e4565b91505092915050565b6000806000806000606086880312156133b5576133b4612afa565b5b600086013567ffffffffffffffff8111156133d3576133d2612aff565b5b6133df88828901613132565b9550955050602086013567ffffffffffffffff81111561340257613401612aff565b5b61340e88828901613132565b9350935050604086013567ffffffffffffffff81111561343157613430612aff565b5b61343d8882890161336b565b9150509295509295909350565b61345381612b89565b82525050565b600082825260208201905092915050565b600061347582612e91565b61347f8185613459565b93508360208202850161349185612ead565b8060005b858110156134cd57848403895281516134ae8582612fa6565b94506134b983612fba565b925060208a01995050600181019050613495565b50829750879550505050505092915050565b6000610100830160008301516134f86000860182612c8f565b50602083015161350b6020860182612c8f565b50604083015184820360408601526135238282612f1d565b9150506060830151848203606086015261353d8282612f1d565b9150506080830151613552608086018261344a565b5060a083015161356560a0860182612c80565b5060c083015161357860c0860182612c80565b5060e083015184820360e0860152613590828261346a565b9150508091505092915050565b600060208201905081810360008301526135b781846134df565b905092915050565b6000602082840312156135d5576135d4612afa565b5b60006135e384828501612e3c565b91505092915050565b600081519050919050565b600082825260208201905092915050565b6000819050602082019050919050565b6000610100830160008301516136316000860182612c8f565b5060208301516136446020860182612c8f565b506040830151848203604086015261365c8282612f1d565b915050606083015184820360608601526136768282612f1d565b915050608083015161368b608086018261344a565b5060a083015161369e60a0860182612c80565b5060c08301516136b160c0860182612c80565b5060e083015184820360e08601526136c9828261346a565b9150508091505092915050565b60006136e28383613618565b905092915050565b6000602082019050919050565b6000613702826135ec565b61370c81856135f7565b93508360208202850161371e85613608565b8060005b8581101561375a578484038952815161373b85826136d6565b9450613746836136ea565b925060208a01995050600181019050613722565b50829750879550505050505092915050565b6000602082019050818103600083015261378681846136f7565b905092915050565b6003811061379b57600080fd5b50565b6000813590506137ad8161378e565b92915050565b600080600080608085870312156137cd576137cc612afa565b5b60006137db87828801612e3c565b945050602085013567ffffffffffffffff8111156137fc576137fb612aff565b5b613808878288016132b6565b93505060406138198782880161379e565b925050606061382a87828801612be0565b91505092959194509250565b6000806040838503121561384d5761384c612afa565b5b600061385b85828601612be0565b925050602061386c85828601612be0565b9150509250929050565b61387f81612bbf565b82525050565b600060208201905061389a6000830184613876565b92915050565b6138a981612c6e565b82525050565b60006020820190506138c460008301846138a0565b92915050565b7f4e487b7100000000000000000000000000000000000000000000000000000000600052602160045260246000fd5b6003811061390a576139096138ca565b5b50565b600081905061391b826138f9565b919050565b600061392b8261390d565b9050919050565b61393b81613920565b82525050565b6000606083016000830151848203600086015261395e8282612f1d565b91505060208301516139736020860182613932565b5060408301516139866040860182612c8f565b508091505092915050565b600060408201905081810360008301526139ab8185613941565b90506139ba6020830184612b95565b9392505050565b6000819050919050565b60006139e66139e16139dc84612c4e565b6139c1565b612c4e565b9050919050565b60006139f8826139cb565b9050919050565b6000613a0a826139ed565b9050919050565b613a1a816139ff565b82525050565b6000602082019050613a356000830184613a11565b92915050565b600082825260208201905092915050565b7f416363657373436f6e74726f6c3a2063616e206f6e6c792072656e6f756e636560008201527f20726f6c657320666f722073656c660000000000000000000000000000000000602082015250565b6000613aa8602f83613a3b565b9150613ab382613a4c565b604082019050919050565b60006020820190508181036000830152613ad781613a9b565b9050919050565b7f5573657220616c72656164792072656769737465726564000000000000000000600082015250565b6000613b14601783613a3b565b9150613b1f82613ade565b602082019050919050565b60006020820190508181036000830152613b4381613b07565b9050919050565b7f4e487b7100000000000000000000000000000000000000000000000000000000600052602260045260246000fd5b60006002820490506001821680613b9157607f821691505b60208210811415613ba557613ba4613b4a565b5b50919050565b7f4f6e6c792041646d696e7320616e64205374616b65686f6c646572732063616e60008201527f20766f7465000000000000000000000000000000000000000000000000000000602082015250565b6000613c07602583613a3b565b9150613c1282613bab565b604082019050919050565b60006020820190508181036000830152613c3681613bfa565b9050919050565b7f50726f706f73616c206475726174696f6e206578706972656400000000000000600082015250565b6000613c73601983613a3b565b9150613c7e82613c3d565b602082019050919050565b60006020820190508181036000830152613ca281613c66565b9050919050565b7f4e487b7100000000000000000000000000000000000000000000000000000000600052601160045260246000fd5b6000613ce382612bbf565b9150613cee83612bbf565b9250817fffffffffffffffffffffffffffffffffffffffffffffffffffffffffffffffff0483118215151615613d2757613d26613ca9565b5b828202905092915050565b6000613d3d82612bbf565b9150613d4883612bbf565b9250827fffffffffffffffffffffffffffffffffffffffffffffffffffffffffffffffff03821115613d7d57613d7c613ca9565b5b828201905092915050565b7f496e73756666696369656e7420746f6b656e7320666f7220616464726573732e600082015250565b6000613dbe602083613a3b565b9150613dc982613d88565b602082019050919050565b60006020820190508181036000830152613ded81613db1565b9050919050565b7f4e487b7100000000000000000000000000000000000000000000000000000000600052603260045260246000fd5b7f50524f504f53414c5f564f544500000000000000000000000000000000000000600082015250565b6000613e59600d83613a3b565b9150613e6482613e23565b602082019050919050565b60006020820190508181036000830152613e8881613e4c565b9050919050565b7f4f6e6c792041646d696e7320616e64205374616b65686f6c646572732063616e60008201527f206372656174652070726f706f73616c73000000000000000000000000000000602082015250565b6000613eeb603183613a3b565b9150613ef682613e8f565b604082019050919050565b60006020820190508181036000830152613f1a81613ede565b9050919050565b6000613f2c82612bbf565b91507fffffffffffffffffffffffffffffffffffffffffffffffffffffffffffffffff821415613f5f57613f5e613ca9565b5b600182019050919050565b7f50524f504f53414c5f5241495345440000000000000000000000000000000000600082015250565b6000613fa0600f83613a3b565b9150613fab82613f6a565b602082019050919050565b60006020820190508181036000830152613fcf81613f93565b9050919050565b7f55736572206e6f74207265676973746572656400000000000000000000000000600082015250565b600061400c601383613a3b565b915061401782613fd6565b602082019050919050565b6000602082019050818103600083015261403b81613fff565b9050919050565b7f68747470733a2f2f697066732e696f2f697066732f516d53367066417264536560008201527f66704239463375656d777672414364657854695175513169416f6e4d686d794260208201527f7736360000000000000000000000000000000000000000000000000000000000604082015250565b60006140c4604383613a3b565b91506140cf82614042565b606082019050919050565b60006040820190506140ef60008301846138a0565b8181036020830152614100816140b7565b905092915050565b600061411382612bbf565b915061411e83612bbf565b92508282101561413157614130613ca9565b5b828203905092915050565b7f436f6e747269627574696e67207a65726f206973206e6f7420616c6c6f77656460008201527f2e00000000000000000000000000000000000000000000000000000000000000602082015250565b6000614198602183613a3b565b91506141a38261413c565b604082019050919050565b600060208201905081810360008301526141c78161418b565b9050919050565b6000815190506141dd81612bc9565b92915050565b6000602082840312156141f9576141f8612afa565b5b6000614207848285016141ce565b91505092915050565b600061421b82612bbf565b9150600082141561422f5761422e613ca9565b5b600182039050919050565b7f537472696e67733a20686578206c656e67746820696e73756666696369656e74600082015250565b6000614270602083613a3b565b915061427b8261423a565b602082019050919050565b6000602082019050818103600083015261429f81614263565b9050919050565b600081905092915050565b7f416363657373436f6e74726f6c3a206163636f756e7420000000000000000000600082015250565b60006142e76017836142a6565b91506142f2826142b1565b601782019050919050565b600061430882612ebd565b61431281856142a6565b9350614322818560208601612ed9565b80840191505092915050565b7f206973206d697373696e6720726f6c6520000000000000000000000000000000600082015250565b60006143646011836142a6565b915061436f8261432e565b601182019050919050565b6000614385826142da565b915061439182856142fd565b915061439c82614357565b91506143a882846142fd565b91508190509392505050565b60006143bf82612ebd565b6143c98185613a3b565b93506143d9818560208601612ed9565b6143e281612f0c565b840191505092915050565b6000602082019050818103600083015261440781846143b4565b90509291505056fea26469706673582212202e175f43aca9e96af51f41954c85dccf0fc0b2cee6510b30b1acb47743a3e2e264736f6c634300080b0033",
  "immutableReferences": {
    "8856": [
      {
        "length": 32,
        "start": 2745
      },
      {
        "length": 32,
        "start": 3884
      },
      {
        "length": 32,
        "start": 5282
      },
      {
        "length": 32,
        "start": 6717
      },
      {
        "length": 32,
        "start": 7357
      },
      {
        "length": 32,
        "start": 7402
      },
      {
        "length": 32,
        "start": 8567
      }
    ],
    "8861": [
      {
        "length": 32,
        "start": 8734
      },
      {
        "length": 32,
        "start": 8780
      }
    ],
    "8864": [
      {
        "length": 32,
        "start": 4168
      }
    ],
    "8867": [
      {
        "length": 32,
        "start": 3380
      },
      {
        "length": 32,
        "start": 7259
      }
    ]
  },
  "source": "// SPDX-License-Identifier: MIT\r\npragma solidity ^0.8.7;\r\n\r\nimport \"@openzeppelin/contracts/access/AccessControl.sol\";\r\nimport \"@openzeppelin/contracts/security/ReentrancyGuard.sol\";\r\nimport \"./QuadraNFT.sol\";\r\n\r\ncontract Election is ReentrancyGuard, AccessControl {\r\n    bytes32 private immutable ADMIN_ROLE = keccak256(\"ADMIN_ROLE\");\r\n    bytes32 private immutable CONTRIBUTOR_ROLE = keccak256(\"CONTRIBUTOR\");\r\n    uint32 immutable MIN_VOTE_DURATION = 5 minutes;\r\n    uint256 immutable MAX_TOKENS = 10;\r\n    uint256 totalProposals;\r\n    QuadraNFT public token;\r\n    uint256 public daoBalance;\r\n\r\n    struct Candidate {\r\n        uint256 id;\r\n        string name;\r\n        uint256 votes;\r\n    }\r\n\r\n    struct Proposal {\r\n        uint256 id;\r\n        uint256 duration;\r\n        string title;\r\n        string description;\r\n        bool ended;\r\n        address proposer;\r\n        address executor; // ??\r\n        Candidate[] candidates;\r\n    }\r\n\r\n    // Vote object to keep track of votes in a proposal\r\n    struct Vote {\r\n        address voter;\r\n        uint256 candidateId;\r\n        uint256 timestamp;\r\n        uint256 numVotes;\r\n    }\r\n\r\n    //voter status for anonymous voting\r\n    enum VoterStatus {\r\n        INITIAL,\r\n        IN_PROGRESS,\r\n        VALID\r\n    }\r\n\r\n    struct Voter {\r\n        string username;\r\n        VoterStatus status;\r\n        uint256 depositedAmount;\r\n    }\r\n\r\n    mapping(uint256 => Proposal) private raisedProposals;\r\n    mapping(address => Vote) private votes; // Keep track of Vote per address\r\n\r\n    // Keep track of tokens spent per address for each proposdal\r\n    mapping(address => mapping(uint256 => uint256)) private tokensSpent;\r\n\r\n    // Keep track of all voters\r\n    mapping(address => Voter) private voters;\r\n\r\n    // All vote objects for a proposal\r\n    mapping(uint256 => Vote[]) private votedOn;\r\n\r\n    // ??\r\n    // mapping(address => uint256) private contributors;\r\n    // mapping(address => uint256) private stakeholders;\r\n\r\n    event Action(address indexed initiator, string message);\r\n    constructor(QuadraNFT _token) {\r\n        token = _token;\r\n        _grantRole(ADMIN_ROLE, msg.sender);\r\n        addVoter(msg.sender, \"Admin\", VoterStatus.VALID, 0);\r\n    }\r\n\r\n    function addVoter(address account, string memory username, VoterStatus status, uint256 depositedAmount) public onlyRole(ADMIN_ROLE) {\r\n        voters[account] = Voter(username, status, depositedAmount);\r\n    }\r\n\r\n    function grantAdminRole(address account) public onlyRole(ADMIN_ROLE) {\r\n        _grantRole(ADMIN_ROLE, account);\r\n    }\r\n\r\n    function getVoter(address account) external view returns (Voter memory voter, bool isAdmin) {\r\n        voter = voters[account];\r\n        // add is is admin role, add a bool to reply\r\n        if (hasRole(ADMIN_ROLE, account)) {\r\n            isAdmin = true;\r\n        }else{\r\n            isAdmin = false;\r\n        }\r\n        return (voter, isAdmin);\r\n    }\r\n\r\n    function applyNFT() public {\r\n        require(\r\n            voters[msg.sender].status == VoterStatus.INITIAL,\r\n            \"User already registered\"\r\n        );\r\n        voters[msg.sender].status = VoterStatus.IN_PROGRESS;\r\n    }\r\n\r\n    function mintNFT(address to) public onlyRole(ADMIN_ROLE) {\r\n        require(\r\n            voters[to].status == VoterStatus.IN_PROGRESS,\r\n            \"User not registered\"\r\n        );\r\n        token.safeMint(to, \"https://ipfs.io/ipfs/QmS6pfArdSefpB9F3uemwvrACdexTiQuQ1iAonMhmyBw66\");\r\n        voters[to].status = VoterStatus.VALID;\r\n    }\r\n\r\n    function getNFTAddress() public view returns (address) {\r\n        return address(token);\r\n    }\r\n\r\n    function isStakeholder(address _voter) public view returns (bool) {\r\n        // if the voter has a token in the Token contract\r\n        // cast the function BalanceOf to the token contract QUadraDAO with address _token\r\n        if(token.balanceOf(_voter) > 0) return true;\r\n        return false;\r\n    }\r\n\r\n    function contribute() payable external returns (uint256) {\r\n        require(msg.value > 0 ether, \"Contributing zero is not allowed.\");\r\n        if (!hasRole(CONTRIBUTOR_ROLE, msg.sender)) {\r\n            _grantRole(CONTRIBUTOR_ROLE, msg.sender);\r\n        }\r\n        voters[msg.sender].depositedAmount += msg.value;\r\n        \r\n        daoBalance += msg.value;\r\n\r\n        return daoBalance;\r\n    }\r\n\r\n    function quadraticVote(uint256 voted, uint256 new_votes) public pure returns (uint) {\r\n        uint256 tokens = 0;\r\n        for (uint i = 1; i <= new_votes; i++) {\r\n            tokens += (voted + i) * (voted + i);\r\n        }\r\n        return tokens;\r\n    }\r\n\r\n    function createProposal(\r\n        string calldata title,\r\n        string calldata description,\r\n        string[] memory _candidateNames\r\n    ) external returns (Proposal memory) {\r\n        require(\r\n            hasRole(ADMIN_ROLE, msg.sender) || isStakeholder(msg.sender), \"Only Admins and Stakeholders can create proposals\"\r\n        );\r\n        uint256 proposalId = totalProposals++;\r\n        Proposal storage proposal = raisedProposals[proposalId];\r\n        proposal.id = proposalId;\r\n        proposal.title = title;\r\n        proposal.description = description;\r\n        proposal.proposer = payable(msg.sender);\r\n\r\n        // TODO: Make this variable\r\n        proposal.duration = block.timestamp + MIN_VOTE_DURATION;\r\n\r\n        // Init candidates\r\n        for (uint256 i = 0; i < _candidateNames.length; i++) {\r\n            proposal.candidates.push(Candidate(i, _candidateNames[i], 0));\r\n        }\r\n\r\n        emit Action(msg.sender, \"PROPOSAL_RAISED\");\r\n\r\n        return proposal;\r\n    }\r\n\r\n    function getProposals() external view returns (Proposal[] memory props) {\r\n        props = new Proposal[](totalProposals);\r\n\r\n        for (uint256 i = 0; i < totalProposals; i++) {\r\n            props[i] = raisedProposals[i];\r\n        }\r\n    }\r\n\r\n    function getProposal(\r\n        uint256 proposalId\r\n    ) external view returns (Proposal memory) {\r\n        return raisedProposals[proposalId];\r\n    }\r\n\r\n    // Might be redundant in client code\r\n    function getCandidates(\r\n        uint256 proposalId\r\n    ) public view returns (Candidate[] memory) {\r\n        return raisedProposals[proposalId].candidates;\r\n    }\r\n\r\n    function getTokensLeftForProposal(\r\n        uint256 proposalId\r\n    ) public view returns (uint256) {\r\n        return MAX_TOKENS - tokensSpent[msg.sender][proposalId];\r\n    }\r\n\r\n    function voteForCandidate(\r\n        uint256 proposalId,\r\n        uint256 candidateId,\r\n        uint256 numVotes\r\n    ) public returns (Candidate memory) {\r\n        require(\r\n            hasRole(ADMIN_ROLE, msg.sender) || isStakeholder(msg.sender), \"Only Admins and Stakeholders can vote\"\r\n        );\r\n        Proposal storage proposal = raisedProposals[proposalId];\r\n        Candidate[] memory candidates = proposal.candidates;\r\n\r\n        if (proposal.ended || proposal.duration <= block.timestamp) {\r\n            proposal.ended = true;\r\n            revert(\"Proposal duration expired\");\r\n        }\r\n\r\n        // Check if msg.sender has enough tokens\r\n        // TODO: Implement quadratic voiting here\r\n        uint256 totalNumTokensSpent = tokensSpent[msg.sender][proposalId] +\r\n            numVotes *\r\n            1;\r\n        if (totalNumTokensSpent >= MAX_TOKENS) {\r\n            revert(\"Insufficient tokens for address.\");\r\n        }\r\n\r\n        // Add vote to candidate\r\n        proposal.candidates[candidateId].votes += numVotes; // TODO: Implement time decay here\r\n\r\n        // proposal.candidates = candidates; // Updated candidates\r\n\r\n        // Add vote to Address -> Vote map\r\n        // votes[msg.sender] = Vote(msg.sender, proposalId, candidateId, block.timestamp);\r\n        votedOn[proposalId].push(\r\n            Vote(msg.sender, candidateId, block.timestamp, numVotes)\r\n        );\r\n\r\n        emit Action(msg.sender, \"PROPOSAL_VOTE\");\r\n\r\n        // TODO: Should candidate be returned here or vote?\r\n        return candidates[candidateId];\r\n    }\r\n\r\n    function getVotesOfProposal(\r\n        uint256 proposalId\r\n    ) public view returns (Vote[] memory) {\r\n        return votedOn[proposalId];\r\n    }\r\n}\r\n",
  "sourcePath": "C:\\Users\\shang\\Documents\\GitHub\\ECE1770-QV-DAO-DApp\\src\\contracts\\Election.sol",
  "compiler": {
    "name": "solc",
    "version": "0.8.11+commit.d7f03943.Emscripten.clang"
  },
  "schemaVersion": "3.4.16",
  "updatedAt": "2024-04-13T02:30:13.749Z",
  "networkType": "ethereum",
  "devdoc": {
    "kind": "dev",
    "methods": {
      "getRoleAdmin(bytes32)": {
        "details": "Returns the admin role that controls `role`. See {grantRole} and {revokeRole}. To change a role's admin, use {_setRoleAdmin}."
      },
      "grantRole(bytes32,address)": {
        "details": "Grants `role` to `account`. If `account` had not been already granted `role`, emits a {RoleGranted} event. Requirements: - the caller must have ``role``'s admin role. May emit a {RoleGranted} event."
      },
      "hasRole(bytes32,address)": {
        "details": "Returns `true` if `account` has been granted `role`."
      },
      "renounceRole(bytes32,address)": {
        "details": "Revokes `role` from the calling account. Roles are often managed via {grantRole} and {revokeRole}: this function's purpose is to provide a mechanism for accounts to lose their privileges if they are compromised (such as when a trusted device is misplaced). If the calling account had been revoked `role`, emits a {RoleRevoked} event. Requirements: - the caller must be `account`. May emit a {RoleRevoked} event."
      },
      "revokeRole(bytes32,address)": {
        "details": "Revokes `role` from `account`. If `account` had been granted `role`, emits a {RoleRevoked} event. Requirements: - the caller must have ``role``'s admin role. May emit a {RoleRevoked} event."
      },
      "supportsInterface(bytes4)": {
        "details": "See {IERC165-supportsInterface}."
      }
    },
    "version": 1
  },
  "userdoc": {
    "kind": "user",
    "methods": {},
    "version": 1
  }
}