{
  "contractName": "Election",
  "abi": [
    {
      "inputs": [
        {
          "internalType": "contract QuadraNFT",
          "name": "_token",
          "type": "address"
        }
      ],
      "stateMutability": "nonpayable",
      "type": "constructor"
    },
    {
      "anonymous": false,
      "inputs": [
        {
          "indexed": true,
          "internalType": "address",
          "name": "initiator",
          "type": "address"
        },
        {
          "indexed": false,
          "internalType": "string",
          "name": "message",
          "type": "string"
        }
      ],
      "name": "Action",
      "type": "event"
    },
    {
      "anonymous": false,
      "inputs": [
        {
          "indexed": true,
          "internalType": "bytes32",
          "name": "role",
          "type": "bytes32"
        },
        {
          "indexed": true,
          "internalType": "bytes32",
          "name": "previousAdminRole",
          "type": "bytes32"
        },
        {
          "indexed": true,
          "internalType": "bytes32",
          "name": "newAdminRole",
          "type": "bytes32"
        }
      ],
      "name": "RoleAdminChanged",
      "type": "event"
    },
    {
      "anonymous": false,
      "inputs": [
        {
          "indexed": true,
          "internalType": "bytes32",
          "name": "role",
          "type": "bytes32"
        },
        {
          "indexed": true,
          "internalType": "address",
          "name": "account",
          "type": "address"
        },
        {
          "indexed": true,
          "internalType": "address",
          "name": "sender",
          "type": "address"
        }
      ],
      "name": "RoleGranted",
      "type": "event"
    },
    {
      "anonymous": false,
      "inputs": [
        {
          "indexed": true,
          "internalType": "bytes32",
          "name": "role",
          "type": "bytes32"
        },
        {
          "indexed": true,
          "internalType": "address",
          "name": "account",
          "type": "address"
        },
        {
          "indexed": true,
          "internalType": "address",
          "name": "sender",
          "type": "address"
        }
      ],
      "name": "RoleRevoked",
      "type": "event"
    },
    {
      "inputs": [],
      "name": "DEFAULT_ADMIN_ROLE",
      "outputs": [
        {
          "internalType": "bytes32",
          "name": "",
          "type": "bytes32"
        }
      ],
      "stateMutability": "view",
      "type": "function",
      "constant": true
    },
    {
      "inputs": [],
      "name": "daoBalance",
      "outputs": [
        {
          "internalType": "uint256",
          "name": "",
          "type": "uint256"
        }
      ],
      "stateMutability": "view",
      "type": "function",
      "constant": true
    },
    {
      "inputs": [
        {
          "internalType": "bytes32",
          "name": "role",
          "type": "bytes32"
        }
      ],
      "name": "getRoleAdmin",
      "outputs": [
        {
          "internalType": "bytes32",
          "name": "",
          "type": "bytes32"
        }
      ],
      "stateMutability": "view",
      "type": "function",
      "constant": true
    },
    {
      "inputs": [
        {
          "internalType": "bytes32",
          "name": "role",
          "type": "bytes32"
        },
        {
          "internalType": "address",
          "name": "account",
          "type": "address"
        }
      ],
      "name": "grantRole",
      "outputs": [],
      "stateMutability": "nonpayable",
      "type": "function"
    },
    {
      "inputs": [
        {
          "internalType": "bytes32",
          "name": "role",
          "type": "bytes32"
        },
        {
          "internalType": "address",
          "name": "account",
          "type": "address"
        }
      ],
      "name": "hasRole",
      "outputs": [
        {
          "internalType": "bool",
          "name": "",
          "type": "bool"
        }
      ],
      "stateMutability": "view",
      "type": "function",
      "constant": true
    },
    {
      "inputs": [
        {
          "internalType": "bytes32",
          "name": "role",
          "type": "bytes32"
        },
        {
          "internalType": "address",
          "name": "account",
          "type": "address"
        }
      ],
      "name": "renounceRole",
      "outputs": [],
      "stateMutability": "nonpayable",
      "type": "function"
    },
    {
      "inputs": [
        {
          "internalType": "bytes32",
          "name": "role",
          "type": "bytes32"
        },
        {
          "internalType": "address",
          "name": "account",
          "type": "address"
        }
      ],
      "name": "revokeRole",
      "outputs": [],
      "stateMutability": "nonpayable",
      "type": "function"
    },
    {
      "inputs": [
        {
          "internalType": "bytes4",
          "name": "interfaceId",
          "type": "bytes4"
        }
      ],
      "name": "supportsInterface",
      "outputs": [
        {
          "internalType": "bool",
          "name": "",
          "type": "bool"
        }
      ],
      "stateMutability": "view",
      "type": "function",
      "constant": true
    },
    {
      "inputs": [],
      "name": "token",
      "outputs": [
        {
          "internalType": "contract QuadraNFT",
          "name": "",
          "type": "address"
        }
      ],
      "stateMutability": "view",
      "type": "function",
      "constant": true
    },
    {
      "inputs": [
        {
          "internalType": "string",
          "name": "username",
          "type": "string"
        }
      ],
      "name": "addVoter",
      "outputs": [],
      "stateMutability": "nonpayable",
      "type": "function"
    },
    {
      "inputs": [
        {
          "internalType": "address",
          "name": "account",
          "type": "address"
        }
      ],
      "name": "grantAdminRole",
      "outputs": [],
      "stateMutability": "nonpayable",
      "type": "function"
    },
    {
      "inputs": [
        {
          "internalType": "address",
          "name": "account",
          "type": "address"
        }
      ],
      "name": "getVoter",
      "outputs": [
        {
          "components": [
            {
              "internalType": "string",
              "name": "username",
              "type": "string"
            },
            {
              "internalType": "enum Election.VoterStatus",
              "name": "status",
              "type": "uint8"
            },
            {
              "internalType": "uint256",
              "name": "depositedAmount",
              "type": "uint256"
            },
            {
              "internalType": "address",
              "name": "voterAddress",
              "type": "address"
            }
          ],
          "internalType": "struct Election.Voter",
          "name": "voter",
          "type": "tuple"
        },
        {
          "internalType": "bool",
          "name": "isAdmin",
          "type": "bool"
        }
      ],
      "stateMutability": "view",
      "type": "function",
      "constant": true
    },
    {
      "inputs": [],
      "name": "getVoters",
      "outputs": [
        {
          "components": [
            {
              "internalType": "string",
              "name": "username",
              "type": "string"
            },
            {
              "internalType": "enum Election.VoterStatus",
              "name": "status",
              "type": "uint8"
            },
            {
              "internalType": "uint256",
              "name": "depositedAmount",
              "type": "uint256"
            },
            {
              "internalType": "address",
              "name": "voterAddress",
              "type": "address"
            }
          ],
          "internalType": "struct Election.Voter[]",
          "name": "",
          "type": "tuple[]"
        },
        {
          "internalType": "bool[]",
          "name": "",
          "type": "bool[]"
        }
      ],
      "stateMutability": "view",
      "type": "function",
      "constant": true
    },
    {
      "inputs": [],
      "name": "applyNFT",
      "outputs": [],
      "stateMutability": "nonpayable",
      "type": "function"
    },
    {
      "inputs": [
        {
          "internalType": "address",
          "name": "to",
          "type": "address"
        }
      ],
      "name": "mintNFT",
      "outputs": [],
      "stateMutability": "nonpayable",
      "type": "function"
    },
    {
      "inputs": [],
      "name": "getNFTAddress",
      "outputs": [
        {
          "internalType": "address",
          "name": "",
          "type": "address"
        }
      ],
      "stateMutability": "view",
      "type": "function",
      "constant": true
    },
    {
      "inputs": [
        {
          "internalType": "address",
          "name": "_voter",
          "type": "address"
        }
      ],
      "name": "isStakeholder",
      "outputs": [
        {
          "internalType": "bool",
          "name": "",
          "type": "bool"
        }
      ],
      "stateMutability": "view",
      "type": "function",
      "constant": true
    },
    {
      "inputs": [],
      "name": "contribute",
      "outputs": [
        {
          "internalType": "uint256",
          "name": "",
          "type": "uint256"
        }
      ],
      "stateMutability": "payable",
      "type": "function",
      "payable": true
    },
    {
      "inputs": [
        {
          "internalType": "uint256",
          "name": "voted",
          "type": "uint256"
        },
        {
          "internalType": "uint256",
          "name": "new_votes",
          "type": "uint256"
        }
      ],
      "name": "quadraticVote",
      "outputs": [
        {
          "internalType": "uint256",
          "name": "",
          "type": "uint256"
        }
      ],
      "stateMutability": "pure",
      "type": "function",
      "constant": true
    },
    {
      "inputs": [
        {
          "internalType": "string",
          "name": "title",
          "type": "string"
        },
        {
          "internalType": "string",
          "name": "description",
          "type": "string"
        },
        {
          "internalType": "string[]",
          "name": "_candidateNames",
          "type": "string[]"
        },
        {
          "internalType": "uint256",
          "name": "maxTokensPerAddress",
          "type": "uint256"
        },
        {
          "internalType": "bool",
          "name": "qvEnabled",
          "type": "bool"
        },
        {
          "internalType": "bool",
          "name": "linearTimeDecayEnabled",
          "type": "bool"
        },
        {
          "internalType": "uint32",
          "name": "timeLength",
          "type": "uint32"
        }
      ],
      "name": "createProposal",
      "outputs": [
        {
          "components": [
            {
              "internalType": "uint256",
              "name": "id",
              "type": "uint256"
            },
            {
              "internalType": "uint256",
              "name": "duration",
              "type": "uint256"
            },
            {
              "internalType": "string",
              "name": "title",
              "type": "string"
            },
            {
              "internalType": "string",
              "name": "description",
              "type": "string"
            },
            {
              "internalType": "bool",
              "name": "ended",
              "type": "bool"
            },
            {
              "internalType": "address",
              "name": "proposer",
              "type": "address"
            },
            {
              "internalType": "address",
              "name": "executor",
              "type": "address"
            },
            {
              "components": [
                {
                  "internalType": "uint256",
                  "name": "id",
                  "type": "uint256"
                },
                {
                  "internalType": "string",
                  "name": "name",
                  "type": "string"
                },
                {
                  "internalType": "uint256",
                  "name": "votes",
                  "type": "uint256"
                }
              ],
              "internalType": "struct Election.Candidate[]",
              "name": "candidates",
              "type": "tuple[]"
            },
            {
              "internalType": "uint256",
              "name": "totalVotes",
              "type": "uint256"
            },
            {
              "internalType": "uint256",
              "name": "maxTokensPerAddress",
              "type": "uint256"
            },
            {
              "internalType": "uint256",
              "name": "timeLength",
              "type": "uint256"
            },
            {
              "internalType": "bool",
              "name": "linearTimeDecayEnabled",
              "type": "bool"
            },
            {
              "internalType": "bool",
              "name": "qvEnabled",
              "type": "bool"
            }
          ],
          "internalType": "struct Election.Proposal",
          "name": "",
          "type": "tuple"
        }
      ],
      "stateMutability": "nonpayable",
      "type": "function"
    },
    {
      "inputs": [],
      "name": "getProposals",
      "outputs": [
        {
          "components": [
            {
              "internalType": "uint256",
              "name": "id",
              "type": "uint256"
            },
            {
              "internalType": "uint256",
              "name": "duration",
              "type": "uint256"
            },
            {
              "internalType": "string",
              "name": "title",
              "type": "string"
            },
            {
              "internalType": "string",
              "name": "description",
              "type": "string"
            },
            {
              "internalType": "bool",
              "name": "ended",
              "type": "bool"
            },
            {
              "internalType": "address",
              "name": "proposer",
              "type": "address"
            },
            {
              "internalType": "address",
              "name": "executor",
              "type": "address"
            },
            {
              "components": [
                {
                  "internalType": "uint256",
                  "name": "id",
                  "type": "uint256"
                },
                {
                  "internalType": "string",
                  "name": "name",
                  "type": "string"
                },
                {
                  "internalType": "uint256",
                  "name": "votes",
                  "type": "uint256"
                }
              ],
              "internalType": "struct Election.Candidate[]",
              "name": "candidates",
              "type": "tuple[]"
            },
            {
              "internalType": "uint256",
              "name": "totalVotes",
              "type": "uint256"
            },
            {
              "internalType": "uint256",
              "name": "maxTokensPerAddress",
              "type": "uint256"
            },
            {
              "internalType": "uint256",
              "name": "timeLength",
              "type": "uint256"
            },
            {
              "internalType": "bool",
              "name": "linearTimeDecayEnabled",
              "type": "bool"
            },
            {
              "internalType": "bool",
              "name": "qvEnabled",
              "type": "bool"
            }
          ],
          "internalType": "struct Election.Proposal[]",
          "name": "props",
          "type": "tuple[]"
        }
      ],
      "stateMutability": "view",
      "type": "function",
      "constant": true
    },
    {
      "inputs": [
        {
          "internalType": "uint256",
          "name": "proposalId",
          "type": "uint256"
        }
      ],
      "name": "getProposal",
      "outputs": [
        {
          "components": [
            {
              "internalType": "uint256",
              "name": "id",
              "type": "uint256"
            },
            {
              "internalType": "uint256",
              "name": "duration",
              "type": "uint256"
            },
            {
              "internalType": "string",
              "name": "title",
              "type": "string"
            },
            {
              "internalType": "string",
              "name": "description",
              "type": "string"
            },
            {
              "internalType": "bool",
              "name": "ended",
              "type": "bool"
            },
            {
              "internalType": "address",
              "name": "proposer",
              "type": "address"
            },
            {
              "internalType": "address",
              "name": "executor",
              "type": "address"
            },
            {
              "components": [
                {
                  "internalType": "uint256",
                  "name": "id",
                  "type": "uint256"
                },
                {
                  "internalType": "string",
                  "name": "name",
                  "type": "string"
                },
                {
                  "internalType": "uint256",
                  "name": "votes",
                  "type": "uint256"
                }
              ],
              "internalType": "struct Election.Candidate[]",
              "name": "candidates",
              "type": "tuple[]"
            },
            {
              "internalType": "uint256",
              "name": "totalVotes",
              "type": "uint256"
            },
            {
              "internalType": "uint256",
              "name": "maxTokensPerAddress",
              "type": "uint256"
            },
            {
              "internalType": "uint256",
              "name": "timeLength",
              "type": "uint256"
            },
            {
              "internalType": "bool",
              "name": "linearTimeDecayEnabled",
              "type": "bool"
            },
            {
              "internalType": "bool",
              "name": "qvEnabled",
              "type": "bool"
            }
          ],
          "internalType": "struct Election.Proposal",
          "name": "",
          "type": "tuple"
        }
      ],
      "stateMutability": "view",
      "type": "function",
      "constant": true
    },
    {
      "inputs": [
        {
          "internalType": "uint256",
          "name": "proposalId",
          "type": "uint256"
        }
      ],
      "name": "getCandidates",
      "outputs": [
        {
          "components": [
            {
              "internalType": "uint256",
              "name": "id",
              "type": "uint256"
            },
            {
              "internalType": "string",
              "name": "name",
              "type": "string"
            },
            {
              "internalType": "uint256",
              "name": "votes",
              "type": "uint256"
            }
          ],
          "internalType": "struct Election.Candidate[]",
          "name": "",
          "type": "tuple[]"
        }
      ],
      "stateMutability": "view",
      "type": "function",
      "constant": true
    },
    {
      "inputs": [
        {
          "internalType": "uint256",
          "name": "proposalId",
          "type": "uint256"
        }
      ],
      "name": "getTokensLeftForProposal",
      "outputs": [
        {
          "internalType": "uint256",
          "name": "",
          "type": "uint256"
        }
      ],
      "stateMutability": "view",
      "type": "function",
      "constant": true
    },
    {
      "inputs": [
        {
          "internalType": "uint256",
          "name": "proposalId",
          "type": "uint256"
        }
      ],
      "name": "getTokensSpent",
      "outputs": [
        {
          "internalType": "uint256",
          "name": "",
          "type": "uint256"
        }
      ],
      "stateMutability": "view",
      "type": "function",
      "constant": true
    },
    {
      "inputs": [
        {
          "internalType": "uint256",
          "name": "proposalId",
          "type": "uint256"
        },
        {
          "internalType": "uint256",
          "name": "candidateId",
          "type": "uint256"
        },
        {
          "internalType": "uint256",
          "name": "numTokens",
          "type": "uint256"
        }
      ],
      "name": "voteForCandidate",
      "outputs": [
        {
          "components": [
            {
              "internalType": "uint256",
              "name": "id",
              "type": "uint256"
            },
            {
              "internalType": "string",
              "name": "name",
              "type": "string"
            },
            {
              "internalType": "uint256",
              "name": "votes",
              "type": "uint256"
            }
          ],
          "internalType": "struct Election.Candidate",
          "name": "",
          "type": "tuple"
        }
      ],
      "stateMutability": "nonpayable",
      "type": "function"
    },
    {
      "inputs": [
        {
          "internalType": "uint256",
          "name": "proposalId",
          "type": "uint256"
        }
      ],
      "name": "getVotesOfProposal",
      "outputs": [
        {
          "components": [
            {
              "internalType": "address",
              "name": "voter",
              "type": "address"
            },
            {
              "internalType": "uint256",
              "name": "candidateId",
              "type": "uint256"
            },
            {
              "internalType": "uint256",
              "name": "timestamp",
              "type": "uint256"
            },
            {
              "internalType": "uint256",
              "name": "numVotes",
              "type": "uint256"
            }
          ],
          "internalType": "struct Election.Vote[]",
          "name": "",
          "type": "tuple[]"
        }
      ],
      "stateMutability": "view",
      "type": "function",
      "constant": true
    }
  ],
  "bytecode": "0x6101006040527fa49807205ce4d355092ef5a8a18f56e8913cf4a201fbe287825b095693c217756080908152507fa0bb1af1c90aa52ed052b92714ff0087008cc720049bf1af77cca2600b31e80c60a09081525061012c63ffffffff1660c09063ffffffff16815250600a60e09081525060006003553480156200008257600080fd5b5060405162005990380380620059908339818101604052810190620000a891906200055a565b600160008190555080600460006101000a81548173ffffffffffffffffffffffffffffffffffffffff021916908373ffffffffffffffffffffffffffffffffffffffff16021790555062000105608051336200015760201b60201c565b62000150336040518060400160405280600581526020017f41646d696e000000000000000000000000000000000000000000000000000000815250600260006200024860201b60201c565b50620006a7565b620001698282620003b960201b60201c565b6200024457600180600084815260200190815260200160002060000160008373ffffffffffffffffffffffffffffffffffffffff1673ffffffffffffffffffffffffffffffffffffffff16815260200190815260200160002060006101000a81548160ff021916908315150217905550620001e96200042460201b60201c565b73ffffffffffffffffffffffffffffffffffffffff168173ffffffffffffffffffffffffffffffffffffffff16837f2f8788117e7eff1d82e926ec794901d17c78024a50270940304540a733656f0d60405160405180910390a45b5050565b600360008154809291906200025d90620005c5565b91905055506000600354905080600a60008773ffffffffffffffffffffffffffffffffffffffff1673ffffffffffffffffffffffffffffffffffffffff168152602001908152602001600020819055506040518060800160405280858152602001846002811115620002d457620002d362000613565b5b81526020018381526020018673ffffffffffffffffffffffffffffffffffffffff168152506009600083815260200190815260200160002060008201518160000190805190602001906200032a9291906200042c565b5060208201518160010160006101000a81548160ff0219169083600281111562000359576200035862000613565b5b02179055506040820151816002015560608201518160030160006101000a81548173ffffffffffffffffffffffffffffffffffffffff021916908373ffffffffffffffffffffffffffffffffffffffff1602179055509050505050505050565b60006001600084815260200190815260200160002060000160008373ffffffffffffffffffffffffffffffffffffffff1673ffffffffffffffffffffffffffffffffffffffff16815260200190815260200160002060009054906101000a900460ff16905092915050565b600033905090565b8280546200043a9062000671565b90600052602060002090601f0160209004810192826200045e5760008555620004aa565b82601f106200047957805160ff1916838001178555620004aa565b82800160010185558215620004aa579182015b82811115620004a95782518255916020019190600101906200048c565b5b509050620004b99190620004bd565b5090565b5b80821115620004d8576000816000905550600101620004be565b5090565b600080fd5b600073ffffffffffffffffffffffffffffffffffffffff82169050919050565b60006200050e82620004e1565b9050919050565b6000620005228262000501565b9050919050565b620005348162000515565b81146200054057600080fd5b50565b600081519050620005548162000529565b92915050565b600060208284031215620005735762000572620004dc565b5b6000620005838482850162000543565b91505092915050565b7f4e487b7100000000000000000000000000000000000000000000000000000000600052601160045260246000fd5b6000819050919050565b6000620005d282620005bb565b91507fffffffffffffffffffffffffffffffffffffffffffffffffffffffffffffffff8214156200060857620006076200058c565b5b600182019050919050565b7f4e487b7100000000000000000000000000000000000000000000000000000000600052602160045260246000fd5b7f4e487b7100000000000000000000000000000000000000000000000000000000600052602260045260246000fd5b600060028204905060018216806200068a57607f821691505b60208210811415620006a157620006a062000642565b5b50919050565b60805160a05160c05160e0516152846200070c600039600050506000505060008181612961015261298f015260008181610b88015281816110b0015281816116da01528181611f5201528181611f7f01528181612564015261283201526152846000f3fe60806040526004361061019c5760003560e01c80639c085bdf116100ec578063c7f758a81161008a578063d547741f11610064578063d547741f1461063a578063d7bb99ba14610663578063ef037b9014610681578063fc0c546a146106be5761019c565b8063c7f758a814610593578063cdd72253146105d0578063d4f50f98146105fc5761019c565b8063b32f1486116100c6578063b32f1486146104d7578063b961847814610514578063bd9728161461053f578063c634b78e1461056a5761019c565b80639c085bdf14610446578063a217fddf14610483578063aca84892146104ae5761019c565b80633e39a7a51161015957806362564c481161013357806362564c481461036457806370593d9e1461038f578063829a0ade146103cc57806391d14854146104095761019c565b80633e39a7a5146102c1578063417d14cb146102fe57806354ba0f271461033b5761019c565b806301ffc9a7146101a1578063075bb589146101de578063248a9ca31461021b5780632f2ff15d1461025857806336568abe146102815780633a6a137b146102aa575b600080fd5b3480156101ad57600080fd5b506101c860048036038101906101c391906134f7565b6106e9565b6040516101d5919061353f565b60405180910390f35b3480156101ea57600080fd5b5061020560048036038101906102009190613590565b610763565b6040516102129190613711565b60405180910390f35b34801561022757600080fd5b50610242600480360381019061023d9190613769565b610849565b60405161024f91906137a5565b60405180910390f35b34801561026457600080fd5b5061027f600480360381019061027a91906137ec565b610869565b005b34801561028d57600080fd5b506102a860048036038101906102a391906137ec565b61088a565b005b3480156102b657600080fd5b506102bf61090d565b005b3480156102cd57600080fd5b506102e860048036038101906102e39190613590565b610a60565b6040516102f591906139d7565b60405180910390f35b34801561030a57600080fd5b50610325600480360381019061032091906139f9565b610b7b565b6040516103329190613a9c565b60405180910390f35b34801561034757600080fd5b50610362600480360381019061035d9190613abe565b6110ae565b005b34801561037057600080fd5b506103796112ba565b6040516103869190613d69565b60405180910390f35b34801561039b57600080fd5b506103b660048036038101906103b19190614069565b6116cd565b6040516103c3919061428e565b60405180910390f35b3480156103d857600080fd5b506103f360048036038101906103ee91906142b0565b611ce0565b60405161040091906142ff565b60405180910390f35b34801561041557600080fd5b50610430600480360381019061042b91906137ec565b611d42565b60405161043d919061353f565b60405180910390f35b34801561045257600080fd5b5061046d60048036038101906104689190613590565b611dad565b60405161047a91906142ff565b60405180910390f35b34801561048f57600080fd5b50610498611e07565b6040516104a591906137a5565b60405180910390f35b3480156104ba57600080fd5b506104d560048036038101906104d0919061431a565b611e0e565b005b3480156104e357600080fd5b506104fe60048036038101906104f99190613590565b611ea0565b60405161050b91906142ff565b60405180910390f35b34801561052057600080fd5b50610529611f20565b6040516105369190614372565b60405180910390f35b34801561054b57600080fd5b50610554611f4a565b60405161056191906142ff565b60405180910390f35b34801561057657600080fd5b50610591600480360381019061058c9190613abe565b611f50565b005b34801561059f57600080fd5b506105ba60048036038101906105b59190613590565b611fa8565b6040516105c7919061428e565b60405180910390f35b3480156105dc57600080fd5b506105e561232e565b6040516105f39291906145d8565b60405180910390f35b34801561060857600080fd5b50610623600480360381019061061e9190613abe565b612650565b604051610631929190614672565b60405180910390f35b34801561064657600080fd5b50610661600480360381019061065c91906137ec565b612870565b005b61066b612891565b60405161067891906142ff565b60405180910390f35b34801561068d57600080fd5b506106a860048036038101906106a39190613abe565b612a04565b6040516106b5919061353f565b60405180910390f35b3480156106ca57600080fd5b506106d3612abc565b6040516106e09190614701565b60405180910390f35b60007f7965db0b000000000000000000000000000000000000000000000000000000007bffffffffffffffffffffffffffffffffffffffffffffffffffffffff1916827bffffffffffffffffffffffffffffffffffffffffffffffffffffffff1916148061075c575061075b82612ae2565b5b9050919050565b6060600b6000838152602001908152602001600020805480602002602001604051908101604052809291908181526020016000905b8282101561083e57838290600052602060002090600402016040518060800160405290816000820160009054906101000a900473ffffffffffffffffffffffffffffffffffffffff1673ffffffffffffffffffffffffffffffffffffffff1673ffffffffffffffffffffffffffffffffffffffff168152602001600182015481526020016002820154815260200160038201548152505081526020019060010190610798565b505050509050919050565b600060016000838152602001908152602001600020600101549050919050565b61087282610849565b61087b81612b4c565b6108858383612b60565b505050565b610892612c40565b73ffffffffffffffffffffffffffffffffffffffff168173ffffffffffffffffffffffffffffffffffffffff16146108ff576040517f08c379a00000000000000000000000000000000000000000000000000000000081526004016108f69061479f565b60405180910390fd5b6109098282612c48565b5050565b6000600a60003373ffffffffffffffffffffffffffffffffffffffff1673ffffffffffffffffffffffffffffffffffffffff16815260200190815260200160002054905060008111610994576040517f08c379a000000000000000000000000000000000000000000000000000000000815260040161098b9061480b565b60405180910390fd5b600060028111156109a8576109a76143b9565b5b6009600083815260200190815260200160002060010160009054906101000a900460ff1660028111156109de576109dd6143b9565b5b14610a1e576040517f08c379a0000000000000000000000000000000000000000000000000000000008152600401610a159061489d565b60405180910390fd5b60016009600083815260200190815260200160002060010160006101000a81548160ff02191690836002811115610a5857610a576143b9565b5b021790555050565b606060066000838152602001908152602001600020600601805480602002602001604051908101604052809291908181526020016000905b82821015610b70578382906000526020600020906003020160405180606001604052908160008201548152602001600182018054610ad5906148ec565b80601f0160208091040260200160405190810160405280929190818152602001828054610b01906148ec565b8015610b4e5780601f10610b2357610100808354040283529160200191610b4e565b820191906000526020600020905b815481529060010190602001808311610b3157829003601f168201915b5050505050815260200160028201548152505081526020019060010190610a98565b505050509050919050565b610b83613257565b610bad7f000000000000000000000000000000000000000000000000000000000000000033611d42565b80610bbd5750610bbc33612a04565b5b610bfc576040517f08c379a0000000000000000000000000000000000000000000000000000000008152600401610bf390614990565b60405180910390fd5b6000600660008681526020019081526020016000209050600081600601805480602002602001604051908101604052809291908181526020016000905b82821015610d11578382906000526020600020906003020160405180606001604052908160008201548152602001600182018054610c76906148ec565b80601f0160208091040260200160405190810160405280929190818152602001828054610ca2906148ec565b8015610cef5780601f10610cc457610100808354040283529160200191610cef565b820191906000526020600020905b815481529060010190602001808311610cd257829003601f168201915b5050505050815260200160028201548152505081526020019060010190610c39565b5050505090508160040160009054906101000a900460ff1680610d38575042826001015411155b15610d955760018260040160006101000a81548160ff0219169083151502179055506040517f08c379a0000000000000000000000000000000000000000000000000000000008152600401610d8c906149fc565b60405180910390fd5b600084600860003373ffffffffffffffffffffffffffffffffffffffff1673ffffffffffffffffffffffffffffffffffffffff168152602001908152602001600020600089815260200190815260200160002054610df39190614a4b565b90508260080154811115610e3c576040517f08c379a0000000000000000000000000000000000000000000000000000000008152600401610e3390614aed565b60405180910390fd5b80600860003373ffffffffffffffffffffffffffffffffffffffff1673ffffffffffffffffffffffffffffffffffffffff168152602001908152602001600020600089815260200190815260200160002081905550600085905060066000898152602001908152602001600020600a0160019054906101000a900460ff1615610ecb57610ec886612d2a565b90505b6000819050600660008a8152602001908152602001600020600a0160009054906101000a900460ff1615610f0657610f03818a612d87565b90505b80856006018981548110610f1d57610f1c614b0d565b5b90600052602060002090600302016002016000828254610f3d9190614a4b565b9250508190555080856007016000828254610f589190614a4b565b92505081905550600b60008a815260200190815260200160002060405180608001604052803373ffffffffffffffffffffffffffffffffffffffff1681526020018a815260200142815260200183815250908060018154018082558091505060019003906000526020600020906004020160009091909190915060008201518160000160006101000a81548173ffffffffffffffffffffffffffffffffffffffff021916908373ffffffffffffffffffffffffffffffffffffffff16021790555060208201518160010155604082015181600201556060820151816003015550503373ffffffffffffffffffffffffffffffffffffffff167fa6f6fe9139f021af0f5a3b1c2eca6a1c371d77c4c99fdf2be0a2fdbd215baa8d60405161107d90614b88565b60405180910390a283888151811061109857611097614b0d565b5b6020026020010151955050505050509392505050565b7f00000000000000000000000000000000000000000000000000000000000000006110d881612b4c565b6000600a60008473ffffffffffffffffffffffffffffffffffffffff1673ffffffffffffffffffffffffffffffffffffffff1681526020019081526020016000205490506000811161115f576040517f08c379a00000000000000000000000000000000000000000000000000000000081526004016111569061480b565b60405180910390fd5b600280811115611172576111716143b9565b5b6009600083815260200190815260200160002060010160009054906101000a900460ff1660028111156111a8576111a76143b9565b5b14156111e9576040517f08c379a00000000000000000000000000000000000000000000000000000000081526004016111e090614bf4565b60405180910390fd5b600460009054906101000a900473ffffffffffffffffffffffffffffffffffffffff1673ffffffffffffffffffffffffffffffffffffffff1663d204c45e846040518263ffffffff1660e01b81526004016112449190614cac565b600060405180830381600087803b15801561125e57600080fd5b505af1158015611272573d6000803e3d6000fd5b5050505060026009600083815260200190815260200160002060010160006101000a81548160ff021916908360028111156112b0576112af6143b9565b5b0217905550505050565b606060025467ffffffffffffffff8111156112d8576112d7613df0565b5b60405190808252806020026020018201604052801561131157816020015b6112fe613278565b8152602001906001900390816112f65790505b50905060005b6002548110156116c95760066000828152602001908152602001600020604051806101a00160405290816000820154815260200160018201548152602001600282018054611364906148ec565b80601f0160208091040260200160405190810160405280929190818152602001828054611390906148ec565b80156113dd5780601f106113b2576101008083540402835291602001916113dd565b820191906000526020600020905b8154815290600101906020018083116113c057829003601f168201915b505050505081526020016003820180546113f6906148ec565b80601f0160208091040260200160405190810160405280929190818152602001828054611422906148ec565b801561146f5780601f106114445761010080835404028352916020019161146f565b820191906000526020600020905b81548152906001019060200180831161145257829003601f168201915b505050505081526020016004820160009054906101000a900460ff161515151581526020016004820160019054906101000a900473ffffffffffffffffffffffffffffffffffffffff1673ffffffffffffffffffffffffffffffffffffffff1673ffffffffffffffffffffffffffffffffffffffff1681526020016005820160009054906101000a900473ffffffffffffffffffffffffffffffffffffffff1673ffffffffffffffffffffffffffffffffffffffff1673ffffffffffffffffffffffffffffffffffffffff16815260200160068201805480602002602001604051908101604052809291908181526020016000905b8282101561163c5783829060005260206000209060030201604051806060016040529081600082015481526020016001820180546115a1906148ec565b80601f01602080910402602001604051908101604052809291908181526020018280546115cd906148ec565b801561161a5780601f106115ef5761010080835404028352916020019161161a565b820191906000526020600020905b8154815290600101906020018083116115fd57829003601f168201915b5050505050815260200160028201548152505081526020019060010190611564565b505050508152602001600782015481526020016008820154815260200160098201548152602001600a820160009054906101000a900460ff16151515158152602001600a820160019054906101000a900460ff1615151515815250508282815181106116ab576116aa614b0d565b5b602002602001018190525080806116c190614cda565b915050611317565b5090565b6116d5613278565b6116ff7f000000000000000000000000000000000000000000000000000000000000000033611d42565b8061170f575061170e33612a04565b5b61174e576040517f08c379a000000000000000000000000000000000000000000000000000000000815260040161174590614d95565b60405180910390fd5b60006002600081548092919061176390614cda565b91905055905060006006600083815260200190815260200160002090508181600001819055508b8b82600201919061179c929190613312565b5089898260030191906117b0929190613312565b50338160040160016101000a81548173ffffffffffffffffffffffffffffffffffffffff021916908373ffffffffffffffffffffffffffffffffffffffff160217905550600081600701819055508681600801819055508581600a0160016101000a81548160ff0219169083151502179055508481600a0160006101000a81548160ff0219169083151502179055508363ffffffff16426118519190614a4b565b81600101819055508363ffffffff16816009018190555060005b885181101561191d578160060160405180606001604052808381526020018b848151811061189c5761189b614b0d565b5b60200260200101518152602001600081525090806001815401808255809150506001900390600052602060002090600302016000909190919091506000820151816000015560208201518160010190805190602001906118fd929190613398565b50604082015181600201555050808061191590614cda565b91505061186b565b503373ffffffffffffffffffffffffffffffffffffffff167fa6f6fe9139f021af0f5a3b1c2eca6a1c371d77c4c99fdf2be0a2fdbd215baa8d60405161196290614e01565b60405180910390a280604051806101a0016040529081600082015481526020016001820154815260200160028201805461199b906148ec565b80601f01602080910402602001604051908101604052809291908181526020018280546119c7906148ec565b8015611a145780601f106119e957610100808354040283529160200191611a14565b820191906000526020600020905b8154815290600101906020018083116119f757829003601f168201915b50505050508152602001600382018054611a2d906148ec565b80601f0160208091040260200160405190810160405280929190818152602001828054611a59906148ec565b8015611aa65780601f10611a7b57610100808354040283529160200191611aa6565b820191906000526020600020905b815481529060010190602001808311611a8957829003601f168201915b505050505081526020016004820160009054906101000a900460ff161515151581526020016004820160019054906101000a900473ffffffffffffffffffffffffffffffffffffffff1673ffffffffffffffffffffffffffffffffffffffff1673ffffffffffffffffffffffffffffffffffffffff1681526020016005820160009054906101000a900473ffffffffffffffffffffffffffffffffffffffff1673ffffffffffffffffffffffffffffffffffffffff1673ffffffffffffffffffffffffffffffffffffffff16815260200160068201805480602002602001604051908101604052809291908181526020016000905b82821015611c73578382906000526020600020906003020160405180606001604052908160008201548152602001600182018054611bd8906148ec565b80601f0160208091040260200160405190810160405280929190818152602001828054611c04906148ec565b8015611c515780601f10611c2657610100808354040283529160200191611c51565b820191906000526020600020905b815481529060010190602001808311611c3457829003601f168201915b5050505050815260200160028201548152505081526020019060010190611b9b565b505050508152602001600782015481526020016008820154815260200160098201548152602001600a820160009054906101000a900460ff16151515158152602001600a820160019054906101000a900460ff161515151581525050925050509998505050505050505050565b600080600090506000600190505b838111611d37578085611d019190614a4b565b8186611d0d9190614a4b565b611d179190614e21565b82611d229190614a4b565b91508080611d2f90614cda565b915050611cee565b508091505092915050565b60006001600084815260200190815260200160002060000160008373ffffffffffffffffffffffffffffffffffffffff1673ffffffffffffffffffffffffffffffffffffffff16815260200190815260200160002060009054906101000a900460ff16905092915050565b6000600860003373ffffffffffffffffffffffffffffffffffffffff1673ffffffffffffffffffffffffffffffffffffffff1681526020019081526020016000206000838152602001908152602001600020549050919050565b6000801b81565b6000600a60003373ffffffffffffffffffffffffffffffffffffffff1673ffffffffffffffffffffffffffffffffffffffff1681526020019081526020016000205414611e90576040517f08c379a0000000000000000000000000000000000000000000000000000000008152600401611e8790614ec7565b60405180910390fd5b611e9d3382600080612e02565b50565b600080600660008481526020019081526020016000209050600860003373ffffffffffffffffffffffffffffffffffffffff1673ffffffffffffffffffffffffffffffffffffffff1681526020019081526020016000206000848152602001908152602001600020548160080154611f189190614ee7565b915050919050565b6000600460009054906101000a900473ffffffffffffffffffffffffffffffffffffffff16905090565b60055481565b7f0000000000000000000000000000000000000000000000000000000000000000611f7a81612b4c565b611fa47f000000000000000000000000000000000000000000000000000000000000000083612b60565b5050565b611fb0613278565b60066000838152602001908152602001600020604051806101a00160405290816000820154815260200160018201548152602001600282018054611ff3906148ec565b80601f016020809104026020016040519081016040528092919081815260200182805461201f906148ec565b801561206c5780601f106120415761010080835404028352916020019161206c565b820191906000526020600020905b81548152906001019060200180831161204f57829003601f168201915b50505050508152602001600382018054612085906148ec565b80601f01602080910402602001604051908101604052809291908181526020018280546120b1906148ec565b80156120fe5780601f106120d3576101008083540402835291602001916120fe565b820191906000526020600020905b8154815290600101906020018083116120e157829003601f168201915b505050505081526020016004820160009054906101000a900460ff161515151581526020016004820160019054906101000a900473ffffffffffffffffffffffffffffffffffffffff1673ffffffffffffffffffffffffffffffffffffffff1673ffffffffffffffffffffffffffffffffffffffff1681526020016005820160009054906101000a900473ffffffffffffffffffffffffffffffffffffffff1673ffffffffffffffffffffffffffffffffffffffff1673ffffffffffffffffffffffffffffffffffffffff16815260200160068201805480602002602001604051908101604052809291908181526020016000905b828210156122cb578382906000526020600020906003020160405180606001604052908160008201548152602001600182018054612230906148ec565b80601f016020809104026020016040519081016040528092919081815260200182805461225c906148ec565b80156122a95780601f1061227e576101008083540402835291602001916122a9565b820191906000526020600020905b81548152906001019060200180831161228c57829003601f168201915b50505050508152602001600282015481525050815260200190600101906121f3565b505050508152602001600782015481526020016008820154815260200160098201548152602001600a820160009054906101000a900460ff16151515158152602001600a820160019054906101000a900460ff1615151515815250509050919050565b606080600060035467ffffffffffffffff81111561234f5761234e613df0565b5b60405190808252806020026020018201604052801561238857816020015b61237561341e565b81526020019060019003908161236d5790505b509050600060035467ffffffffffffffff8111156123a9576123a8613df0565b5b6040519080825280602002602001820160405280156123d75781602001602082028036833780820191505090505b5090506000600190505b60035481116126435760096000828152602001908152602001600020604051806080016040529081600082018054612418906148ec565b80601f0160208091040260200160405190810160405280929190818152602001828054612444906148ec565b80156124915780601f1061246657610100808354040283529160200191612491565b820191906000526020600020905b81548152906001019060200180831161247457829003601f168201915b505050505081526020016001820160009054906101000a900460ff1660028111156124bf576124be6143b9565b5b60028111156124d1576124d06143b9565b5b8152602001600282015481526020016003820160009054906101000a900473ffffffffffffffffffffffffffffffffffffffff1673ffffffffffffffffffffffffffffffffffffffff1673ffffffffffffffffffffffffffffffffffffffff1681525050836001836125439190614ee7565b8151811061255457612553614b0d565b5b60200260200101819052506125bf7f00000000000000000000000000000000000000000000000000000000000000006009600084815260200190815260200160002060030160009054906101000a900473ffffffffffffffffffffffffffffffffffffffff16611d42565b156125fc576001826001836125d49190614ee7565b815181106125e5576125e4614b0d565b5b602002602001019015159081151581525050612630565b60008260018361260c9190614ee7565b8151811061261d5761261c614b0d565b5b6020026020010190151590811515815250505b808061263b90614cda565b9150506123e1565b5081819350935050509091565b61265861341e565b600080600a60008573ffffffffffffffffffffffffffffffffffffffff1673ffffffffffffffffffffffffffffffffffffffff168152602001908152602001600020549050600081116126e0576040517f08c379a00000000000000000000000000000000000000000000000000000000081526004016126d79061480b565b60405180910390fd5b6009600082815260200190815260200160002060405180608001604052908160008201805461270e906148ec565b80601f016020809104026020016040519081016040528092919081815260200182805461273a906148ec565b80156127875780601f1061275c57610100808354040283529160200191612787565b820191906000526020600020905b81548152906001019060200180831161276a57829003601f168201915b505050505081526020016001820160009054906101000a900460ff1660028111156127b5576127b46143b9565b5b60028111156127c7576127c66143b9565b5b8152602001600282015481526020016003820160009054906101000a900473ffffffffffffffffffffffffffffffffffffffff1673ffffffffffffffffffffffffffffffffffffffff1673ffffffffffffffffffffffffffffffffffffffff168152505092506128577f000000000000000000000000000000000000000000000000000000000000000085611d42565b15612865576001915061286a565b600091505b50915091565b61287982610849565b61288281612b4c565b61288c8383612c48565b505050565b600080600a60003373ffffffffffffffffffffffffffffffffffffffff1673ffffffffffffffffffffffffffffffffffffffff16815260200190815260200160002054905060008111612919576040517f08c379a00000000000000000000000000000000000000000000000000000000081526004016129109061480b565b60405180910390fd5b6000341161295c576040517f08c379a000000000000000000000000000000000000000000000000000000000815260040161295390614f8d565b60405180910390fd5b6129867f000000000000000000000000000000000000000000000000000000000000000033611d42565b6129b5576129b47f000000000000000000000000000000000000000000000000000000000000000033612b60565b5b346009600083815260200190815260200160002060020160008282546129db9190614a4b565b9250508190555034600560008282546129f49190614a4b565b9250508190555060055491505090565b600080600460009054906101000a900473ffffffffffffffffffffffffffffffffffffffff1673ffffffffffffffffffffffffffffffffffffffff166370a08231846040518263ffffffff1660e01b8152600401612a629190614372565b602060405180830381865afa158015612a7f573d6000803e3d6000fd5b505050506040513d601f19601f82011682018060405250810190612aa39190614fc2565b1115612ab25760019050612ab7565b600090505b919050565b600460009054906101000a900473ffffffffffffffffffffffffffffffffffffffff1681565b60007f01ffc9a7000000000000000000000000000000000000000000000000000000007bffffffffffffffffffffffffffffffffffffffffffffffffffffffff1916827bffffffffffffffffffffffffffffffffffffffffffffffffffffffff1916149050919050565b612b5d81612b58612c40565b612f69565b50565b612b6a8282611d42565b612c3c57600180600084815260200190815260200160002060000160008373ffffffffffffffffffffffffffffffffffffffff1673ffffffffffffffffffffffffffffffffffffffff16815260200190815260200160002060006101000a81548160ff021916908315150217905550612be1612c40565b73ffffffffffffffffffffffffffffffffffffffff168173ffffffffffffffffffffffffffffffffffffffff16837f2f8788117e7eff1d82e926ec794901d17c78024a50270940304540a733656f0d60405160405180910390a45b5050565b600033905090565b612c528282611d42565b15612d265760006001600084815260200190815260200160002060000160008373ffffffffffffffffffffffffffffffffffffffff1673ffffffffffffffffffffffffffffffffffffffff16815260200190815260200160002060006101000a81548160ff021916908315150217905550612ccb612c40565b73ffffffffffffffffffffffffffffffffffffffff168173ffffffffffffffffffffffffffffffffffffffff16837ff6391f5c32d9c69d2a47ea670b442974b53935d1edc7fd64eb21e047a839171b60405160405180910390a45b5050565b6000806002600184612d3c9190614a4b565b612d46919061501e565b90508291505b81811015612d81578091506002818285612d66919061501e565b612d709190614a4b565b612d7a919061501e565b9050612d4c565b50919050565b60008060066000848152602001908152602001600020600101549050804210612db4576000915050612dfc565b60004282612dc29190614ee7565b9050600060066000868152602001908152602001600020600901548683612de99190614e21565b612df3919061501e565b90508093505050505b92915050565b60036000815480929190612e1590614cda565b91905055506000600354905080600a60008773ffffffffffffffffffffffffffffffffffffffff1673ffffffffffffffffffffffffffffffffffffffff168152602001908152602001600020819055506040518060800160405280858152602001846002811115612e8957612e886143b9565b5b81526020018381526020018673ffffffffffffffffffffffffffffffffffffffff16815250600960008381526020019081526020016000206000820151816000019080519060200190612edd929190613398565b5060208201518160010160006101000a81548160ff02191690836002811115612f0957612f086143b9565b5b02179055506040820151816002015560608201518160030160006101000a81548173ffffffffffffffffffffffffffffffffffffffff021916908373ffffffffffffffffffffffffffffffffffffffff1602179055509050505050505050565b612f738282611d42565b612fea57612f8081612fee565b612f8e8360001c602061301b565b604051602001612f9f929190615123565b6040516020818303038152906040526040517f08c379a0000000000000000000000000000000000000000000000000000000008152600401612fe19190615196565b60405180910390fd5b5050565b60606130148273ffffffffffffffffffffffffffffffffffffffff16601460ff1661301b565b9050919050565b60606000600283600261302e9190614e21565b6130389190614a4b565b67ffffffffffffffff81111561305157613050613df0565b5b6040519080825280601f01601f1916602001820160405280156130835781602001600182028036833780820191505090505b5090507f3000000000000000000000000000000000000000000000000000000000000000816000815181106130bb576130ba614b0d565b5b60200101907effffffffffffffffffffffffffffffffffffffffffffffffffffffffffffff1916908160001a9053507f78000000000000000000000000000000000000000000000000000000000000008160018151811061311f5761311e614b0d565b5b60200101907effffffffffffffffffffffffffffffffffffffffffffffffffffffffffffff1916908160001a9053506000600184600261315f9190614e21565b6131699190614a4b565b90505b6001811115613209577f3031323334353637383961626364656600000000000000000000000000000000600f8616601081106131ab576131aa614b0d565b5b1a60f81b8282815181106131c2576131c1614b0d565b5b60200101907effffffffffffffffffffffffffffffffffffffffffffffffffffffffffffff1916908160001a905350600485901c945080613202906151b8565b905061316c565b506000841461324d576040517f08c379a00000000000000000000000000000000000000000000000000000000081526004016132449061522e565b60405180910390fd5b8091505092915050565b60405180606001604052806000815260200160608152602001600081525090565b604051806101a0016040528060008152602001600081526020016060815260200160608152602001600015158152602001600073ffffffffffffffffffffffffffffffffffffffff168152602001600073ffffffffffffffffffffffffffffffffffffffff168152602001606081526020016000815260200160008152602001600081526020016000151581526020016000151581525090565b82805461331e906148ec565b90600052602060002090601f0160209004810192826133405760008555613387565b82601f1061335957803560ff1916838001178555613387565b82800160010185558215613387579182015b8281111561338657823582559160200191906001019061336b565b5b509050613394919061346e565b5090565b8280546133a4906148ec565b90600052602060002090601f0160209004810192826133c6576000855561340d565b82601f106133df57805160ff191683800117855561340d565b8280016001018555821561340d579182015b8281111561340c5782518255916020019190600101906133f1565b5b50905061341a919061346e565b5090565b60405180608001604052806060815260200160006002811115613444576134436143b9565b5b815260200160008152602001600073ffffffffffffffffffffffffffffffffffffffff1681525090565b5b8082111561348757600081600090555060010161346f565b5090565b6000604051905090565b600080fd5b600080fd5b60007fffffffff0000000000000000000000000000000000000000000000000000000082169050919050565b6134d48161349f565b81146134df57600080fd5b50565b6000813590506134f1816134cb565b92915050565b60006020828403121561350d5761350c613495565b5b600061351b848285016134e2565b91505092915050565b60008115159050919050565b61353981613524565b82525050565b60006020820190506135546000830184613530565b92915050565b6000819050919050565b61356d8161355a565b811461357857600080fd5b50565b60008135905061358a81613564565b92915050565b6000602082840312156135a6576135a5613495565b5b60006135b48482850161357b565b91505092915050565b600081519050919050565b600082825260208201905092915050565b6000819050602082019050919050565b600073ffffffffffffffffffffffffffffffffffffffff82169050919050565b6000613614826135e9565b9050919050565b61362481613609565b82525050565b6136338161355a565b82525050565b60808201600082015161364f600085018261361b565b506020820151613662602085018261362a565b506040820151613675604085018261362a565b506060820151613688606085018261362a565b50505050565b600061369a8383613639565b60808301905092915050565b6000602082019050919050565b60006136be826135bd565b6136c881856135c8565b93506136d3836135d9565b8060005b838110156137045781516136eb888261368e565b97506136f6836136a6565b9250506001810190506136d7565b5085935050505092915050565b6000602082019050818103600083015261372b81846136b3565b905092915050565b6000819050919050565b61374681613733565b811461375157600080fd5b50565b6000813590506137638161373d565b92915050565b60006020828403121561377f5761377e613495565b5b600061378d84828501613754565b91505092915050565b61379f81613733565b82525050565b60006020820190506137ba6000830184613796565b92915050565b6137c981613609565b81146137d457600080fd5b50565b6000813590506137e6816137c0565b92915050565b6000806040838503121561380357613802613495565b5b600061381185828601613754565b9250506020613822858286016137d7565b9150509250929050565b600081519050919050565b600082825260208201905092915050565b6000819050602082019050919050565b600081519050919050565b600082825260208201905092915050565b60005b83811015613892578082015181840152602081019050613877565b838111156138a1576000848401525b50505050565b6000601f19601f8301169050919050565b60006138c382613858565b6138cd8185613863565b93506138dd818560208601613874565b6138e6816138a7565b840191505092915050565b6000606083016000830151613909600086018261362a565b506020830151848203602086015261392182826138b8565b9150506040830151613936604086018261362a565b508091505092915050565b600061394d83836138f1565b905092915050565b6000602082019050919050565b600061396d8261382c565b6139778185613837565b93508360208202850161398985613848565b8060005b858110156139c557848403895281516139a68582613941565b94506139b183613955565b925060208a0199505060018101905061398d565b50829750879550505050505092915050565b600060208201905081810360008301526139f18184613962565b905092915050565b600080600060608486031215613a1257613a11613495565b5b6000613a208682870161357b565b9350506020613a318682870161357b565b9250506040613a428682870161357b565b9150509250925092565b6000606083016000830151613a64600086018261362a565b5060208301518482036020860152613a7c82826138b8565b9150506040830151613a91604086018261362a565b508091505092915050565b60006020820190508181036000830152613ab68184613a4c565b905092915050565b600060208284031215613ad457613ad3613495565b5b6000613ae2848285016137d7565b91505092915050565b600081519050919050565b600082825260208201905092915050565b6000819050602082019050919050565b613b2081613524565b82525050565b600082825260208201905092915050565b6000613b428261382c565b613b4c8185613b26565b935083602082028501613b5e85613848565b8060005b85811015613b9a5784840389528151613b7b8582613941565b9450613b8683613955565b925060208a01995050600181019050613b62565b50829750879550505050505092915050565b60006101a083016000830151613bc5600086018261362a565b506020830151613bd8602086018261362a565b5060408301518482036040860152613bf082826138b8565b91505060608301518482036060860152613c0a82826138b8565b9150506080830151613c1f6080860182613b17565b5060a0830151613c3260a086018261361b565b5060c0830151613c4560c086018261361b565b5060e083015184820360e0860152613c5d8282613b37565b915050610100830151613c7461010086018261362a565b50610120830151613c8961012086018261362a565b50610140830151613c9e61014086018261362a565b50610160830151613cb3610160860182613b17565b50610180830151613cc8610180860182613b17565b508091505092915050565b6000613cdf8383613bac565b905092915050565b6000602082019050919050565b6000613cff82613aeb565b613d098185613af6565b935083602082028501613d1b85613b07565b8060005b85811015613d575784840389528151613d388582613cd3565b9450613d4383613ce7565b925060208a01995050600181019050613d1f565b50829750879550505050505092915050565b60006020820190508181036000830152613d838184613cf4565b905092915050565b600080fd5b600080fd5b600080fd5b60008083601f840112613db057613daf613d8b565b5b8235905067ffffffffffffffff811115613dcd57613dcc613d90565b5b602083019150836001820283011115613de957613de8613d95565b5b9250929050565b7f4e487b7100000000000000000000000000000000000000000000000000000000600052604160045260246000fd5b613e28826138a7565b810181811067ffffffffffffffff82111715613e4757613e46613df0565b5b80604052505050565b6000613e5a61348b565b9050613e668282613e1f565b919050565b600067ffffffffffffffff821115613e8657613e85613df0565b5b602082029050602081019050919050565b600080fd5b600067ffffffffffffffff821115613eb757613eb6613df0565b5b613ec0826138a7565b9050602081019050919050565b82818337600083830152505050565b6000613eef613eea84613e9c565b613e50565b905082815260208101848484011115613f0b57613f0a613e97565b5b613f16848285613ecd565b509392505050565b600082601f830112613f3357613f32613d8b565b5b8135613f43848260208601613edc565b91505092915050565b6000613f5f613f5a84613e6b565b613e50565b90508083825260208201905060208402830185811115613f8257613f81613d95565b5b835b81811015613fc957803567ffffffffffffffff811115613fa757613fa6613d8b565b5b808601613fb48982613f1e565b85526020850194505050602081019050613f84565b5050509392505050565b600082601f830112613fe857613fe7613d8b565b5b8135613ff8848260208601613f4c565b91505092915050565b61400a81613524565b811461401557600080fd5b50565b60008135905061402781614001565b92915050565b600063ffffffff82169050919050565b6140468161402d565b811461405157600080fd5b50565b6000813590506140638161403d565b92915050565b600080600080600080600080600060e08a8c03121561408b5761408a613495565b5b60008a013567ffffffffffffffff8111156140a9576140a861349a565b5b6140b58c828d01613d9a565b995099505060208a013567ffffffffffffffff8111156140d8576140d761349a565b5b6140e48c828d01613d9a565b975097505060408a013567ffffffffffffffff8111156141075761410661349a565b5b6141138c828d01613fd3565b95505060606141248c828d0161357b565b94505060806141358c828d01614018565b93505060a06141468c828d01614018565b92505060c06141578c828d01614054565b9150509295985092959850929598565b60006101a083016000830151614180600086018261362a565b506020830151614193602086018261362a565b50604083015184820360408601526141ab82826138b8565b915050606083015184820360608601526141c582826138b8565b91505060808301516141da6080860182613b17565b5060a08301516141ed60a086018261361b565b5060c083015161420060c086018261361b565b5060e083015184820360e08601526142188282613b37565b91505061010083015161422f61010086018261362a565b5061012083015161424461012086018261362a565b5061014083015161425961014086018261362a565b5061016083015161426e610160860182613b17565b50610180830151614283610180860182613b17565b508091505092915050565b600060208201905081810360008301526142a88184614167565b905092915050565b600080604083850312156142c7576142c6613495565b5b60006142d58582860161357b565b92505060206142e68582860161357b565b9150509250929050565b6142f98161355a565b82525050565b600060208201905061431460008301846142f0565b92915050565b6000602082840312156143305761432f613495565b5b600082013567ffffffffffffffff81111561434e5761434d61349a565b5b61435a84828501613f1e565b91505092915050565b61436c81613609565b82525050565b60006020820190506143876000830184614363565b92915050565b600081519050919050565b600082825260208201905092915050565b6000819050602082019050919050565b7f4e487b7100000000000000000000000000000000000000000000000000000000600052602160045260246000fd5b600381106143f9576143f86143b9565b5b50565b600081905061440a826143e8565b919050565b600061441a826143fc565b9050919050565b61442a8161440f565b82525050565b6000608083016000830151848203600086015261444d82826138b8565b91505060208301516144626020860182614421565b506040830151614475604086018261362a565b506060830151614488606086018261361b565b508091505092915050565b600061449f8383614430565b905092915050565b6000602082019050919050565b60006144bf8261438d565b6144c98185614398565b9350836020820285016144db856143a9565b8060005b8581101561451757848403895281516144f88582614493565b9450614503836144a7565b925060208a019950506001810190506144df565b50829750879550505050505092915050565b600081519050919050565b600082825260208201905092915050565b6000819050602082019050919050565b60006145618383613b17565b60208301905092915050565b6000602082019050919050565b600061458582614529565b61458f8185614534565b935061459a83614545565b8060005b838110156145cb5781516145b28882614555565b97506145bd8361456d565b92505060018101905061459e565b5085935050505092915050565b600060408201905081810360008301526145f281856144b4565b90508181036020830152614606818461457a565b90509392505050565b6000608083016000830151848203600086015261462c82826138b8565b91505060208301516146416020860182614421565b506040830151614654604086018261362a565b506060830151614667606086018261361b565b508091505092915050565b6000604082019050818103600083015261468c818561460f565b905061469b6020830184613530565b9392505050565b6000819050919050565b60006146c76146c26146bd846135e9565b6146a2565b6135e9565b9050919050565b60006146d9826146ac565b9050919050565b60006146eb826146ce565b9050919050565b6146fb816146e0565b82525050565b600060208201905061471660008301846146f2565b92915050565b600082825260208201905092915050565b7f416363657373436f6e74726f6c3a2063616e206f6e6c792072656e6f756e636560008201527f20726f6c657320666f722073656c660000000000000000000000000000000000602082015250565b6000614789602f8361471c565b91506147948261472d565b604082019050919050565b600060208201905081810360008301526147b88161477c565b9050919050565b7f55736572206e6f742072656769737465726564206f6e2044414f000000000000600082015250565b60006147f5601a8361471c565b9150614800826147bf565b602082019050919050565b60006020820190508181036000830152614824816147e8565b9050919050565b7f5573657220616c7265616479206170706c696564206f72206861732061204e4660008201527f5400000000000000000000000000000000000000000000000000000000000000602082015250565b600061488760218361471c565b91506148928261482b565b604082019050919050565b600060208201905081810360008301526148b68161487a565b9050919050565b7f4e487b7100000000000000000000000000000000000000000000000000000000600052602260045260246000fd5b6000600282049050600182168061490457607f821691505b60208210811415614918576149176148bd565b5b50919050565b7f4f6e6c792041646d696e7320616e64205374616b65686f6c646572732063616e60008201527f20766f7465000000000000000000000000000000000000000000000000000000602082015250565b600061497a60258361471c565b91506149858261491e565b604082019050919050565b600060208201905081810360008301526149a98161496d565b9050919050565b7f50726f706f73616c206475726174696f6e206578706972656400000000000000600082015250565b60006149e660198361471c565b91506149f1826149b0565b602082019050919050565b60006020820190508181036000830152614a15816149d9565b9050919050565b7f4e487b7100000000000000000000000000000000000000000000000000000000600052601160045260246000fd5b6000614a568261355a565b9150614a618361355a565b9250827fffffffffffffffffffffffffffffffffffffffffffffffffffffffffffffffff03821115614a9657614a95614a1c565b5b828201905092915050565b7f496e73756666696369656e7420746f6b656e7320666f7220616464726573732e600082015250565b6000614ad760208361471c565b9150614ae282614aa1565b602082019050919050565b60006020820190508181036000830152614b0681614aca565b9050919050565b7f4e487b7100000000000000000000000000000000000000000000000000000000600052603260045260246000fd5b7f50524f504f53414c5f564f544500000000000000000000000000000000000000600082015250565b6000614b72600d8361471c565b9150614b7d82614b3c565b602082019050919050565b60006020820190508181036000830152614ba181614b65565b9050919050565b7f416c7265616479206d696e746564204e465420746f2074686520757365720000600082015250565b6000614bde601e8361471c565b9150614be982614ba8565b602082019050919050565b60006020820190508181036000830152614c0d81614bd1565b9050919050565b7f68747470733a2f2f697066732e696f2f697066732f516d53367066417264536560008201527f66704239463375656d777672414364657854695175513169416f6e4d686d794260208201527f7736360000000000000000000000000000000000000000000000000000000000604082015250565b6000614c9660438361471c565b9150614ca182614c14565b606082019050919050565b6000604082019050614cc16000830184614363565b8181036020830152614cd281614c89565b905092915050565b6000614ce58261355a565b91507fffffffffffffffffffffffffffffffffffffffffffffffffffffffffffffffff821415614d1857614d17614a1c565b5b600182019050919050565b7f4f6e6c792041646d696e7320616e64205374616b65686f6c646572732063616e60008201527f206372656174652070726f706f73616c73000000000000000000000000000000602082015250565b6000614d7f60318361471c565b9150614d8a82614d23565b604082019050919050565b60006020820190508181036000830152614dae81614d72565b9050919050565b7f50524f504f53414c5f5241495345440000000000000000000000000000000000600082015250565b6000614deb600f8361471c565b9150614df682614db5565b602082019050919050565b60006020820190508181036000830152614e1a81614dde565b9050919050565b6000614e2c8261355a565b9150614e378361355a565b9250817fffffffffffffffffffffffffffffffffffffffffffffffffffffffffffffffff0483118215151615614e7057614e6f614a1c565b5b828202905092915050565b7f5573657220616c72656164792072656769737465726564000000000000000000600082015250565b6000614eb160178361471c565b9150614ebc82614e7b565b602082019050919050565b60006020820190508181036000830152614ee081614ea4565b9050919050565b6000614ef28261355a565b9150614efd8361355a565b925082821015614f1057614f0f614a1c565b5b828203905092915050565b7f436f6e747269627574696e67207a65726f206973206e6f7420616c6c6f77656460008201527f2e00000000000000000000000000000000000000000000000000000000000000602082015250565b6000614f7760218361471c565b9150614f8282614f1b565b604082019050919050565b60006020820190508181036000830152614fa681614f6a565b9050919050565b600081519050614fbc81613564565b92915050565b600060208284031215614fd857614fd7613495565b5b6000614fe684828501614fad565b91505092915050565b7f4e487b7100000000000000000000000000000000000000000000000000000000600052601260045260246000fd5b60006150298261355a565b91506150348361355a565b92508261504457615043614fef565b5b828204905092915050565b600081905092915050565b7f416363657373436f6e74726f6c3a206163636f756e7420000000000000000000600082015250565b600061509060178361504f565b915061509b8261505a565b601782019050919050565b60006150b182613858565b6150bb818561504f565b93506150cb818560208601613874565b80840191505092915050565b7f206973206d697373696e6720726f6c6520000000000000000000000000000000600082015250565b600061510d60118361504f565b9150615118826150d7565b601182019050919050565b600061512e82615083565b915061513a82856150a6565b915061514582615100565b915061515182846150a6565b91508190509392505050565b600061516882613858565b615172818561471c565b9350615182818560208601613874565b61518b816138a7565b840191505092915050565b600060208201905081810360008301526151b0818461515d565b905092915050565b60006151c38261355a565b915060008214156151d7576151d6614a1c565b5b600182039050919050565b7f537472696e67733a20686578206c656e67746820696e73756666696369656e74600082015250565b600061521860208361471c565b9150615223826151e2565b602082019050919050565b600060208201905081810360008301526152478161520b565b905091905056fea264697066735822122038869457dc12f151e0fa103cfa2e8a2fb086625a9c2082b18dd2550db36bffe264736f6c634300080b0033",
  "immutableReferences": {
    "8124": [
      {
        "length": 32,
        "start": 2952
      },
      {
        "length": 32,
        "start": 4272
      },
      {
        "length": 32,
        "start": 5850
      },
      {
        "length": 32,
        "start": 8018
      },
      {
        "length": 32,
        "start": 8063
      },
      {
        "length": 32,
        "start": 9572
      },
      {
        "length": 32,
        "start": 10290
      }
    ],
    "8129": [
      {
        "length": 32,
        "start": 10593
      },
      {
        "length": 32,
        "start": 10639
      }
    ]
  },
  "source": "// SPDX-License-Identifier: MIT\npragma solidity ^0.8.7;\n\nimport \"@openzeppelin/contracts/access/AccessControl.sol\";\nimport \"@openzeppelin/contracts/security/ReentrancyGuard.sol\";\nimport \"./QuadraNFT.sol\";\n\ncontract Election is ReentrancyGuard, AccessControl {\n    bytes32 private immutable ADMIN_ROLE = keccak256(\"ADMIN_ROLE\");\n    bytes32 private immutable CONTRIBUTOR_ROLE = keccak256(\"CONTRIBUTOR\");\n    uint32 immutable MIN_VOTE_DURATION = 5 minutes;\n    uint256 immutable MAX_TOKENS = 10;\n    uint256 totalProposals;\n    uint256 totalVoters = 0;\n    QuadraNFT public token;\n    uint256 public daoBalance;\n\n    struct Candidate {\n        uint256 id;\n        string name;\n        uint256 votes;\n    }\n\n    struct Proposal {\n        uint256 id;\n        uint256 duration;\n        string title;\n        string description;\n        bool ended;\n        address proposer;\n        address executor; // ??\n        Candidate[] candidates;\n        uint256 totalVotes;\n        uint256 maxTokensPerAddress;\n        uint256 timeLength;\n        \n        bool linearTimeDecayEnabled;\n        bool qvEnabled;\n    }\n\n    // Vote object to keep track of votes in a proposal\n    struct Vote {\n        address voter;\n        uint256 candidateId;\n        uint256 timestamp;\n        uint256 numVotes;\n    }\n\n    //voter status for anonymous voting\n    enum VoterStatus {\n        INITIAL,\n        IN_PROGRESS,\n        VALID\n    }\n\n    struct Voter {\n        string username;\n        VoterStatus status;\n        uint256 depositedAmount;\n        address voterAddress;\n    }\n\n    mapping(uint256 => Proposal) private raisedProposals;\n    mapping(address => Vote) private votes; // Keep track of Vote per address\n\n    // Keep track of tokens spent per address for each proposal\n    mapping(address => mapping(uint256 => uint256)) private tokensSpent;\n\n    // Keep track of all voters\n    mapping(uint256 => Voter) private voters;\n    mapping(address => uint256) private voterIds;\n\n    // All vote objects for a proposal\n    mapping(uint256 => Vote[]) private votedOn;\n\n    // ??\n    // mapping(address => uint256) private contributors;\n    // mapping(address => uint256) private stakeholders;\n\n    event Action(address indexed initiator, string message);\n    constructor(QuadraNFT _token) {\n        token = _token;\n        _grantRole(ADMIN_ROLE, msg.sender);\n        _addVoter(msg.sender, \"Admin\", VoterStatus.VALID, 0);\n    }\n\n    function _addVoter(address account, string memory username, VoterStatus status, uint256 depositedAmount) private{\n        totalVoters++;\n        uint256 voterId = totalVoters;\n        voterIds[account] = voterId;\n        voters[voterId] = Voter(username, status, depositedAmount, account);\n    }\n\n    function addVoter(string memory username) public {\n        require(voterIds[msg.sender] == 0, \"User already registered\");\n        _addVoter(msg.sender, username, VoterStatus.INITIAL, 0);\n    }\n\n    function grantAdminRole(address account) public onlyRole(ADMIN_ROLE) {\n        _grantRole(ADMIN_ROLE, account);\n    }\n\n    function getVoter(address account) external view returns (Voter memory voter, bool isAdmin) {\n        uint256 id = voterIds[account];\n        require(\n            id > 0,\n            \"User not registered on DAO\"\n        );\n        voter = voters[id];\n        // add is is admin role, add a bool to reply\n        if (hasRole(ADMIN_ROLE, account)) {\n            isAdmin = true;\n        }else{\n            isAdmin = false;\n        }\n        return (voter, isAdmin);\n    }\n\n    function getVoters() external view returns (Voter[] memory,  bool[] memory) {\n        Voter[] memory _voters = new Voter[](totalVoters);\n        bool[] memory _isAdmin = new bool[](totalVoters);\n        for (uint256 i = 1; i <= totalVoters; i++) {\n            _voters[i-1] = voters[i];\n            if (hasRole(ADMIN_ROLE, voters[i].voterAddress)) {\n                _isAdmin[i-1] = true;\n            }else{\n                _isAdmin[i-1] = false;\n            }\n        }\n        return (_voters, _isAdmin);\n    }\n\n    function applyNFT() public {\n        uint256 id = voterIds[msg.sender];\n        require(\n            id > 0,\n            \"User not registered on DAO\"\n        );\n        require(\n            voters[id].status == VoterStatus.INITIAL,\n            \"User already applied or has a NFT\"\n        );\n        voters[id].status = VoterStatus.IN_PROGRESS;\n    }\n\n    function mintNFT(address to) public onlyRole(ADMIN_ROLE) {\n        uint256 id = voterIds[to];\n        require(\n            id > 0,\n            \"User not registered on DAO\"\n        );\n        require(\n            voters[id].status != VoterStatus.VALID,\n            \"Already minted NFT to the user\"\n        );\n        token.safeMint(to, \"https://ipfs.io/ipfs/QmS6pfArdSefpB9F3uemwvrACdexTiQuQ1iAonMhmyBw66\");\n        voters[id].status = VoterStatus.VALID;\n    }\n\n    function getNFTAddress() public view returns (address) {\n        return address(token);\n    }\n\n    function isStakeholder(address _voter) public view returns (bool) {\n        // if the voter has a token in the Token contract\n        // cast the function BalanceOf to the token contract QUadraDAO with address _token\n        if(token.balanceOf(_voter) > 0) return true;\n        return false;\n    }\n\n    function contribute() payable external returns (uint256) {\n        uint256 id = voterIds[msg.sender];\n        require(\n            id > 0,\n            \"User not registered on DAO\"\n        );\n        require(msg.value > 0 ether, \"Contributing zero is not allowed.\");\n        if (!hasRole(CONTRIBUTOR_ROLE, msg.sender)) {\n            _grantRole(CONTRIBUTOR_ROLE, msg.sender);\n        }\n        voters[id].depositedAmount += msg.value;\n        \n        daoBalance += msg.value;\n\n        return daoBalance;\n    }\n\n    function quadraticVote(uint256 voted, uint256 new_votes) public pure returns (uint) {\n        uint256 tokens = 0;\n        for (uint i = 1; i <= new_votes; i++) {\n            tokens += (voted + i) * (voted + i);\n        }\n        return tokens;\n    }\n\n    function createProposal(\n        string calldata title,\n        string calldata description,\n        string[] memory _candidateNames,\n        uint256 maxTokensPerAddress,\n        bool qvEnabled,\n        bool linearTimeDecayEnabled,\n        uint32 timeLength \n    ) external returns (Proposal memory) {\n        require(\n            hasRole(ADMIN_ROLE, msg.sender) || isStakeholder(msg.sender), \"Only Admins and Stakeholders can create proposals\"\n        );\n        uint256 proposalId = totalProposals++;\n        Proposal storage proposal = raisedProposals[proposalId];\n        proposal.id = proposalId;\n        proposal.title = title;\n        proposal.description = description;\n        proposal.proposer = payable(msg.sender);\n        proposal.totalVotes = 0;\n        proposal.maxTokensPerAddress = maxTokensPerAddress;\n        proposal.qvEnabled = qvEnabled;\n        proposal.linearTimeDecayEnabled = linearTimeDecayEnabled; \n        proposal.duration = block.timestamp + timeLength;\n        proposal.timeLength = timeLength;\n\n        // Init candidates\n        for (uint256 i = 0; i < _candidateNames.length; i++) {\n            proposal.candidates.push(Candidate(i, _candidateNames[i], 0));\n        }\n\n        emit Action(msg.sender, \"PROPOSAL_RAISED\");\n\n        return proposal;\n    }\n\n    function getProposals() external view returns (Proposal[] memory props) {\n        props = new Proposal[](totalProposals);\n\n        for (uint256 i = 0; i < totalProposals; i++) {\n            props[i] = raisedProposals[i];\n        }\n    }\n\n    function getProposal(\n        uint256 proposalId\n    ) external view returns (Proposal memory) {\n        return raisedProposals[proposalId];\n    }\n\n    // Might be redundant in client code\n    function getCandidates(\n        uint256 proposalId\n    ) public view returns (Candidate[] memory) {\n        return raisedProposals[proposalId].candidates;\n    }\n\n    function getTokensLeftForProposal(\n        uint256 proposalId\n    ) public view returns (uint256) {\n        Proposal storage proposal = raisedProposals[proposalId];\n\n        return\n            proposal.maxTokensPerAddress - tokensSpent[msg.sender][proposalId];\n    }\n\n    function getTokensSpent(uint256 proposalId) public view returns (uint256) {\n        return tokensSpent[msg.sender][proposalId];\n    }\n\n    function voteForCandidate(\n        uint256 proposalId,\n        uint256 candidateId,\n        uint256 numTokens \n    ) public returns (Candidate memory) {\n        require(\n            hasRole(ADMIN_ROLE, msg.sender) || isStakeholder(msg.sender), \"Only Admins and Stakeholders can vote\"\n        );\n        Proposal storage proposal = raisedProposals[proposalId];\n        Candidate[] memory candidates = proposal.candidates;\n\n        if (proposal.ended || proposal.duration <= block.timestamp) {\n            proposal.ended = true;\n            revert(\"Proposal duration expired\");\n        }\n\n        // Check if msg.sender has enough tokens\n        // TODO: Implement quadratic voiting here\n        uint256 totalNumTokensSpent = tokensSpent[msg.sender][proposalId] +\n            numTokens;\n        require(\n            totalNumTokensSpent <= proposal.maxTokensPerAddress,\n            \"Insufficient tokens for address.\"\n        );\n\n        // Add vote to candidate\n        tokensSpent[msg.sender][proposalId] = totalNumTokensSpent;\n\n        // Quadratic voting: cost to the voter = (number of votes)^2\n        uint256 voteWeight = numTokens;\n        if (raisedProposals[proposalId].qvEnabled) {\n          voteWeight = sqrt(numTokens);\n        }\n        uint256 decayWeight = voteWeight;\n        if (raisedProposals[proposalId].linearTimeDecayEnabled) {\n          decayWeight = linearTimeDecay(decayWeight, proposalId);\n        }\n        proposal.candidates[candidateId].votes += decayWeight;\n        proposal.totalVotes += decayWeight;\n\n        // proposal.candidates = candidates; // Updated candidates\n\n        // Add vote to Address -> Vote map\n        // votes[msg.sender] = Vote(msg.sender, proposalId, candidateId, block.timestamp);\n        votedOn[proposalId].push(\n            Vote(msg.sender, candidateId, block.timestamp, decayWeight)\n        );\n\n        emit Action(msg.sender, \"PROPOSAL_VOTE\");\n\n        // TODO: Should candidate be returned here or vote?\n        return candidates[candidateId];\n    }\n\n    function linearTimeDecay(uint256 voteWeight, uint256 proposalId) internal view returns (uint256) {\n      uint256 endTime = raisedProposals[proposalId].duration;\n      if (block.timestamp >= endTime) {\n        return 0; // No voting power left\n      }\n      uint256 remainingDuration = endTime - block.timestamp;\n      // remainingDuration = 100 seconds, voteWeight = 3, endTime = 173432421;\n      uint256 decayedVote = (remainingDuration * voteWeight) / raisedProposals[proposalId].timeLength; \n\n      return decayedVote;\n    }\n\n    function sqrt(uint256 x) internal pure returns (uint256 y) {\n      uint256 z = (x + 1) / 2;\n      y = x;\n      while (z < y) {\n        y = z;\n        z = (x / z + z) / 2;\n      }\n    }\n\n    function getVotesOfProposal(\n        uint256 proposalId\n    ) public view returns (Vote[] memory) {\n        return votedOn[proposalId];\n    }\n}\n",
  "sourcePath": "/Users/abdullahmohamed/CodeProjects/ECE1770-QV-DAO-DApp-Project/src/contracts/Election.sol",
  "compiler": {
    "name": "solc",
    "version": "0.8.11+commit.d7f03943.Emscripten.clang"
  },
  "schemaVersion": "3.4.16",
  "updatedAt": "2024-04-21T21:14:11.464Z",
  "networkType": "ethereum",
  "devdoc": {
    "kind": "dev",
    "methods": {
      "getRoleAdmin(bytes32)": {
        "details": "Returns the admin role that controls `role`. See {grantRole} and {revokeRole}. To change a role's admin, use {_setRoleAdmin}."
      },
      "grantRole(bytes32,address)": {
        "details": "Grants `role` to `account`. If `account` had not been already granted `role`, emits a {RoleGranted} event. Requirements: - the caller must have ``role``'s admin role. May emit a {RoleGranted} event."
      },
      "hasRole(bytes32,address)": {
        "details": "Returns `true` if `account` has been granted `role`."
      },
      "renounceRole(bytes32,address)": {
        "details": "Revokes `role` from the calling account. Roles are often managed via {grantRole} and {revokeRole}: this function's purpose is to provide a mechanism for accounts to lose their privileges if they are compromised (such as when a trusted device is misplaced). If the calling account had been revoked `role`, emits a {RoleRevoked} event. Requirements: - the caller must be `account`. May emit a {RoleRevoked} event."
      },
      "revokeRole(bytes32,address)": {
        "details": "Revokes `role` from `account`. If `account` had been granted `role`, emits a {RoleRevoked} event. Requirements: - the caller must have ``role``'s admin role. May emit a {RoleRevoked} event."
      },
      "supportsInterface(bytes4)": {
        "details": "See {IERC165-supportsInterface}."
      }
    },
    "version": 1
  },
  "userdoc": {
    "kind": "user",
    "methods": {},
    "version": 1
  }
}