{
  "contractName": "Election",
  "abi": [
    {
      "inputs": [
        {
          "internalType": "contract QuadraNFT",
          "name": "_token",
          "type": "address"
        }
      ],
      "stateMutability": "nonpayable",
      "type": "constructor"
    },
    {
      "anonymous": false,
      "inputs": [
        {
          "indexed": true,
          "internalType": "address",
          "name": "initiator",
          "type": "address"
        },
        {
          "indexed": false,
          "internalType": "string",
          "name": "message",
          "type": "string"
        }
      ],
      "name": "Action",
      "type": "event"
    },
    {
      "anonymous": false,
      "inputs": [
        {
          "indexed": true,
          "internalType": "bytes32",
          "name": "role",
          "type": "bytes32"
        },
        {
          "indexed": true,
          "internalType": "bytes32",
          "name": "previousAdminRole",
          "type": "bytes32"
        },
        {
          "indexed": true,
          "internalType": "bytes32",
          "name": "newAdminRole",
          "type": "bytes32"
        }
      ],
      "name": "RoleAdminChanged",
      "type": "event"
    },
    {
      "anonymous": false,
      "inputs": [
        {
          "indexed": true,
          "internalType": "bytes32",
          "name": "role",
          "type": "bytes32"
        },
        {
          "indexed": true,
          "internalType": "address",
          "name": "account",
          "type": "address"
        },
        {
          "indexed": true,
          "internalType": "address",
          "name": "sender",
          "type": "address"
        }
      ],
      "name": "RoleGranted",
      "type": "event"
    },
    {
      "anonymous": false,
      "inputs": [
        {
          "indexed": true,
          "internalType": "bytes32",
          "name": "role",
          "type": "bytes32"
        },
        {
          "indexed": true,
          "internalType": "address",
          "name": "account",
          "type": "address"
        },
        {
          "indexed": true,
          "internalType": "address",
          "name": "sender",
          "type": "address"
        }
      ],
      "name": "RoleRevoked",
      "type": "event"
    },
    {
      "inputs": [],
      "name": "DEFAULT_ADMIN_ROLE",
      "outputs": [
        {
          "internalType": "bytes32",
          "name": "",
          "type": "bytes32"
        }
      ],
      "stateMutability": "view",
      "type": "function",
      "constant": true
    },
    {
      "inputs": [],
      "name": "daoBalance",
      "outputs": [
        {
          "internalType": "uint256",
          "name": "",
          "type": "uint256"
        }
      ],
      "stateMutability": "view",
      "type": "function",
      "constant": true
    },
    {
      "inputs": [
        {
          "internalType": "bytes32",
          "name": "role",
          "type": "bytes32"
        }
      ],
      "name": "getRoleAdmin",
      "outputs": [
        {
          "internalType": "bytes32",
          "name": "",
          "type": "bytes32"
        }
      ],
      "stateMutability": "view",
      "type": "function",
      "constant": true
    },
    {
      "inputs": [
        {
          "internalType": "bytes32",
          "name": "role",
          "type": "bytes32"
        },
        {
          "internalType": "address",
          "name": "account",
          "type": "address"
        }
      ],
      "name": "grantRole",
      "outputs": [],
      "stateMutability": "nonpayable",
      "type": "function"
    },
    {
      "inputs": [
        {
          "internalType": "bytes32",
          "name": "role",
          "type": "bytes32"
        },
        {
          "internalType": "address",
          "name": "account",
          "type": "address"
        }
      ],
      "name": "hasRole",
      "outputs": [
        {
          "internalType": "bool",
          "name": "",
          "type": "bool"
        }
      ],
      "stateMutability": "view",
      "type": "function",
      "constant": true
    },
    {
      "inputs": [
        {
          "internalType": "bytes32",
          "name": "role",
          "type": "bytes32"
        },
        {
          "internalType": "address",
          "name": "account",
          "type": "address"
        }
      ],
      "name": "renounceRole",
      "outputs": [],
      "stateMutability": "nonpayable",
      "type": "function"
    },
    {
      "inputs": [
        {
          "internalType": "bytes32",
          "name": "role",
          "type": "bytes32"
        },
        {
          "internalType": "address",
          "name": "account",
          "type": "address"
        }
      ],
      "name": "revokeRole",
      "outputs": [],
      "stateMutability": "nonpayable",
      "type": "function"
    },
    {
      "inputs": [
        {
          "internalType": "bytes4",
          "name": "interfaceId",
          "type": "bytes4"
        }
      ],
      "name": "supportsInterface",
      "outputs": [
        {
          "internalType": "bool",
          "name": "",
          "type": "bool"
        }
      ],
      "stateMutability": "view",
      "type": "function",
      "constant": true
    },
    {
      "inputs": [],
      "name": "token",
      "outputs": [
        {
          "internalType": "contract QuadraNFT",
          "name": "",
          "type": "address"
        }
      ],
      "stateMutability": "view",
      "type": "function",
      "constant": true
    },
    {
      "inputs": [
        {
          "internalType": "string",
          "name": "username",
          "type": "string"
        }
      ],
      "name": "addVoter",
      "outputs": [],
      "stateMutability": "nonpayable",
      "type": "function"
    },
    {
      "inputs": [
        {
          "internalType": "address",
          "name": "account",
          "type": "address"
        }
      ],
      "name": "grantAdminRole",
      "outputs": [],
      "stateMutability": "nonpayable",
      "type": "function"
    },
    {
      "inputs": [
        {
          "internalType": "address",
          "name": "account",
          "type": "address"
        }
      ],
      "name": "getVoter",
      "outputs": [
        {
          "components": [
            {
              "internalType": "string",
              "name": "username",
              "type": "string"
            },
            {
              "internalType": "enum Election.VoterStatus",
              "name": "status",
              "type": "uint8"
            },
            {
              "internalType": "uint256",
              "name": "depositedAmount",
              "type": "uint256"
            },
            {
              "internalType": "address",
              "name": "voterAddress",
              "type": "address"
            }
          ],
          "internalType": "struct Election.Voter",
          "name": "voter",
          "type": "tuple"
        },
        {
          "internalType": "bool",
          "name": "isAdmin",
          "type": "bool"
        }
      ],
      "stateMutability": "view",
      "type": "function",
      "constant": true
    },
    {
      "inputs": [],
      "name": "getVoters",
      "outputs": [
        {
          "components": [
            {
              "internalType": "string",
              "name": "username",
              "type": "string"
            },
            {
              "internalType": "enum Election.VoterStatus",
              "name": "status",
              "type": "uint8"
            },
            {
              "internalType": "uint256",
              "name": "depositedAmount",
              "type": "uint256"
            },
            {
              "internalType": "address",
              "name": "voterAddress",
              "type": "address"
            }
          ],
          "internalType": "struct Election.Voter[]",
          "name": "",
          "type": "tuple[]"
        },
        {
          "internalType": "bool[]",
          "name": "",
          "type": "bool[]"
        }
      ],
      "stateMutability": "view",
      "type": "function",
      "constant": true
    },
    {
      "inputs": [],
      "name": "applyNFT",
      "outputs": [],
      "stateMutability": "nonpayable",
      "type": "function"
    },
    {
      "inputs": [
        {
          "internalType": "address",
          "name": "to",
          "type": "address"
        }
      ],
      "name": "mintNFT",
      "outputs": [],
      "stateMutability": "nonpayable",
      "type": "function"
    },
    {
      "inputs": [],
      "name": "getNFTAddress",
      "outputs": [
        {
          "internalType": "address",
          "name": "",
          "type": "address"
        }
      ],
      "stateMutability": "view",
      "type": "function",
      "constant": true
    },
    {
      "inputs": [
        {
          "internalType": "address",
          "name": "_voter",
          "type": "address"
        }
      ],
      "name": "isStakeholder",
      "outputs": [
        {
          "internalType": "bool",
          "name": "",
          "type": "bool"
        }
      ],
      "stateMutability": "view",
      "type": "function",
      "constant": true
    },
    {
      "inputs": [],
      "name": "contribute",
      "outputs": [
        {
          "internalType": "uint256",
          "name": "",
          "type": "uint256"
        }
      ],
      "stateMutability": "payable",
      "type": "function",
      "payable": true
    },
    {
      "inputs": [
        {
          "internalType": "uint256",
          "name": "voted",
          "type": "uint256"
        },
        {
          "internalType": "uint256",
          "name": "new_votes",
          "type": "uint256"
        }
      ],
      "name": "quadraticVote",
      "outputs": [
        {
          "internalType": "uint256",
          "name": "",
          "type": "uint256"
        }
      ],
      "stateMutability": "pure",
      "type": "function",
      "constant": true
    },
    {
      "inputs": [
        {
          "internalType": "string",
          "name": "title",
          "type": "string"
        },
        {
          "internalType": "string",
          "name": "description",
          "type": "string"
        },
        {
          "internalType": "string[]",
          "name": "_candidateNames",
          "type": "string[]"
        },
        {
          "internalType": "uint256",
          "name": "maxTokensPerAddress",
          "type": "uint256"
        },
        {
          "internalType": "bool",
          "name": "qvEnabled",
          "type": "bool"
        },
        {
          "internalType": "bool",
          "name": "linearTimeDecayEnabled",
          "type": "bool"
        },
        {
          "internalType": "uint32",
          "name": "timeLength",
          "type": "uint32"
        }
      ],
      "name": "createProposal",
      "outputs": [
        {
          "components": [
            {
              "internalType": "uint256",
              "name": "id",
              "type": "uint256"
            },
            {
              "internalType": "uint256",
              "name": "duration",
              "type": "uint256"
            },
            {
              "internalType": "string",
              "name": "title",
              "type": "string"
            },
            {
              "internalType": "string",
              "name": "description",
              "type": "string"
            },
            {
              "internalType": "bool",
              "name": "ended",
              "type": "bool"
            },
            {
              "internalType": "address",
              "name": "proposer",
              "type": "address"
            },
            {
              "internalType": "address",
              "name": "executor",
              "type": "address"
            },
            {
              "components": [
                {
                  "internalType": "uint256",
                  "name": "id",
                  "type": "uint256"
                },
                {
                  "internalType": "string",
                  "name": "name",
                  "type": "string"
                },
                {
                  "internalType": "uint256",
                  "name": "votes",
                  "type": "uint256"
                }
              ],
              "internalType": "struct Election.Candidate[]",
              "name": "candidates",
              "type": "tuple[]"
            },
            {
              "internalType": "uint256",
              "name": "totalVotes",
              "type": "uint256"
            },
            {
              "internalType": "uint256",
              "name": "maxTokensPerAddress",
              "type": "uint256"
            },
            {
              "internalType": "uint256",
              "name": "timeLength",
              "type": "uint256"
            },
            {
              "internalType": "bool",
              "name": "linearTimeDecayEnabled",
              "type": "bool"
            },
            {
              "internalType": "bool",
              "name": "qvEnabled",
              "type": "bool"
            }
          ],
          "internalType": "struct Election.Proposal",
          "name": "",
          "type": "tuple"
        }
      ],
      "stateMutability": "nonpayable",
      "type": "function"
    },
    {
      "inputs": [],
      "name": "getProposals",
      "outputs": [
        {
          "components": [
            {
              "internalType": "uint256",
              "name": "id",
              "type": "uint256"
            },
            {
              "internalType": "uint256",
              "name": "duration",
              "type": "uint256"
            },
            {
              "internalType": "string",
              "name": "title",
              "type": "string"
            },
            {
              "internalType": "string",
              "name": "description",
              "type": "string"
            },
            {
              "internalType": "bool",
              "name": "ended",
              "type": "bool"
            },
            {
              "internalType": "address",
              "name": "proposer",
              "type": "address"
            },
            {
              "internalType": "address",
              "name": "executor",
              "type": "address"
            },
            {
              "components": [
                {
                  "internalType": "uint256",
                  "name": "id",
                  "type": "uint256"
                },
                {
                  "internalType": "string",
                  "name": "name",
                  "type": "string"
                },
                {
                  "internalType": "uint256",
                  "name": "votes",
                  "type": "uint256"
                }
              ],
              "internalType": "struct Election.Candidate[]",
              "name": "candidates",
              "type": "tuple[]"
            },
            {
              "internalType": "uint256",
              "name": "totalVotes",
              "type": "uint256"
            },
            {
              "internalType": "uint256",
              "name": "maxTokensPerAddress",
              "type": "uint256"
            },
            {
              "internalType": "uint256",
              "name": "timeLength",
              "type": "uint256"
            },
            {
              "internalType": "bool",
              "name": "linearTimeDecayEnabled",
              "type": "bool"
            },
            {
              "internalType": "bool",
              "name": "qvEnabled",
              "type": "bool"
            }
          ],
          "internalType": "struct Election.Proposal[]",
          "name": "props",
          "type": "tuple[]"
        }
      ],
      "stateMutability": "view",
      "type": "function",
      "constant": true
    },
    {
      "inputs": [
        {
          "internalType": "uint256",
          "name": "proposalId",
          "type": "uint256"
        }
      ],
      "name": "getProposal",
      "outputs": [
        {
          "components": [
            {
              "internalType": "uint256",
              "name": "id",
              "type": "uint256"
            },
            {
              "internalType": "uint256",
              "name": "duration",
              "type": "uint256"
            },
            {
              "internalType": "string",
              "name": "title",
              "type": "string"
            },
            {
              "internalType": "string",
              "name": "description",
              "type": "string"
            },
            {
              "internalType": "bool",
              "name": "ended",
              "type": "bool"
            },
            {
              "internalType": "address",
              "name": "proposer",
              "type": "address"
            },
            {
              "internalType": "address",
              "name": "executor",
              "type": "address"
            },
            {
              "components": [
                {
                  "internalType": "uint256",
                  "name": "id",
                  "type": "uint256"
                },
                {
                  "internalType": "string",
                  "name": "name",
                  "type": "string"
                },
                {
                  "internalType": "uint256",
                  "name": "votes",
                  "type": "uint256"
                }
              ],
              "internalType": "struct Election.Candidate[]",
              "name": "candidates",
              "type": "tuple[]"
            },
            {
              "internalType": "uint256",
              "name": "totalVotes",
              "type": "uint256"
            },
            {
              "internalType": "uint256",
              "name": "maxTokensPerAddress",
              "type": "uint256"
            },
            {
              "internalType": "uint256",
              "name": "timeLength",
              "type": "uint256"
            },
            {
              "internalType": "bool",
              "name": "linearTimeDecayEnabled",
              "type": "bool"
            },
            {
              "internalType": "bool",
              "name": "qvEnabled",
              "type": "bool"
            }
          ],
          "internalType": "struct Election.Proposal",
          "name": "",
          "type": "tuple"
        }
      ],
      "stateMutability": "view",
      "type": "function",
      "constant": true
    },
    {
      "inputs": [
        {
          "internalType": "uint256",
          "name": "proposalId",
          "type": "uint256"
        }
      ],
      "name": "getCandidates",
      "outputs": [
        {
          "components": [
            {
              "internalType": "uint256",
              "name": "id",
              "type": "uint256"
            },
            {
              "internalType": "string",
              "name": "name",
              "type": "string"
            },
            {
              "internalType": "uint256",
              "name": "votes",
              "type": "uint256"
            }
          ],
          "internalType": "struct Election.Candidate[]",
          "name": "",
          "type": "tuple[]"
        }
      ],
      "stateMutability": "view",
      "type": "function",
      "constant": true
    },
    {
      "inputs": [
        {
          "internalType": "uint256",
          "name": "proposalId",
          "type": "uint256"
        }
      ],
      "name": "getTokensLeftForProposal",
      "outputs": [
        {
          "internalType": "uint256",
          "name": "",
          "type": "uint256"
        }
      ],
      "stateMutability": "view",
      "type": "function",
      "constant": true
    },
    {
      "inputs": [
        {
          "internalType": "uint256",
          "name": "proposalId",
          "type": "uint256"
        }
      ],
      "name": "getTokensSpent",
      "outputs": [
        {
          "internalType": "uint256",
          "name": "",
          "type": "uint256"
        }
      ],
      "stateMutability": "view",
      "type": "function",
      "constant": true
    },
    {
      "inputs": [
        {
          "internalType": "uint256",
          "name": "proposalId",
          "type": "uint256"
        },
        {
          "internalType": "uint256",
          "name": "candidateId",
          "type": "uint256"
        },
        {
          "internalType": "uint256",
          "name": "numVotes",
          "type": "uint256"
        }
      ],
      "name": "voteForCandidate",
      "outputs": [
        {
          "components": [
            {
              "internalType": "uint256",
              "name": "id",
              "type": "uint256"
            },
            {
              "internalType": "string",
              "name": "name",
              "type": "string"
            },
            {
              "internalType": "uint256",
              "name": "votes",
              "type": "uint256"
            }
          ],
          "internalType": "struct Election.Candidate",
          "name": "",
          "type": "tuple"
        }
      ],
      "stateMutability": "nonpayable",
      "type": "function"
    },
    {
      "inputs": [
        {
          "internalType": "uint256",
          "name": "proposalId",
          "type": "uint256"
        }
      ],
      "name": "getVotesOfProposal",
      "outputs": [
        {
          "components": [
            {
              "internalType": "address",
              "name": "voter",
              "type": "address"
            },
            {
              "internalType": "uint256",
              "name": "candidateId",
              "type": "uint256"
            },
            {
              "internalType": "uint256",
              "name": "timestamp",
              "type": "uint256"
            },
            {
              "internalType": "uint256",
              "name": "numVotes",
              "type": "uint256"
            },
            {
              "internalType": "uint256",
              "name": "numTokens",
              "type": "uint256"
            }
          ],
          "internalType": "struct Election.Vote[]",
          "name": "",
          "type": "tuple[]"
        }
      ],
      "stateMutability": "view",
      "type": "function",
      "constant": true
    }
  ],
  "bytecode": "0x6101006040527fa49807205ce4d355092ef5a8a18f56e8913cf4a201fbe287825b095693c217756080908152507fa0bb1af1c90aa52ed052b92714ff0087008cc720049bf1af77cca2600b31e80c60a09081525061012c63ffffffff1660c09063ffffffff16815250600a60e09081525060006003553480156200008257600080fd5b5060405162005afc38038062005afc8339818101604052810190620000a891906200055a565b600160008190555080600460006101000a81548173ffffffffffffffffffffffffffffffffffffffff021916908373ffffffffffffffffffffffffffffffffffffffff16021790555062000105608051336200015760201b60201c565b62000150336040518060400160405280600581526020017f41646d696e000000000000000000000000000000000000000000000000000000815250600260006200024860201b60201c565b50620006a7565b620001698282620003b960201b60201c565b6200024457600180600084815260200190815260200160002060000160008373ffffffffffffffffffffffffffffffffffffffff1673ffffffffffffffffffffffffffffffffffffffff16815260200190815260200160002060006101000a81548160ff021916908315150217905550620001e96200042460201b60201c565b73ffffffffffffffffffffffffffffffffffffffff168173ffffffffffffffffffffffffffffffffffffffff16837f2f8788117e7eff1d82e926ec794901d17c78024a50270940304540a733656f0d60405160405180910390a45b5050565b600360008154809291906200025d90620005c5565b91905055506000600354905080600a60008773ffffffffffffffffffffffffffffffffffffffff1673ffffffffffffffffffffffffffffffffffffffff168152602001908152602001600020819055506040518060800160405280858152602001846002811115620002d457620002d362000613565b5b81526020018381526020018673ffffffffffffffffffffffffffffffffffffffff168152506009600083815260200190815260200160002060008201518160000190805190602001906200032a9291906200042c565b5060208201518160010160006101000a81548160ff0219169083600281111562000359576200035862000613565b5b02179055506040820151816002015560608201518160030160006101000a81548173ffffffffffffffffffffffffffffffffffffffff021916908373ffffffffffffffffffffffffffffffffffffffff1602179055509050505050505050565b60006001600084815260200190815260200160002060000160008373ffffffffffffffffffffffffffffffffffffffff1673ffffffffffffffffffffffffffffffffffffffff16815260200190815260200160002060009054906101000a900460ff16905092915050565b600033905090565b8280546200043a9062000671565b90600052602060002090601f0160209004810192826200045e5760008555620004aa565b82601f106200047957805160ff1916838001178555620004aa565b82800160010185558215620004aa579182015b82811115620004a95782518255916020019190600101906200048c565b5b509050620004b99190620004bd565b5090565b5b80821115620004d8576000816000905550600101620004be565b5090565b600080fd5b600073ffffffffffffffffffffffffffffffffffffffff82169050919050565b60006200050e82620004e1565b9050919050565b6000620005228262000501565b9050919050565b620005348162000515565b81146200054057600080fd5b50565b600081519050620005548162000529565b92915050565b600060208284031215620005735762000572620004dc565b5b6000620005838482850162000543565b91505092915050565b7f4e487b7100000000000000000000000000000000000000000000000000000000600052601160045260246000fd5b6000819050919050565b6000620005d282620005bb565b91507fffffffffffffffffffffffffffffffffffffffffffffffffffffffffffffffff8214156200060857620006076200058c565b5b600182019050919050565b7f4e487b7100000000000000000000000000000000000000000000000000000000600052602160045260246000fd5b7f4e487b7100000000000000000000000000000000000000000000000000000000600052602260045260246000fd5b600060028204905060018216806200068a57607f821691505b60208210811415620006a157620006a062000642565b5b50919050565b60805160a05160c05160e0516153f06200070c60003960005050600050506000818161298501526129b3015260008181610b92015281816110d4015281816116fe01528181611f7601528181611fa301528181612588015261285601526153f06000f3fe60806040526004361061019c5760003560e01c80639c085bdf116100ec578063c7f758a81161008a578063d547741f11610064578063d547741f1461063a578063d7bb99ba14610663578063ef037b9014610681578063fc0c546a146106be5761019c565b8063c7f758a814610593578063cdd72253146105d0578063d4f50f98146105fc5761019c565b8063b32f1486116100c6578063b32f1486146104d7578063b961847814610514578063bd9728161461053f578063c634b78e1461056a5761019c565b80639c085bdf14610446578063a217fddf14610483578063aca84892146104ae5761019c565b80633e39a7a51161015957806362564c481161013357806362564c481461036457806370593d9e1461038f578063829a0ade146103cc57806391d14854146104095761019c565b80633e39a7a5146102c1578063417d14cb146102fe57806354ba0f271461033b5761019c565b806301ffc9a7146101a1578063075bb589146101de578063248a9ca31461021b5780632f2ff15d1461025857806336568abe146102815780633a6a137b146102aa575b600080fd5b3480156101ad57600080fd5b506101c860048036038101906101c391906134c5565b6106e9565b6040516101d5919061350d565b60405180910390f35b3480156101ea57600080fd5b506102056004803603810190610200919061355e565b610763565b60405161021291906136f2565b60405180910390f35b34801561022757600080fd5b50610242600480360381019061023d919061374a565b610853565b60405161024f9190613786565b60405180910390f35b34801561026457600080fd5b5061027f600480360381019061027a91906137cd565b610873565b005b34801561028d57600080fd5b506102a860048036038101906102a391906137cd565b610894565b005b3480156102b657600080fd5b506102bf610917565b005b3480156102cd57600080fd5b506102e860048036038101906102e3919061355e565b610a6a565b6040516102f591906139b8565b60405180910390f35b34801561030a57600080fd5b50610325600480360381019061032091906139da565b610b85565b6040516103329190613a7d565b60405180910390f35b34801561034757600080fd5b50610362600480360381019061035d9190613a9f565b6110d2565b005b34801561037057600080fd5b506103796112de565b6040516103869190613d4a565b60405180910390f35b34801561039b57600080fd5b506103b660048036038101906103b1919061404a565b6116f1565b6040516103c3919061426f565b60405180910390f35b3480156103d857600080fd5b506103f360048036038101906103ee9190614291565b611d04565b60405161040091906142e0565b60405180910390f35b34801561041557600080fd5b50610430600480360381019061042b91906137cd565b611d66565b60405161043d919061350d565b60405180910390f35b34801561045257600080fd5b5061046d6004803603810190610468919061355e565b611dd1565b60405161047a91906142e0565b60405180910390f35b34801561048f57600080fd5b50610498611e2b565b6040516104a59190613786565b60405180910390f35b3480156104ba57600080fd5b506104d560048036038101906104d091906142fb565b611e32565b005b3480156104e357600080fd5b506104fe60048036038101906104f9919061355e565b611ec4565b60405161050b91906142e0565b60405180910390f35b34801561052057600080fd5b50610529611f44565b6040516105369190614353565b60405180910390f35b34801561054b57600080fd5b50610554611f6e565b60405161056191906142e0565b60405180910390f35b34801561057657600080fd5b50610591600480360381019061058c9190613a9f565b611f74565b005b34801561059f57600080fd5b506105ba60048036038101906105b5919061355e565b611fcc565b6040516105c7919061426f565b60405180910390f35b3480156105dc57600080fd5b506105e5612352565b6040516105f39291906145b9565b60405180910390f35b34801561060857600080fd5b50610623600480360381019061061e9190613a9f565b612674565b604051610631929190614653565b60405180910390f35b34801561064657600080fd5b50610661600480360381019061065c91906137cd565b612894565b005b61066b6128b5565b60405161067891906142e0565b60405180910390f35b34801561068d57600080fd5b506106a860048036038101906106a39190613a9f565b612a28565b6040516106b5919061350d565b60405180910390f35b3480156106ca57600080fd5b506106d3612ae0565b6040516106e091906146e2565b60405180910390f35b60007f7965db0b000000000000000000000000000000000000000000000000000000007bffffffffffffffffffffffffffffffffffffffffffffffffffffffff1916827bffffffffffffffffffffffffffffffffffffffffffffffffffffffff1916148061075c575061075b82612b06565b5b9050919050565b6060600b6000838152602001908152602001600020805480602002602001604051908101604052809291908181526020016000905b8282101561084857838290600052602060002090600502016040518060a00160405290816000820160009054906101000a900473ffffffffffffffffffffffffffffffffffffffff1673ffffffffffffffffffffffffffffffffffffffff1673ffffffffffffffffffffffffffffffffffffffff16815260200160018201548152602001600282015481526020016003820154815260200160048201548152505081526020019060010190610798565b505050509050919050565b600060016000838152602001908152602001600020600101549050919050565b61087c82610853565b61088581612b70565b61088f8383612b84565b505050565b61089c612c64565b73ffffffffffffffffffffffffffffffffffffffff168173ffffffffffffffffffffffffffffffffffffffff1614610909576040517f08c379a000000000000000000000000000000000000000000000000000000000815260040161090090614780565b60405180910390fd5b6109138282612c6c565b5050565b6000600a60003373ffffffffffffffffffffffffffffffffffffffff1673ffffffffffffffffffffffffffffffffffffffff1681526020019081526020016000205490506000811161099e576040517f08c379a0000000000000000000000000000000000000000000000000000000008152600401610995906147ec565b60405180910390fd5b600060028111156109b2576109b161439a565b5b6009600083815260200190815260200160002060010160009054906101000a900460ff1660028111156109e8576109e761439a565b5b14610a28576040517f08c379a0000000000000000000000000000000000000000000000000000000008152600401610a1f9061487e565b60405180910390fd5b60016009600083815260200190815260200160002060010160006101000a81548160ff02191690836002811115610a6257610a6161439a565b5b021790555050565b606060066000838152602001908152602001600020600601805480602002602001604051908101604052809291908181526020016000905b82821015610b7a578382906000526020600020906003020160405180606001604052908160008201548152602001600182018054610adf906148cd565b80601f0160208091040260200160405190810160405280929190818152602001828054610b0b906148cd565b8015610b585780601f10610b2d57610100808354040283529160200191610b58565b820191906000526020600020905b815481529060010190602001808311610b3b57829003601f168201915b5050505050815260200160028201548152505081526020019060010190610aa2565b505050509050919050565b610b8d613225565b610bb77f000000000000000000000000000000000000000000000000000000000000000033611d66565b80610bc75750610bc633612a28565b5b610c06576040517f08c379a0000000000000000000000000000000000000000000000000000000008152600401610bfd90614971565b60405180910390fd5b6000600660008681526020019081526020016000209050600081600601805480602002602001604051908101604052809291908181526020016000905b82821015610d1b578382906000526020600020906003020160405180606001604052908160008201548152602001600182018054610c80906148cd565b80601f0160208091040260200160405190810160405280929190818152602001828054610cac906148cd565b8015610cf95780601f10610cce57610100808354040283529160200191610cf9565b820191906000526020600020905b815481529060010190602001808311610cdc57829003601f168201915b5050505050815260200160028201548152505081526020019060010190610c43565b5050505090508160040160009054906101000a900460ff1680610d42575042826001015411155b15610d9f5760018260040160006101000a81548160ff0219169083151502179055506040517f08c379a0000000000000000000000000000000000000000000000000000000008152600401610d96906149dd565b60405180910390fd5b600084905060066000888152602001908152602001600020600a0160019054906101000a900460ff1615610ddd57600285610dda9190614b6c565b90505b60066000888152602001908152602001600020600a0160009054906101000a900460ff1615610e1357610e108188612d4e565b90505b826008015481600860003373ffffffffffffffffffffffffffffffffffffffff1673ffffffffffffffffffffffffffffffffffffffff16815260200190815260200160002060008a815260200190815260200160002054610e749190614bb7565b1115610eb5576040517f08c379a0000000000000000000000000000000000000000000000000000000008152600401610eac90614c59565b60405180910390fd5b80600860003373ffffffffffffffffffffffffffffffffffffffff1673ffffffffffffffffffffffffffffffffffffffff16815260200190815260200160002060008981526020019081526020016000206000828254610f159190614bb7565b9250508190555084836006018781548110610f3357610f32614c79565b5b90600052602060002090600302016002016000828254610f539190614bb7565b9250508190555084836007016000828254610f6e9190614bb7565b92505081905550600b60008881526020019081526020016000206040518060a001604052803373ffffffffffffffffffffffffffffffffffffffff16815260200188815260200142815260200187815260200183815250908060018154018082558091505060019003906000526020600020906005020160009091909190915060008201518160000160006101000a81548173ffffffffffffffffffffffffffffffffffffffff021916908373ffffffffffffffffffffffffffffffffffffffff1602179055506020820151816001015560408201518160020155606082015181600301556080820151816004015550503373ffffffffffffffffffffffffffffffffffffffff167fa6f6fe9139f021af0f5a3b1c2eca6a1c371d77c4c99fdf2be0a2fdbd215baa8d6040516110a390614cf4565b60405180910390a28186815181106110be576110bd614c79565b5b602002602001015193505050509392505050565b7f00000000000000000000000000000000000000000000000000000000000000006110fc81612b70565b6000600a60008473ffffffffffffffffffffffffffffffffffffffff1673ffffffffffffffffffffffffffffffffffffffff16815260200190815260200160002054905060008111611183576040517f08c379a000000000000000000000000000000000000000000000000000000000815260040161117a906147ec565b60405180910390fd5b6002808111156111965761119561439a565b5b6009600083815260200190815260200160002060010160009054906101000a900460ff1660028111156111cc576111cb61439a565b5b141561120d576040517f08c379a000000000000000000000000000000000000000000000000000000000815260040161120490614d60565b60405180910390fd5b600460009054906101000a900473ffffffffffffffffffffffffffffffffffffffff1673ffffffffffffffffffffffffffffffffffffffff1663d204c45e846040518263ffffffff1660e01b81526004016112689190614e18565b600060405180830381600087803b15801561128257600080fd5b505af1158015611296573d6000803e3d6000fd5b5050505060026009600083815260200190815260200160002060010160006101000a81548160ff021916908360028111156112d4576112d361439a565b5b0217905550505050565b606060025467ffffffffffffffff8111156112fc576112fb613dd1565b5b60405190808252806020026020018201604052801561133557816020015b611322613246565b81526020019060019003908161131a5790505b50905060005b6002548110156116ed5760066000828152602001908152602001600020604051806101a00160405290816000820154815260200160018201548152602001600282018054611388906148cd565b80601f01602080910402602001604051908101604052809291908181526020018280546113b4906148cd565b80156114015780601f106113d657610100808354040283529160200191611401565b820191906000526020600020905b8154815290600101906020018083116113e457829003601f168201915b5050505050815260200160038201805461141a906148cd565b80601f0160208091040260200160405190810160405280929190818152602001828054611446906148cd565b80156114935780601f1061146857610100808354040283529160200191611493565b820191906000526020600020905b81548152906001019060200180831161147657829003601f168201915b505050505081526020016004820160009054906101000a900460ff161515151581526020016004820160019054906101000a900473ffffffffffffffffffffffffffffffffffffffff1673ffffffffffffffffffffffffffffffffffffffff1673ffffffffffffffffffffffffffffffffffffffff1681526020016005820160009054906101000a900473ffffffffffffffffffffffffffffffffffffffff1673ffffffffffffffffffffffffffffffffffffffff1673ffffffffffffffffffffffffffffffffffffffff16815260200160068201805480602002602001604051908101604052809291908181526020016000905b828210156116605783829060005260206000209060030201604051806060016040529081600082015481526020016001820180546115c5906148cd565b80601f01602080910402602001604051908101604052809291908181526020018280546115f1906148cd565b801561163e5780601f106116135761010080835404028352916020019161163e565b820191906000526020600020905b81548152906001019060200180831161162157829003601f168201915b5050505050815260200160028201548152505081526020019060010190611588565b505050508152602001600782015481526020016008820154815260200160098201548152602001600a820160009054906101000a900460ff16151515158152602001600a820160019054906101000a900460ff1615151515815250508282815181106116cf576116ce614c79565b5b602002602001018190525080806116e590614e46565b91505061133b565b5090565b6116f9613246565b6117237f000000000000000000000000000000000000000000000000000000000000000033611d66565b80611733575061173233612a28565b5b611772576040517f08c379a000000000000000000000000000000000000000000000000000000000815260040161176990614f01565b60405180910390fd5b60006002600081548092919061178790614e46565b91905055905060006006600083815260200190815260200160002090508181600001819055508b8b8260020191906117c09291906132e0565b5089898260030191906117d49291906132e0565b50338160040160016101000a81548173ffffffffffffffffffffffffffffffffffffffff021916908373ffffffffffffffffffffffffffffffffffffffff160217905550600081600701819055508681600801819055508581600a0160016101000a81548160ff0219169083151502179055508481600a0160006101000a81548160ff0219169083151502179055508363ffffffff16426118759190614bb7565b81600101819055508363ffffffff16816009018190555060005b8851811015611941578160060160405180606001604052808381526020018b84815181106118c0576118bf614c79565b5b6020026020010151815260200160008152509080600181540180825580915050600190039060005260206000209060030201600090919091909150600082015181600001556020820151816001019080519060200190611921929190613366565b50604082015181600201555050808061193990614e46565b91505061188f565b503373ffffffffffffffffffffffffffffffffffffffff167fa6f6fe9139f021af0f5a3b1c2eca6a1c371d77c4c99fdf2be0a2fdbd215baa8d60405161198690614f6d565b60405180910390a280604051806101a001604052908160008201548152602001600182015481526020016002820180546119bf906148cd565b80601f01602080910402602001604051908101604052809291908181526020018280546119eb906148cd565b8015611a385780601f10611a0d57610100808354040283529160200191611a38565b820191906000526020600020905b815481529060010190602001808311611a1b57829003601f168201915b50505050508152602001600382018054611a51906148cd565b80601f0160208091040260200160405190810160405280929190818152602001828054611a7d906148cd565b8015611aca5780601f10611a9f57610100808354040283529160200191611aca565b820191906000526020600020905b815481529060010190602001808311611aad57829003601f168201915b505050505081526020016004820160009054906101000a900460ff161515151581526020016004820160019054906101000a900473ffffffffffffffffffffffffffffffffffffffff1673ffffffffffffffffffffffffffffffffffffffff1673ffffffffffffffffffffffffffffffffffffffff1681526020016005820160009054906101000a900473ffffffffffffffffffffffffffffffffffffffff1673ffffffffffffffffffffffffffffffffffffffff1673ffffffffffffffffffffffffffffffffffffffff16815260200160068201805480602002602001604051908101604052809291908181526020016000905b82821015611c97578382906000526020600020906003020160405180606001604052908160008201548152602001600182018054611bfc906148cd565b80601f0160208091040260200160405190810160405280929190818152602001828054611c28906148cd565b8015611c755780601f10611c4a57610100808354040283529160200191611c75565b820191906000526020600020905b815481529060010190602001808311611c5857829003601f168201915b5050505050815260200160028201548152505081526020019060010190611bbf565b505050508152602001600782015481526020016008820154815260200160098201548152602001600a820160009054906101000a900460ff16151515158152602001600a820160019054906101000a900460ff161515151581525050925050509998505050505050505050565b600080600090506000600190505b838111611d5b578085611d259190614bb7565b8186611d319190614bb7565b611d3b9190614f8d565b82611d469190614bb7565b91508080611d5390614e46565b915050611d12565b508091505092915050565b60006001600084815260200190815260200160002060000160008373ffffffffffffffffffffffffffffffffffffffff1673ffffffffffffffffffffffffffffffffffffffff16815260200190815260200160002060009054906101000a900460ff16905092915050565b6000600860003373ffffffffffffffffffffffffffffffffffffffff1673ffffffffffffffffffffffffffffffffffffffff1681526020019081526020016000206000838152602001908152602001600020549050919050565b6000801b81565b6000600a60003373ffffffffffffffffffffffffffffffffffffffff1673ffffffffffffffffffffffffffffffffffffffff1681526020019081526020016000205414611eb4576040517f08c379a0000000000000000000000000000000000000000000000000000000008152600401611eab90615033565b60405180910390fd5b611ec13382600080612dd0565b50565b600080600660008481526020019081526020016000209050600860003373ffffffffffffffffffffffffffffffffffffffff1673ffffffffffffffffffffffffffffffffffffffff1681526020019081526020016000206000848152602001908152602001600020548160080154611f3c9190615053565b915050919050565b6000600460009054906101000a900473ffffffffffffffffffffffffffffffffffffffff16905090565b60055481565b7f0000000000000000000000000000000000000000000000000000000000000000611f9e81612b70565b611fc87f000000000000000000000000000000000000000000000000000000000000000083612b84565b5050565b611fd4613246565b60066000838152602001908152602001600020604051806101a00160405290816000820154815260200160018201548152602001600282018054612017906148cd565b80601f0160208091040260200160405190810160405280929190818152602001828054612043906148cd565b80156120905780601f1061206557610100808354040283529160200191612090565b820191906000526020600020905b81548152906001019060200180831161207357829003601f168201915b505050505081526020016003820180546120a9906148cd565b80601f01602080910402602001604051908101604052809291908181526020018280546120d5906148cd565b80156121225780601f106120f757610100808354040283529160200191612122565b820191906000526020600020905b81548152906001019060200180831161210557829003601f168201915b505050505081526020016004820160009054906101000a900460ff161515151581526020016004820160019054906101000a900473ffffffffffffffffffffffffffffffffffffffff1673ffffffffffffffffffffffffffffffffffffffff1673ffffffffffffffffffffffffffffffffffffffff1681526020016005820160009054906101000a900473ffffffffffffffffffffffffffffffffffffffff1673ffffffffffffffffffffffffffffffffffffffff1673ffffffffffffffffffffffffffffffffffffffff16815260200160068201805480602002602001604051908101604052809291908181526020016000905b828210156122ef578382906000526020600020906003020160405180606001604052908160008201548152602001600182018054612254906148cd565b80601f0160208091040260200160405190810160405280929190818152602001828054612280906148cd565b80156122cd5780601f106122a2576101008083540402835291602001916122cd565b820191906000526020600020905b8154815290600101906020018083116122b057829003601f168201915b5050505050815260200160028201548152505081526020019060010190612217565b505050508152602001600782015481526020016008820154815260200160098201548152602001600a820160009054906101000a900460ff16151515158152602001600a820160019054906101000a900460ff1615151515815250509050919050565b606080600060035467ffffffffffffffff81111561237357612372613dd1565b5b6040519080825280602002602001820160405280156123ac57816020015b6123996133ec565b8152602001906001900390816123915790505b509050600060035467ffffffffffffffff8111156123cd576123cc613dd1565b5b6040519080825280602002602001820160405280156123fb5781602001602082028036833780820191505090505b5090506000600190505b6003548111612667576009600082815260200190815260200160002060405180608001604052908160008201805461243c906148cd565b80601f0160208091040260200160405190810160405280929190818152602001828054612468906148cd565b80156124b55780601f1061248a576101008083540402835291602001916124b5565b820191906000526020600020905b81548152906001019060200180831161249857829003601f168201915b505050505081526020016001820160009054906101000a900460ff1660028111156124e3576124e261439a565b5b60028111156124f5576124f461439a565b5b8152602001600282015481526020016003820160009054906101000a900473ffffffffffffffffffffffffffffffffffffffff1673ffffffffffffffffffffffffffffffffffffffff1673ffffffffffffffffffffffffffffffffffffffff1681525050836001836125679190615053565b8151811061257857612577614c79565b5b60200260200101819052506125e37f00000000000000000000000000000000000000000000000000000000000000006009600084815260200190815260200160002060030160009054906101000a900473ffffffffffffffffffffffffffffffffffffffff16611d66565b15612620576001826001836125f89190615053565b8151811061260957612608614c79565b5b602002602001019015159081151581525050612654565b6000826001836126309190615053565b8151811061264157612640614c79565b5b6020026020010190151590811515815250505b808061265f90614e46565b915050612405565b5081819350935050509091565b61267c6133ec565b600080600a60008573ffffffffffffffffffffffffffffffffffffffff1673ffffffffffffffffffffffffffffffffffffffff16815260200190815260200160002054905060008111612704576040517f08c379a00000000000000000000000000000000000000000000000000000000081526004016126fb906147ec565b60405180910390fd5b60096000828152602001908152602001600020604051806080016040529081600082018054612732906148cd565b80601f016020809104026020016040519081016040528092919081815260200182805461275e906148cd565b80156127ab5780601f10612780576101008083540402835291602001916127ab565b820191906000526020600020905b81548152906001019060200180831161278e57829003601f168201915b505050505081526020016001820160009054906101000a900460ff1660028111156127d9576127d861439a565b5b60028111156127eb576127ea61439a565b5b8152602001600282015481526020016003820160009054906101000a900473ffffffffffffffffffffffffffffffffffffffff1673ffffffffffffffffffffffffffffffffffffffff1673ffffffffffffffffffffffffffffffffffffffff1681525050925061287b7f000000000000000000000000000000000000000000000000000000000000000085611d66565b15612889576001915061288e565b600091505b50915091565b61289d82610853565b6128a681612b70565b6128b08383612c6c565b505050565b600080600a60003373ffffffffffffffffffffffffffffffffffffffff1673ffffffffffffffffffffffffffffffffffffffff1681526020019081526020016000205490506000811161293d576040517f08c379a0000000000000000000000000000000000000000000000000000000008152600401612934906147ec565b60405180910390fd5b60003411612980576040517f08c379a0000000000000000000000000000000000000000000000000000000008152600401612977906150f9565b60405180910390fd5b6129aa7f000000000000000000000000000000000000000000000000000000000000000033611d66565b6129d9576129d87f000000000000000000000000000000000000000000000000000000000000000033612b84565b5b346009600083815260200190815260200160002060020160008282546129ff9190614bb7565b925050819055503460056000828254612a189190614bb7565b9250508190555060055491505090565b600080600460009054906101000a900473ffffffffffffffffffffffffffffffffffffffff1673ffffffffffffffffffffffffffffffffffffffff166370a08231846040518263ffffffff1660e01b8152600401612a869190614353565b602060405180830381865afa158015612aa3573d6000803e3d6000fd5b505050506040513d601f19601f82011682018060405250810190612ac7919061512e565b1115612ad65760019050612adb565b600090505b919050565b600460009054906101000a900473ffffffffffffffffffffffffffffffffffffffff1681565b60007f01ffc9a7000000000000000000000000000000000000000000000000000000007bffffffffffffffffffffffffffffffffffffffffffffffffffffffff1916827bffffffffffffffffffffffffffffffffffffffffffffffffffffffff1916149050919050565b612b8181612b7c612c64565b612f37565b50565b612b8e8282611d66565b612c6057600180600084815260200190815260200160002060000160008373ffffffffffffffffffffffffffffffffffffffff1673ffffffffffffffffffffffffffffffffffffffff16815260200190815260200160002060006101000a81548160ff021916908315150217905550612c05612c64565b73ffffffffffffffffffffffffffffffffffffffff168173ffffffffffffffffffffffffffffffffffffffff16837f2f8788117e7eff1d82e926ec794901d17c78024a50270940304540a733656f0d60405160405180910390a45b5050565b600033905090565b612c768282611d66565b15612d4a5760006001600084815260200190815260200160002060000160008373ffffffffffffffffffffffffffffffffffffffff1673ffffffffffffffffffffffffffffffffffffffff16815260200190815260200160002060006101000a81548160ff021916908315150217905550612cef612c64565b73ffffffffffffffffffffffffffffffffffffffff168173ffffffffffffffffffffffffffffffffffffffff16837ff6391f5c32d9c69d2a47ea670b442974b53935d1edc7fd64eb21e047a839171b60405160405180910390a45b5050565b60008060066000848152602001908152602001600020600101549050600060066000858152602001908152602001600020600901549050814210612d9757600092505050612dca565b60004283612da59190615053565b90506000818388612db69190614f8d565b612dc0919061518a565b9050809450505050505b92915050565b60036000815480929190612de390614e46565b91905055506000600354905080600a60008773ffffffffffffffffffffffffffffffffffffffff1673ffffffffffffffffffffffffffffffffffffffff168152602001908152602001600020819055506040518060800160405280858152602001846002811115612e5757612e5661439a565b5b81526020018381526020018673ffffffffffffffffffffffffffffffffffffffff16815250600960008381526020019081526020016000206000820151816000019080519060200190612eab929190613366565b5060208201518160010160006101000a81548160ff02191690836002811115612ed757612ed661439a565b5b02179055506040820151816002015560608201518160030160006101000a81548173ffffffffffffffffffffffffffffffffffffffff021916908373ffffffffffffffffffffffffffffffffffffffff1602179055509050505050505050565b612f418282611d66565b612fb857612f4e81612fbc565b612f5c8360001c6020612fe9565b604051602001612f6d92919061528f565b6040516020818303038152906040526040517f08c379a0000000000000000000000000000000000000000000000000000000008152600401612faf9190615302565b60405180910390fd5b5050565b6060612fe28273ffffffffffffffffffffffffffffffffffffffff16601460ff16612fe9565b9050919050565b606060006002836002612ffc9190614f8d565b6130069190614bb7565b67ffffffffffffffff81111561301f5761301e613dd1565b5b6040519080825280601f01601f1916602001820160405280156130515781602001600182028036833780820191505090505b5090507f30000000000000000000000000000000000000000000000000000000000000008160008151811061308957613088614c79565b5b60200101907effffffffffffffffffffffffffffffffffffffffffffffffffffffffffffff1916908160001a9053507f7800000000000000000000000000000000000000000000000000000000000000816001815181106130ed576130ec614c79565b5b60200101907effffffffffffffffffffffffffffffffffffffffffffffffffffffffffffff1916908160001a9053506000600184600261312d9190614f8d565b6131379190614bb7565b90505b60018111156131d7577f3031323334353637383961626364656600000000000000000000000000000000600f86166010811061317957613178614c79565b5b1a60f81b8282815181106131905761318f614c79565b5b60200101907effffffffffffffffffffffffffffffffffffffffffffffffffffffffffffff1916908160001a905350600485901c9450806131d090615324565b905061313a565b506000841461321b576040517f08c379a00000000000000000000000000000000000000000000000000000000081526004016132129061539a565b60405180910390fd5b8091505092915050565b60405180606001604052806000815260200160608152602001600081525090565b604051806101a0016040528060008152602001600081526020016060815260200160608152602001600015158152602001600073ffffffffffffffffffffffffffffffffffffffff168152602001600073ffffffffffffffffffffffffffffffffffffffff168152602001606081526020016000815260200160008152602001600081526020016000151581526020016000151581525090565b8280546132ec906148cd565b90600052602060002090601f01602090048101928261330e5760008555613355565b82601f1061332757803560ff1916838001178555613355565b82800160010185558215613355579182015b82811115613354578235825591602001919060010190613339565b5b509050613362919061343c565b5090565b828054613372906148cd565b90600052602060002090601f01602090048101928261339457600085556133db565b82601f106133ad57805160ff19168380011785556133db565b828001600101855582156133db579182015b828111156133da5782518255916020019190600101906133bf565b5b5090506133e8919061343c565b5090565b604051806080016040528060608152602001600060028111156134125761341161439a565b5b815260200160008152602001600073ffffffffffffffffffffffffffffffffffffffff1681525090565b5b8082111561345557600081600090555060010161343d565b5090565b6000604051905090565b600080fd5b600080fd5b60007fffffffff0000000000000000000000000000000000000000000000000000000082169050919050565b6134a28161346d565b81146134ad57600080fd5b50565b6000813590506134bf81613499565b92915050565b6000602082840312156134db576134da613463565b5b60006134e9848285016134b0565b91505092915050565b60008115159050919050565b613507816134f2565b82525050565b600060208201905061352260008301846134fe565b92915050565b6000819050919050565b61353b81613528565b811461354657600080fd5b50565b60008135905061355881613532565b92915050565b60006020828403121561357457613573613463565b5b600061358284828501613549565b91505092915050565b600081519050919050565b600082825260208201905092915050565b6000819050602082019050919050565b600073ffffffffffffffffffffffffffffffffffffffff82169050919050565b60006135e2826135b7565b9050919050565b6135f2816135d7565b82525050565b61360181613528565b82525050565b60a08201600082015161361d60008501826135e9565b50602082015161363060208501826135f8565b50604082015161364360408501826135f8565b50606082015161365660608501826135f8565b50608082015161366960808501826135f8565b50505050565b600061367b8383613607565b60a08301905092915050565b6000602082019050919050565b600061369f8261358b565b6136a98185613596565b93506136b4836135a7565b8060005b838110156136e55781516136cc888261366f565b97506136d783613687565b9250506001810190506136b8565b5085935050505092915050565b6000602082019050818103600083015261370c8184613694565b905092915050565b6000819050919050565b61372781613714565b811461373257600080fd5b50565b6000813590506137448161371e565b92915050565b6000602082840312156137605761375f613463565b5b600061376e84828501613735565b91505092915050565b61378081613714565b82525050565b600060208201905061379b6000830184613777565b92915050565b6137aa816135d7565b81146137b557600080fd5b50565b6000813590506137c7816137a1565b92915050565b600080604083850312156137e4576137e3613463565b5b60006137f285828601613735565b9250506020613803858286016137b8565b9150509250929050565b600081519050919050565b600082825260208201905092915050565b6000819050602082019050919050565b600081519050919050565b600082825260208201905092915050565b60005b83811015613873578082015181840152602081019050613858565b83811115613882576000848401525b50505050565b6000601f19601f8301169050919050565b60006138a482613839565b6138ae8185613844565b93506138be818560208601613855565b6138c781613888565b840191505092915050565b60006060830160008301516138ea60008601826135f8565b50602083015184820360208601526139028282613899565b915050604083015161391760408601826135f8565b508091505092915050565b600061392e83836138d2565b905092915050565b6000602082019050919050565b600061394e8261380d565b6139588185613818565b93508360208202850161396a85613829565b8060005b858110156139a657848403895281516139878582613922565b945061399283613936565b925060208a0199505060018101905061396e565b50829750879550505050505092915050565b600060208201905081810360008301526139d28184613943565b905092915050565b6000806000606084860312156139f3576139f2613463565b5b6000613a0186828701613549565b9350506020613a1286828701613549565b9250506040613a2386828701613549565b9150509250925092565b6000606083016000830151613a4560008601826135f8565b5060208301518482036020860152613a5d8282613899565b9150506040830151613a7260408601826135f8565b508091505092915050565b60006020820190508181036000830152613a978184613a2d565b905092915050565b600060208284031215613ab557613ab4613463565b5b6000613ac3848285016137b8565b91505092915050565b600081519050919050565b600082825260208201905092915050565b6000819050602082019050919050565b613b01816134f2565b82525050565b600082825260208201905092915050565b6000613b238261380d565b613b2d8185613b07565b935083602082028501613b3f85613829565b8060005b85811015613b7b5784840389528151613b5c8582613922565b9450613b6783613936565b925060208a01995050600181019050613b43565b50829750879550505050505092915050565b60006101a083016000830151613ba660008601826135f8565b506020830151613bb960208601826135f8565b5060408301518482036040860152613bd18282613899565b91505060608301518482036060860152613beb8282613899565b9150506080830151613c006080860182613af8565b5060a0830151613c1360a08601826135e9565b5060c0830151613c2660c08601826135e9565b5060e083015184820360e0860152613c3e8282613b18565b915050610100830151613c556101008601826135f8565b50610120830151613c6a6101208601826135f8565b50610140830151613c7f6101408601826135f8565b50610160830151613c94610160860182613af8565b50610180830151613ca9610180860182613af8565b508091505092915050565b6000613cc08383613b8d565b905092915050565b6000602082019050919050565b6000613ce082613acc565b613cea8185613ad7565b935083602082028501613cfc85613ae8565b8060005b85811015613d385784840389528151613d198582613cb4565b9450613d2483613cc8565b925060208a01995050600181019050613d00565b50829750879550505050505092915050565b60006020820190508181036000830152613d648184613cd5565b905092915050565b600080fd5b600080fd5b600080fd5b60008083601f840112613d9157613d90613d6c565b5b8235905067ffffffffffffffff811115613dae57613dad613d71565b5b602083019150836001820283011115613dca57613dc9613d76565b5b9250929050565b7f4e487b7100000000000000000000000000000000000000000000000000000000600052604160045260246000fd5b613e0982613888565b810181811067ffffffffffffffff82111715613e2857613e27613dd1565b5b80604052505050565b6000613e3b613459565b9050613e478282613e00565b919050565b600067ffffffffffffffff821115613e6757613e66613dd1565b5b602082029050602081019050919050565b600080fd5b600067ffffffffffffffff821115613e9857613e97613dd1565b5b613ea182613888565b9050602081019050919050565b82818337600083830152505050565b6000613ed0613ecb84613e7d565b613e31565b905082815260208101848484011115613eec57613eeb613e78565b5b613ef7848285613eae565b509392505050565b600082601f830112613f1457613f13613d6c565b5b8135613f24848260208601613ebd565b91505092915050565b6000613f40613f3b84613e4c565b613e31565b90508083825260208201905060208402830185811115613f6357613f62613d76565b5b835b81811015613faa57803567ffffffffffffffff811115613f8857613f87613d6c565b5b808601613f958982613eff565b85526020850194505050602081019050613f65565b5050509392505050565b600082601f830112613fc957613fc8613d6c565b5b8135613fd9848260208601613f2d565b91505092915050565b613feb816134f2565b8114613ff657600080fd5b50565b60008135905061400881613fe2565b92915050565b600063ffffffff82169050919050565b6140278161400e565b811461403257600080fd5b50565b6000813590506140448161401e565b92915050565b600080600080600080600080600060e08a8c03121561406c5761406b613463565b5b60008a013567ffffffffffffffff81111561408a57614089613468565b5b6140968c828d01613d7b565b995099505060208a013567ffffffffffffffff8111156140b9576140b8613468565b5b6140c58c828d01613d7b565b975097505060408a013567ffffffffffffffff8111156140e8576140e7613468565b5b6140f48c828d01613fb4565b95505060606141058c828d01613549565b94505060806141168c828d01613ff9565b93505060a06141278c828d01613ff9565b92505060c06141388c828d01614035565b9150509295985092959850929598565b60006101a08301600083015161416160008601826135f8565b50602083015161417460208601826135f8565b506040830151848203604086015261418c8282613899565b915050606083015184820360608601526141a68282613899565b91505060808301516141bb6080860182613af8565b5060a08301516141ce60a08601826135e9565b5060c08301516141e160c08601826135e9565b5060e083015184820360e08601526141f98282613b18565b9150506101008301516142106101008601826135f8565b506101208301516142256101208601826135f8565b5061014083015161423a6101408601826135f8565b5061016083015161424f610160860182613af8565b50610180830151614264610180860182613af8565b508091505092915050565b600060208201905081810360008301526142898184614148565b905092915050565b600080604083850312156142a8576142a7613463565b5b60006142b685828601613549565b92505060206142c785828601613549565b9150509250929050565b6142da81613528565b82525050565b60006020820190506142f560008301846142d1565b92915050565b60006020828403121561431157614310613463565b5b600082013567ffffffffffffffff81111561432f5761432e613468565b5b61433b84828501613eff565b91505092915050565b61434d816135d7565b82525050565b60006020820190506143686000830184614344565b92915050565b600081519050919050565b600082825260208201905092915050565b6000819050602082019050919050565b7f4e487b7100000000000000000000000000000000000000000000000000000000600052602160045260246000fd5b600381106143da576143d961439a565b5b50565b60008190506143eb826143c9565b919050565b60006143fb826143dd565b9050919050565b61440b816143f0565b82525050565b6000608083016000830151848203600086015261442e8282613899565b91505060208301516144436020860182614402565b50604083015161445660408601826135f8565b50606083015161446960608601826135e9565b508091505092915050565b60006144808383614411565b905092915050565b6000602082019050919050565b60006144a08261436e565b6144aa8185614379565b9350836020820285016144bc8561438a565b8060005b858110156144f857848403895281516144d98582614474565b94506144e483614488565b925060208a019950506001810190506144c0565b50829750879550505050505092915050565b600081519050919050565b600082825260208201905092915050565b6000819050602082019050919050565b60006145428383613af8565b60208301905092915050565b6000602082019050919050565b60006145668261450a565b6145708185614515565b935061457b83614526565b8060005b838110156145ac5781516145938882614536565b975061459e8361454e565b92505060018101905061457f565b5085935050505092915050565b600060408201905081810360008301526145d38185614495565b905081810360208301526145e7818461455b565b90509392505050565b6000608083016000830151848203600086015261460d8282613899565b91505060208301516146226020860182614402565b50604083015161463560408601826135f8565b50606083015161464860608601826135e9565b508091505092915050565b6000604082019050818103600083015261466d81856145f0565b905061467c60208301846134fe565b9392505050565b6000819050919050565b60006146a86146a361469e846135b7565b614683565b6135b7565b9050919050565b60006146ba8261468d565b9050919050565b60006146cc826146af565b9050919050565b6146dc816146c1565b82525050565b60006020820190506146f760008301846146d3565b92915050565b600082825260208201905092915050565b7f416363657373436f6e74726f6c3a2063616e206f6e6c792072656e6f756e636560008201527f20726f6c657320666f722073656c660000000000000000000000000000000000602082015250565b600061476a602f836146fd565b91506147758261470e565b604082019050919050565b600060208201905081810360008301526147998161475d565b9050919050565b7f55736572206e6f742072656769737465726564206f6e2044414f000000000000600082015250565b60006147d6601a836146fd565b91506147e1826147a0565b602082019050919050565b60006020820190508181036000830152614805816147c9565b9050919050565b7f5573657220616c7265616479206170706c696564206f72206861732061204e4660008201527f5400000000000000000000000000000000000000000000000000000000000000602082015250565b60006148686021836146fd565b91506148738261480c565b604082019050919050565b600060208201905081810360008301526148978161485b565b9050919050565b7f4e487b7100000000000000000000000000000000000000000000000000000000600052602260045260246000fd5b600060028204905060018216806148e557607f821691505b602082108114156148f9576148f861489e565b5b50919050565b7f4f6e6c792041646d696e7320616e64205374616b65686f6c646572732063616e60008201527f20766f7465000000000000000000000000000000000000000000000000000000602082015250565b600061495b6025836146fd565b9150614966826148ff565b604082019050919050565b6000602082019050818103600083015261498a8161494e565b9050919050565b7f50726f706f73616c206475726174696f6e206578706972656400000000000000600082015250565b60006149c76019836146fd565b91506149d282614991565b602082019050919050565b600060208201905081810360008301526149f6816149ba565b9050919050565b7f4e487b7100000000000000000000000000000000000000000000000000000000600052601160045260246000fd5b60008160011c9050919050565b6000808291508390505b6001851115614a8357808604811115614a5f57614a5e6149fd565b5b6001851615614a6e5780820291505b8081029050614a7c85614a2c565b9450614a43565b94509492505050565b600082614a9c5760019050614b58565b81614aaa5760009050614b58565b8160018114614ac05760028114614aca57614af9565b6001915050614b58565b60ff841115614adc57614adb6149fd565b5b8360020a915084821115614af357614af26149fd565b5b50614b58565b5060208310610133831016604e8410600b8410161715614b2e5782820a905083811115614b2957614b286149fd565b5b614b58565b614b3b8484846001614a39565b92509050818404811115614b5257614b516149fd565b5b81810290505b9392505050565b600060ff82169050919050565b6000614b7782613528565b9150614b8283614b5f565b9250614baf7fffffffffffffffffffffffffffffffffffffffffffffffffffffffffffffffff8484614a8c565b905092915050565b6000614bc282613528565b9150614bcd83613528565b9250827fffffffffffffffffffffffffffffffffffffffffffffffffffffffffffffffff03821115614c0257614c016149fd565b5b828201905092915050565b7f496e73756666696369656e7420746f6b656e7320666f7220616464726573732e600082015250565b6000614c436020836146fd565b9150614c4e82614c0d565b602082019050919050565b60006020820190508181036000830152614c7281614c36565b9050919050565b7f4e487b7100000000000000000000000000000000000000000000000000000000600052603260045260246000fd5b7f50524f504f53414c5f564f544500000000000000000000000000000000000000600082015250565b6000614cde600d836146fd565b9150614ce982614ca8565b602082019050919050565b60006020820190508181036000830152614d0d81614cd1565b9050919050565b7f416c7265616479206d696e746564204e465420746f2074686520757365720000600082015250565b6000614d4a601e836146fd565b9150614d5582614d14565b602082019050919050565b60006020820190508181036000830152614d7981614d3d565b9050919050565b7f68747470733a2f2f697066732e696f2f697066732f516d53367066417264536560008201527f66704239463375656d777672414364657854695175513169416f6e4d686d794260208201527f7736360000000000000000000000000000000000000000000000000000000000604082015250565b6000614e026043836146fd565b9150614e0d82614d80565b606082019050919050565b6000604082019050614e2d6000830184614344565b8181036020830152614e3e81614df5565b905092915050565b6000614e5182613528565b91507fffffffffffffffffffffffffffffffffffffffffffffffffffffffffffffffff821415614e8457614e836149fd565b5b600182019050919050565b7f4f6e6c792041646d696e7320616e64205374616b65686f6c646572732063616e60008201527f206372656174652070726f706f73616c73000000000000000000000000000000602082015250565b6000614eeb6031836146fd565b9150614ef682614e8f565b604082019050919050565b60006020820190508181036000830152614f1a81614ede565b9050919050565b7f50524f504f53414c5f5241495345440000000000000000000000000000000000600082015250565b6000614f57600f836146fd565b9150614f6282614f21565b602082019050919050565b60006020820190508181036000830152614f8681614f4a565b9050919050565b6000614f9882613528565b9150614fa383613528565b9250817fffffffffffffffffffffffffffffffffffffffffffffffffffffffffffffffff0483118215151615614fdc57614fdb6149fd565b5b828202905092915050565b7f5573657220616c72656164792072656769737465726564000000000000000000600082015250565b600061501d6017836146fd565b915061502882614fe7565b602082019050919050565b6000602082019050818103600083015261504c81615010565b9050919050565b600061505e82613528565b915061506983613528565b92508282101561507c5761507b6149fd565b5b828203905092915050565b7f436f6e747269627574696e67207a65726f206973206e6f7420616c6c6f77656460008201527f2e00000000000000000000000000000000000000000000000000000000000000602082015250565b60006150e36021836146fd565b91506150ee82615087565b604082019050919050565b60006020820190508181036000830152615112816150d6565b9050919050565b60008151905061512881613532565b92915050565b60006020828403121561514457615143613463565b5b600061515284828501615119565b91505092915050565b7f4e487b7100000000000000000000000000000000000000000000000000000000600052601260045260246000fd5b600061519582613528565b91506151a083613528565b9250826151b0576151af61515b565b5b828204905092915050565b600081905092915050565b7f416363657373436f6e74726f6c3a206163636f756e7420000000000000000000600082015250565b60006151fc6017836151bb565b9150615207826151c6565b601782019050919050565b600061521d82613839565b61522781856151bb565b9350615237818560208601613855565b80840191505092915050565b7f206973206d697373696e6720726f6c6520000000000000000000000000000000600082015250565b60006152796011836151bb565b915061528482615243565b601182019050919050565b600061529a826151ef565b91506152a68285615212565b91506152b18261526c565b91506152bd8284615212565b91508190509392505050565b60006152d482613839565b6152de81856146fd565b93506152ee818560208601613855565b6152f781613888565b840191505092915050565b6000602082019050818103600083015261531c81846152c9565b905092915050565b600061532f82613528565b91506000821415615343576153426149fd565b5b600182039050919050565b7f537472696e67733a20686578206c656e67746820696e73756666696369656e74600082015250565b60006153846020836146fd565b915061538f8261534e565b602082019050919050565b600060208201905081810360008301526153b381615377565b905091905056fea2646970667358221220986c2962f965a4a102a523bc7eff572e9413534d22cc64265d1fbcd34e1e15c364736f6c634300080b0033",
  "immutableReferences": {
    "8124": [
      {
        "length": 32,
        "start": 2962
      },
      {
        "length": 32,
        "start": 4308
      },
      {
        "length": 32,
        "start": 5886
      },
      {
        "length": 32,
        "start": 8054
      },
      {
        "length": 32,
        "start": 8099
      },
      {
        "length": 32,
        "start": 9608
      },
      {
        "length": 32,
        "start": 10326
      }
    ],
    "8129": [
      {
        "length": 32,
        "start": 10629
      },
      {
        "length": 32,
        "start": 10675
      }
    ]
  },
  "source": "// SPDX-License-Identifier: MIT\npragma solidity ^0.8.7;\n\nimport \"@openzeppelin/contracts/access/AccessControl.sol\";\nimport \"@openzeppelin/contracts/security/ReentrancyGuard.sol\";\nimport \"./QuadraNFT.sol\";\n\ncontract Election is ReentrancyGuard, AccessControl {\n    bytes32 private immutable ADMIN_ROLE = keccak256(\"ADMIN_ROLE\");\n    bytes32 private immutable CONTRIBUTOR_ROLE = keccak256(\"CONTRIBUTOR\");\n    uint32 immutable MIN_VOTE_DURATION = 5 minutes;\n    uint256 immutable MAX_TOKENS = 10;\n    uint256 totalProposals;\n    uint256 totalVoters = 0;\n    QuadraNFT public token;\n    uint256 public daoBalance;\n\n    struct Candidate {\n        uint256 id;\n        string name;\n        uint256 votes;\n    }\n\n    struct Proposal {\n        uint256 id;\n        uint256 duration;\n        string title;\n        string description;\n        bool ended;\n        address proposer;\n        address executor; // ??\n        Candidate[] candidates;\n        uint256 totalVotes;\n        uint256 maxTokensPerAddress;\n        uint256 timeLength;\n        \n        bool linearTimeDecayEnabled;\n        bool qvEnabled;\n    }\n\n    // Vote object to keep track of votes in a proposal\n    struct Vote {\n        address voter;\n        uint256 candidateId;\n        uint256 timestamp;\n        uint256 numVotes;\n        uint256 numTokens;\n    }\n\n    //voter status for anonymous voting\n    enum VoterStatus {\n        INITIAL,\n        IN_PROGRESS,\n        VALID\n    }\n\n    struct Voter {\n        string username;\n        VoterStatus status;\n        uint256 depositedAmount;\n        address voterAddress;\n    }\n\n    mapping(uint256 => Proposal) private raisedProposals;\n    mapping(address => Vote) private votes; // Keep track of Vote per address\n\n    // Keep track of tokens spent per address for each proposal\n    mapping(address => mapping(uint256 => uint256)) private tokensSpent;\n\n    // Keep track of all voters\n    mapping(uint256 => Voter) private voters;\n    mapping(address => uint256) private voterIds;\n\n    // All vote objects for a proposal\n    mapping(uint256 => Vote[]) private votedOn;\n\n    // ??\n    // mapping(address => uint256) private contributors;\n    // mapping(address => uint256) private stakeholders;\n\n    event Action(address indexed initiator, string message);\n    constructor(QuadraNFT _token) {\n        token = _token;\n        _grantRole(ADMIN_ROLE, msg.sender);\n        _addVoter(msg.sender, \"Admin\", VoterStatus.VALID, 0);\n    }\n\n    function _addVoter(address account, string memory username, VoterStatus status, uint256 depositedAmount) private{\n        totalVoters++;\n        uint256 voterId = totalVoters;\n        voterIds[account] = voterId;\n        voters[voterId] = Voter(username, status, depositedAmount, account);\n    }\n\n    function addVoter(string memory username) public {\n        require(voterIds[msg.sender] == 0, \"User already registered\");\n        _addVoter(msg.sender, username, VoterStatus.INITIAL, 0);\n    }\n\n    function grantAdminRole(address account) public onlyRole(ADMIN_ROLE) {\n        _grantRole(ADMIN_ROLE, account);\n    }\n\n    function getVoter(address account) external view returns (Voter memory voter, bool isAdmin) {\n        uint256 id = voterIds[account];\n        require(\n            id > 0,\n            \"User not registered on DAO\"\n        );\n        voter = voters[id];\n        // add is is admin role, add a bool to reply\n        if (hasRole(ADMIN_ROLE, account)) {\n            isAdmin = true;\n        }else{\n            isAdmin = false;\n        }\n        return (voter, isAdmin);\n    }\n\n    function getVoters() external view returns (Voter[] memory,  bool[] memory) {\n        Voter[] memory _voters = new Voter[](totalVoters);\n        bool[] memory _isAdmin = new bool[](totalVoters);\n        for (uint256 i = 1; i <= totalVoters; i++) {\n            _voters[i-1] = voters[i];\n            if (hasRole(ADMIN_ROLE, voters[i].voterAddress)) {\n                _isAdmin[i-1] = true;\n            }else{\n                _isAdmin[i-1] = false;\n            }\n        }\n        return (_voters, _isAdmin);\n    }\n\n    function applyNFT() public {\n        uint256 id = voterIds[msg.sender];\n        require(\n            id > 0,\n            \"User not registered on DAO\"\n        );\n        require(\n            voters[id].status == VoterStatus.INITIAL,\n            \"User already applied or has a NFT\"\n        );\n        voters[id].status = VoterStatus.IN_PROGRESS;\n    }\n\n    function mintNFT(address to) public onlyRole(ADMIN_ROLE) {\n        uint256 id = voterIds[to];\n        require(\n            id > 0,\n            \"User not registered on DAO\"\n        );\n        require(\n            voters[id].status != VoterStatus.VALID,\n            \"Already minted NFT to the user\"\n        );\n        token.safeMint(to, \"https://ipfs.io/ipfs/QmS6pfArdSefpB9F3uemwvrACdexTiQuQ1iAonMhmyBw66\");\n        voters[id].status = VoterStatus.VALID;\n    }\n\n    function getNFTAddress() public view returns (address) {\n        return address(token);\n    }\n\n    function isStakeholder(address _voter) public view returns (bool) {\n        // if the voter has a token in the Token contract\n        // cast the function BalanceOf to the token contract QUadraDAO with address _token\n        if(token.balanceOf(_voter) > 0) return true;\n        return false;\n    }\n\n    function contribute() payable external returns (uint256) {\n        uint256 id = voterIds[msg.sender];\n        require(\n            id > 0,\n            \"User not registered on DAO\"\n        );\n        require(msg.value > 0 ether, \"Contributing zero is not allowed.\");\n        if (!hasRole(CONTRIBUTOR_ROLE, msg.sender)) {\n            _grantRole(CONTRIBUTOR_ROLE, msg.sender);\n        }\n        voters[id].depositedAmount += msg.value;\n        \n        daoBalance += msg.value;\n\n        return daoBalance;\n    }\n\n    function quadraticVote(uint256 voted, uint256 new_votes) public pure returns (uint) {\n        uint256 tokens = 0;\n        for (uint i = 1; i <= new_votes; i++) {\n            tokens += (voted + i) * (voted + i);\n        }\n        return tokens;\n    }\n\n    function createProposal(\n        string calldata title,\n        string calldata description,\n        string[] memory _candidateNames,\n        uint256 maxTokensPerAddress,\n        bool qvEnabled,\n        bool linearTimeDecayEnabled,\n        uint32 timeLength \n    ) external returns (Proposal memory) {\n        require(\n            hasRole(ADMIN_ROLE, msg.sender) || isStakeholder(msg.sender), \"Only Admins and Stakeholders can create proposals\"\n        );\n        uint256 proposalId = totalProposals++;\n        Proposal storage proposal = raisedProposals[proposalId];\n        proposal.id = proposalId;\n        proposal.title = title;\n        proposal.description = description;\n        proposal.proposer = payable(msg.sender);\n        proposal.totalVotes = 0;\n        proposal.maxTokensPerAddress = maxTokensPerAddress;\n        proposal.qvEnabled = qvEnabled;\n        proposal.linearTimeDecayEnabled = linearTimeDecayEnabled; \n        proposal.duration = block.timestamp + timeLength;\n        proposal.timeLength = timeLength;\n\n        // Init candidates\n        for (uint256 i = 0; i < _candidateNames.length; i++) {\n            proposal.candidates.push(Candidate(i, _candidateNames[i], 0));\n        }\n\n        emit Action(msg.sender, \"PROPOSAL_RAISED\");\n\n        return proposal;\n    }\n\n    function getProposals() external view returns (Proposal[] memory props) {\n        props = new Proposal[](totalProposals);\n\n        for (uint256 i = 0; i < totalProposals; i++) {\n            props[i] = raisedProposals[i];\n        }\n    }\n\n    function getProposal(\n        uint256 proposalId\n    ) external view returns (Proposal memory) {\n        return raisedProposals[proposalId];\n    }\n\n    // Might be redundant in client code\n    function getCandidates(\n        uint256 proposalId\n    ) public view returns (Candidate[] memory) {\n        return raisedProposals[proposalId].candidates;\n    }\n\n    function getTokensLeftForProposal(\n        uint256 proposalId\n    ) public view returns (uint256) {\n        Proposal storage proposal = raisedProposals[proposalId];\n\n        return\n            proposal.maxTokensPerAddress - tokensSpent[msg.sender][proposalId];\n    }\n\n    function getTokensSpent(uint256 proposalId) public view returns (uint256) {\n        return tokensSpent[msg.sender][proposalId];\n    }\n\n\n    // Votes {numVotes} number of times for candidate\n    // This method calculates how many tokens it actually costs\n    // to vote for a candidate {numVotes} times, depending on whether\n    // quadratic voting or linear time decay is enabled\n    function voteForCandidate(\n        uint256 proposalId,\n        uint256 candidateId,\n        uint256 numVotes \n    ) public returns (Candidate memory) {\n        require(\n            hasRole(ADMIN_ROLE, msg.sender) || isStakeholder(msg.sender), \"Only Admins and Stakeholders can vote\"\n        );\n        Proposal storage proposal = raisedProposals[proposalId];\n        Candidate[] memory candidates = proposal.candidates;\n\n        if (proposal.ended || proposal.duration <= block.timestamp) {\n            proposal.ended = true;\n            revert(\"Proposal duration expired\");\n        }\n\n        // Calculate num tokens\n        // Quadratic voting: cost to the voter = (number of votes)^2\n        uint256 numTokens = numVotes;\n        if (raisedProposals[proposalId].qvEnabled) {\n          numTokens = numVotes ** 2;\n        }\n        if (raisedProposals[proposalId].linearTimeDecayEnabled) {\n          numTokens = linearTimeDecay(numTokens, proposalId);\n        }\n\n        require(\n          (tokensSpent[msg.sender][proposalId] + numTokens) <= proposal.maxTokensPerAddress,\n          \"Insufficient tokens for address.\"\n        );\n\n        tokensSpent[msg.sender][proposalId] += numTokens;\n\n        proposal.candidates[candidateId].votes += numVotes;\n        proposal.totalVotes += numVotes;\n\n        // proposal.candidates = candidates; // Updated candidates\n\n        // Add vote to Address -> Vote map\n        // votes[msg.sender] = Vote(msg.sender, proposalId, candidateId, block.timestamp);\n        // Add vote to candidate\n\n        votedOn[proposalId].push(\n            Vote(msg.sender, candidateId, block.timestamp, numVotes, numTokens)\n        );\n\n        emit Action(msg.sender, \"PROPOSAL_VOTE\");\n\n        // TODO: Should candidate be returned here or vote?\n        return candidates[candidateId];\n    }\n\n    function linearTimeDecay(uint256 numTokens, uint256 proposalId) internal view returns (uint256) {\n      uint256 endTime = raisedProposals[proposalId].duration;\n      uint256 timeLength = raisedProposals[proposalId].timeLength;\n      if (block.timestamp >= endTime) {\n        return 0; // No voting power left\n      }\n      uint256 remainingDuration = endTime - block.timestamp;\n      // remainingDuration = 100 seconds, voteWeight = 3, endTime = 173432421;\n      // uint256 decayedVote = (remainingDuration * voteWeight) / raisedProposals[proposalId].timeLength; \n      uint256 numTokensNeeded = (numTokens * timeLength) / remainingDuration;\n\n      return numTokensNeeded;\n    }\n\n    function sqrt(uint256 x) internal pure returns (uint256 y) {\n      uint256 z = (x + 1) / 2;\n      y = x;\n      while (z < y) {\n        y = z;\n        z = (x / z + z) / 2;\n      }\n    }\n\n    function getVotesOfProposal(\n        uint256 proposalId\n    ) public view returns (Vote[] memory) {\n        return votedOn[proposalId];\n    }\n}\n",
  "sourcePath": "/Users/abdullahmohamed/CodeProjects/ECE1770-QV-DAO-DApp-Project/src/contracts/Election.sol",
  "compiler": {
    "name": "solc",
    "version": "0.8.11+commit.d7f03943.Emscripten.clang"
  },
  "schemaVersion": "3.4.16",
  "updatedAt": "2024-04-22T01:58:07.518Z",
  "networkType": "ethereum",
  "devdoc": {
    "kind": "dev",
    "methods": {
      "getRoleAdmin(bytes32)": {
        "details": "Returns the admin role that controls `role`. See {grantRole} and {revokeRole}. To change a role's admin, use {_setRoleAdmin}."
      },
      "grantRole(bytes32,address)": {
        "details": "Grants `role` to `account`. If `account` had not been already granted `role`, emits a {RoleGranted} event. Requirements: - the caller must have ``role``'s admin role. May emit a {RoleGranted} event."
      },
      "hasRole(bytes32,address)": {
        "details": "Returns `true` if `account` has been granted `role`."
      },
      "renounceRole(bytes32,address)": {
        "details": "Revokes `role` from the calling account. Roles are often managed via {grantRole} and {revokeRole}: this function's purpose is to provide a mechanism for accounts to lose their privileges if they are compromised (such as when a trusted device is misplaced). If the calling account had been revoked `role`, emits a {RoleRevoked} event. Requirements: - the caller must be `account`. May emit a {RoleRevoked} event."
      },
      "revokeRole(bytes32,address)": {
        "details": "Revokes `role` from `account`. If `account` had been granted `role`, emits a {RoleRevoked} event. Requirements: - the caller must have ``role``'s admin role. May emit a {RoleRevoked} event."
      },
      "supportsInterface(bytes4)": {
        "details": "See {IERC165-supportsInterface}."
      }
    },
    "version": 1
  },
  "userdoc": {
    "kind": "user",
    "methods": {},
    "version": 1
  }
}