{
  "contractName": "Election",
  "abi": [
    {
      "inputs": [
        {
          "internalType": "contract QuadraNFT",
          "name": "_token",
          "type": "address"
        }
      ],
      "stateMutability": "nonpayable",
      "type": "constructor"
    },
    {
      "anonymous": false,
      "inputs": [
        {
          "indexed": true,
          "internalType": "address",
          "name": "initiator",
          "type": "address"
        },
        {
          "indexed": false,
          "internalType": "string",
          "name": "message",
          "type": "string"
        }
      ],
      "name": "Action",
      "type": "event"
    },
    {
      "anonymous": false,
      "inputs": [
        {
          "indexed": true,
          "internalType": "bytes32",
          "name": "role",
          "type": "bytes32"
        },
        {
          "indexed": true,
          "internalType": "bytes32",
          "name": "previousAdminRole",
          "type": "bytes32"
        },
        {
          "indexed": true,
          "internalType": "bytes32",
          "name": "newAdminRole",
          "type": "bytes32"
        }
      ],
      "name": "RoleAdminChanged",
      "type": "event"
    },
    {
      "anonymous": false,
      "inputs": [
        {
          "indexed": true,
          "internalType": "bytes32",
          "name": "role",
          "type": "bytes32"
        },
        {
          "indexed": true,
          "internalType": "address",
          "name": "account",
          "type": "address"
        },
        {
          "indexed": true,
          "internalType": "address",
          "name": "sender",
          "type": "address"
        }
      ],
      "name": "RoleGranted",
      "type": "event"
    },
    {
      "anonymous": false,
      "inputs": [
        {
          "indexed": true,
          "internalType": "bytes32",
          "name": "role",
          "type": "bytes32"
        },
        {
          "indexed": true,
          "internalType": "address",
          "name": "account",
          "type": "address"
        },
        {
          "indexed": true,
          "internalType": "address",
          "name": "sender",
          "type": "address"
        }
      ],
      "name": "RoleRevoked",
      "type": "event"
    },
    {
      "inputs": [],
      "name": "ADMIN_ROLE",
      "outputs": [
        {
          "internalType": "bytes32",
          "name": "",
          "type": "bytes32"
        }
      ],
      "stateMutability": "view",
      "type": "function",
      "constant": true
    },
    {
      "inputs": [],
      "name": "DEFAULT_ADMIN_ROLE",
      "outputs": [
        {
          "internalType": "bytes32",
          "name": "",
          "type": "bytes32"
        }
      ],
      "stateMutability": "view",
      "type": "function",
      "constant": true
    },
    {
      "inputs": [
        {
          "internalType": "bytes32",
          "name": "role",
          "type": "bytes32"
        }
      ],
      "name": "getRoleAdmin",
      "outputs": [
        {
          "internalType": "bytes32",
          "name": "",
          "type": "bytes32"
        }
      ],
      "stateMutability": "view",
      "type": "function",
      "constant": true
    },
    {
      "inputs": [
        {
          "internalType": "bytes32",
          "name": "role",
          "type": "bytes32"
        },
        {
          "internalType": "address",
          "name": "account",
          "type": "address"
        }
      ],
      "name": "grantRole",
      "outputs": [],
      "stateMutability": "nonpayable",
      "type": "function"
    },
    {
      "inputs": [
        {
          "internalType": "bytes32",
          "name": "role",
          "type": "bytes32"
        },
        {
          "internalType": "address",
          "name": "account",
          "type": "address"
        }
      ],
      "name": "hasRole",
      "outputs": [
        {
          "internalType": "bool",
          "name": "",
          "type": "bool"
        }
      ],
      "stateMutability": "view",
      "type": "function",
      "constant": true
    },
    {
      "inputs": [
        {
          "internalType": "bytes32",
          "name": "role",
          "type": "bytes32"
        },
        {
          "internalType": "address",
          "name": "account",
          "type": "address"
        }
      ],
      "name": "renounceRole",
      "outputs": [],
      "stateMutability": "nonpayable",
      "type": "function"
    },
    {
      "inputs": [
        {
          "internalType": "bytes32",
          "name": "role",
          "type": "bytes32"
        },
        {
          "internalType": "address",
          "name": "account",
          "type": "address"
        }
      ],
      "name": "revokeRole",
      "outputs": [],
      "stateMutability": "nonpayable",
      "type": "function"
    },
    {
      "inputs": [
        {
          "internalType": "bytes4",
          "name": "interfaceId",
          "type": "bytes4"
        }
      ],
      "name": "supportsInterface",
      "outputs": [
        {
          "internalType": "bool",
          "name": "",
          "type": "bool"
        }
      ],
      "stateMutability": "view",
      "type": "function",
      "constant": true
    },
    {
      "inputs": [],
      "name": "token",
      "outputs": [
        {
          "internalType": "contract QuadraNFT",
          "name": "",
          "type": "address"
        }
      ],
      "stateMutability": "view",
      "type": "function",
      "constant": true
    },
    {
      "inputs": [
        {
          "internalType": "address",
          "name": "account",
          "type": "address"
        }
      ],
      "name": "grantAdminRole",
      "outputs": [],
      "stateMutability": "nonpayable",
      "type": "function"
    },
    {
      "inputs": [
        {
          "internalType": "address",
          "name": "account",
          "type": "address"
        }
      ],
      "name": "getVoter",
      "outputs": [
        {
          "components": [
            {
              "internalType": "string",
              "name": "username",
              "type": "string"
            },
            {
              "internalType": "enum Election.VoterStatus",
              "name": "status",
              "type": "uint8"
            },
            {
              "internalType": "uint256",
              "name": "weight",
              "type": "uint256"
            }
          ],
          "internalType": "struct Election.Voter",
          "name": "voter",
          "type": "tuple"
        },
        {
          "internalType": "bool",
          "name": "isAdmin",
          "type": "bool"
        }
      ],
      "stateMutability": "view",
      "type": "function",
      "constant": true
    },
    {
      "inputs": [],
      "name": "applyNFT",
      "outputs": [],
      "stateMutability": "nonpayable",
      "type": "function"
    },
    {
      "inputs": [],
      "name": "getNFTAddress",
      "outputs": [
        {
          "internalType": "address",
          "name": "",
          "type": "address"
        }
      ],
      "stateMutability": "view",
      "type": "function",
      "constant": true
    },
    {
      "inputs": [
        {
          "internalType": "address",
          "name": "_voter",
          "type": "address"
        }
      ],
      "name": "_isStakeholder",
      "outputs": [
        {
          "internalType": "bool",
          "name": "",
          "type": "bool"
        }
      ],
      "stateMutability": "view",
      "type": "function",
      "constant": true
    },
    {
      "inputs": [
        {
          "internalType": "string",
          "name": "title",
          "type": "string"
        },
        {
          "internalType": "string",
          "name": "description",
          "type": "string"
        },
        {
          "internalType": "string[]",
          "name": "_candidateNames",
          "type": "string[]"
        }
      ],
      "name": "createProposal",
      "outputs": [
        {
          "components": [
            {
              "internalType": "uint256",
              "name": "id",
              "type": "uint256"
            },
            {
              "internalType": "uint256",
              "name": "duration",
              "type": "uint256"
            },
            {
              "internalType": "string",
              "name": "title",
              "type": "string"
            },
            {
              "internalType": "string",
              "name": "description",
              "type": "string"
            },
            {
              "internalType": "bool",
              "name": "ended",
              "type": "bool"
            },
            {
              "internalType": "address",
              "name": "proposer",
              "type": "address"
            },
            {
              "internalType": "address",
              "name": "executor",
              "type": "address"
            },
            {
              "components": [
                {
                  "internalType": "uint256",
                  "name": "id",
                  "type": "uint256"
                },
                {
                  "internalType": "string",
                  "name": "name",
                  "type": "string"
                },
                {
                  "internalType": "uint256",
                  "name": "votes",
                  "type": "uint256"
                }
              ],
              "internalType": "struct Election.Candidate[]",
              "name": "candidates",
              "type": "tuple[]"
            }
          ],
          "internalType": "struct Election.Proposal",
          "name": "",
          "type": "tuple"
        }
      ],
      "stateMutability": "nonpayable",
      "type": "function"
    },
    {
      "inputs": [],
      "name": "getProposals",
      "outputs": [
        {
          "components": [
            {
              "internalType": "uint256",
              "name": "id",
              "type": "uint256"
            },
            {
              "internalType": "uint256",
              "name": "duration",
              "type": "uint256"
            },
            {
              "internalType": "string",
              "name": "title",
              "type": "string"
            },
            {
              "internalType": "string",
              "name": "description",
              "type": "string"
            },
            {
              "internalType": "bool",
              "name": "ended",
              "type": "bool"
            },
            {
              "internalType": "address",
              "name": "proposer",
              "type": "address"
            },
            {
              "internalType": "address",
              "name": "executor",
              "type": "address"
            },
            {
              "components": [
                {
                  "internalType": "uint256",
                  "name": "id",
                  "type": "uint256"
                },
                {
                  "internalType": "string",
                  "name": "name",
                  "type": "string"
                },
                {
                  "internalType": "uint256",
                  "name": "votes",
                  "type": "uint256"
                }
              ],
              "internalType": "struct Election.Candidate[]",
              "name": "candidates",
              "type": "tuple[]"
            }
          ],
          "internalType": "struct Election.Proposal[]",
          "name": "props",
          "type": "tuple[]"
        }
      ],
      "stateMutability": "view",
      "type": "function",
      "constant": true
    },
    {
      "inputs": [
        {
          "internalType": "uint256",
          "name": "proposalId",
          "type": "uint256"
        }
      ],
      "name": "getProposal",
      "outputs": [
        {
          "components": [
            {
              "internalType": "uint256",
              "name": "id",
              "type": "uint256"
            },
            {
              "internalType": "uint256",
              "name": "duration",
              "type": "uint256"
            },
            {
              "internalType": "string",
              "name": "title",
              "type": "string"
            },
            {
              "internalType": "string",
              "name": "description",
              "type": "string"
            },
            {
              "internalType": "bool",
              "name": "ended",
              "type": "bool"
            },
            {
              "internalType": "address",
              "name": "proposer",
              "type": "address"
            },
            {
              "internalType": "address",
              "name": "executor",
              "type": "address"
            },
            {
              "components": [
                {
                  "internalType": "uint256",
                  "name": "id",
                  "type": "uint256"
                },
                {
                  "internalType": "string",
                  "name": "name",
                  "type": "string"
                },
                {
                  "internalType": "uint256",
                  "name": "votes",
                  "type": "uint256"
                }
              ],
              "internalType": "struct Election.Candidate[]",
              "name": "candidates",
              "type": "tuple[]"
            }
          ],
          "internalType": "struct Election.Proposal",
          "name": "",
          "type": "tuple"
        }
      ],
      "stateMutability": "view",
      "type": "function",
      "constant": true
    },
    {
      "inputs": [
        {
          "internalType": "uint256",
          "name": "proposalId",
          "type": "uint256"
        }
      ],
      "name": "getCandidates",
      "outputs": [
        {
          "components": [
            {
              "internalType": "uint256",
              "name": "id",
              "type": "uint256"
            },
            {
              "internalType": "string",
              "name": "name",
              "type": "string"
            },
            {
              "internalType": "uint256",
              "name": "votes",
              "type": "uint256"
            }
          ],
          "internalType": "struct Election.Candidate[]",
          "name": "",
          "type": "tuple[]"
        }
      ],
      "stateMutability": "view",
      "type": "function",
      "constant": true
    },
    {
      "inputs": [
        {
          "internalType": "uint256",
          "name": "proposalId",
          "type": "uint256"
        }
      ],
      "name": "getTokensLeftForProposal",
      "outputs": [
        {
          "internalType": "uint256",
          "name": "",
          "type": "uint256"
        }
      ],
      "stateMutability": "view",
      "type": "function",
      "constant": true
    },
    {
      "inputs": [
        {
          "internalType": "uint256",
          "name": "proposalId",
          "type": "uint256"
        },
        {
          "internalType": "uint256",
          "name": "candidateId",
          "type": "uint256"
        },
        {
          "internalType": "uint256",
          "name": "numVotes",
          "type": "uint256"
        }
      ],
      "name": "voteForCandidate",
      "outputs": [
        {
          "components": [
            {
              "internalType": "uint256",
              "name": "id",
              "type": "uint256"
            },
            {
              "internalType": "string",
              "name": "name",
              "type": "string"
            },
            {
              "internalType": "uint256",
              "name": "votes",
              "type": "uint256"
            }
          ],
          "internalType": "struct Election.Candidate",
          "name": "",
          "type": "tuple"
        }
      ],
      "stateMutability": "nonpayable",
      "type": "function"
    },
    {
      "inputs": [
        {
          "internalType": "uint256",
          "name": "proposalId",
          "type": "uint256"
        }
      ],
      "name": "getVotesOfProposal",
      "outputs": [
        {
          "components": [
            {
              "internalType": "address",
              "name": "voter",
              "type": "address"
            },
            {
              "internalType": "uint256",
              "name": "candidateId",
              "type": "uint256"
            },
            {
              "internalType": "uint256",
              "name": "timestamp",
              "type": "uint256"
            },
            {
              "internalType": "uint256",
              "name": "numVotes",
              "type": "uint256"
            }
          ],
          "internalType": "struct Election.Vote[]",
          "name": "",
          "type": "tuple[]"
        }
      ],
      "stateMutability": "view",
      "type": "function",
      "constant": true
    }
  ],
  "bytecode": "0x60e06040527fa49807205ce4d355092ef5a8a18f56e8913cf4a201fbe287825b095693c2177560809081525061012c63ffffffff1660a09063ffffffff16815250600a60c0908152503480156200005557600080fd5b50604051620040253803806200402583398181016040528101906200007b919062000519565b600160008190555080600360006101000a81548173ffffffffffffffffffffffffffffffffffffffff021916908373ffffffffffffffffffffffffffffffffffffffff160217905550620000d8608051336200012a60201b60201c565b62000123336040518060400160405280600581526020017f41646d696e000000000000000000000000000000000000000000000000000000815250600160026200021b60201b60201c565b50620005df565b6200013c82826200037860201b60201c565b6200021757600180600084815260200190815260200160002060000160008373ffffffffffffffffffffffffffffffffffffffff1673ffffffffffffffffffffffffffffffffffffffff16815260200190815260200160002060006101000a81548160ff021916908315150217905550620001bc620003e360201b60201c565b73ffffffffffffffffffffffffffffffffffffffff168173ffffffffffffffffffffffffffffffffffffffff16837f2f8788117e7eff1d82e926ec794901d17c78024a50270940304540a733656f0d60405160405180910390a45b5050565b600060028111156200023257620002316200054b565b5b600760008673ffffffffffffffffffffffffffffffffffffffff1673ffffffffffffffffffffffffffffffffffffffff16815260200190815260200160002060010160009054906101000a900460ff1660028111156200029757620002966200054b565b5b14620002a35762000372565b6040518060600160405280848152602001826002811115620002ca57620002c96200054b565b5b815260200183815250600760008673ffffffffffffffffffffffffffffffffffffffff1673ffffffffffffffffffffffffffffffffffffffff168152602001908152602001600020600082015181600001908051906020019062000330929190620003eb565b5060208201518160010160006101000a81548160ff021916908360028111156200035f576200035e6200054b565b5b0217905550604082015181600201559050505b50505050565b60006001600084815260200190815260200160002060000160008373ffffffffffffffffffffffffffffffffffffffff1673ffffffffffffffffffffffffffffffffffffffff16815260200190815260200160002060009054906101000a900460ff16905092915050565b600033905090565b828054620003f990620005a9565b90600052602060002090601f0160209004810192826200041d576000855562000469565b82601f106200043857805160ff191683800117855562000469565b8280016001018555821562000469579182015b82811115620004685782518255916020019190600101906200044b565b5b5090506200047891906200047c565b5090565b5b80821115620004975760008160009055506001016200047d565b5090565b600080fd5b600073ffffffffffffffffffffffffffffffffffffffff82169050919050565b6000620004cd82620004a0565b9050919050565b6000620004e182620004c0565b9050919050565b620004f381620004d4565b8114620004ff57600080fd5b50565b6000815190506200051381620004e8565b92915050565b6000602082840312156200053257620005316200049b565b5b6000620005428482850162000502565b91505092915050565b7f4e487b7100000000000000000000000000000000000000000000000000000000600052602160045260246000fd5b7f4e487b7100000000000000000000000000000000000000000000000000000000600052602260045260246000fd5b60006002820490506001821680620005c257607f821691505b60208210811415620005d957620005d86200057a565b5b50919050565b60805160a05160c0516139fa6200062b60003960008181610b6001526116fd01526000610dfb01526000818161161401528181611759015281816117860152611c1301526139fa6000f3fe608060405234801561001057600080fd5b50600436106101375760003560e01c806375b238fc116100b8578063c634b78e1161007c578063c634b78e14610376578063c7f758a814610392578063d4f50f98146103c2578063d547741f146103f3578063e5ff6bc81461040f578063fc0c546a1461043f57610137565b806375b238fc146102bc57806391d14854146102da578063a217fddf1461030a578063b32f148614610328578063b96184781461035857610137565b80633a6a137b116100ff5780633a6a137b146102045780633e39a7a51461020e578063417d14cb1461023e5780634724c40c1461026e57806362564c481461029e57610137565b806301ffc9a71461013c578063075bb5891461016c578063248a9ca31461019c5780632f2ff15d146101cc57806336568abe146101e8575b600080fd5b610156600480360381019061015191906124e1565b61045d565b6040516101639190612529565b60405180910390f35b6101866004803603810190610181919061257a565b6104d7565b60405161019391906126fb565b60405180910390f35b6101b660048036038101906101b19190612753565b6105bd565b6040516101c3919061278f565b60405180910390f35b6101e660048036038101906101e191906127d6565b6105dd565b005b61020260048036038101906101fd91906127d6565b6105fe565b005b61020c610681565b005b6102286004803603810190610223919061257a565b610836565b60405161023591906129c1565b60405180910390f35b610258600480360381019061025391906129e3565b610951565b6040516102659190612a86565b60405180910390f35b61028860048036038101906102839190612d1e565b610d4b565b6040516102959190612f22565b60405180910390f35b6102a6611253565b6040516102b391906130c4565b60405180910390f35b6102c4611612565b6040516102d1919061278f565b60405180910390f35b6102f460048036038101906102ef91906127d6565b611636565b6040516103019190612529565b60405180910390f35b6103126116a1565b60405161031f919061278f565b60405180910390f35b610342600480360381019061033d919061257a565b6116a8565b60405161034f91906130f5565b60405180910390f35b61036061172d565b60405161036d919061311f565b60405180910390f35b610390600480360381019061038b919061313a565b611757565b005b6103ac60048036038101906103a7919061257a565b6117af565b6040516103b99190612f22565b60405180910390f35b6103dc60048036038101906103d7919061313a565b611ae1565b6040516103ea92919061322e565b60405180910390f35b61040d600480360381019061040891906127d6565b611c50565b005b6104296004803603810190610424919061313a565b611c71565b6040516104369190612529565b60405180910390f35b610447611d29565b60405161045491906132bd565b60405180910390f35b60007f7965db0b000000000000000000000000000000000000000000000000000000007bffffffffffffffffffffffffffffffffffffffffffffffffffffffff1916827bffffffffffffffffffffffffffffffffffffffffffffffffffffffff191614806104d057506104cf82611d4f565b5b9050919050565b606060086000838152602001908152602001600020805480602002602001604051908101604052809291908181526020016000905b828210156105b257838290600052602060002090600402016040518060800160405290816000820160009054906101000a900473ffffffffffffffffffffffffffffffffffffffff1673ffffffffffffffffffffffffffffffffffffffff1673ffffffffffffffffffffffffffffffffffffffff16815260200160018201548152602001600282015481526020016003820154815250508152602001906001019061050c565b505050509050919050565b600060016000838152602001908152602001600020600101549050919050565b6105e6826105bd565b6105ef81611db9565b6105f98383611dcd565b505050565b610606611ead565b73ffffffffffffffffffffffffffffffffffffffff168173ffffffffffffffffffffffffffffffffffffffff1614610673576040517f08c379a000000000000000000000000000000000000000000000000000000000815260040161066a9061335b565b60405180910390fd5b61067d8282611eb5565b5050565b6000600281111561069557610694613167565b5b600760003373ffffffffffffffffffffffffffffffffffffffff1673ffffffffffffffffffffffffffffffffffffffff16815260200190815260200160002060010160009054906101000a900460ff1660028111156106f7576106f6613167565b5b14610737576040517f08c379a000000000000000000000000000000000000000000000000000000000815260040161072e906133c7565b60405180910390fd5b60405180606001604052806040518060400160405280600981526020017f416e6f6e796d6f7573000000000000000000000000000000000000000000000081525081526020016001600281111561079157610790613167565b5b81526020016001815250600760003373ffffffffffffffffffffffffffffffffffffffff1673ffffffffffffffffffffffffffffffffffffffff16815260200190815260200160002060008201518160000190805190602001906107f6929190612285565b5060208201518160010160006101000a81548160ff0219169083600281111561082257610821613167565b5b021790555060408201518160020155905050565b606060046000838152602001908152602001600020600601805480602002602001604051908101604052809291908181526020016000905b828210156109465783829060005260206000209060030201604051806060016040529081600082015481526020016001820180546108ab90613416565b80601f01602080910402602001604051908101604052809291908181526020018280546108d790613416565b80156109245780601f106108f957610100808354040283529160200191610924565b820191906000526020600020905b81548152906001019060200180831161090757829003601f168201915b505050505081526020016002820154815250508152602001906001019061086e565b505050509050919050565b61095961230b565b6000600460008681526020019081526020016000209050600081600601805480602002602001604051908101604052809291908181526020016000905b82821015610a6e5783829060005260206000209060030201604051806060016040529081600082015481526020016001820180546109d390613416565b80601f01602080910402602001604051908101604052809291908181526020018280546109ff90613416565b8015610a4c5780601f10610a2157610100808354040283529160200191610a4c565b820191906000526020600020905b815481529060010190602001808311610a2f57829003601f168201915b5050505050815260200160028201548152505081526020019060010190610996565b5050505090508160040160009054906101000a900460ff1680610a95575042826001015411155b15610af25760018260040160006101000a81548160ff0219169083151502179055506040517f08c379a0000000000000000000000000000000000000000000000000000000008152600401610ae990613494565b60405180910390fd5b6000600185610b0191906134e3565b600660003373ffffffffffffffffffffffffffffffffffffffff1673ffffffffffffffffffffffffffffffffffffffff168152602001908152602001600020600089815260200190815260200160002054610b5c919061353d565b90507f00000000000000000000000000000000000000000000000000000000000000008110610bc0576040517f08c379a0000000000000000000000000000000000000000000000000000000008152600401610bb7906135df565b60405180910390fd5b84836006018781548110610bd757610bd66135ff565b5b90600052602060002090600302016002016000828254610bf7919061353d565b925050819055506008600088815260200190815260200160002060405180608001604052803373ffffffffffffffffffffffffffffffffffffffff16815260200188815260200142815260200187815250908060018154018082558091505060019003906000526020600020906004020160009091909190915060008201518160000160006101000a81548173ffffffffffffffffffffffffffffffffffffffff021916908373ffffffffffffffffffffffffffffffffffffffff16021790555060208201518160010155604082015181600201556060820151816003015550503373ffffffffffffffffffffffffffffffffffffffff167fa6f6fe9139f021af0f5a3b1c2eca6a1c371d77c4c99fdf2be0a2fdbd215baa8d604051610d1c9061367a565b60405180910390a2818681518110610d3757610d366135ff565b5b602002602001015193505050509392505050565b610d5361232c565b600060026000815480929190610d689061369a565b91905055905060006004600083815260200190815260200160002090508181600001819055508787826002019190610da192919061239f565b508585826003019190610db592919061239f565b50338160040160016101000a81548173ffffffffffffffffffffffffffffffffffffffff021916908373ffffffffffffffffffffffffffffffffffffffff1602179055507f000000000000000000000000000000000000000000000000000000000000000063ffffffff1642610e2b919061353d565b816001018190555060005b8451811015610ee857816006016040518060600160405280838152602001878481518110610e6757610e666135ff565b5b6020026020010151815260200160008152509080600181540180825580915050600190039060005260206000209060030201600090919091909150600082015181600001556020820151816001019080519060200190610ec8929190612285565b506040820151816002015550508080610ee09061369a565b915050610e36565b503373ffffffffffffffffffffffffffffffffffffffff167fa6f6fe9139f021af0f5a3b1c2eca6a1c371d77c4c99fdf2be0a2fdbd215baa8d604051610f2d9061372f565b60405180910390a280604051806101000160405290816000820154815260200160018201548152602001600282018054610f6690613416565b80601f0160208091040260200160405190810160405280929190818152602001828054610f9290613416565b8015610fdf5780601f10610fb457610100808354040283529160200191610fdf565b820191906000526020600020905b815481529060010190602001808311610fc257829003601f168201915b50505050508152602001600382018054610ff890613416565b80601f016020809104026020016040519081016040528092919081815260200182805461102490613416565b80156110715780601f1061104657610100808354040283529160200191611071565b820191906000526020600020905b81548152906001019060200180831161105457829003601f168201915b505050505081526020016004820160009054906101000a900460ff161515151581526020016004820160019054906101000a900473ffffffffffffffffffffffffffffffffffffffff1673ffffffffffffffffffffffffffffffffffffffff1673ffffffffffffffffffffffffffffffffffffffff1681526020016005820160009054906101000a900473ffffffffffffffffffffffffffffffffffffffff1673ffffffffffffffffffffffffffffffffffffffff1673ffffffffffffffffffffffffffffffffffffffff16815260200160068201805480602002602001604051908101604052809291908181526020016000905b8282101561123e5783829060005260206000209060030201604051806060016040529081600082015481526020016001820180546111a390613416565b80601f01602080910402602001604051908101604052809291908181526020018280546111cf90613416565b801561121c5780601f106111f15761010080835404028352916020019161121c565b820191906000526020600020905b8154815290600101906020018083116111ff57829003601f168201915b5050505050815260200160028201548152505081526020019060010190611166565b50505050815250509250505095945050505050565b606060025467ffffffffffffffff81111561127157611270612b0d565b5b6040519080825280602002602001820160405280156112aa57816020015b61129761232c565b81526020019060019003908161128f5790505b50905060005b60025481101561160e57600460008281526020019081526020016000206040518061010001604052908160008201548152602001600182015481526020016002820180546112fd90613416565b80601f016020809104026020016040519081016040528092919081815260200182805461132990613416565b80156113765780601f1061134b57610100808354040283529160200191611376565b820191906000526020600020905b81548152906001019060200180831161135957829003601f168201915b5050505050815260200160038201805461138f90613416565b80601f01602080910402602001604051908101604052809291908181526020018280546113bb90613416565b80156114085780601f106113dd57610100808354040283529160200191611408565b820191906000526020600020905b8154815290600101906020018083116113eb57829003601f168201915b505050505081526020016004820160009054906101000a900460ff161515151581526020016004820160019054906101000a900473ffffffffffffffffffffffffffffffffffffffff1673ffffffffffffffffffffffffffffffffffffffff1673ffffffffffffffffffffffffffffffffffffffff1681526020016005820160009054906101000a900473ffffffffffffffffffffffffffffffffffffffff1673ffffffffffffffffffffffffffffffffffffffff1673ffffffffffffffffffffffffffffffffffffffff16815260200160068201805480602002602001604051908101604052809291908181526020016000905b828210156115d557838290600052602060002090600302016040518060600160405290816000820154815260200160018201805461153a90613416565b80601f016020809104026020016040519081016040528092919081815260200182805461156690613416565b80156115b35780601f10611588576101008083540402835291602001916115b3565b820191906000526020600020905b81548152906001019060200180831161159657829003601f168201915b50505050508152602001600282015481525050815260200190600101906114fd565b50505050815250508282815181106115f0576115ef6135ff565b5b602002602001018190525080806116069061369a565b9150506112b0565b5090565b7f000000000000000000000000000000000000000000000000000000000000000081565b60006001600084815260200190815260200160002060000160008373ffffffffffffffffffffffffffffffffffffffff1673ffffffffffffffffffffffffffffffffffffffff16815260200190815260200160002060009054906101000a900460ff16905092915050565b6000801b81565b6000600660003373ffffffffffffffffffffffffffffffffffffffff1673ffffffffffffffffffffffffffffffffffffffff1681526020019081526020016000206000838152602001908152602001600020547f0000000000000000000000000000000000000000000000000000000000000000611726919061374f565b9050919050565b6000600360009054906101000a900473ffffffffffffffffffffffffffffffffffffffff16905090565b7f000000000000000000000000000000000000000000000000000000000000000061178181611db9565b6117ab7f000000000000000000000000000000000000000000000000000000000000000083611dcd565b5050565b6117b761232c565b600460008381526020019081526020016000206040518061010001604052908160008201548152602001600182015481526020016002820180546117fa90613416565b80601f016020809104026020016040519081016040528092919081815260200182805461182690613416565b80156118735780601f1061184857610100808354040283529160200191611873565b820191906000526020600020905b81548152906001019060200180831161185657829003601f168201915b5050505050815260200160038201805461188c90613416565b80601f01602080910402602001604051908101604052809291908181526020018280546118b890613416565b80156119055780601f106118da57610100808354040283529160200191611905565b820191906000526020600020905b8154815290600101906020018083116118e857829003601f168201915b505050505081526020016004820160009054906101000a900460ff161515151581526020016004820160019054906101000a900473ffffffffffffffffffffffffffffffffffffffff1673ffffffffffffffffffffffffffffffffffffffff1673ffffffffffffffffffffffffffffffffffffffff1681526020016005820160009054906101000a900473ffffffffffffffffffffffffffffffffffffffff1673ffffffffffffffffffffffffffffffffffffffff1673ffffffffffffffffffffffffffffffffffffffff16815260200160068201805480602002602001604051908101604052809291908181526020016000905b82821015611ad2578382906000526020600020906003020160405180606001604052908160008201548152602001600182018054611a3790613416565b80601f0160208091040260200160405190810160405280929190818152602001828054611a6390613416565b8015611ab05780601f10611a8557610100808354040283529160200191611ab0565b820191906000526020600020905b815481529060010190602001808311611a9357829003601f168201915b50505050508152602001600282015481525050815260200190600101906119fa565b50505050815250509050919050565b611ae9612425565b6000600760008473ffffffffffffffffffffffffffffffffffffffff1673ffffffffffffffffffffffffffffffffffffffff168152602001908152602001600020604051806060016040529081600082018054611b4590613416565b80601f0160208091040260200160405190810160405280929190818152602001828054611b7190613416565b8015611bbe5780601f10611b9357610100808354040283529160200191611bbe565b820191906000526020600020905b815481529060010190602001808311611ba157829003601f168201915b505050505081526020016001820160009054906101000a900460ff166002811115611bec57611beb613167565b5b6002811115611bfe57611bfd613167565b5b81526020016002820154815250509150611c387f000000000000000000000000000000000000000000000000000000000000000084611636565b15611c465760019050611c4b565b600090505b915091565b611c59826105bd565b611c6281611db9565b611c6c8383611eb5565b505050565b600080600360009054906101000a900473ffffffffffffffffffffffffffffffffffffffff1673ffffffffffffffffffffffffffffffffffffffff166370a08231846040518263ffffffff1660e01b8152600401611ccf919061311f565b602060405180830381865afa158015611cec573d6000803e3d6000fd5b505050506040513d601f19601f82011682018060405250810190611d109190613798565b1115611d1f5760019050611d24565b600090505b919050565b600360009054906101000a900473ffffffffffffffffffffffffffffffffffffffff1681565b60007f01ffc9a7000000000000000000000000000000000000000000000000000000007bffffffffffffffffffffffffffffffffffffffffffffffffffffffff1916827bffffffffffffffffffffffffffffffffffffffffffffffffffffffff1916149050919050565b611dca81611dc5611ead565b611f97565b50565b611dd78282611636565b611ea957600180600084815260200190815260200160002060000160008373ffffffffffffffffffffffffffffffffffffffff1673ffffffffffffffffffffffffffffffffffffffff16815260200190815260200160002060006101000a81548160ff021916908315150217905550611e4e611ead565b73ffffffffffffffffffffffffffffffffffffffff168173ffffffffffffffffffffffffffffffffffffffff16837f2f8788117e7eff1d82e926ec794901d17c78024a50270940304540a733656f0d60405160405180910390a45b5050565b600033905090565b611ebf8282611636565b15611f935760006001600084815260200190815260200160002060000160008373ffffffffffffffffffffffffffffffffffffffff1673ffffffffffffffffffffffffffffffffffffffff16815260200190815260200160002060006101000a81548160ff021916908315150217905550611f38611ead565b73ffffffffffffffffffffffffffffffffffffffff168173ffffffffffffffffffffffffffffffffffffffff16837ff6391f5c32d9c69d2a47ea670b442974b53935d1edc7fd64eb21e047a839171b60405160405180910390a45b5050565b611fa18282611636565b61201857611fae8161201c565b611fbc8360001c6020612049565b604051602001611fcd929190613899565b6040516020818303038152906040526040517f08c379a000000000000000000000000000000000000000000000000000000000815260040161200f919061390c565b60405180910390fd5b5050565b60606120428273ffffffffffffffffffffffffffffffffffffffff16601460ff16612049565b9050919050565b60606000600283600261205c91906134e3565b612066919061353d565b67ffffffffffffffff81111561207f5761207e612b0d565b5b6040519080825280601f01601f1916602001820160405280156120b15781602001600182028036833780820191505090505b5090507f3000000000000000000000000000000000000000000000000000000000000000816000815181106120e9576120e86135ff565b5b60200101907effffffffffffffffffffffffffffffffffffffffffffffffffffffffffffff1916908160001a9053507f78000000000000000000000000000000000000000000000000000000000000008160018151811061214d5761214c6135ff565b5b60200101907effffffffffffffffffffffffffffffffffffffffffffffffffffffffffffff1916908160001a9053506000600184600261218d91906134e3565b612197919061353d565b90505b6001811115612237577f3031323334353637383961626364656600000000000000000000000000000000600f8616601081106121d9576121d86135ff565b5b1a60f81b8282815181106121f0576121ef6135ff565b5b60200101907effffffffffffffffffffffffffffffffffffffffffffffffffffffffffffff1916908160001a905350600485901c9450806122309061392e565b905061219a565b506000841461227b576040517f08c379a0000000000000000000000000000000000000000000000000000000008152600401612272906139a4565b60405180910390fd5b8091505092915050565b82805461229190613416565b90600052602060002090601f0160209004810192826122b357600085556122fa565b82601f106122cc57805160ff19168380011785556122fa565b828001600101855582156122fa579182015b828111156122f95782518255916020019190600101906122de565b5b5090506123079190612458565b5090565b60405180606001604052806000815260200160608152602001600081525090565b60405180610100016040528060008152602001600081526020016060815260200160608152602001600015158152602001600073ffffffffffffffffffffffffffffffffffffffff168152602001600073ffffffffffffffffffffffffffffffffffffffff168152602001606081525090565b8280546123ab90613416565b90600052602060002090601f0160209004810192826123cd5760008555612414565b82601f106123e657803560ff1916838001178555612414565b82800160010185558215612414579182015b828111156124135782358255916020019190600101906123f8565b5b5090506124219190612458565b5090565b6040518060600160405280606081526020016000600281111561244b5761244a613167565b5b8152602001600081525090565b5b80821115612471576000816000905550600101612459565b5090565b6000604051905090565b600080fd5b600080fd5b60007fffffffff0000000000000000000000000000000000000000000000000000000082169050919050565b6124be81612489565b81146124c957600080fd5b50565b6000813590506124db816124b5565b92915050565b6000602082840312156124f7576124f661247f565b5b6000612505848285016124cc565b91505092915050565b60008115159050919050565b6125238161250e565b82525050565b600060208201905061253e600083018461251a565b92915050565b6000819050919050565b61255781612544565b811461256257600080fd5b50565b6000813590506125748161254e565b92915050565b6000602082840312156125905761258f61247f565b5b600061259e84828501612565565b91505092915050565b600081519050919050565b600082825260208201905092915050565b6000819050602082019050919050565b600073ffffffffffffffffffffffffffffffffffffffff82169050919050565b60006125fe826125d3565b9050919050565b61260e816125f3565b82525050565b61261d81612544565b82525050565b6080820160008201516126396000850182612605565b50602082015161264c6020850182612614565b50604082015161265f6040850182612614565b5060608201516126726060850182612614565b50505050565b60006126848383612623565b60808301905092915050565b6000602082019050919050565b60006126a8826125a7565b6126b281856125b2565b93506126bd836125c3565b8060005b838110156126ee5781516126d58882612678565b97506126e083612690565b9250506001810190506126c1565b5085935050505092915050565b60006020820190508181036000830152612715818461269d565b905092915050565b6000819050919050565b6127308161271d565b811461273b57600080fd5b50565b60008135905061274d81612727565b92915050565b6000602082840312156127695761276861247f565b5b60006127778482850161273e565b91505092915050565b6127898161271d565b82525050565b60006020820190506127a46000830184612780565b92915050565b6127b3816125f3565b81146127be57600080fd5b50565b6000813590506127d0816127aa565b92915050565b600080604083850312156127ed576127ec61247f565b5b60006127fb8582860161273e565b925050602061280c858286016127c1565b9150509250929050565b600081519050919050565b600082825260208201905092915050565b6000819050602082019050919050565b600081519050919050565b600082825260208201905092915050565b60005b8381101561287c578082015181840152602081019050612861565b8381111561288b576000848401525b50505050565b6000601f19601f8301169050919050565b60006128ad82612842565b6128b7818561284d565b93506128c781856020860161285e565b6128d081612891565b840191505092915050565b60006060830160008301516128f36000860182612614565b506020830151848203602086015261290b82826128a2565b91505060408301516129206040860182612614565b508091505092915050565b600061293783836128db565b905092915050565b6000602082019050919050565b600061295782612816565b6129618185612821565b93508360208202850161297385612832565b8060005b858110156129af5784840389528151612990858261292b565b945061299b8361293f565b925060208a01995050600181019050612977565b50829750879550505050505092915050565b600060208201905081810360008301526129db818461294c565b905092915050565b6000806000606084860312156129fc576129fb61247f565b5b6000612a0a86828701612565565b9350506020612a1b86828701612565565b9250506040612a2c86828701612565565b9150509250925092565b6000606083016000830151612a4e6000860182612614565b5060208301518482036020860152612a6682826128a2565b9150506040830151612a7b6040860182612614565b508091505092915050565b60006020820190508181036000830152612aa08184612a36565b905092915050565b600080fd5b600080fd5b600080fd5b60008083601f840112612acd57612acc612aa8565b5b8235905067ffffffffffffffff811115612aea57612ae9612aad565b5b602083019150836001820283011115612b0657612b05612ab2565b5b9250929050565b7f4e487b7100000000000000000000000000000000000000000000000000000000600052604160045260246000fd5b612b4582612891565b810181811067ffffffffffffffff82111715612b6457612b63612b0d565b5b80604052505050565b6000612b77612475565b9050612b838282612b3c565b919050565b600067ffffffffffffffff821115612ba357612ba2612b0d565b5b602082029050602081019050919050565b600080fd5b600067ffffffffffffffff821115612bd457612bd3612b0d565b5b612bdd82612891565b9050602081019050919050565b82818337600083830152505050565b6000612c0c612c0784612bb9565b612b6d565b905082815260208101848484011115612c2857612c27612bb4565b5b612c33848285612bea565b509392505050565b600082601f830112612c5057612c4f612aa8565b5b8135612c60848260208601612bf9565b91505092915050565b6000612c7c612c7784612b88565b612b6d565b90508083825260208201905060208402830185811115612c9f57612c9e612ab2565b5b835b81811015612ce657803567ffffffffffffffff811115612cc457612cc3612aa8565b5b808601612cd18982612c3b565b85526020850194505050602081019050612ca1565b5050509392505050565b600082601f830112612d0557612d04612aa8565b5b8135612d15848260208601612c69565b91505092915050565b600080600080600060608688031215612d3a57612d3961247f565b5b600086013567ffffffffffffffff811115612d5857612d57612484565b5b612d6488828901612ab7565b9550955050602086013567ffffffffffffffff811115612d8757612d86612484565b5b612d9388828901612ab7565b9350935050604086013567ffffffffffffffff811115612db657612db5612484565b5b612dc288828901612cf0565b9150509295509295909350565b612dd88161250e565b82525050565b600082825260208201905092915050565b6000612dfa82612816565b612e048185612dde565b935083602082028501612e1685612832565b8060005b85811015612e525784840389528151612e33858261292b565b9450612e3e8361293f565b925060208a01995050600181019050612e1a565b50829750879550505050505092915050565b600061010083016000830151612e7d6000860182612614565b506020830151612e906020860182612614565b5060408301518482036040860152612ea882826128a2565b91505060608301518482036060860152612ec282826128a2565b9150506080830151612ed76080860182612dcf565b5060a0830151612eea60a0860182612605565b5060c0830151612efd60c0860182612605565b5060e083015184820360e0860152612f158282612def565b9150508091505092915050565b60006020820190508181036000830152612f3c8184612e64565b905092915050565b600081519050919050565b600082825260208201905092915050565b6000819050602082019050919050565b600061010083016000830151612f896000860182612614565b506020830151612f9c6020860182612614565b5060408301518482036040860152612fb482826128a2565b91505060608301518482036060860152612fce82826128a2565b9150506080830151612fe36080860182612dcf565b5060a0830151612ff660a0860182612605565b5060c083015161300960c0860182612605565b5060e083015184820360e08601526130218282612def565b9150508091505092915050565b600061303a8383612f70565b905092915050565b6000602082019050919050565b600061305a82612f44565b6130648185612f4f565b93508360208202850161307685612f60565b8060005b858110156130b25784840389528151613093858261302e565b945061309e83613042565b925060208a0199505060018101905061307a565b50829750879550505050505092915050565b600060208201905081810360008301526130de818461304f565b905092915050565b6130ef81612544565b82525050565b600060208201905061310a60008301846130e6565b92915050565b613119816125f3565b82525050565b60006020820190506131346000830184613110565b92915050565b6000602082840312156131505761314f61247f565b5b600061315e848285016127c1565b91505092915050565b7f4e487b7100000000000000000000000000000000000000000000000000000000600052602160045260246000fd5b600381106131a7576131a6613167565b5b50565b60008190506131b882613196565b919050565b60006131c8826131aa565b9050919050565b6131d8816131bd565b82525050565b600060608301600083015184820360008601526131fb82826128a2565b915050602083015161321060208601826131cf565b5060408301516132236040860182612614565b508091505092915050565b6000604082019050818103600083015261324881856131de565b9050613257602083018461251a565b9392505050565b6000819050919050565b600061328361327e613279846125d3565b61325e565b6125d3565b9050919050565b600061329582613268565b9050919050565b60006132a78261328a565b9050919050565b6132b78161329c565b82525050565b60006020820190506132d260008301846132ae565b92915050565b600082825260208201905092915050565b7f416363657373436f6e74726f6c3a2063616e206f6e6c792072656e6f756e636560008201527f20726f6c657320666f722073656c660000000000000000000000000000000000602082015250565b6000613345602f836132d8565b9150613350826132e9565b604082019050919050565b6000602082019050818103600083015261337481613338565b9050919050565b7f5573657220616c72656164792072656769737465726564000000000000000000600082015250565b60006133b16017836132d8565b91506133bc8261337b565b602082019050919050565b600060208201905081810360008301526133e0816133a4565b9050919050565b7f4e487b7100000000000000000000000000000000000000000000000000000000600052602260045260246000fd5b6000600282049050600182168061342e57607f821691505b60208210811415613442576134416133e7565b5b50919050565b7f50726f706f73616c206475726174696f6e206578706972656400000000000000600082015250565b600061347e6019836132d8565b915061348982613448565b602082019050919050565b600060208201905081810360008301526134ad81613471565b9050919050565b7f4e487b7100000000000000000000000000000000000000000000000000000000600052601160045260246000fd5b60006134ee82612544565b91506134f983612544565b9250817fffffffffffffffffffffffffffffffffffffffffffffffffffffffffffffffff0483118215151615613532576135316134b4565b5b828202905092915050565b600061354882612544565b915061355383612544565b9250827fffffffffffffffffffffffffffffffffffffffffffffffffffffffffffffffff03821115613588576135876134b4565b5b828201905092915050565b7f496e73756666696369656e7420746f6b656e7320666f7220616464726573732e600082015250565b60006135c96020836132d8565b91506135d482613593565b602082019050919050565b600060208201905081810360008301526135f8816135bc565b9050919050565b7f4e487b7100000000000000000000000000000000000000000000000000000000600052603260045260246000fd5b7f50524f504f53414c5f564f544500000000000000000000000000000000000000600082015250565b6000613664600d836132d8565b915061366f8261362e565b602082019050919050565b6000602082019050818103600083015261369381613657565b9050919050565b60006136a582612544565b91507fffffffffffffffffffffffffffffffffffffffffffffffffffffffffffffffff8214156136d8576136d76134b4565b5b600182019050919050565b7f50524f504f53414c5f5241495345440000000000000000000000000000000000600082015250565b6000613719600f836132d8565b9150613724826136e3565b602082019050919050565b600060208201905081810360008301526137488161370c565b9050919050565b600061375a82612544565b915061376583612544565b925082821015613778576137776134b4565b5b828203905092915050565b6000815190506137928161254e565b92915050565b6000602082840312156137ae576137ad61247f565b5b60006137bc84828501613783565b91505092915050565b600081905092915050565b7f416363657373436f6e74726f6c3a206163636f756e7420000000000000000000600082015250565b60006138066017836137c5565b9150613811826137d0565b601782019050919050565b600061382782612842565b61383181856137c5565b935061384181856020860161285e565b80840191505092915050565b7f206973206d697373696e6720726f6c6520000000000000000000000000000000600082015250565b60006138836011836137c5565b915061388e8261384d565b601182019050919050565b60006138a4826137f9565b91506138b0828561381c565b91506138bb82613876565b91506138c7828461381c565b91508190509392505050565b60006138de82612842565b6138e881856132d8565b93506138f881856020860161285e565b61390181612891565b840191505092915050565b6000602082019050818103600083015261392681846138d3565b905092915050565b600061393982612544565b9150600082141561394d5761394c6134b4565b5b600182039050919050565b7f537472696e67733a20686578206c656e67746820696e73756666696369656e74600082015250565b600061398e6020836132d8565b915061399982613958565b602082019050919050565b600060208201905081810360008301526139bd81613981565b905091905056fea2646970667358221220e25d638f78dc6a80d75c6a6edd57643e7bd1e119464215766ca367b4bd4b345864736f6c634300080b0033",
  "immutableReferences": {
    "8856": [
      {
        "length": 32,
        "start": 5652
      },
      {
        "length": 32,
        "start": 5977
      },
      {
        "length": 32,
        "start": 6022
      },
      {
        "length": 32,
        "start": 7187
      }
    ],
    "8859": [
      {
        "length": 32,
        "start": 3579
      }
    ],
    "8862": [
      {
        "length": 32,
        "start": 2912
      },
      {
        "length": 32,
        "start": 5885
      }
    ]
  },
  "source": "// SPDX-License-Identifier: MIT\r\npragma solidity ^0.8.7;\r\n\r\nimport \"@openzeppelin/contracts/access/AccessControl.sol\";\r\nimport \"@openzeppelin/contracts/security/ReentrancyGuard.sol\";\r\nimport \"./QuadraNFT.sol\";\r\n\r\ncontract Election is ReentrancyGuard, AccessControl {\r\n    bytes32 public immutable ADMIN_ROLE = keccak256(\"ADMIN_ROLE\");\r\n    uint32 immutable MIN_VOTE_DURATION = 5 minutes;\r\n    uint256 immutable MAX_TOKENS = 10;\r\n    uint256 totalProposals;\r\n    QuadraNFT public token;\r\n\r\n    struct Candidate {\r\n        uint256 id;\r\n        string name;\r\n        uint256 votes;\r\n    }\r\n\r\n    struct Proposal {\r\n        uint256 id;\r\n        uint256 duration;\r\n        string title;\r\n        string description;\r\n        bool ended;\r\n        address proposer;\r\n        address executor; // ??\r\n        Candidate[] candidates;\r\n    }\r\n\r\n    // Vote object to keep track of votes in a proposal\r\n    struct Vote {\r\n        address voter;\r\n        uint256 candidateId;\r\n        uint256 timestamp;\r\n        uint256 numVotes;\r\n    }\r\n\r\n    //voter status for anonymous voting\r\n    enum VoterStatus {\r\n        INITIAL,\r\n        IN_PROGRESS,\r\n        VALID\r\n    }\r\n\r\n    struct Voter {\r\n        string username;\r\n        VoterStatus status;\r\n        uint256 weight;\r\n    }\r\n\r\n    mapping(uint256 => Proposal) private raisedProposals;\r\n    mapping(address => Vote) private votes; // Keep track of Vote per address\r\n\r\n    // Keep track of tokens spent per address for each proposdal\r\n    mapping(address => mapping(uint256 => uint256)) private tokensSpent;\r\n\r\n    // Keep track of all voters\r\n    mapping(address => Voter) private voters;\r\n\r\n    // All vote objects for a proposal\r\n    mapping(uint256 => Vote[]) private votedOn;\r\n\r\n    // ??\r\n    // mapping(address => uint256) private contributors;\r\n    // mapping(address => uint256) private stakeholders;\r\n\r\n    event Action(address indexed initiator, string message);\r\n    constructor(QuadraNFT _token) {\r\n        token = _token;\r\n        _grantRole(ADMIN_ROLE, msg.sender);\r\n        addVoter(msg.sender, \"Admin\", 1, VoterStatus.VALID);\r\n    }\r\n\r\n    function addVoter(address account, string memory username, uint256 weight, VoterStatus status) private {\r\n        if (voters[account].status != VoterStatus.INITIAL) {\r\n            return;\r\n        }\r\n        voters[account] = Voter(username, status, weight);\r\n    }\r\n\r\n    function grantAdminRole(address account) public onlyRole(ADMIN_ROLE) {\r\n        _grantRole(ADMIN_ROLE, account);\r\n    }\r\n\r\n    function getVoter(address account) external view returns (Voter memory voter, bool isAdmin) {\r\n        voter = voters[account];\r\n        // add is is admin role, add a bool to reply\r\n        if (hasRole(ADMIN_ROLE, account)) {\r\n            isAdmin = true;\r\n        }else{\r\n            isAdmin = false;\r\n        }\r\n        return (voter, isAdmin);\r\n    }\r\n\r\n    function applyNFT() public {\r\n        require(\r\n            voters[msg.sender].status == VoterStatus.INITIAL,\r\n            \"User already registered\"\r\n        );\r\n        voters[msg.sender] = Voter(\"Anonymous\", VoterStatus.IN_PROGRESS, 1);\r\n    }\r\n\r\n    function getNFTAddress() public view returns (address) {\r\n        return address(token);\r\n    }\r\n\r\n    function _isStakeholder(address _voter) public view returns (bool) {\r\n        // if the voter has a token in the Token contract\r\n        // cast the function BalanceOf to the token contract QUadraDAO with address _token\r\n        if(token.balanceOf(_voter) > 0) return true;\r\n        return false;\r\n    }\r\n\r\n    function createProposal(\r\n        string calldata title,\r\n        string calldata description,\r\n        string[] memory _candidateNames\r\n    ) external returns (Proposal memory) {\r\n        uint256 proposalId = totalProposals++;\r\n        Proposal storage proposal = raisedProposals[proposalId];\r\n        proposal.id = proposalId;\r\n        proposal.title = title;\r\n        proposal.description = description;\r\n        proposal.proposer = payable(msg.sender);\r\n\r\n        // TODO: Make this variable\r\n        proposal.duration = block.timestamp + MIN_VOTE_DURATION;\r\n\r\n        // Init candidates\r\n        for (uint256 i = 0; i < _candidateNames.length; i++) {\r\n            proposal.candidates.push(Candidate(i, _candidateNames[i], 0));\r\n        }\r\n\r\n        emit Action(msg.sender, \"PROPOSAL_RAISED\");\r\n\r\n        return proposal;\r\n    }\r\n\r\n    function getProposals() external view returns (Proposal[] memory props) {\r\n        props = new Proposal[](totalProposals);\r\n\r\n        for (uint256 i = 0; i < totalProposals; i++) {\r\n            props[i] = raisedProposals[i];\r\n        }\r\n    }\r\n\r\n    function getProposal(\r\n        uint256 proposalId\r\n    ) external view returns (Proposal memory) {\r\n        return raisedProposals[proposalId];\r\n    }\r\n\r\n    // Might be redundant in client code\r\n    function getCandidates(\r\n        uint256 proposalId\r\n    ) public view returns (Candidate[] memory) {\r\n        return raisedProposals[proposalId].candidates;\r\n    }\r\n\r\n    function getTokensLeftForProposal(\r\n        uint256 proposalId\r\n    ) public view returns (uint256) {\r\n        return MAX_TOKENS - tokensSpent[msg.sender][proposalId];\r\n    }\r\n\r\n    function voteForCandidate(\r\n        uint256 proposalId,\r\n        uint256 candidateId,\r\n        uint256 numVotes\r\n    ) public returns (Candidate memory) {\r\n        Proposal storage proposal = raisedProposals[proposalId];\r\n        Candidate[] memory candidates = proposal.candidates;\r\n\r\n        if (proposal.ended || proposal.duration <= block.timestamp) {\r\n            proposal.ended = true;\r\n            revert(\"Proposal duration expired\");\r\n        }\r\n\r\n        // Check if msg.sender has enough tokens\r\n        // TODO: Implement quadratic voiting here\r\n        uint256 totalNumTokensSpent = tokensSpent[msg.sender][proposalId] +\r\n            numVotes *1;\r\n        if (totalNumTokensSpent >= MAX_TOKENS) {\r\n            revert(\"Insufficient tokens for address.\");\r\n        }\r\n\r\n        // Add vote to candidate\r\n        proposal.candidates[candidateId].votes += numVotes; // TODO: Implement time decay here\r\n\r\n        // proposal.candidates = candidates; // Updated candidates\r\n\r\n        // Add vote to Address -> Vote map\r\n        // votes[msg.sender] = Vote(msg.sender, proposalId, candidateId, block.timestamp);\r\n        votedOn[proposalId].push(\r\n            Vote(msg.sender, candidateId, block.timestamp, numVotes)\r\n        );\r\n\r\n        emit Action(msg.sender, \"PROPOSAL_VOTE\");\r\n\r\n        // TODO: Should candidate be returned here or vote?\r\n        return candidates[candidateId];\r\n    }\r\n\r\n    function getVotesOfProposal(\r\n        uint256 proposalId\r\n    ) public view returns (Vote[] memory) {\r\n        return votedOn[proposalId];\r\n    }\r\n}\r\n",
  "sourcePath": "C:\\Users\\shang\\Documents\\GitHub\\ECE1770-QV-DAO-DApp-Project\\src\\contracts\\Election.sol",
  "compiler": {
    "name": "solc",
    "version": "0.8.11+commit.d7f03943.Emscripten.clang"
  },
  "schemaVersion": "3.4.16",
  "updatedAt": "2024-04-12T08:19:01.884Z",
  "networkType": "ethereum",
  "devdoc": {
    "kind": "dev",
    "methods": {
      "getRoleAdmin(bytes32)": {
        "details": "Returns the admin role that controls `role`. See {grantRole} and {revokeRole}. To change a role's admin, use {_setRoleAdmin}."
      },
      "grantRole(bytes32,address)": {
        "details": "Grants `role` to `account`. If `account` had not been already granted `role`, emits a {RoleGranted} event. Requirements: - the caller must have ``role``'s admin role. May emit a {RoleGranted} event."
      },
      "hasRole(bytes32,address)": {
        "details": "Returns `true` if `account` has been granted `role`."
      },
      "renounceRole(bytes32,address)": {
        "details": "Revokes `role` from the calling account. Roles are often managed via {grantRole} and {revokeRole}: this function's purpose is to provide a mechanism for accounts to lose their privileges if they are compromised (such as when a trusted device is misplaced). If the calling account had been revoked `role`, emits a {RoleRevoked} event. Requirements: - the caller must be `account`. May emit a {RoleRevoked} event."
      },
      "revokeRole(bytes32,address)": {
        "details": "Revokes `role` from `account`. If `account` had been granted `role`, emits a {RoleRevoked} event. Requirements: - the caller must have ``role``'s admin role. May emit a {RoleRevoked} event."
      },
      "supportsInterface(bytes4)": {
        "details": "See {IERC165-supportsInterface}."
      }
    },
    "version": 1
  },
  "userdoc": {
    "kind": "user",
    "methods": {},
    "version": 1
  }
}