{
  "contractName": "Election",
  "abi": [
    {
      "anonymous": false,
      "inputs": [
        {
          "indexed": true,
          "internalType": "address",
          "name": "initiator",
          "type": "address"
        },
        {
          "indexed": false,
          "internalType": "string",
          "name": "message",
          "type": "string"
        }
      ],
      "name": "Action",
      "type": "event"
    },
    {
      "anonymous": false,
      "inputs": [
        {
          "indexed": true,
          "internalType": "bytes32",
          "name": "role",
          "type": "bytes32"
        },
        {
          "indexed": true,
          "internalType": "bytes32",
          "name": "previousAdminRole",
          "type": "bytes32"
        },
        {
          "indexed": true,
          "internalType": "bytes32",
          "name": "newAdminRole",
          "type": "bytes32"
        }
      ],
      "name": "RoleAdminChanged",
      "type": "event"
    },
    {
      "anonymous": false,
      "inputs": [
        {
          "indexed": true,
          "internalType": "bytes32",
          "name": "role",
          "type": "bytes32"
        },
        {
          "indexed": true,
          "internalType": "address",
          "name": "account",
          "type": "address"
        },
        {
          "indexed": true,
          "internalType": "address",
          "name": "sender",
          "type": "address"
        }
      ],
      "name": "RoleGranted",
      "type": "event"
    },
    {
      "anonymous": false,
      "inputs": [
        {
          "indexed": true,
          "internalType": "bytes32",
          "name": "role",
          "type": "bytes32"
        },
        {
          "indexed": true,
          "internalType": "address",
          "name": "account",
          "type": "address"
        },
        {
          "indexed": true,
          "internalType": "address",
          "name": "sender",
          "type": "address"
        }
      ],
      "name": "RoleRevoked",
      "type": "event"
    },
    {
      "inputs": [],
      "name": "DEFAULT_ADMIN_ROLE",
      "outputs": [
        {
          "internalType": "bytes32",
          "name": "",
          "type": "bytes32"
        }
      ],
      "stateMutability": "view",
      "type": "function",
      "constant": true
    },
    {
      "inputs": [
        {
          "internalType": "bytes32",
          "name": "role",
          "type": "bytes32"
        }
      ],
      "name": "getRoleAdmin",
      "outputs": [
        {
          "internalType": "bytes32",
          "name": "",
          "type": "bytes32"
        }
      ],
      "stateMutability": "view",
      "type": "function",
      "constant": true
    },
    {
      "inputs": [
        {
          "internalType": "bytes32",
          "name": "role",
          "type": "bytes32"
        },
        {
          "internalType": "address",
          "name": "account",
          "type": "address"
        }
      ],
      "name": "grantRole",
      "outputs": [],
      "stateMutability": "nonpayable",
      "type": "function"
    },
    {
      "inputs": [
        {
          "internalType": "bytes32",
          "name": "role",
          "type": "bytes32"
        },
        {
          "internalType": "address",
          "name": "account",
          "type": "address"
        }
      ],
      "name": "hasRole",
      "outputs": [
        {
          "internalType": "bool",
          "name": "",
          "type": "bool"
        }
      ],
      "stateMutability": "view",
      "type": "function",
      "constant": true
    },
    {
      "inputs": [
        {
          "internalType": "bytes32",
          "name": "role",
          "type": "bytes32"
        },
        {
          "internalType": "address",
          "name": "account",
          "type": "address"
        }
      ],
      "name": "renounceRole",
      "outputs": [],
      "stateMutability": "nonpayable",
      "type": "function"
    },
    {
      "inputs": [
        {
          "internalType": "bytes32",
          "name": "role",
          "type": "bytes32"
        },
        {
          "internalType": "address",
          "name": "account",
          "type": "address"
        }
      ],
      "name": "revokeRole",
      "outputs": [],
      "stateMutability": "nonpayable",
      "type": "function"
    },
    {
      "inputs": [
        {
          "internalType": "bytes4",
          "name": "interfaceId",
          "type": "bytes4"
        }
      ],
      "name": "supportsInterface",
      "outputs": [
        {
          "internalType": "bool",
          "name": "",
          "type": "bool"
        }
      ],
      "stateMutability": "view",
      "type": "function",
      "constant": true
    },
    {
      "inputs": [
        {
          "internalType": "string",
          "name": "title",
          "type": "string"
        },
        {
          "internalType": "string",
          "name": "description",
          "type": "string"
        },
        {
          "internalType": "string[]",
          "name": "_candidateNames",
          "type": "string[]"
        }
      ],
      "name": "createProposal",
      "outputs": [
        {
          "components": [
            {
              "internalType": "uint256",
              "name": "id",
              "type": "uint256"
            },
            {
              "internalType": "uint256",
              "name": "duration",
              "type": "uint256"
            },
            {
              "internalType": "string",
              "name": "title",
              "type": "string"
            },
            {
              "internalType": "string",
              "name": "description",
              "type": "string"
            },
            {
              "internalType": "bool",
              "name": "ended",
              "type": "bool"
            },
            {
              "internalType": "address",
              "name": "proposer",
              "type": "address"
            },
            {
              "internalType": "address",
              "name": "executor",
              "type": "address"
            },
            {
              "components": [
                {
                  "internalType": "uint256",
                  "name": "id",
                  "type": "uint256"
                },
                {
                  "internalType": "string",
                  "name": "name",
                  "type": "string"
                },
                {
                  "internalType": "uint256",
                  "name": "votes",
                  "type": "uint256"
                }
              ],
              "internalType": "struct Election.Candidate[]",
              "name": "candidates",
              "type": "tuple[]"
            }
          ],
          "internalType": "struct Election.Proposal",
          "name": "",
          "type": "tuple"
        }
      ],
      "stateMutability": "nonpayable",
      "type": "function"
    },
    {
      "inputs": [],
      "name": "getProposals",
      "outputs": [
        {
          "components": [
            {
              "internalType": "uint256",
              "name": "id",
              "type": "uint256"
            },
            {
              "internalType": "uint256",
              "name": "duration",
              "type": "uint256"
            },
            {
              "internalType": "string",
              "name": "title",
              "type": "string"
            },
            {
              "internalType": "string",
              "name": "description",
              "type": "string"
            },
            {
              "internalType": "bool",
              "name": "ended",
              "type": "bool"
            },
            {
              "internalType": "address",
              "name": "proposer",
              "type": "address"
            },
            {
              "internalType": "address",
              "name": "executor",
              "type": "address"
            },
            {
              "components": [
                {
                  "internalType": "uint256",
                  "name": "id",
                  "type": "uint256"
                },
                {
                  "internalType": "string",
                  "name": "name",
                  "type": "string"
                },
                {
                  "internalType": "uint256",
                  "name": "votes",
                  "type": "uint256"
                }
              ],
              "internalType": "struct Election.Candidate[]",
              "name": "candidates",
              "type": "tuple[]"
            }
          ],
          "internalType": "struct Election.Proposal[]",
          "name": "props",
          "type": "tuple[]"
        }
      ],
      "stateMutability": "view",
      "type": "function",
      "constant": true
    },
    {
      "inputs": [
        {
          "internalType": "uint256",
          "name": "proposalId",
          "type": "uint256"
        }
      ],
      "name": "getProposal",
      "outputs": [
        {
          "components": [
            {
              "internalType": "uint256",
              "name": "id",
              "type": "uint256"
            },
            {
              "internalType": "uint256",
              "name": "duration",
              "type": "uint256"
            },
            {
              "internalType": "string",
              "name": "title",
              "type": "string"
            },
            {
              "internalType": "string",
              "name": "description",
              "type": "string"
            },
            {
              "internalType": "bool",
              "name": "ended",
              "type": "bool"
            },
            {
              "internalType": "address",
              "name": "proposer",
              "type": "address"
            },
            {
              "internalType": "address",
              "name": "executor",
              "type": "address"
            },
            {
              "components": [
                {
                  "internalType": "uint256",
                  "name": "id",
                  "type": "uint256"
                },
                {
                  "internalType": "string",
                  "name": "name",
                  "type": "string"
                },
                {
                  "internalType": "uint256",
                  "name": "votes",
                  "type": "uint256"
                }
              ],
              "internalType": "struct Election.Candidate[]",
              "name": "candidates",
              "type": "tuple[]"
            }
          ],
          "internalType": "struct Election.Proposal",
          "name": "",
          "type": "tuple"
        }
      ],
      "stateMutability": "view",
      "type": "function",
      "constant": true
    },
    {
      "inputs": [
        {
          "internalType": "uint256",
          "name": "proposalId",
          "type": "uint256"
        }
      ],
      "name": "getCandidates",
      "outputs": [
        {
          "components": [
            {
              "internalType": "uint256",
              "name": "id",
              "type": "uint256"
            },
            {
              "internalType": "string",
              "name": "name",
              "type": "string"
            },
            {
              "internalType": "uint256",
              "name": "votes",
              "type": "uint256"
            }
          ],
          "internalType": "struct Election.Candidate[]",
          "name": "",
          "type": "tuple[]"
        }
      ],
      "stateMutability": "view",
      "type": "function",
      "constant": true
    },
    {
      "inputs": [
        {
          "internalType": "uint256",
          "name": "proposalId",
          "type": "uint256"
        }
      ],
      "name": "getTokensLeftForProposal",
      "outputs": [
        {
          "internalType": "uint256",
          "name": "",
          "type": "uint256"
        }
      ],
      "stateMutability": "view",
      "type": "function",
      "constant": true
    },
    {
      "inputs": [
        {
          "internalType": "uint256",
          "name": "proposalId",
          "type": "uint256"
        },
        {
          "internalType": "uint256",
          "name": "candidateId",
          "type": "uint256"
        },
        {
          "internalType": "uint256",
          "name": "numVotes",
          "type": "uint256"
        }
      ],
      "name": "voteForCandidate",
      "outputs": [
        {
          "components": [
            {
              "internalType": "uint256",
              "name": "id",
              "type": "uint256"
            },
            {
              "internalType": "string",
              "name": "name",
              "type": "string"
            },
            {
              "internalType": "uint256",
              "name": "votes",
              "type": "uint256"
            }
          ],
          "internalType": "struct Election.Candidate",
          "name": "",
          "type": "tuple"
        }
      ],
      "stateMutability": "nonpayable",
      "type": "function"
    },
    {
      "inputs": [
        {
          "internalType": "uint256",
          "name": "proposalId",
          "type": "uint256"
        }
      ],
      "name": "getVotesOfProposal",
      "outputs": [
        {
          "components": [
            {
              "internalType": "address",
              "name": "voter",
              "type": "address"
            },
            {
              "internalType": "uint256",
              "name": "candidateId",
              "type": "uint256"
            },
            {
              "internalType": "uint256",
              "name": "timestamp",
              "type": "uint256"
            },
            {
              "internalType": "uint256",
              "name": "numVotes",
              "type": "uint256"
            }
          ],
          "internalType": "struct Election.Vote[]",
          "name": "",
          "type": "tuple[]"
        }
      ],
      "stateMutability": "view",
      "type": "function",
      "constant": true
    }
  ],
  "bytecode": "0x60c060405261012c63ffffffff1660809063ffffffff16815250600a60a09081525034801561002d57600080fd5b50600160008190555060805160a05161317b6100626000396000818161087d01526113f601526000610b18015261317b6000f3fe608060405234801561001057600080fd5b50600436106100ea5760003560e01c80634724c40c1161008c578063a217fddf11610066578063a217fddf14610295578063b32f1486146102b3578063c7f758a8146102e3578063d547741f14610313576100ea565b80634724c40c1461021757806362564c481461024757806391d1485414610265576100ea565b80632f2ff15d116100c85780632f2ff15d1461017f57806336568abe1461019b5780633e39a7a5146101b7578063417d14cb146101e7576100ea565b806301ffc9a7146100ef578063075bb5891461011f578063248a9ca31461014f575b600080fd5b61010960048036038101906101049190611ed8565b61032f565b6040516101169190611f20565b60405180910390f35b61013960048036038101906101349190611f71565b6103a9565b60405161014691906120f2565b60405180910390f35b6101696004803603810190610164919061214a565b61048f565b6040516101769190612186565b60405180910390f35b610199600480360381019061019491906121cd565b6104af565b005b6101b560048036038101906101b091906121cd565b6104d0565b005b6101d160048036038101906101cc9190611f71565b610553565b6040516101de91906123b8565b60405180910390f35b61020160048036038101906101fc91906123da565b61066e565b60405161020e919061247d565b60405180910390f35b610231600480360381019061022c9190612715565b610a68565b60405161023e9190612919565b60405180910390f35b61024f610f70565b60405161025c9190612abb565b60405180910390f35b61027f600480360381019061027a91906121cd565b61132f565b60405161028c9190611f20565b60405180910390f35b61029d61139a565b6040516102aa9190612186565b60405180910390f35b6102cd60048036038101906102c89190611f71565b6113a1565b6040516102da9190612aec565b60405180910390f35b6102fd60048036038101906102f89190611f71565b611426565b60405161030a9190612919565b60405180910390f35b61032d600480360381019061032891906121cd565b611758565b005b60007f7965db0b000000000000000000000000000000000000000000000000000000007bffffffffffffffffffffffffffffffffffffffffffffffffffffffff1916827bffffffffffffffffffffffffffffffffffffffffffffffffffffffff191614806103a257506103a182611779565b5b9050919050565b606060066000838152602001908152602001600020805480602002602001604051908101604052809291908181526020016000905b8282101561048457838290600052602060002090600402016040518060800160405290816000820160009054906101000a900473ffffffffffffffffffffffffffffffffffffffff1673ffffffffffffffffffffffffffffffffffffffff1673ffffffffffffffffffffffffffffffffffffffff1681526020016001820154815260200160028201548152602001600382015481525050815260200190600101906103de565b505050509050919050565b600060016000838152602001908152602001600020600101549050919050565b6104b88261048f565b6104c1816117e3565b6104cb83836117f7565b505050565b6104d86118d7565b73ffffffffffffffffffffffffffffffffffffffff168173ffffffffffffffffffffffffffffffffffffffff1614610545576040517f08c379a000000000000000000000000000000000000000000000000000000000815260040161053c90612b8a565b60405180910390fd5b61054f82826118df565b5050565b606060036000838152602001908152602001600020600601805480602002602001604051908101604052809291908181526020016000905b828210156106635783829060005260206000209060030201604051806060016040529081600082015481526020016001820180546105c890612bd9565b80601f01602080910402602001604051908101604052809291908181526020018280546105f490612bd9565b80156106415780601f1061061657610100808354040283529160200191610641565b820191906000526020600020905b81548152906001019060200180831161062457829003601f168201915b505050505081526020016002820154815250508152602001906001019061058b565b505050509050919050565b610676611caf565b6000600360008681526020019081526020016000209050600081600601805480602002602001604051908101604052809291908181526020016000905b8282101561078b5783829060005260206000209060030201604051806060016040529081600082015481526020016001820180546106f090612bd9565b80601f016020809104026020016040519081016040528092919081815260200182805461071c90612bd9565b80156107695780601f1061073e57610100808354040283529160200191610769565b820191906000526020600020905b81548152906001019060200180831161074c57829003601f168201915b50505050508152602001600282015481525050815260200190600101906106b3565b5050505090508160040160009054906101000a900460ff16806107b2575042826001015411155b1561080f5760018260040160006101000a81548160ff0219169083151502179055506040517f08c379a000000000000000000000000000000000000000000000000000000000815260040161080690612c57565b60405180910390fd5b600060018561081e9190612ca6565b600560003373ffffffffffffffffffffffffffffffffffffffff1673ffffffffffffffffffffffffffffffffffffffff1681526020019081526020016000206000898152602001908152602001600020546108799190612d00565b90507f000000000000000000000000000000000000000000000000000000000000000081106108dd576040517f08c379a00000000000000000000000000000000000000000000000000000000081526004016108d490612da2565b60405180910390fd5b848360060187815481106108f4576108f3612dc2565b5b906000526020600020906003020160020160008282546109149190612d00565b925050819055506006600088815260200190815260200160002060405180608001604052803373ffffffffffffffffffffffffffffffffffffffff16815260200188815260200142815260200187815250908060018154018082558091505060019003906000526020600020906004020160009091909190915060008201518160000160006101000a81548173ffffffffffffffffffffffffffffffffffffffff021916908373ffffffffffffffffffffffffffffffffffffffff16021790555060208201518160010155604082015181600201556060820151816003015550503373ffffffffffffffffffffffffffffffffffffffff167fa6f6fe9139f021af0f5a3b1c2eca6a1c371d77c4c99fdf2be0a2fdbd215baa8d604051610a3990612e3d565b60405180910390a2818681518110610a5457610a53612dc2565b5b602002602001015193505050509392505050565b610a70611cd0565b600060026000815480929190610a8590612e5d565b91905055905060006003600083815260200190815260200160002090508181600001819055508787826002019190610abe929190611d43565b508585826003019190610ad2929190611d43565b50338160040160016101000a81548173ffffffffffffffffffffffffffffffffffffffff021916908373ffffffffffffffffffffffffffffffffffffffff1602179055507f000000000000000000000000000000000000000000000000000000000000000063ffffffff1642610b489190612d00565b816001018190555060005b8451811015610c0557816006016040518060600160405280838152602001878481518110610b8457610b83612dc2565b5b6020026020010151815260200160008152509080600181540180825580915050600190039060005260206000209060030201600090919091909150600082015181600001556020820151816001019080519060200190610be5929190611dc9565b506040820151816002015550508080610bfd90612e5d565b915050610b53565b503373ffffffffffffffffffffffffffffffffffffffff167fa6f6fe9139f021af0f5a3b1c2eca6a1c371d77c4c99fdf2be0a2fdbd215baa8d604051610c4a90612ef2565b60405180910390a280604051806101000160405290816000820154815260200160018201548152602001600282018054610c8390612bd9565b80601f0160208091040260200160405190810160405280929190818152602001828054610caf90612bd9565b8015610cfc5780601f10610cd157610100808354040283529160200191610cfc565b820191906000526020600020905b815481529060010190602001808311610cdf57829003601f168201915b50505050508152602001600382018054610d1590612bd9565b80601f0160208091040260200160405190810160405280929190818152602001828054610d4190612bd9565b8015610d8e5780601f10610d6357610100808354040283529160200191610d8e565b820191906000526020600020905b815481529060010190602001808311610d7157829003601f168201915b505050505081526020016004820160009054906101000a900460ff161515151581526020016004820160019054906101000a900473ffffffffffffffffffffffffffffffffffffffff1673ffffffffffffffffffffffffffffffffffffffff1673ffffffffffffffffffffffffffffffffffffffff1681526020016005820160009054906101000a900473ffffffffffffffffffffffffffffffffffffffff1673ffffffffffffffffffffffffffffffffffffffff1673ffffffffffffffffffffffffffffffffffffffff16815260200160068201805480602002602001604051908101604052809291908181526020016000905b82821015610f5b578382906000526020600020906003020160405180606001604052908160008201548152602001600182018054610ec090612bd9565b80601f0160208091040260200160405190810160405280929190818152602001828054610eec90612bd9565b8015610f395780601f10610f0e57610100808354040283529160200191610f39565b820191906000526020600020905b815481529060010190602001808311610f1c57829003601f168201915b5050505050815260200160028201548152505081526020019060010190610e83565b50505050815250509250505095945050505050565b606060025467ffffffffffffffff811115610f8e57610f8d612504565b5b604051908082528060200260200182016040528015610fc757816020015b610fb4611cd0565b815260200190600190039081610fac5790505b50905060005b60025481101561132b576003600082815260200190815260200160002060405180610100016040529081600082015481526020016001820154815260200160028201805461101a90612bd9565b80601f016020809104026020016040519081016040528092919081815260200182805461104690612bd9565b80156110935780601f1061106857610100808354040283529160200191611093565b820191906000526020600020905b81548152906001019060200180831161107657829003601f168201915b505050505081526020016003820180546110ac90612bd9565b80601f01602080910402602001604051908101604052809291908181526020018280546110d890612bd9565b80156111255780601f106110fa57610100808354040283529160200191611125565b820191906000526020600020905b81548152906001019060200180831161110857829003601f168201915b505050505081526020016004820160009054906101000a900460ff161515151581526020016004820160019054906101000a900473ffffffffffffffffffffffffffffffffffffffff1673ffffffffffffffffffffffffffffffffffffffff1673ffffffffffffffffffffffffffffffffffffffff1681526020016005820160009054906101000a900473ffffffffffffffffffffffffffffffffffffffff1673ffffffffffffffffffffffffffffffffffffffff1673ffffffffffffffffffffffffffffffffffffffff16815260200160068201805480602002602001604051908101604052809291908181526020016000905b828210156112f257838290600052602060002090600302016040518060600160405290816000820154815260200160018201805461125790612bd9565b80601f016020809104026020016040519081016040528092919081815260200182805461128390612bd9565b80156112d05780601f106112a5576101008083540402835291602001916112d0565b820191906000526020600020905b8154815290600101906020018083116112b357829003601f168201915b505050505081526020016002820154815250508152602001906001019061121a565b505050508152505082828151811061130d5761130c612dc2565b5b6020026020010181905250808061132390612e5d565b915050610fcd565b5090565b60006001600084815260200190815260200160002060000160008373ffffffffffffffffffffffffffffffffffffffff1673ffffffffffffffffffffffffffffffffffffffff16815260200190815260200160002060009054906101000a900460ff16905092915050565b6000801b81565b6000600560003373ffffffffffffffffffffffffffffffffffffffff1673ffffffffffffffffffffffffffffffffffffffff1681526020019081526020016000206000838152602001908152602001600020547f000000000000000000000000000000000000000000000000000000000000000061141f9190612f12565b9050919050565b61142e611cd0565b6003600083815260200190815260200160002060405180610100016040529081600082015481526020016001820154815260200160028201805461147190612bd9565b80601f016020809104026020016040519081016040528092919081815260200182805461149d90612bd9565b80156114ea5780601f106114bf576101008083540402835291602001916114ea565b820191906000526020600020905b8154815290600101906020018083116114cd57829003601f168201915b5050505050815260200160038201805461150390612bd9565b80601f016020809104026020016040519081016040528092919081815260200182805461152f90612bd9565b801561157c5780601f106115515761010080835404028352916020019161157c565b820191906000526020600020905b81548152906001019060200180831161155f57829003601f168201915b505050505081526020016004820160009054906101000a900460ff161515151581526020016004820160019054906101000a900473ffffffffffffffffffffffffffffffffffffffff1673ffffffffffffffffffffffffffffffffffffffff1673ffffffffffffffffffffffffffffffffffffffff1681526020016005820160009054906101000a900473ffffffffffffffffffffffffffffffffffffffff1673ffffffffffffffffffffffffffffffffffffffff1673ffffffffffffffffffffffffffffffffffffffff16815260200160068201805480602002602001604051908101604052809291908181526020016000905b828210156117495783829060005260206000209060030201604051806060016040529081600082015481526020016001820180546116ae90612bd9565b80601f01602080910402602001604051908101604052809291908181526020018280546116da90612bd9565b80156117275780601f106116fc57610100808354040283529160200191611727565b820191906000526020600020905b81548152906001019060200180831161170a57829003601f168201915b5050505050815260200160028201548152505081526020019060010190611671565b50505050815250509050919050565b6117618261048f565b61176a816117e3565b61177483836118df565b505050565b60007f01ffc9a7000000000000000000000000000000000000000000000000000000007bffffffffffffffffffffffffffffffffffffffffffffffffffffffff1916827bffffffffffffffffffffffffffffffffffffffffffffffffffffffff1916149050919050565b6117f4816117ef6118d7565b6119c1565b50565b611801828261132f565b6118d357600180600084815260200190815260200160002060000160008373ffffffffffffffffffffffffffffffffffffffff1673ffffffffffffffffffffffffffffffffffffffff16815260200190815260200160002060006101000a81548160ff0219169083151502179055506118786118d7565b73ffffffffffffffffffffffffffffffffffffffff168173ffffffffffffffffffffffffffffffffffffffff16837f2f8788117e7eff1d82e926ec794901d17c78024a50270940304540a733656f0d60405160405180910390a45b5050565b600033905090565b6118e9828261132f565b156119bd5760006001600084815260200190815260200160002060000160008373ffffffffffffffffffffffffffffffffffffffff1673ffffffffffffffffffffffffffffffffffffffff16815260200190815260200160002060006101000a81548160ff0219169083151502179055506119626118d7565b73ffffffffffffffffffffffffffffffffffffffff168173ffffffffffffffffffffffffffffffffffffffff16837ff6391f5c32d9c69d2a47ea670b442974b53935d1edc7fd64eb21e047a839171b60405160405180910390a45b5050565b6119cb828261132f565b611a42576119d881611a46565b6119e68360001c6020611a73565b6040516020016119f792919061301a565b6040516020818303038152906040526040517f08c379a0000000000000000000000000000000000000000000000000000000008152600401611a39919061308d565b60405180910390fd5b5050565b6060611a6c8273ffffffffffffffffffffffffffffffffffffffff16601460ff16611a73565b9050919050565b606060006002836002611a869190612ca6565b611a909190612d00565b67ffffffffffffffff811115611aa957611aa8612504565b5b6040519080825280601f01601f191660200182016040528015611adb5781602001600182028036833780820191505090505b5090507f300000000000000000000000000000000000000000000000000000000000000081600081518110611b1357611b12612dc2565b5b60200101907effffffffffffffffffffffffffffffffffffffffffffffffffffffffffffff1916908160001a9053507f780000000000000000000000000000000000000000000000000000000000000081600181518110611b7757611b76612dc2565b5b60200101907effffffffffffffffffffffffffffffffffffffffffffffffffffffffffffff1916908160001a90535060006001846002611bb79190612ca6565b611bc19190612d00565b90505b6001811115611c61577f3031323334353637383961626364656600000000000000000000000000000000600f861660108110611c0357611c02612dc2565b5b1a60f81b828281518110611c1a57611c19612dc2565b5b60200101907effffffffffffffffffffffffffffffffffffffffffffffffffffffffffffff1916908160001a905350600485901c945080611c5a906130af565b9050611bc4565b5060008414611ca5576040517f08c379a0000000000000000000000000000000000000000000000000000000008152600401611c9c90613125565b60405180910390fd5b8091505092915050565b60405180606001604052806000815260200160608152602001600081525090565b60405180610100016040528060008152602001600081526020016060815260200160608152602001600015158152602001600073ffffffffffffffffffffffffffffffffffffffff168152602001600073ffffffffffffffffffffffffffffffffffffffff168152602001606081525090565b828054611d4f90612bd9565b90600052602060002090601f016020900481019282611d715760008555611db8565b82601f10611d8a57803560ff1916838001178555611db8565b82800160010185558215611db8579182015b82811115611db7578235825591602001919060010190611d9c565b5b509050611dc59190611e4f565b5090565b828054611dd590612bd9565b90600052602060002090601f016020900481019282611df75760008555611e3e565b82601f10611e1057805160ff1916838001178555611e3e565b82800160010185558215611e3e579182015b82811115611e3d578251825591602001919060010190611e22565b5b509050611e4b9190611e4f565b5090565b5b80821115611e68576000816000905550600101611e50565b5090565b6000604051905090565b600080fd5b600080fd5b60007fffffffff0000000000000000000000000000000000000000000000000000000082169050919050565b611eb581611e80565b8114611ec057600080fd5b50565b600081359050611ed281611eac565b92915050565b600060208284031215611eee57611eed611e76565b5b6000611efc84828501611ec3565b91505092915050565b60008115159050919050565b611f1a81611f05565b82525050565b6000602082019050611f356000830184611f11565b92915050565b6000819050919050565b611f4e81611f3b565b8114611f5957600080fd5b50565b600081359050611f6b81611f45565b92915050565b600060208284031215611f8757611f86611e76565b5b6000611f9584828501611f5c565b91505092915050565b600081519050919050565b600082825260208201905092915050565b6000819050602082019050919050565b600073ffffffffffffffffffffffffffffffffffffffff82169050919050565b6000611ff582611fca565b9050919050565b61200581611fea565b82525050565b61201481611f3b565b82525050565b6080820160008201516120306000850182611ffc565b506020820151612043602085018261200b565b506040820151612056604085018261200b565b506060820151612069606085018261200b565b50505050565b600061207b838361201a565b60808301905092915050565b6000602082019050919050565b600061209f82611f9e565b6120a98185611fa9565b93506120b483611fba565b8060005b838110156120e55781516120cc888261206f565b97506120d783612087565b9250506001810190506120b8565b5085935050505092915050565b6000602082019050818103600083015261210c8184612094565b905092915050565b6000819050919050565b61212781612114565b811461213257600080fd5b50565b6000813590506121448161211e565b92915050565b6000602082840312156121605761215f611e76565b5b600061216e84828501612135565b91505092915050565b61218081612114565b82525050565b600060208201905061219b6000830184612177565b92915050565b6121aa81611fea565b81146121b557600080fd5b50565b6000813590506121c7816121a1565b92915050565b600080604083850312156121e4576121e3611e76565b5b60006121f285828601612135565b9250506020612203858286016121b8565b9150509250929050565b600081519050919050565b600082825260208201905092915050565b6000819050602082019050919050565b600081519050919050565b600082825260208201905092915050565b60005b83811015612273578082015181840152602081019050612258565b83811115612282576000848401525b50505050565b6000601f19601f8301169050919050565b60006122a482612239565b6122ae8185612244565b93506122be818560208601612255565b6122c781612288565b840191505092915050565b60006060830160008301516122ea600086018261200b565b50602083015184820360208601526123028282612299565b9150506040830151612317604086018261200b565b508091505092915050565b600061232e83836122d2565b905092915050565b6000602082019050919050565b600061234e8261220d565b6123588185612218565b93508360208202850161236a85612229565b8060005b858110156123a657848403895281516123878582612322565b945061239283612336565b925060208a0199505060018101905061236e565b50829750879550505050505092915050565b600060208201905081810360008301526123d28184612343565b905092915050565b6000806000606084860312156123f3576123f2611e76565b5b600061240186828701611f5c565b935050602061241286828701611f5c565b925050604061242386828701611f5c565b9150509250925092565b6000606083016000830151612445600086018261200b565b506020830151848203602086015261245d8282612299565b9150506040830151612472604086018261200b565b508091505092915050565b60006020820190508181036000830152612497818461242d565b905092915050565b600080fd5b600080fd5b600080fd5b60008083601f8401126124c4576124c361249f565b5b8235905067ffffffffffffffff8111156124e1576124e06124a4565b5b6020830191508360018202830111156124fd576124fc6124a9565b5b9250929050565b7f4e487b7100000000000000000000000000000000000000000000000000000000600052604160045260246000fd5b61253c82612288565b810181811067ffffffffffffffff8211171561255b5761255a612504565b5b80604052505050565b600061256e611e6c565b905061257a8282612533565b919050565b600067ffffffffffffffff82111561259a57612599612504565b5b602082029050602081019050919050565b600080fd5b600067ffffffffffffffff8211156125cb576125ca612504565b5b6125d482612288565b9050602081019050919050565b82818337600083830152505050565b60006126036125fe846125b0565b612564565b90508281526020810184848401111561261f5761261e6125ab565b5b61262a8482856125e1565b509392505050565b600082601f8301126126475761264661249f565b5b81356126578482602086016125f0565b91505092915050565b600061267361266e8461257f565b612564565b90508083825260208201905060208402830185811115612696576126956124a9565b5b835b818110156126dd57803567ffffffffffffffff8111156126bb576126ba61249f565b5b8086016126c88982612632565b85526020850194505050602081019050612698565b5050509392505050565b600082601f8301126126fc576126fb61249f565b5b813561270c848260208601612660565b91505092915050565b60008060008060006060868803121561273157612730611e76565b5b600086013567ffffffffffffffff81111561274f5761274e611e7b565b5b61275b888289016124ae565b9550955050602086013567ffffffffffffffff81111561277e5761277d611e7b565b5b61278a888289016124ae565b9350935050604086013567ffffffffffffffff8111156127ad576127ac611e7b565b5b6127b9888289016126e7565b9150509295509295909350565b6127cf81611f05565b82525050565b600082825260208201905092915050565b60006127f18261220d565b6127fb81856127d5565b93508360208202850161280d85612229565b8060005b85811015612849578484038952815161282a8582612322565b945061283583612336565b925060208a01995050600181019050612811565b50829750879550505050505092915050565b600061010083016000830151612874600086018261200b565b506020830151612887602086018261200b565b506040830151848203604086015261289f8282612299565b915050606083015184820360608601526128b98282612299565b91505060808301516128ce60808601826127c6565b5060a08301516128e160a0860182611ffc565b5060c08301516128f460c0860182611ffc565b5060e083015184820360e086015261290c82826127e6565b9150508091505092915050565b60006020820190508181036000830152612933818461285b565b905092915050565b600081519050919050565b600082825260208201905092915050565b6000819050602082019050919050565b600061010083016000830151612980600086018261200b565b506020830151612993602086018261200b565b50604083015184820360408601526129ab8282612299565b915050606083015184820360608601526129c58282612299565b91505060808301516129da60808601826127c6565b5060a08301516129ed60a0860182611ffc565b5060c0830151612a0060c0860182611ffc565b5060e083015184820360e0860152612a1882826127e6565b9150508091505092915050565b6000612a318383612967565b905092915050565b6000602082019050919050565b6000612a518261293b565b612a5b8185612946565b935083602082028501612a6d85612957565b8060005b85811015612aa95784840389528151612a8a8582612a25565b9450612a9583612a39565b925060208a01995050600181019050612a71565b50829750879550505050505092915050565b60006020820190508181036000830152612ad58184612a46565b905092915050565b612ae681611f3b565b82525050565b6000602082019050612b016000830184612add565b92915050565b600082825260208201905092915050565b7f416363657373436f6e74726f6c3a2063616e206f6e6c792072656e6f756e636560008201527f20726f6c657320666f722073656c660000000000000000000000000000000000602082015250565b6000612b74602f83612b07565b9150612b7f82612b18565b604082019050919050565b60006020820190508181036000830152612ba381612b67565b9050919050565b7f4e487b7100000000000000000000000000000000000000000000000000000000600052602260045260246000fd5b60006002820490506001821680612bf157607f821691505b60208210811415612c0557612c04612baa565b5b50919050565b7f50726f706f73616c206475726174696f6e206578706972656400000000000000600082015250565b6000612c41601983612b07565b9150612c4c82612c0b565b602082019050919050565b60006020820190508181036000830152612c7081612c34565b9050919050565b7f4e487b7100000000000000000000000000000000000000000000000000000000600052601160045260246000fd5b6000612cb182611f3b565b9150612cbc83611f3b565b9250817fffffffffffffffffffffffffffffffffffffffffffffffffffffffffffffffff0483118215151615612cf557612cf4612c77565b5b828202905092915050565b6000612d0b82611f3b565b9150612d1683611f3b565b9250827fffffffffffffffffffffffffffffffffffffffffffffffffffffffffffffffff03821115612d4b57612d4a612c77565b5b828201905092915050565b7f496e73756666696369656e7420746f6b656e7320666f7220616464726573732e600082015250565b6000612d8c602083612b07565b9150612d9782612d56565b602082019050919050565b60006020820190508181036000830152612dbb81612d7f565b9050919050565b7f4e487b7100000000000000000000000000000000000000000000000000000000600052603260045260246000fd5b7f50524f504f53414c5f564f544500000000000000000000000000000000000000600082015250565b6000612e27600d83612b07565b9150612e3282612df1565b602082019050919050565b60006020820190508181036000830152612e5681612e1a565b9050919050565b6000612e6882611f3b565b91507fffffffffffffffffffffffffffffffffffffffffffffffffffffffffffffffff821415612e9b57612e9a612c77565b5b600182019050919050565b7f50524f504f53414c5f5241495345440000000000000000000000000000000000600082015250565b6000612edc600f83612b07565b9150612ee782612ea6565b602082019050919050565b60006020820190508181036000830152612f0b81612ecf565b9050919050565b6000612f1d82611f3b565b9150612f2883611f3b565b925082821015612f3b57612f3a612c77565b5b828203905092915050565b600081905092915050565b7f416363657373436f6e74726f6c3a206163636f756e7420000000000000000000600082015250565b6000612f87601783612f46565b9150612f9282612f51565b601782019050919050565b6000612fa882612239565b612fb28185612f46565b9350612fc2818560208601612255565b80840191505092915050565b7f206973206d697373696e6720726f6c6520000000000000000000000000000000600082015250565b6000613004601183612f46565b915061300f82612fce565b601182019050919050565b600061302582612f7a565b91506130318285612f9d565b915061303c82612ff7565b91506130488284612f9d565b91508190509392505050565b600061305f82612239565b6130698185612b07565b9350613079818560208601612255565b61308281612288565b840191505092915050565b600060208201905081810360008301526130a78184613054565b905092915050565b60006130ba82611f3b565b915060008214156130ce576130cd612c77565b5b600182039050919050565b7f537472696e67733a20686578206c656e67746820696e73756666696369656e74600082015250565b600061310f602083612b07565b915061311a826130d9565b602082019050919050565b6000602082019050818103600083015261313e81613102565b905091905056fea264697066735822122011d2f4b9c6fb1f63dcc3d41ce9679d03a20459b2965f2253756de0a094da5b7064736f6c634300080b0033",
  "immutableReferences": {
    "1730": [
      {
        "length": 32,
        "start": 2840
      }
    ],
    "1733": [
      {
        "length": 32,
        "start": 2173
      },
      {
        "length": 32,
        "start": 5110
      }
    ]
  },
  "source": "// SPDX-License-Identifier: MIT\npragma solidity ^0.8.7;\n\nimport \"@openzeppelin/contracts/access/AccessControl.sol\";\nimport \"@openzeppelin/contracts/security/ReentrancyGuard.sol\";\n\ncontract Election is ReentrancyGuard, AccessControl {\n    uint32 immutable MIN_VOTE_DURATION = 5 minutes;\n    uint256 immutable MAX_TOKENS = 10;\n    uint256 totalProposals;\n\n    struct Candidate {\n        uint256 id;\n        string name;\n        uint256 votes;\n    }\n\n    struct Proposal {\n        uint256 id;\n        uint256 duration;\n        string title;\n        string description;\n        bool ended;\n        address proposer;\n        address executor; // ??\n        Candidate[] candidates;\n    }\n\n    // Vote object to keep track of votes in a proposal\n    struct Vote {\n        address voter;\n        uint256 candidateId;\n        uint256 timestamp;\n        uint256 numVotes;\n    }\n\n    mapping(uint256 => Proposal) private raisedProposals;\n    mapping(address => Vote) private votes; // Keep track of Vote per address\n\n    // Keep track of tokens spent per address for each proposdal\n    mapping(address => mapping(uint256 => uint256)) private tokensSpent;\n\n    // All vote objects for a proposal\n    mapping(uint256 => Vote[]) private votedOn;\n\n    // ??\n    // mapping(address => uint256) private contributors;\n    // mapping(address => uint256) private stakeholders;\n\n    event Action(address indexed initiator, string message);\n\n    function createProposal(\n        string calldata title,\n        string calldata description,\n        string[] memory _candidateNames\n    ) external returns (Proposal memory) {\n        uint256 proposalId = totalProposals++;\n        Proposal storage proposal = raisedProposals[proposalId];\n        proposal.id = proposalId;\n        proposal.title = title;\n        proposal.description = description;\n        proposal.proposer = payable(msg.sender);\n\n        // TODO: Make this variable\n        proposal.duration = block.timestamp + MIN_VOTE_DURATION;\n\n        // Init candidates\n        for (uint256 i = 0; i < _candidateNames.length; i++) {\n            proposal.candidates.push(Candidate(i, _candidateNames[i], 0));\n        }\n\n        emit Action(msg.sender, \"PROPOSAL_RAISED\");\n\n        return proposal;\n    }\n\n    function getProposals() external view returns (Proposal[] memory props) {\n        props = new Proposal[](totalProposals);\n\n        for (uint256 i = 0; i < totalProposals; i++) {\n            props[i] = raisedProposals[i];\n        }\n    }\n\n    function getProposal(\n        uint256 proposalId\n    ) external view returns (Proposal memory) {\n        return raisedProposals[proposalId];\n    }\n\n    // Might be redundant in client code\n    function getCandidates(\n        uint256 proposalId\n    ) public view returns (Candidate[] memory) {\n        return raisedProposals[proposalId].candidates;\n    }\n\n    function getTokensLeftForProposal(\n        uint256 proposalId\n    ) public view returns (uint256) {\n        return MAX_TOKENS - tokensSpent[msg.sender][proposalId];\n    }\n\n    function voteForCandidate(\n        uint256 proposalId,\n        uint256 candidateId,\n        uint256 numVotes\n    ) public returns (Candidate memory) {\n        Proposal storage proposal = raisedProposals[proposalId];\n        Candidate[] memory candidates = proposal.candidates;\n\n        if (proposal.ended || proposal.duration <= block.timestamp) {\n            proposal.ended = true;\n            revert(\"Proposal duration expired\");\n        }\n\n        // Check if msg.sender has enough tokens\n        // TODO: Implement quadratic voiting here\n        uint256 totalNumTokensSpent = tokensSpent[msg.sender][proposalId] +\n            numVotes *\n            1;\n        if (totalNumTokensSpent >= MAX_TOKENS) {\n            revert(\"Insufficient tokens for address.\");\n        }\n\n        // Add vote to candidate\n        proposal.candidates[candidateId].votes += numVotes; // TODO: Implement time decay here\n\n        // proposal.candidates = candidates; // Updated candidates\n\n        // Add vote to Address -> Vote map\n        // votes[msg.sender] = Vote(msg.sender, proposalId, candidateId, block.timestamp);\n        votedOn[proposalId].push(\n            Vote(msg.sender, candidateId, block.timestamp, numVotes)\n        );\n\n        emit Action(msg.sender, \"PROPOSAL_VOTE\");\n\n        // TODO: Should candidate be returned here or vote?\n        return candidates[candidateId];\n    }\n\n    function getVotesOfProposal(\n        uint256 proposalId\n    ) public view returns (Vote[] memory) {\n        return votedOn[proposalId];\n    }\n}\n",
  "sourcePath": "/Users/abdullahmohamed/CodeProjects/DominionDAO_GroundUp/tailwind_truffle_starter_kit/src/contracts/Election.sol",
  "compiler": {
    "name": "solc",
    "version": "0.8.11+commit.d7f03943.Emscripten.clang"
  },
  "schemaVersion": "3.4.16",
  "updatedAt": "2024-04-09T12:02:34.794Z",
  "networkType": "ethereum",
  "devdoc": {
    "kind": "dev",
    "methods": {
      "getRoleAdmin(bytes32)": {
        "details": "Returns the admin role that controls `role`. See {grantRole} and {revokeRole}. To change a role's admin, use {_setRoleAdmin}."
      },
      "grantRole(bytes32,address)": {
        "details": "Grants `role` to `account`. If `account` had not been already granted `role`, emits a {RoleGranted} event. Requirements: - the caller must have ``role``'s admin role. May emit a {RoleGranted} event."
      },
      "hasRole(bytes32,address)": {
        "details": "Returns `true` if `account` has been granted `role`."
      },
      "renounceRole(bytes32,address)": {
        "details": "Revokes `role` from the calling account. Roles are often managed via {grantRole} and {revokeRole}: this function's purpose is to provide a mechanism for accounts to lose their privileges if they are compromised (such as when a trusted device is misplaced). If the calling account had been revoked `role`, emits a {RoleRevoked} event. Requirements: - the caller must be `account`. May emit a {RoleRevoked} event."
      },
      "revokeRole(bytes32,address)": {
        "details": "Revokes `role` from `account`. If `account` had been granted `role`, emits a {RoleRevoked} event. Requirements: - the caller must have ``role``'s admin role. May emit a {RoleRevoked} event."
      },
      "supportsInterface(bytes4)": {
        "details": "See {IERC165-supportsInterface}."
      }
    },
    "version": 1
  },
  "userdoc": {
    "kind": "user",
    "methods": {},
    "version": 1
  }
}