{
  "contractName": "Election",
  "abi": [
    {
      "inputs": [
        {
          "internalType": "contract QuadraNFT",
          "name": "_token",
          "type": "address"
        }
      ],
      "stateMutability": "nonpayable",
      "type": "constructor"
    },
    {
      "anonymous": false,
      "inputs": [
        {
          "indexed": true,
          "internalType": "address",
          "name": "initiator",
          "type": "address"
        },
        {
          "indexed": false,
          "internalType": "string",
          "name": "message",
          "type": "string"
        }
      ],
      "name": "Action",
      "type": "event"
    },
    {
      "anonymous": false,
      "inputs": [
        {
          "indexed": true,
          "internalType": "bytes32",
          "name": "role",
          "type": "bytes32"
        },
        {
          "indexed": true,
          "internalType": "bytes32",
          "name": "previousAdminRole",
          "type": "bytes32"
        },
        {
          "indexed": true,
          "internalType": "bytes32",
          "name": "newAdminRole",
          "type": "bytes32"
        }
      ],
      "name": "RoleAdminChanged",
      "type": "event"
    },
    {
      "anonymous": false,
      "inputs": [
        {
          "indexed": true,
          "internalType": "bytes32",
          "name": "role",
          "type": "bytes32"
        },
        {
          "indexed": true,
          "internalType": "address",
          "name": "account",
          "type": "address"
        },
        {
          "indexed": true,
          "internalType": "address",
          "name": "sender",
          "type": "address"
        }
      ],
      "name": "RoleGranted",
      "type": "event"
    },
    {
      "anonymous": false,
      "inputs": [
        {
          "indexed": true,
          "internalType": "bytes32",
          "name": "role",
          "type": "bytes32"
        },
        {
          "indexed": true,
          "internalType": "address",
          "name": "account",
          "type": "address"
        },
        {
          "indexed": true,
          "internalType": "address",
          "name": "sender",
          "type": "address"
        }
      ],
      "name": "RoleRevoked",
      "type": "event"
    },
    {
      "inputs": [],
      "name": "ADMIN_ROLE",
      "outputs": [
        {
          "internalType": "bytes32",
          "name": "",
          "type": "bytes32"
        }
      ],
      "stateMutability": "view",
      "type": "function",
      "constant": true
    },
    {
      "inputs": [],
      "name": "DEFAULT_ADMIN_ROLE",
      "outputs": [
        {
          "internalType": "bytes32",
          "name": "",
          "type": "bytes32"
        }
      ],
      "stateMutability": "view",
      "type": "function",
      "constant": true
    },
    {
      "inputs": [
        {
          "internalType": "bytes32",
          "name": "role",
          "type": "bytes32"
        }
      ],
      "name": "getRoleAdmin",
      "outputs": [
        {
          "internalType": "bytes32",
          "name": "",
          "type": "bytes32"
        }
      ],
      "stateMutability": "view",
      "type": "function",
      "constant": true
    },
    {
      "inputs": [
        {
          "internalType": "bytes32",
          "name": "role",
          "type": "bytes32"
        },
        {
          "internalType": "address",
          "name": "account",
          "type": "address"
        }
      ],
      "name": "grantRole",
      "outputs": [],
      "stateMutability": "nonpayable",
      "type": "function"
    },
    {
      "inputs": [
        {
          "internalType": "bytes32",
          "name": "role",
          "type": "bytes32"
        },
        {
          "internalType": "address",
          "name": "account",
          "type": "address"
        }
      ],
      "name": "hasRole",
      "outputs": [
        {
          "internalType": "bool",
          "name": "",
          "type": "bool"
        }
      ],
      "stateMutability": "view",
      "type": "function",
      "constant": true
    },
    {
      "inputs": [
        {
          "internalType": "bytes32",
          "name": "role",
          "type": "bytes32"
        },
        {
          "internalType": "address",
          "name": "account",
          "type": "address"
        }
      ],
      "name": "renounceRole",
      "outputs": [],
      "stateMutability": "nonpayable",
      "type": "function"
    },
    {
      "inputs": [
        {
          "internalType": "bytes32",
          "name": "role",
          "type": "bytes32"
        },
        {
          "internalType": "address",
          "name": "account",
          "type": "address"
        }
      ],
      "name": "revokeRole",
      "outputs": [],
      "stateMutability": "nonpayable",
      "type": "function"
    },
    {
      "inputs": [
        {
          "internalType": "bytes4",
          "name": "interfaceId",
          "type": "bytes4"
        }
      ],
      "name": "supportsInterface",
      "outputs": [
        {
          "internalType": "bool",
          "name": "",
          "type": "bool"
        }
      ],
      "stateMutability": "view",
      "type": "function",
      "constant": true
    },
    {
      "inputs": [],
      "name": "token",
      "outputs": [
        {
          "internalType": "contract QuadraNFT",
          "name": "",
          "type": "address"
        }
      ],
      "stateMutability": "view",
      "type": "function",
      "constant": true
    },
    {
      "inputs": [
        {
          "internalType": "address",
          "name": "account",
          "type": "address"
        }
      ],
      "name": "grantAdminRole",
      "outputs": [],
      "stateMutability": "nonpayable",
      "type": "function"
    },
    {
      "inputs": [
        {
          "internalType": "address",
          "name": "account",
          "type": "address"
        }
      ],
      "name": "getVoter",
      "outputs": [
        {
          "components": [
            {
              "internalType": "string",
              "name": "username",
              "type": "string"
            },
            {
              "internalType": "enum Election.VoterStatus",
              "name": "status",
              "type": "uint8"
            },
            {
              "internalType": "uint256",
              "name": "weight",
              "type": "uint256"
            }
          ],
          "internalType": "struct Election.Voter",
          "name": "voter",
          "type": "tuple"
        },
        {
          "internalType": "bool",
          "name": "isAdmin",
          "type": "bool"
        }
      ],
      "stateMutability": "view",
      "type": "function",
      "constant": true
    },
    {
      "inputs": [],
      "name": "applyNFT",
      "outputs": [],
      "stateMutability": "nonpayable",
      "type": "function"
    },
    {
      "inputs": [],
      "name": "getNFTAddress",
      "outputs": [
        {
          "internalType": "address",
          "name": "",
          "type": "address"
        }
      ],
      "stateMutability": "view",
      "type": "function",
      "constant": true
    },
    {
      "inputs": [
        {
          "internalType": "address",
          "name": "_voter",
          "type": "address"
        }
      ],
      "name": "_isStakeholder",
      "outputs": [
        {
          "internalType": "bool",
          "name": "",
          "type": "bool"
        }
      ],
      "stateMutability": "view",
      "type": "function",
      "constant": true
    },
    {
      "inputs": [
        {
          "internalType": "uint256",
          "name": "voted",
          "type": "uint256"
        },
        {
          "internalType": "uint256",
          "name": "new_votes",
          "type": "uint256"
        }
      ],
      "name": "quadraticVote",
      "outputs": [
        {
          "internalType": "uint256",
          "name": "",
          "type": "uint256"
        }
      ],
      "stateMutability": "pure",
      "type": "function",
      "constant": true
    },
    {
      "inputs": [
        {
          "internalType": "string",
          "name": "title",
          "type": "string"
        },
        {
          "internalType": "string",
          "name": "description",
          "type": "string"
        },
        {
          "internalType": "string[]",
          "name": "_candidateNames",
          "type": "string[]"
        }
      ],
      "name": "createProposal",
      "outputs": [
        {
          "components": [
            {
              "internalType": "uint256",
              "name": "id",
              "type": "uint256"
            },
            {
              "internalType": "uint256",
              "name": "duration",
              "type": "uint256"
            },
            {
              "internalType": "string",
              "name": "title",
              "type": "string"
            },
            {
              "internalType": "string",
              "name": "description",
              "type": "string"
            },
            {
              "internalType": "bool",
              "name": "ended",
              "type": "bool"
            },
            {
              "internalType": "address",
              "name": "proposer",
              "type": "address"
            },
            {
              "internalType": "address",
              "name": "executor",
              "type": "address"
            },
            {
              "components": [
                {
                  "internalType": "uint256",
                  "name": "id",
                  "type": "uint256"
                },
                {
                  "internalType": "string",
                  "name": "name",
                  "type": "string"
                },
                {
                  "internalType": "uint256",
                  "name": "votes",
                  "type": "uint256"
                }
              ],
              "internalType": "struct Election.Candidate[]",
              "name": "candidates",
              "type": "tuple[]"
            }
          ],
          "internalType": "struct Election.Proposal",
          "name": "",
          "type": "tuple"
        }
      ],
      "stateMutability": "nonpayable",
      "type": "function"
    },
    {
      "inputs": [],
      "name": "getProposals",
      "outputs": [
        {
          "components": [
            {
              "internalType": "uint256",
              "name": "id",
              "type": "uint256"
            },
            {
              "internalType": "uint256",
              "name": "duration",
              "type": "uint256"
            },
            {
              "internalType": "string",
              "name": "title",
              "type": "string"
            },
            {
              "internalType": "string",
              "name": "description",
              "type": "string"
            },
            {
              "internalType": "bool",
              "name": "ended",
              "type": "bool"
            },
            {
              "internalType": "address",
              "name": "proposer",
              "type": "address"
            },
            {
              "internalType": "address",
              "name": "executor",
              "type": "address"
            },
            {
              "components": [
                {
                  "internalType": "uint256",
                  "name": "id",
                  "type": "uint256"
                },
                {
                  "internalType": "string",
                  "name": "name",
                  "type": "string"
                },
                {
                  "internalType": "uint256",
                  "name": "votes",
                  "type": "uint256"
                }
              ],
              "internalType": "struct Election.Candidate[]",
              "name": "candidates",
              "type": "tuple[]"
            }
          ],
          "internalType": "struct Election.Proposal[]",
          "name": "props",
          "type": "tuple[]"
        }
      ],
      "stateMutability": "view",
      "type": "function",
      "constant": true
    },
    {
      "inputs": [
        {
          "internalType": "uint256",
          "name": "proposalId",
          "type": "uint256"
        }
      ],
      "name": "getProposal",
      "outputs": [
        {
          "components": [
            {
              "internalType": "uint256",
              "name": "id",
              "type": "uint256"
            },
            {
              "internalType": "uint256",
              "name": "duration",
              "type": "uint256"
            },
            {
              "internalType": "string",
              "name": "title",
              "type": "string"
            },
            {
              "internalType": "string",
              "name": "description",
              "type": "string"
            },
            {
              "internalType": "bool",
              "name": "ended",
              "type": "bool"
            },
            {
              "internalType": "address",
              "name": "proposer",
              "type": "address"
            },
            {
              "internalType": "address",
              "name": "executor",
              "type": "address"
            },
            {
              "components": [
                {
                  "internalType": "uint256",
                  "name": "id",
                  "type": "uint256"
                },
                {
                  "internalType": "string",
                  "name": "name",
                  "type": "string"
                },
                {
                  "internalType": "uint256",
                  "name": "votes",
                  "type": "uint256"
                }
              ],
              "internalType": "struct Election.Candidate[]",
              "name": "candidates",
              "type": "tuple[]"
            }
          ],
          "internalType": "struct Election.Proposal",
          "name": "",
          "type": "tuple"
        }
      ],
      "stateMutability": "view",
      "type": "function",
      "constant": true
    },
    {
      "inputs": [
        {
          "internalType": "uint256",
          "name": "proposalId",
          "type": "uint256"
        }
      ],
      "name": "getCandidates",
      "outputs": [
        {
          "components": [
            {
              "internalType": "uint256",
              "name": "id",
              "type": "uint256"
            },
            {
              "internalType": "string",
              "name": "name",
              "type": "string"
            },
            {
              "internalType": "uint256",
              "name": "votes",
              "type": "uint256"
            }
          ],
          "internalType": "struct Election.Candidate[]",
          "name": "",
          "type": "tuple[]"
        }
      ],
      "stateMutability": "view",
      "type": "function",
      "constant": true
    },
    {
      "inputs": [
        {
          "internalType": "uint256",
          "name": "proposalId",
          "type": "uint256"
        }
      ],
      "name": "getTokensLeftForProposal",
      "outputs": [
        {
          "internalType": "uint256",
          "name": "",
          "type": "uint256"
        }
      ],
      "stateMutability": "view",
      "type": "function",
      "constant": true
    },
    {
      "inputs": [
        {
          "internalType": "uint256",
          "name": "proposalId",
          "type": "uint256"
        },
        {
          "internalType": "uint256",
          "name": "candidateId",
          "type": "uint256"
        },
        {
          "internalType": "uint256",
          "name": "numVotes",
          "type": "uint256"
        }
      ],
      "name": "voteForCandidate",
      "outputs": [
        {
          "components": [
            {
              "internalType": "uint256",
              "name": "id",
              "type": "uint256"
            },
            {
              "internalType": "string",
              "name": "name",
              "type": "string"
            },
            {
              "internalType": "uint256",
              "name": "votes",
              "type": "uint256"
            }
          ],
          "internalType": "struct Election.Candidate",
          "name": "",
          "type": "tuple"
        }
      ],
      "stateMutability": "nonpayable",
      "type": "function"
    },
    {
      "inputs": [
        {
          "internalType": "uint256",
          "name": "proposalId",
          "type": "uint256"
        }
      ],
      "name": "getVotesOfProposal",
      "outputs": [
        {
          "components": [
            {
              "internalType": "address",
              "name": "voter",
              "type": "address"
            },
            {
              "internalType": "uint256",
              "name": "candidateId",
              "type": "uint256"
            },
            {
              "internalType": "uint256",
              "name": "timestamp",
              "type": "uint256"
            },
            {
              "internalType": "uint256",
              "name": "numVotes",
              "type": "uint256"
            }
          ],
          "internalType": "struct Election.Vote[]",
          "name": "",
          "type": "tuple[]"
        }
      ],
      "stateMutability": "view",
      "type": "function",
      "constant": true
    }
  ],
  "bytecode": "0x60e06040527fa49807205ce4d355092ef5a8a18f56e8913cf4a201fbe287825b095693c2177560809081525061012c63ffffffff1660a09063ffffffff16815250600a60c0908152503480156200005557600080fd5b50604051620041023803806200410283398181016040528101906200007b919062000519565b600160008190555080600360006101000a81548173ffffffffffffffffffffffffffffffffffffffff021916908373ffffffffffffffffffffffffffffffffffffffff160217905550620000d8608051336200012a60201b60201c565b62000123336040518060400160405280600581526020017f41646d696e000000000000000000000000000000000000000000000000000000815250600160026200021b60201b60201c565b50620005df565b6200013c82826200037860201b60201c565b6200021757600180600084815260200190815260200160002060000160008373ffffffffffffffffffffffffffffffffffffffff1673ffffffffffffffffffffffffffffffffffffffff16815260200190815260200160002060006101000a81548160ff021916908315150217905550620001bc620003e360201b60201c565b73ffffffffffffffffffffffffffffffffffffffff168173ffffffffffffffffffffffffffffffffffffffff16837f2f8788117e7eff1d82e926ec794901d17c78024a50270940304540a733656f0d60405160405180910390a45b5050565b600060028111156200023257620002316200054b565b5b600760008673ffffffffffffffffffffffffffffffffffffffff1673ffffffffffffffffffffffffffffffffffffffff16815260200190815260200160002060010160009054906101000a900460ff1660028111156200029757620002966200054b565b5b14620002a35762000372565b6040518060600160405280848152602001826002811115620002ca57620002c96200054b565b5b815260200183815250600760008673ffffffffffffffffffffffffffffffffffffffff1673ffffffffffffffffffffffffffffffffffffffff168152602001908152602001600020600082015181600001908051906020019062000330929190620003eb565b5060208201518160010160006101000a81548160ff021916908360028111156200035f576200035e6200054b565b5b0217905550604082015181600201559050505b50505050565b60006001600084815260200190815260200160002060000160008373ffffffffffffffffffffffffffffffffffffffff1673ffffffffffffffffffffffffffffffffffffffff16815260200190815260200160002060009054906101000a900460ff16905092915050565b600033905090565b828054620003f990620005a9565b90600052602060002090601f0160209004810192826200041d576000855562000469565b82601f106200043857805160ff191683800117855562000469565b8280016001018555821562000469579182015b82811115620004685782518255916020019190600101906200044b565b5b5090506200047891906200047c565b5090565b5b80821115620004975760008160009055506001016200047d565b5090565b600080fd5b600073ffffffffffffffffffffffffffffffffffffffff82169050919050565b6000620004cd82620004a0565b9050919050565b6000620004e182620004c0565b9050919050565b620004f381620004d4565b8114620004ff57600080fd5b50565b6000815190506200051381620004e8565b92915050565b6000602082840312156200053257620005316200049b565b5b6000620005428482850162000502565b91505092915050565b7f4e487b7100000000000000000000000000000000000000000000000000000000600052602160045260246000fd5b7f4e487b7100000000000000000000000000000000000000000000000000000000600052602260045260246000fd5b60006002820490506001821680620005c257607f821691505b60208210811415620005d957620005d86200057a565b5b50919050565b60805160a05160c051613ad76200062b60003960008181610b9b015261179a01526000610e3601526000818161164f015281816117f6015281816118230152611cb00152613ad76000f3fe608060405234801561001057600080fd5b50600436106101425760003560e01c8063829a0ade116100b8578063c634b78e1161007c578063c634b78e146103b1578063c7f758a8146103cd578063d4f50f98146103fd578063d547741f1461042e578063e5ff6bc81461044a578063fc0c546a1461047a57610142565b8063829a0ade146102e557806391d1485414610315578063a217fddf14610345578063b32f148614610363578063b96184781461039357610142565b80633a6a137b1161010a5780633a6a137b1461020f5780633e39a7a514610219578063417d14cb146102495780634724c40c1461027957806362564c48146102a957806375b238fc146102c757610142565b806301ffc9a714610147578063075bb58914610177578063248a9ca3146101a75780632f2ff15d146101d757806336568abe146101f3575b600080fd5b610161600480360381019061015c919061257e565b610498565b60405161016e91906125c6565b60405180910390f35b610191600480360381019061018c9190612617565b610512565b60405161019e9190612798565b60405180910390f35b6101c160048036038101906101bc91906127f0565b6105f8565b6040516101ce919061282c565b60405180910390f35b6101f160048036038101906101ec9190612873565b610618565b005b61020d60048036038101906102089190612873565b610639565b005b6102176106bc565b005b610233600480360381019061022e9190612617565b610871565b6040516102409190612a5e565b60405180910390f35b610263600480360381019061025e9190612a80565b61098c565b6040516102709190612b23565b60405180910390f35b610293600480360381019061028e9190612dbb565b610d86565b6040516102a09190612fbf565b60405180910390f35b6102b161128e565b6040516102be9190613161565b60405180910390f35b6102cf61164d565b6040516102dc919061282c565b60405180910390f35b6102ff60048036038101906102fa9190613183565b611671565b60405161030c91906131d2565b60405180910390f35b61032f600480360381019061032a9190612873565b6116d3565b60405161033c91906125c6565b60405180910390f35b61034d61173e565b60405161035a919061282c565b60405180910390f35b61037d60048036038101906103789190612617565b611745565b60405161038a91906131d2565b60405180910390f35b61039b6117ca565b6040516103a891906131fc565b60405180910390f35b6103cb60048036038101906103c69190613217565b6117f4565b005b6103e760048036038101906103e29190612617565b61184c565b6040516103f49190612fbf565b60405180910390f35b61041760048036038101906104129190613217565b611b7e565b60405161042592919061330b565b60405180910390f35b61044860048036038101906104439190612873565b611ced565b005b610464600480360381019061045f9190613217565b611d0e565b60405161047191906125c6565b60405180910390f35b610482611dc6565b60405161048f919061339a565b60405180910390f35b60007f7965db0b000000000000000000000000000000000000000000000000000000007bffffffffffffffffffffffffffffffffffffffffffffffffffffffff1916827bffffffffffffffffffffffffffffffffffffffffffffffffffffffff1916148061050b575061050a82611dec565b5b9050919050565b606060086000838152602001908152602001600020805480602002602001604051908101604052809291908181526020016000905b828210156105ed57838290600052602060002090600402016040518060800160405290816000820160009054906101000a900473ffffffffffffffffffffffffffffffffffffffff1673ffffffffffffffffffffffffffffffffffffffff1673ffffffffffffffffffffffffffffffffffffffff168152602001600182015481526020016002820154815260200160038201548152505081526020019060010190610547565b505050509050919050565b600060016000838152602001908152602001600020600101549050919050565b610621826105f8565b61062a81611e56565b6106348383611e6a565b505050565b610641611f4a565b73ffffffffffffffffffffffffffffffffffffffff168173ffffffffffffffffffffffffffffffffffffffff16146106ae576040517f08c379a00000000000000000000000000000000000000000000000000000000081526004016106a590613438565b60405180910390fd5b6106b88282611f52565b5050565b600060028111156106d0576106cf613244565b5b600760003373ffffffffffffffffffffffffffffffffffffffff1673ffffffffffffffffffffffffffffffffffffffff16815260200190815260200160002060010160009054906101000a900460ff16600281111561073257610731613244565b5b14610772576040517f08c379a0000000000000000000000000000000000000000000000000000000008152600401610769906134a4565b60405180910390fd5b60405180606001604052806040518060400160405280600981526020017f416e6f6e796d6f757300000000000000000000000000000000000000000000008152508152602001600160028111156107cc576107cb613244565b5b81526020016001815250600760003373ffffffffffffffffffffffffffffffffffffffff1673ffffffffffffffffffffffffffffffffffffffff1681526020019081526020016000206000820151816000019080519060200190610831929190612322565b5060208201518160010160006101000a81548160ff0219169083600281111561085d5761085c613244565b5b021790555060408201518160020155905050565b606060046000838152602001908152602001600020600601805480602002602001604051908101604052809291908181526020016000905b828210156109815783829060005260206000209060030201604051806060016040529081600082015481526020016001820180546108e6906134f3565b80601f0160208091040260200160405190810160405280929190818152602001828054610912906134f3565b801561095f5780601f106109345761010080835404028352916020019161095f565b820191906000526020600020905b81548152906001019060200180831161094257829003601f168201915b50505050508152602001600282015481525050815260200190600101906108a9565b505050509050919050565b6109946123a8565b6000600460008681526020019081526020016000209050600081600601805480602002602001604051908101604052809291908181526020016000905b82821015610aa9578382906000526020600020906003020160405180606001604052908160008201548152602001600182018054610a0e906134f3565b80601f0160208091040260200160405190810160405280929190818152602001828054610a3a906134f3565b8015610a875780601f10610a5c57610100808354040283529160200191610a87565b820191906000526020600020905b815481529060010190602001808311610a6a57829003601f168201915b50505050508152602001600282015481525050815260200190600101906109d1565b5050505090508160040160009054906101000a900460ff1680610ad0575042826001015411155b15610b2d5760018260040160006101000a81548160ff0219169083151502179055506040517f08c379a0000000000000000000000000000000000000000000000000000000008152600401610b2490613571565b60405180910390fd5b6000600185610b3c91906135c0565b600660003373ffffffffffffffffffffffffffffffffffffffff1673ffffffffffffffffffffffffffffffffffffffff168152602001908152602001600020600089815260200190815260200160002054610b97919061361a565b90507f00000000000000000000000000000000000000000000000000000000000000008110610bfb576040517f08c379a0000000000000000000000000000000000000000000000000000000008152600401610bf2906136bc565b60405180910390fd5b84836006018781548110610c1257610c116136dc565b5b90600052602060002090600302016002016000828254610c32919061361a565b925050819055506008600088815260200190815260200160002060405180608001604052803373ffffffffffffffffffffffffffffffffffffffff16815260200188815260200142815260200187815250908060018154018082558091505060019003906000526020600020906004020160009091909190915060008201518160000160006101000a81548173ffffffffffffffffffffffffffffffffffffffff021916908373ffffffffffffffffffffffffffffffffffffffff16021790555060208201518160010155604082015181600201556060820151816003015550503373ffffffffffffffffffffffffffffffffffffffff167fa6f6fe9139f021af0f5a3b1c2eca6a1c371d77c4c99fdf2be0a2fdbd215baa8d604051610d5790613757565b60405180910390a2818681518110610d7257610d716136dc565b5b602002602001015193505050509392505050565b610d8e6123c9565b600060026000815480929190610da390613777565b91905055905060006004600083815260200190815260200160002090508181600001819055508787826002019190610ddc92919061243c565b508585826003019190610df092919061243c565b50338160040160016101000a81548173ffffffffffffffffffffffffffffffffffffffff021916908373ffffffffffffffffffffffffffffffffffffffff1602179055507f000000000000000000000000000000000000000000000000000000000000000063ffffffff1642610e66919061361a565b816001018190555060005b8451811015610f2357816006016040518060600160405280838152602001878481518110610ea257610ea16136dc565b5b6020026020010151815260200160008152509080600181540180825580915050600190039060005260206000209060030201600090919091909150600082015181600001556020820151816001019080519060200190610f03929190612322565b506040820151816002015550508080610f1b90613777565b915050610e71565b503373ffffffffffffffffffffffffffffffffffffffff167fa6f6fe9139f021af0f5a3b1c2eca6a1c371d77c4c99fdf2be0a2fdbd215baa8d604051610f689061380c565b60405180910390a280604051806101000160405290816000820154815260200160018201548152602001600282018054610fa1906134f3565b80601f0160208091040260200160405190810160405280929190818152602001828054610fcd906134f3565b801561101a5780601f10610fef5761010080835404028352916020019161101a565b820191906000526020600020905b815481529060010190602001808311610ffd57829003601f168201915b50505050508152602001600382018054611033906134f3565b80601f016020809104026020016040519081016040528092919081815260200182805461105f906134f3565b80156110ac5780601f10611081576101008083540402835291602001916110ac565b820191906000526020600020905b81548152906001019060200180831161108f57829003601f168201915b505050505081526020016004820160009054906101000a900460ff161515151581526020016004820160019054906101000a900473ffffffffffffffffffffffffffffffffffffffff1673ffffffffffffffffffffffffffffffffffffffff1673ffffffffffffffffffffffffffffffffffffffff1681526020016005820160009054906101000a900473ffffffffffffffffffffffffffffffffffffffff1673ffffffffffffffffffffffffffffffffffffffff1673ffffffffffffffffffffffffffffffffffffffff16815260200160068201805480602002602001604051908101604052809291908181526020016000905b828210156112795783829060005260206000209060030201604051806060016040529081600082015481526020016001820180546111de906134f3565b80601f016020809104026020016040519081016040528092919081815260200182805461120a906134f3565b80156112575780601f1061122c57610100808354040283529160200191611257565b820191906000526020600020905b81548152906001019060200180831161123a57829003601f168201915b50505050508152602001600282015481525050815260200190600101906111a1565b50505050815250509250505095945050505050565b606060025467ffffffffffffffff8111156112ac576112ab612baa565b5b6040519080825280602002602001820160405280156112e557816020015b6112d26123c9565b8152602001906001900390816112ca5790505b50905060005b6002548110156116495760046000828152602001908152602001600020604051806101000160405290816000820154815260200160018201548152602001600282018054611338906134f3565b80601f0160208091040260200160405190810160405280929190818152602001828054611364906134f3565b80156113b15780601f10611386576101008083540402835291602001916113b1565b820191906000526020600020905b81548152906001019060200180831161139457829003601f168201915b505050505081526020016003820180546113ca906134f3565b80601f01602080910402602001604051908101604052809291908181526020018280546113f6906134f3565b80156114435780601f1061141857610100808354040283529160200191611443565b820191906000526020600020905b81548152906001019060200180831161142657829003601f168201915b505050505081526020016004820160009054906101000a900460ff161515151581526020016004820160019054906101000a900473ffffffffffffffffffffffffffffffffffffffff1673ffffffffffffffffffffffffffffffffffffffff1673ffffffffffffffffffffffffffffffffffffffff1681526020016005820160009054906101000a900473ffffffffffffffffffffffffffffffffffffffff1673ffffffffffffffffffffffffffffffffffffffff1673ffffffffffffffffffffffffffffffffffffffff16815260200160068201805480602002602001604051908101604052809291908181526020016000905b82821015611610578382906000526020600020906003020160405180606001604052908160008201548152602001600182018054611575906134f3565b80601f01602080910402602001604051908101604052809291908181526020018280546115a1906134f3565b80156115ee5780601f106115c3576101008083540402835291602001916115ee565b820191906000526020600020905b8154815290600101906020018083116115d157829003601f168201915b5050505050815260200160028201548152505081526020019060010190611538565b505050508152505082828151811061162b5761162a6136dc565b5b6020026020010181905250808061164190613777565b9150506112eb565b5090565b7f000000000000000000000000000000000000000000000000000000000000000081565b600080600090506000600190505b8381116116c8578085611692919061361a565b818661169e919061361a565b6116a891906135c0565b826116b3919061361a565b915080806116c090613777565b91505061167f565b508091505092915050565b60006001600084815260200190815260200160002060000160008373ffffffffffffffffffffffffffffffffffffffff1673ffffffffffffffffffffffffffffffffffffffff16815260200190815260200160002060009054906101000a900460ff16905092915050565b6000801b81565b6000600660003373ffffffffffffffffffffffffffffffffffffffff1673ffffffffffffffffffffffffffffffffffffffff1681526020019081526020016000206000838152602001908152602001600020547f00000000000000000000000000000000000000000000000000000000000000006117c3919061382c565b9050919050565b6000600360009054906101000a900473ffffffffffffffffffffffffffffffffffffffff16905090565b7f000000000000000000000000000000000000000000000000000000000000000061181e81611e56565b6118487f000000000000000000000000000000000000000000000000000000000000000083611e6a565b5050565b6118546123c9565b60046000838152602001908152602001600020604051806101000160405290816000820154815260200160018201548152602001600282018054611897906134f3565b80601f01602080910402602001604051908101604052809291908181526020018280546118c3906134f3565b80156119105780601f106118e557610100808354040283529160200191611910565b820191906000526020600020905b8154815290600101906020018083116118f357829003601f168201915b50505050508152602001600382018054611929906134f3565b80601f0160208091040260200160405190810160405280929190818152602001828054611955906134f3565b80156119a25780601f10611977576101008083540402835291602001916119a2565b820191906000526020600020905b81548152906001019060200180831161198557829003601f168201915b505050505081526020016004820160009054906101000a900460ff161515151581526020016004820160019054906101000a900473ffffffffffffffffffffffffffffffffffffffff1673ffffffffffffffffffffffffffffffffffffffff1673ffffffffffffffffffffffffffffffffffffffff1681526020016005820160009054906101000a900473ffffffffffffffffffffffffffffffffffffffff1673ffffffffffffffffffffffffffffffffffffffff1673ffffffffffffffffffffffffffffffffffffffff16815260200160068201805480602002602001604051908101604052809291908181526020016000905b82821015611b6f578382906000526020600020906003020160405180606001604052908160008201548152602001600182018054611ad4906134f3565b80601f0160208091040260200160405190810160405280929190818152602001828054611b00906134f3565b8015611b4d5780601f10611b2257610100808354040283529160200191611b4d565b820191906000526020600020905b815481529060010190602001808311611b3057829003601f168201915b5050505050815260200160028201548152505081526020019060010190611a97565b50505050815250509050919050565b611b866124c2565b6000600760008473ffffffffffffffffffffffffffffffffffffffff1673ffffffffffffffffffffffffffffffffffffffff168152602001908152602001600020604051806060016040529081600082018054611be2906134f3565b80601f0160208091040260200160405190810160405280929190818152602001828054611c0e906134f3565b8015611c5b5780601f10611c3057610100808354040283529160200191611c5b565b820191906000526020600020905b815481529060010190602001808311611c3e57829003601f168201915b505050505081526020016001820160009054906101000a900460ff166002811115611c8957611c88613244565b5b6002811115611c9b57611c9a613244565b5b81526020016002820154815250509150611cd57f0000000000000000000000000000000000000000000000000000000000000000846116d3565b15611ce35760019050611ce8565b600090505b915091565b611cf6826105f8565b611cff81611e56565b611d098383611f52565b505050565b600080600360009054906101000a900473ffffffffffffffffffffffffffffffffffffffff1673ffffffffffffffffffffffffffffffffffffffff166370a08231846040518263ffffffff1660e01b8152600401611d6c91906131fc565b602060405180830381865afa158015611d89573d6000803e3d6000fd5b505050506040513d601f19601f82011682018060405250810190611dad9190613875565b1115611dbc5760019050611dc1565b600090505b919050565b600360009054906101000a900473ffffffffffffffffffffffffffffffffffffffff1681565b60007f01ffc9a7000000000000000000000000000000000000000000000000000000007bffffffffffffffffffffffffffffffffffffffffffffffffffffffff1916827bffffffffffffffffffffffffffffffffffffffffffffffffffffffff1916149050919050565b611e6781611e62611f4a565b612034565b50565b611e7482826116d3565b611f4657600180600084815260200190815260200160002060000160008373ffffffffffffffffffffffffffffffffffffffff1673ffffffffffffffffffffffffffffffffffffffff16815260200190815260200160002060006101000a81548160ff021916908315150217905550611eeb611f4a565b73ffffffffffffffffffffffffffffffffffffffff168173ffffffffffffffffffffffffffffffffffffffff16837f2f8788117e7eff1d82e926ec794901d17c78024a50270940304540a733656f0d60405160405180910390a45b5050565b600033905090565b611f5c82826116d3565b156120305760006001600084815260200190815260200160002060000160008373ffffffffffffffffffffffffffffffffffffffff1673ffffffffffffffffffffffffffffffffffffffff16815260200190815260200160002060006101000a81548160ff021916908315150217905550611fd5611f4a565b73ffffffffffffffffffffffffffffffffffffffff168173ffffffffffffffffffffffffffffffffffffffff16837ff6391f5c32d9c69d2a47ea670b442974b53935d1edc7fd64eb21e047a839171b60405160405180910390a45b5050565b61203e82826116d3565b6120b55761204b816120b9565b6120598360001c60206120e6565b60405160200161206a929190613976565b6040516020818303038152906040526040517f08c379a00000000000000000000000000000000000000000000000000000000081526004016120ac91906139e9565b60405180910390fd5b5050565b60606120df8273ffffffffffffffffffffffffffffffffffffffff16601460ff166120e6565b9050919050565b6060600060028360026120f991906135c0565b612103919061361a565b67ffffffffffffffff81111561211c5761211b612baa565b5b6040519080825280601f01601f19166020018201604052801561214e5781602001600182028036833780820191505090505b5090507f300000000000000000000000000000000000000000000000000000000000000081600081518110612186576121856136dc565b5b60200101907effffffffffffffffffffffffffffffffffffffffffffffffffffffffffffff1916908160001a9053507f7800000000000000000000000000000000000000000000000000000000000000816001815181106121ea576121e96136dc565b5b60200101907effffffffffffffffffffffffffffffffffffffffffffffffffffffffffffff1916908160001a9053506000600184600261222a91906135c0565b612234919061361a565b90505b60018111156122d4577f3031323334353637383961626364656600000000000000000000000000000000600f861660108110612276576122756136dc565b5b1a60f81b82828151811061228d5761228c6136dc565b5b60200101907effffffffffffffffffffffffffffffffffffffffffffffffffffffffffffff1916908160001a905350600485901c9450806122cd90613a0b565b9050612237565b5060008414612318576040517f08c379a000000000000000000000000000000000000000000000000000000000815260040161230f90613a81565b60405180910390fd5b8091505092915050565b82805461232e906134f3565b90600052602060002090601f0160209004810192826123505760008555612397565b82601f1061236957805160ff1916838001178555612397565b82800160010185558215612397579182015b8281111561239657825182559160200191906001019061237b565b5b5090506123a491906124f5565b5090565b60405180606001604052806000815260200160608152602001600081525090565b60405180610100016040528060008152602001600081526020016060815260200160608152602001600015158152602001600073ffffffffffffffffffffffffffffffffffffffff168152602001600073ffffffffffffffffffffffffffffffffffffffff168152602001606081525090565b828054612448906134f3565b90600052602060002090601f01602090048101928261246a57600085556124b1565b82601f1061248357803560ff19168380011785556124b1565b828001600101855582156124b1579182015b828111156124b0578235825591602001919060010190612495565b5b5090506124be91906124f5565b5090565b604051806060016040528060608152602001600060028111156124e8576124e7613244565b5b8152602001600081525090565b5b8082111561250e5760008160009055506001016124f6565b5090565b6000604051905090565b600080fd5b600080fd5b60007fffffffff0000000000000000000000000000000000000000000000000000000082169050919050565b61255b81612526565b811461256657600080fd5b50565b60008135905061257881612552565b92915050565b6000602082840312156125945761259361251c565b5b60006125a284828501612569565b91505092915050565b60008115159050919050565b6125c0816125ab565b82525050565b60006020820190506125db60008301846125b7565b92915050565b6000819050919050565b6125f4816125e1565b81146125ff57600080fd5b50565b600081359050612611816125eb565b92915050565b60006020828403121561262d5761262c61251c565b5b600061263b84828501612602565b91505092915050565b600081519050919050565b600082825260208201905092915050565b6000819050602082019050919050565b600073ffffffffffffffffffffffffffffffffffffffff82169050919050565b600061269b82612670565b9050919050565b6126ab81612690565b82525050565b6126ba816125e1565b82525050565b6080820160008201516126d660008501826126a2565b5060208201516126e960208501826126b1565b5060408201516126fc60408501826126b1565b50606082015161270f60608501826126b1565b50505050565b600061272183836126c0565b60808301905092915050565b6000602082019050919050565b600061274582612644565b61274f818561264f565b935061275a83612660565b8060005b8381101561278b5781516127728882612715565b975061277d8361272d565b92505060018101905061275e565b5085935050505092915050565b600060208201905081810360008301526127b2818461273a565b905092915050565b6000819050919050565b6127cd816127ba565b81146127d857600080fd5b50565b6000813590506127ea816127c4565b92915050565b6000602082840312156128065761280561251c565b5b6000612814848285016127db565b91505092915050565b612826816127ba565b82525050565b6000602082019050612841600083018461281d565b92915050565b61285081612690565b811461285b57600080fd5b50565b60008135905061286d81612847565b92915050565b6000806040838503121561288a5761288961251c565b5b6000612898858286016127db565b92505060206128a98582860161285e565b9150509250929050565b600081519050919050565b600082825260208201905092915050565b6000819050602082019050919050565b600081519050919050565b600082825260208201905092915050565b60005b838110156129195780820151818401526020810190506128fe565b83811115612928576000848401525b50505050565b6000601f19601f8301169050919050565b600061294a826128df565b61295481856128ea565b93506129648185602086016128fb565b61296d8161292e565b840191505092915050565b600060608301600083015161299060008601826126b1565b50602083015184820360208601526129a8828261293f565b91505060408301516129bd60408601826126b1565b508091505092915050565b60006129d48383612978565b905092915050565b6000602082019050919050565b60006129f4826128b3565b6129fe81856128be565b935083602082028501612a10856128cf565b8060005b85811015612a4c5784840389528151612a2d85826129c8565b9450612a38836129dc565b925060208a01995050600181019050612a14565b50829750879550505050505092915050565b60006020820190508181036000830152612a7881846129e9565b905092915050565b600080600060608486031215612a9957612a9861251c565b5b6000612aa786828701612602565b9350506020612ab886828701612602565b9250506040612ac986828701612602565b9150509250925092565b6000606083016000830151612aeb60008601826126b1565b5060208301518482036020860152612b03828261293f565b9150506040830151612b1860408601826126b1565b508091505092915050565b60006020820190508181036000830152612b3d8184612ad3565b905092915050565b600080fd5b600080fd5b600080fd5b60008083601f840112612b6a57612b69612b45565b5b8235905067ffffffffffffffff811115612b8757612b86612b4a565b5b602083019150836001820283011115612ba357612ba2612b4f565b5b9250929050565b7f4e487b7100000000000000000000000000000000000000000000000000000000600052604160045260246000fd5b612be28261292e565b810181811067ffffffffffffffff82111715612c0157612c00612baa565b5b80604052505050565b6000612c14612512565b9050612c208282612bd9565b919050565b600067ffffffffffffffff821115612c4057612c3f612baa565b5b602082029050602081019050919050565b600080fd5b600067ffffffffffffffff821115612c7157612c70612baa565b5b612c7a8261292e565b9050602081019050919050565b82818337600083830152505050565b6000612ca9612ca484612c56565b612c0a565b905082815260208101848484011115612cc557612cc4612c51565b5b612cd0848285612c87565b509392505050565b600082601f830112612ced57612cec612b45565b5b8135612cfd848260208601612c96565b91505092915050565b6000612d19612d1484612c25565b612c0a565b90508083825260208201905060208402830185811115612d3c57612d3b612b4f565b5b835b81811015612d8357803567ffffffffffffffff811115612d6157612d60612b45565b5b808601612d6e8982612cd8565b85526020850194505050602081019050612d3e565b5050509392505050565b600082601f830112612da257612da1612b45565b5b8135612db2848260208601612d06565b91505092915050565b600080600080600060608688031215612dd757612dd661251c565b5b600086013567ffffffffffffffff811115612df557612df4612521565b5b612e0188828901612b54565b9550955050602086013567ffffffffffffffff811115612e2457612e23612521565b5b612e3088828901612b54565b9350935050604086013567ffffffffffffffff811115612e5357612e52612521565b5b612e5f88828901612d8d565b9150509295509295909350565b612e75816125ab565b82525050565b600082825260208201905092915050565b6000612e97826128b3565b612ea18185612e7b565b935083602082028501612eb3856128cf565b8060005b85811015612eef5784840389528151612ed085826129c8565b9450612edb836129dc565b925060208a01995050600181019050612eb7565b50829750879550505050505092915050565b600061010083016000830151612f1a60008601826126b1565b506020830151612f2d60208601826126b1565b5060408301518482036040860152612f45828261293f565b91505060608301518482036060860152612f5f828261293f565b9150506080830151612f746080860182612e6c565b5060a0830151612f8760a08601826126a2565b5060c0830151612f9a60c08601826126a2565b5060e083015184820360e0860152612fb28282612e8c565b9150508091505092915050565b60006020820190508181036000830152612fd98184612f01565b905092915050565b600081519050919050565b600082825260208201905092915050565b6000819050602082019050919050565b60006101008301600083015161302660008601826126b1565b50602083015161303960208601826126b1565b5060408301518482036040860152613051828261293f565b9150506060830151848203606086015261306b828261293f565b91505060808301516130806080860182612e6c565b5060a083015161309360a08601826126a2565b5060c08301516130a660c08601826126a2565b5060e083015184820360e08601526130be8282612e8c565b9150508091505092915050565b60006130d7838361300d565b905092915050565b6000602082019050919050565b60006130f782612fe1565b6131018185612fec565b93508360208202850161311385612ffd565b8060005b8581101561314f578484038952815161313085826130cb565b945061313b836130df565b925060208a01995050600181019050613117565b50829750879550505050505092915050565b6000602082019050818103600083015261317b81846130ec565b905092915050565b6000806040838503121561319a5761319961251c565b5b60006131a885828601612602565b92505060206131b985828601612602565b9150509250929050565b6131cc816125e1565b82525050565b60006020820190506131e760008301846131c3565b92915050565b6131f681612690565b82525050565b600060208201905061321160008301846131ed565b92915050565b60006020828403121561322d5761322c61251c565b5b600061323b8482850161285e565b91505092915050565b7f4e487b7100000000000000000000000000000000000000000000000000000000600052602160045260246000fd5b6003811061328457613283613244565b5b50565b600081905061329582613273565b919050565b60006132a582613287565b9050919050565b6132b58161329a565b82525050565b600060608301600083015184820360008601526132d8828261293f565b91505060208301516132ed60208601826132ac565b50604083015161330060408601826126b1565b508091505092915050565b6000604082019050818103600083015261332581856132bb565b905061333460208301846125b7565b9392505050565b6000819050919050565b600061336061335b61335684612670565b61333b565b612670565b9050919050565b600061337282613345565b9050919050565b600061338482613367565b9050919050565b61339481613379565b82525050565b60006020820190506133af600083018461338b565b92915050565b600082825260208201905092915050565b7f416363657373436f6e74726f6c3a2063616e206f6e6c792072656e6f756e636560008201527f20726f6c657320666f722073656c660000000000000000000000000000000000602082015250565b6000613422602f836133b5565b915061342d826133c6565b604082019050919050565b6000602082019050818103600083015261345181613415565b9050919050565b7f5573657220616c72656164792072656769737465726564000000000000000000600082015250565b600061348e6017836133b5565b915061349982613458565b602082019050919050565b600060208201905081810360008301526134bd81613481565b9050919050565b7f4e487b7100000000000000000000000000000000000000000000000000000000600052602260045260246000fd5b6000600282049050600182168061350b57607f821691505b6020821081141561351f5761351e6134c4565b5b50919050565b7f50726f706f73616c206475726174696f6e206578706972656400000000000000600082015250565b600061355b6019836133b5565b915061356682613525565b602082019050919050565b6000602082019050818103600083015261358a8161354e565b9050919050565b7f4e487b7100000000000000000000000000000000000000000000000000000000600052601160045260246000fd5b60006135cb826125e1565b91506135d6836125e1565b9250817fffffffffffffffffffffffffffffffffffffffffffffffffffffffffffffffff048311821515161561360f5761360e613591565b5b828202905092915050565b6000613625826125e1565b9150613630836125e1565b9250827fffffffffffffffffffffffffffffffffffffffffffffffffffffffffffffffff0382111561366557613664613591565b5b828201905092915050565b7f496e73756666696369656e7420746f6b656e7320666f7220616464726573732e600082015250565b60006136a66020836133b5565b91506136b182613670565b602082019050919050565b600060208201905081810360008301526136d581613699565b9050919050565b7f4e487b7100000000000000000000000000000000000000000000000000000000600052603260045260246000fd5b7f50524f504f53414c5f564f544500000000000000000000000000000000000000600082015250565b6000613741600d836133b5565b915061374c8261370b565b602082019050919050565b6000602082019050818103600083015261377081613734565b9050919050565b6000613782826125e1565b91507fffffffffffffffffffffffffffffffffffffffffffffffffffffffffffffffff8214156137b5576137b4613591565b5b600182019050919050565b7f50524f504f53414c5f5241495345440000000000000000000000000000000000600082015250565b60006137f6600f836133b5565b9150613801826137c0565b602082019050919050565b60006020820190508181036000830152613825816137e9565b9050919050565b6000613837826125e1565b9150613842836125e1565b92508282101561385557613854613591565b5b828203905092915050565b60008151905061386f816125eb565b92915050565b60006020828403121561388b5761388a61251c565b5b600061389984828501613860565b91505092915050565b600081905092915050565b7f416363657373436f6e74726f6c3a206163636f756e7420000000000000000000600082015250565b60006138e36017836138a2565b91506138ee826138ad565b601782019050919050565b6000613904826128df565b61390e81856138a2565b935061391e8185602086016128fb565b80840191505092915050565b7f206973206d697373696e6720726f6c6520000000000000000000000000000000600082015250565b60006139606011836138a2565b915061396b8261392a565b601182019050919050565b6000613981826138d6565b915061398d82856138f9565b915061399882613953565b91506139a482846138f9565b91508190509392505050565b60006139bb826128df565b6139c581856133b5565b93506139d58185602086016128fb565b6139de8161292e565b840191505092915050565b60006020820190508181036000830152613a0381846139b0565b905092915050565b6000613a16826125e1565b91506000821415613a2a57613a29613591565b5b600182039050919050565b7f537472696e67733a20686578206c656e67746820696e73756666696369656e74600082015250565b6000613a6b6020836133b5565b9150613a7682613a35565b602082019050919050565b60006020820190508181036000830152613a9a81613a5e565b905091905056fea2646970667358221220756916d36ea2b27e0f3db6b4dcc9888d6897f7b3a04a9fc7c7e8ef5ee385c67364736f6c634300080b0033",
  "immutableReferences": {
    "8856": [
      {
        "length": 32,
        "start": 5711
      },
      {
        "length": 32,
        "start": 6134
      },
      {
        "length": 32,
        "start": 6179
      },
      {
        "length": 32,
        "start": 7344
      }
    ],
    "8859": [
      {
        "length": 32,
        "start": 3638
      }
    ],
    "8862": [
      {
        "length": 32,
        "start": 2971
      },
      {
        "length": 32,
        "start": 6042
      }
    ]
  },
  "source": "// SPDX-License-Identifier: MIT\r\npragma solidity ^0.8.7;\r\n\r\nimport \"@openzeppelin/contracts/access/AccessControl.sol\";\r\nimport \"@openzeppelin/contracts/security/ReentrancyGuard.sol\";\r\nimport \"./QuadraNFT.sol\";\r\n\r\ncontract Election is ReentrancyGuard, AccessControl {\r\n    bytes32 public immutable ADMIN_ROLE = keccak256(\"ADMIN_ROLE\");\r\n    uint32 immutable MIN_VOTE_DURATION = 5 minutes;\r\n    uint256 immutable MAX_TOKENS = 10;\r\n    uint256 totalProposals;\r\n    QuadraNFT public token;\r\n\r\n    struct Candidate {\r\n        uint256 id;\r\n        string name;\r\n        uint256 votes;\r\n    }\r\n\r\n    struct Proposal {\r\n        uint256 id;\r\n        uint256 duration;\r\n        string title;\r\n        string description;\r\n        bool ended;\r\n        address proposer;\r\n        address executor; // ??\r\n        Candidate[] candidates;\r\n    }\r\n\r\n    // Vote object to keep track of votes in a proposal\r\n    struct Vote {\r\n        address voter;\r\n        uint256 candidateId;\r\n        uint256 timestamp;\r\n        uint256 numVotes;\r\n    }\r\n\r\n    //voter status for anonymous voting\r\n    enum VoterStatus {\r\n        INITIAL,\r\n        IN_PROGRESS,\r\n        VALID\r\n    }\r\n\r\n    struct Voter {\r\n        string username;\r\n        VoterStatus status;\r\n        uint256 weight;\r\n    }\r\n\r\n    mapping(uint256 => Proposal) private raisedProposals;\r\n    mapping(address => Vote) private votes; // Keep track of Vote per address\r\n\r\n    // Keep track of tokens spent per address for each proposdal\r\n    mapping(address => mapping(uint256 => uint256)) private tokensSpent;\r\n\r\n    // Keep track of all voters\r\n    mapping(address => Voter) private voters;\r\n\r\n    // All vote objects for a proposal\r\n    mapping(uint256 => Vote[]) private votedOn;\r\n\r\n    // ??\r\n    // mapping(address => uint256) private contributors;\r\n    // mapping(address => uint256) private stakeholders;\r\n\r\n    event Action(address indexed initiator, string message);\r\n    constructor(QuadraNFT _token) {\r\n        token = _token;\r\n        _grantRole(ADMIN_ROLE, msg.sender);\r\n        addVoter(msg.sender, \"Admin\", 1, VoterStatus.VALID);\r\n    }\r\n\r\n    function addVoter(address account, string memory username, uint256 weight, VoterStatus status) private {\r\n        if (voters[account].status != VoterStatus.INITIAL) {\r\n            return;\r\n        }\r\n        voters[account] = Voter(username, status, weight);\r\n    }\r\n\r\n    function grantAdminRole(address account) public onlyRole(ADMIN_ROLE) {\r\n        _grantRole(ADMIN_ROLE, account);\r\n    }\r\n\r\n    function getVoter(address account) external view returns (Voter memory voter, bool isAdmin) {\r\n        voter = voters[account];\r\n        // add is is admin role, add a bool to reply\r\n        if (hasRole(ADMIN_ROLE, account)) {\r\n            isAdmin = true;\r\n        }else{\r\n            isAdmin = false;\r\n        }\r\n        return (voter, isAdmin);\r\n    }\r\n\r\n    function applyNFT() public {\r\n        require(\r\n            voters[msg.sender].status == VoterStatus.INITIAL,\r\n            \"User already registered\"\r\n        );\r\n        voters[msg.sender] = Voter(\"Anonymous\", VoterStatus.IN_PROGRESS, 1);\r\n    }\r\n\r\n    function getNFTAddress() public view returns (address) {\r\n        return address(token);\r\n    }\r\n\r\n    function _isStakeholder(address _voter) public view returns (bool) {\r\n        // if the voter has a token in the Token contract\r\n        // cast the function BalanceOf to the token contract QUadraDAO with address _token\r\n        if(token.balanceOf(_voter) > 0) return true;\r\n        return false;\r\n    }\r\n\r\n    function quadraticVote(uint256 voted, uint256 new_votes) public pure returns (uint) {\r\n        uint256 tokens = 0;\r\n        for (uint i = 1; i <= new_votes; i++) {\r\n            tokens += (voted + i) * (voted + i);\r\n        }\r\n        return tokens;\r\n    }\r\n\r\n    function createProposal(\r\n        string calldata title,\r\n        string calldata description,\r\n        string[] memory _candidateNames\r\n    ) external returns (Proposal memory) {\r\n        uint256 proposalId = totalProposals++;\r\n        Proposal storage proposal = raisedProposals[proposalId];\r\n        proposal.id = proposalId;\r\n        proposal.title = title;\r\n        proposal.description = description;\r\n        proposal.proposer = payable(msg.sender);\r\n\r\n        // TODO: Make this variable\r\n        proposal.duration = block.timestamp + MIN_VOTE_DURATION;\r\n\r\n        // Init candidates\r\n        for (uint256 i = 0; i < _candidateNames.length; i++) {\r\n            proposal.candidates.push(Candidate(i, _candidateNames[i], 0));\r\n        }\r\n\r\n        emit Action(msg.sender, \"PROPOSAL_RAISED\");\r\n\r\n        return proposal;\r\n    }\r\n\r\n    function getProposals() external view returns (Proposal[] memory props) {\r\n        props = new Proposal[](totalProposals);\r\n\r\n        for (uint256 i = 0; i < totalProposals; i++) {\r\n            props[i] = raisedProposals[i];\r\n        }\r\n    }\r\n\r\n    function getProposal(\r\n        uint256 proposalId\r\n    ) external view returns (Proposal memory) {\r\n        return raisedProposals[proposalId];\r\n    }\r\n\r\n    // Might be redundant in client code\r\n    function getCandidates(\r\n        uint256 proposalId\r\n    ) public view returns (Candidate[] memory) {\r\n        return raisedProposals[proposalId].candidates;\r\n    }\r\n\r\n    function getTokensLeftForProposal(\r\n        uint256 proposalId\r\n    ) public view returns (uint256) {\r\n        return MAX_TOKENS - tokensSpent[msg.sender][proposalId];\r\n    }\r\n\r\n    function voteForCandidate(\r\n        uint256 proposalId,\r\n        uint256 candidateId,\r\n        uint256 numVotes\r\n    ) public returns (Candidate memory) {\r\n        Proposal storage proposal = raisedProposals[proposalId];\r\n        Candidate[] memory candidates = proposal.candidates;\r\n\r\n        if (proposal.ended || proposal.duration <= block.timestamp) {\r\n            proposal.ended = true;\r\n            revert(\"Proposal duration expired\");\r\n        }\r\n\r\n        // Check if msg.sender has enough tokens\r\n        // TODO: Implement quadratic voiting here\r\n        uint256 totalNumTokensSpent = tokensSpent[msg.sender][proposalId] +\r\n            numVotes *1;\r\n        if (totalNumTokensSpent >= MAX_TOKENS) {\r\n            revert(\"Insufficient tokens for address.\");\r\n        }\r\n\r\n        // Add vote to candidate\r\n        proposal.candidates[candidateId].votes += numVotes; // TODO: Implement time decay here\r\n\r\n        // proposal.candidates = candidates; // Updated candidates\r\n\r\n        // Add vote to Address -> Vote map\r\n        // votes[msg.sender] = Vote(msg.sender, proposalId, candidateId, block.timestamp);\r\n        votedOn[proposalId].push(\r\n            Vote(msg.sender, candidateId, block.timestamp, numVotes)\r\n        );\r\n\r\n        emit Action(msg.sender, \"PROPOSAL_VOTE\");\r\n\r\n        // TODO: Should candidate be returned here or vote?\r\n        return candidates[candidateId];\r\n    }\r\n\r\n    function getVotesOfProposal(\r\n        uint256 proposalId\r\n    ) public view returns (Vote[] memory) {\r\n        return votedOn[proposalId];\r\n    }\r\n}\r\n",
  "sourcePath": "C:\\Users\\shang\\Documents\\GitHub\\ECE1770-QV-DAO-DApp-Project\\src\\contracts\\Election.sol",
  "compiler": {
    "name": "solc",
    "version": "0.8.11+commit.d7f03943.Emscripten.clang"
  },
  "schemaVersion": "3.4.16",
  "updatedAt": "2024-04-12T09:17:26.463Z",
  "networkType": "ethereum",
  "devdoc": {
    "kind": "dev",
    "methods": {
      "getRoleAdmin(bytes32)": {
        "details": "Returns the admin role that controls `role`. See {grantRole} and {revokeRole}. To change a role's admin, use {_setRoleAdmin}."
      },
      "grantRole(bytes32,address)": {
        "details": "Grants `role` to `account`. If `account` had not been already granted `role`, emits a {RoleGranted} event. Requirements: - the caller must have ``role``'s admin role. May emit a {RoleGranted} event."
      },
      "hasRole(bytes32,address)": {
        "details": "Returns `true` if `account` has been granted `role`."
      },
      "renounceRole(bytes32,address)": {
        "details": "Revokes `role` from the calling account. Roles are often managed via {grantRole} and {revokeRole}: this function's purpose is to provide a mechanism for accounts to lose their privileges if they are compromised (such as when a trusted device is misplaced). If the calling account had been revoked `role`, emits a {RoleRevoked} event. Requirements: - the caller must be `account`. May emit a {RoleRevoked} event."
      },
      "revokeRole(bytes32,address)": {
        "details": "Revokes `role` from `account`. If `account` had been granted `role`, emits a {RoleRevoked} event. Requirements: - the caller must have ``role``'s admin role. May emit a {RoleRevoked} event."
      },
      "supportsInterface(bytes4)": {
        "details": "See {IERC165-supportsInterface}."
      }
    },
    "version": 1
  },
  "userdoc": {
    "kind": "user",
    "methods": {},
    "version": 1
  }
}