{
  "contractName": "Election",
  "abi": [
    {
      "anonymous": false,
      "inputs": [
        {
          "indexed": true,
          "internalType": "address",
          "name": "initiator",
          "type": "address"
        },
        {
          "indexed": false,
          "internalType": "string",
          "name": "message",
          "type": "string"
        }
      ],
      "name": "Action",
      "type": "event"
    },
    {
      "anonymous": false,
      "inputs": [
        {
          "indexed": true,
          "internalType": "bytes32",
          "name": "role",
          "type": "bytes32"
        },
        {
          "indexed": true,
          "internalType": "bytes32",
          "name": "previousAdminRole",
          "type": "bytes32"
        },
        {
          "indexed": true,
          "internalType": "bytes32",
          "name": "newAdminRole",
          "type": "bytes32"
        }
      ],
      "name": "RoleAdminChanged",
      "type": "event"
    },
    {
      "anonymous": false,
      "inputs": [
        {
          "indexed": true,
          "internalType": "bytes32",
          "name": "role",
          "type": "bytes32"
        },
        {
          "indexed": true,
          "internalType": "address",
          "name": "account",
          "type": "address"
        },
        {
          "indexed": true,
          "internalType": "address",
          "name": "sender",
          "type": "address"
        }
      ],
      "name": "RoleGranted",
      "type": "event"
    },
    {
      "anonymous": false,
      "inputs": [
        {
          "indexed": true,
          "internalType": "bytes32",
          "name": "role",
          "type": "bytes32"
        },
        {
          "indexed": true,
          "internalType": "address",
          "name": "account",
          "type": "address"
        },
        {
          "indexed": true,
          "internalType": "address",
          "name": "sender",
          "type": "address"
        }
      ],
      "name": "RoleRevoked",
      "type": "event"
    },
    {
      "inputs": [],
      "name": "DEFAULT_ADMIN_ROLE",
      "outputs": [
        {
          "internalType": "bytes32",
          "name": "",
          "type": "bytes32"
        }
      ],
      "stateMutability": "view",
      "type": "function",
      "constant": true
    },
    {
      "inputs": [
        {
          "internalType": "bytes32",
          "name": "role",
          "type": "bytes32"
        }
      ],
      "name": "getRoleAdmin",
      "outputs": [
        {
          "internalType": "bytes32",
          "name": "",
          "type": "bytes32"
        }
      ],
      "stateMutability": "view",
      "type": "function",
      "constant": true
    },
    {
      "inputs": [
        {
          "internalType": "bytes32",
          "name": "role",
          "type": "bytes32"
        },
        {
          "internalType": "address",
          "name": "account",
          "type": "address"
        }
      ],
      "name": "grantRole",
      "outputs": [],
      "stateMutability": "nonpayable",
      "type": "function"
    },
    {
      "inputs": [
        {
          "internalType": "bytes32",
          "name": "role",
          "type": "bytes32"
        },
        {
          "internalType": "address",
          "name": "account",
          "type": "address"
        }
      ],
      "name": "hasRole",
      "outputs": [
        {
          "internalType": "bool",
          "name": "",
          "type": "bool"
        }
      ],
      "stateMutability": "view",
      "type": "function",
      "constant": true
    },
    {
      "inputs": [
        {
          "internalType": "bytes32",
          "name": "role",
          "type": "bytes32"
        },
        {
          "internalType": "address",
          "name": "account",
          "type": "address"
        }
      ],
      "name": "renounceRole",
      "outputs": [],
      "stateMutability": "nonpayable",
      "type": "function"
    },
    {
      "inputs": [
        {
          "internalType": "bytes32",
          "name": "role",
          "type": "bytes32"
        },
        {
          "internalType": "address",
          "name": "account",
          "type": "address"
        }
      ],
      "name": "revokeRole",
      "outputs": [],
      "stateMutability": "nonpayable",
      "type": "function"
    },
    {
      "inputs": [
        {
          "internalType": "bytes4",
          "name": "interfaceId",
          "type": "bytes4"
        }
      ],
      "name": "supportsInterface",
      "outputs": [
        {
          "internalType": "bool",
          "name": "",
          "type": "bool"
        }
      ],
      "stateMutability": "view",
      "type": "function",
      "constant": true
    },
    {
      "inputs": [
        {
          "internalType": "string",
          "name": "title",
          "type": "string"
        },
        {
          "internalType": "string",
          "name": "description",
          "type": "string"
        },
        {
          "internalType": "string[]",
          "name": "_candidateNames",
          "type": "string[]"
        },
        {
          "internalType": "uint256",
          "name": "maxTokensPerAddress",
          "type": "uint256"
        },
        {
          "internalType": "bool",
          "name": "qvEnabled",
          "type": "bool"
        },
        {
          "internalType": "bool",
          "name": "linearTimeDecayEnabled",
          "type": "bool"
        }
      ],
      "name": "createProposal",
      "outputs": [
        {
          "components": [
            {
              "internalType": "uint256",
              "name": "id",
              "type": "uint256"
            },
            {
              "internalType": "uint256",
              "name": "duration",
              "type": "uint256"
            },
            {
              "internalType": "string",
              "name": "title",
              "type": "string"
            },
            {
              "internalType": "string",
              "name": "description",
              "type": "string"
            },
            {
              "internalType": "bool",
              "name": "ended",
              "type": "bool"
            },
            {
              "internalType": "address",
              "name": "proposer",
              "type": "address"
            },
            {
              "internalType": "address",
              "name": "executor",
              "type": "address"
            },
            {
              "components": [
                {
                  "internalType": "uint256",
                  "name": "id",
                  "type": "uint256"
                },
                {
                  "internalType": "string",
                  "name": "name",
                  "type": "string"
                },
                {
                  "internalType": "uint256",
                  "name": "votes",
                  "type": "uint256"
                }
              ],
              "internalType": "struct Election.Candidate[]",
              "name": "candidates",
              "type": "tuple[]"
            },
            {
              "internalType": "uint256",
              "name": "totalVotes",
              "type": "uint256"
            },
            {
              "internalType": "uint256",
              "name": "maxTokensPerAddress",
              "type": "uint256"
            },
            {
              "internalType": "bool",
              "name": "linearTimeDecayEnabled",
              "type": "bool"
            },
            {
              "internalType": "bool",
              "name": "qvEnabled",
              "type": "bool"
            }
          ],
          "internalType": "struct Election.Proposal",
          "name": "",
          "type": "tuple"
        }
      ],
      "stateMutability": "nonpayable",
      "type": "function"
    },
    {
      "inputs": [],
      "name": "getProposals",
      "outputs": [
        {
          "components": [
            {
              "internalType": "uint256",
              "name": "id",
              "type": "uint256"
            },
            {
              "internalType": "uint256",
              "name": "duration",
              "type": "uint256"
            },
            {
              "internalType": "string",
              "name": "title",
              "type": "string"
            },
            {
              "internalType": "string",
              "name": "description",
              "type": "string"
            },
            {
              "internalType": "bool",
              "name": "ended",
              "type": "bool"
            },
            {
              "internalType": "address",
              "name": "proposer",
              "type": "address"
            },
            {
              "internalType": "address",
              "name": "executor",
              "type": "address"
            },
            {
              "components": [
                {
                  "internalType": "uint256",
                  "name": "id",
                  "type": "uint256"
                },
                {
                  "internalType": "string",
                  "name": "name",
                  "type": "string"
                },
                {
                  "internalType": "uint256",
                  "name": "votes",
                  "type": "uint256"
                }
              ],
              "internalType": "struct Election.Candidate[]",
              "name": "candidates",
              "type": "tuple[]"
            },
            {
              "internalType": "uint256",
              "name": "totalVotes",
              "type": "uint256"
            },
            {
              "internalType": "uint256",
              "name": "maxTokensPerAddress",
              "type": "uint256"
            },
            {
              "internalType": "bool",
              "name": "linearTimeDecayEnabled",
              "type": "bool"
            },
            {
              "internalType": "bool",
              "name": "qvEnabled",
              "type": "bool"
            }
          ],
          "internalType": "struct Election.Proposal[]",
          "name": "props",
          "type": "tuple[]"
        }
      ],
      "stateMutability": "view",
      "type": "function",
      "constant": true
    },
    {
      "inputs": [
        {
          "internalType": "uint256",
          "name": "proposalId",
          "type": "uint256"
        }
      ],
      "name": "getProposal",
      "outputs": [
        {
          "components": [
            {
              "internalType": "uint256",
              "name": "id",
              "type": "uint256"
            },
            {
              "internalType": "uint256",
              "name": "duration",
              "type": "uint256"
            },
            {
              "internalType": "string",
              "name": "title",
              "type": "string"
            },
            {
              "internalType": "string",
              "name": "description",
              "type": "string"
            },
            {
              "internalType": "bool",
              "name": "ended",
              "type": "bool"
            },
            {
              "internalType": "address",
              "name": "proposer",
              "type": "address"
            },
            {
              "internalType": "address",
              "name": "executor",
              "type": "address"
            },
            {
              "components": [
                {
                  "internalType": "uint256",
                  "name": "id",
                  "type": "uint256"
                },
                {
                  "internalType": "string",
                  "name": "name",
                  "type": "string"
                },
                {
                  "internalType": "uint256",
                  "name": "votes",
                  "type": "uint256"
                }
              ],
              "internalType": "struct Election.Candidate[]",
              "name": "candidates",
              "type": "tuple[]"
            },
            {
              "internalType": "uint256",
              "name": "totalVotes",
              "type": "uint256"
            },
            {
              "internalType": "uint256",
              "name": "maxTokensPerAddress",
              "type": "uint256"
            },
            {
              "internalType": "bool",
              "name": "linearTimeDecayEnabled",
              "type": "bool"
            },
            {
              "internalType": "bool",
              "name": "qvEnabled",
              "type": "bool"
            }
          ],
          "internalType": "struct Election.Proposal",
          "name": "",
          "type": "tuple"
        }
      ],
      "stateMutability": "view",
      "type": "function",
      "constant": true
    },
    {
      "inputs": [
        {
          "internalType": "uint256",
          "name": "proposalId",
          "type": "uint256"
        }
      ],
      "name": "getCandidates",
      "outputs": [
        {
          "components": [
            {
              "internalType": "uint256",
              "name": "id",
              "type": "uint256"
            },
            {
              "internalType": "string",
              "name": "name",
              "type": "string"
            },
            {
              "internalType": "uint256",
              "name": "votes",
              "type": "uint256"
            }
          ],
          "internalType": "struct Election.Candidate[]",
          "name": "",
          "type": "tuple[]"
        }
      ],
      "stateMutability": "view",
      "type": "function",
      "constant": true
    },
    {
      "inputs": [
        {
          "internalType": "uint256",
          "name": "proposalId",
          "type": "uint256"
        }
      ],
      "name": "getTokensLeftForProposal",
      "outputs": [
        {
          "internalType": "uint256",
          "name": "",
          "type": "uint256"
        }
      ],
      "stateMutability": "view",
      "type": "function",
      "constant": true
    },
    {
      "inputs": [
        {
          "internalType": "uint256",
          "name": "proposalId",
          "type": "uint256"
        }
      ],
      "name": "getTokensSpent",
      "outputs": [
        {
          "internalType": "uint256",
          "name": "",
          "type": "uint256"
        }
      ],
      "stateMutability": "view",
      "type": "function",
      "constant": true
    },
    {
      "inputs": [
        {
          "internalType": "uint256",
          "name": "proposalId",
          "type": "uint256"
        },
        {
          "internalType": "uint256",
          "name": "candidateId",
          "type": "uint256"
        },
        {
          "internalType": "uint256",
          "name": "numTokens",
          "type": "uint256"
        }
      ],
      "name": "voteForCandidate",
      "outputs": [
        {
          "components": [
            {
              "internalType": "uint256",
              "name": "id",
              "type": "uint256"
            },
            {
              "internalType": "string",
              "name": "name",
              "type": "string"
            },
            {
              "internalType": "uint256",
              "name": "votes",
              "type": "uint256"
            }
          ],
          "internalType": "struct Election.Candidate",
          "name": "",
          "type": "tuple"
        }
      ],
      "stateMutability": "nonpayable",
      "type": "function"
    },
    {
      "inputs": [
        {
          "internalType": "uint256",
          "name": "proposalId",
          "type": "uint256"
        }
      ],
      "name": "getVotesOfProposal",
      "outputs": [
        {
          "components": [
            {
              "internalType": "address",
              "name": "voter",
              "type": "address"
            },
            {
              "internalType": "uint256",
              "name": "candidateId",
              "type": "uint256"
            },
            {
              "internalType": "uint256",
              "name": "timestamp",
              "type": "uint256"
            },
            {
              "internalType": "uint256",
              "name": "numVotes",
              "type": "uint256"
            }
          ],
          "internalType": "struct Election.Vote[]",
          "name": "",
          "type": "tuple[]"
        }
      ],
      "stateMutability": "view",
      "type": "function",
      "constant": true
    }
  ],
  "bytecode": "0x60c060405261012c63ffffffff1660809063ffffffff16815250600a60a09081525034801561002d57600080fd5b50600160008190555060805160a05161366d61005f60003960005050600081816111b30152611cdb015261366d6000f3fe608060405234801561001057600080fd5b50600436106100f55760003560e01c806362564c4811610097578063b32f148611610066578063b32f1486146102be578063c0e911d2146102ee578063c7f758a81461031e578063d547741f1461034e576100f5565b806362564c481461022257806391d14854146102405780639c085bdf14610270578063a217fddf146102a0576100f5565b80632f2ff15d116100d35780632f2ff15d1461018a57806336568abe146101a65780633e39a7a5146101c2578063417d14cb146101f2576100f5565b806301ffc9a7146100fa578063075bb5891461012a578063248a9ca31461015a575b600080fd5b610114600480360381019061010f919061225c565b61036a565b60405161012191906122a4565b60405180910390f35b610144600480360381019061013f91906122f5565b6103e4565b6040516101519190612476565b60405180910390f35b610174600480360381019061016f91906124ce565b6104ca565b604051610181919061250a565b60405180910390f35b6101a4600480360381019061019f9190612551565b6104ea565b005b6101c060048036038101906101bb9190612551565b61050b565b005b6101dc60048036038101906101d791906122f5565b61058e565b6040516101e9919061273c565b60405180910390f35b61020c6004803603810190610207919061275e565b6106a9565b6040516102199190612801565b60405180910390f35b61022a610b63565b6040516102379190612a8c565b60405180910390f35b61025a60048036038101906102559190612551565b610f6c565b60405161026791906122a4565b60405180910390f35b61028a600480360381019061028591906122f5565b610fd7565b6040516102979190612abd565b60405180910390f35b6102a8611031565b6040516102b5919061250a565b60405180910390f35b6102d860048036038101906102d391906122f5565b611038565b6040516102e59190612abd565b60405180910390f35b61030860048036038101906103039190612d7a565b6110b8565b6040516103159190612f77565b60405180910390f35b610338600480360381019061033391906122f5565b611658565b6040516103459190612f77565b60405180910390f35b61036860048036038101906103639190612551565b6119d4565b005b60007f7965db0b000000000000000000000000000000000000000000000000000000007bffffffffffffffffffffffffffffffffffffffffffffffffffffffff1916827bffffffffffffffffffffffffffffffffffffffffffffffffffffffff191614806103dd57506103dc826119f5565b5b9050919050565b606060066000838152602001908152602001600020805480602002602001604051908101604052809291908181526020016000905b828210156104bf57838290600052602060002090600402016040518060800160405290816000820160009054906101000a900473ffffffffffffffffffffffffffffffffffffffff1673ffffffffffffffffffffffffffffffffffffffff1673ffffffffffffffffffffffffffffffffffffffff168152602001600182015481526020016002820154815260200160038201548152505081526020019060010190610419565b505050509050919050565b600060016000838152602001908152602001600020600101549050919050565b6104f3826104ca565b6104fc81611a5f565b6105068383611a73565b505050565b610513611b53565b73ffffffffffffffffffffffffffffffffffffffff168173ffffffffffffffffffffffffffffffffffffffff1614610580576040517f08c379a00000000000000000000000000000000000000000000000000000000081526004016105779061301c565b60405180910390fd5b61058a8282611b5b565b5050565b606060036000838152602001908152602001600020600601805480602002602001604051908101604052809291908181526020016000905b8282101561069e5783829060005260206000209060030201604051806060016040529081600082015481526020016001820180546106039061306b565b80601f016020809104026020016040519081016040528092919081815260200182805461062f9061306b565b801561067c5780601f106106515761010080835404028352916020019161067c565b820191906000526020600020905b81548152906001019060200180831161065f57829003601f168201915b50505050508152602001600282015481525050815260200190600101906105c6565b505050509050919050565b6106b1612013565b6000600360008681526020019081526020016000209050600081600601805480602002602001604051908101604052809291908181526020016000905b828210156107c657838290600052602060002090600302016040518060600160405290816000820154815260200160018201805461072b9061306b565b80601f01602080910402602001604051908101604052809291908181526020018280546107579061306b565b80156107a45780601f10610779576101008083540402835291602001916107a4565b820191906000526020600020905b81548152906001019060200180831161078757829003601f168201915b50505050508152602001600282015481525050815260200190600101906106ee565b5050505090508160040160009054906101000a900460ff16806107ed575042826001015411155b1561084a5760018260040160006101000a81548160ff0219169083151502179055506040517f08c379a0000000000000000000000000000000000000000000000000000000008152600401610841906130e9565b60405180910390fd5b600084600560003373ffffffffffffffffffffffffffffffffffffffff1673ffffffffffffffffffffffffffffffffffffffff1681526020019081526020016000206000898152602001908152602001600020546108a89190613138565b905082600801548111156108f1576040517f08c379a00000000000000000000000000000000000000000000000000000000081526004016108e8906131da565b60405180910390fd5b80600560003373ffffffffffffffffffffffffffffffffffffffff1673ffffffffffffffffffffffffffffffffffffffff16815260200190815260200160002060008981526020019081526020016000208190555060008590506003600089815260200190815260200160002060090160019054906101000a900460ff16156109805761097d86611c3d565b90505b6000819050600360008a815260200190815260200160002060090160009054906101000a900460ff16156109bb576109b8818a611c9a565b90505b808560060189815481106109d2576109d16131fa565b5b906000526020600020906003020160020160008282546109f29190613138565b9250508190555080856007016000828254610a0d9190613138565b92505081905550600660008a815260200190815260200160002060405180608001604052803373ffffffffffffffffffffffffffffffffffffffff1681526020018a815260200142815260200183815250908060018154018082558091505060019003906000526020600020906004020160009091909190915060008201518160000160006101000a81548173ffffffffffffffffffffffffffffffffffffffff021916908373ffffffffffffffffffffffffffffffffffffffff16021790555060208201518160010155604082015181600201556060820151816003015550503373ffffffffffffffffffffffffffffffffffffffff167fa6f6fe9139f021af0f5a3b1c2eca6a1c371d77c4c99fdf2be0a2fdbd215baa8d604051610b3290613275565b60405180910390a2838881518110610b4d57610b4c6131fa565b5b6020026020010151955050505050509392505050565b606060025467ffffffffffffffff811115610b8157610b80612b3d565b5b604051908082528060200260200182016040528015610bba57816020015b610ba7612034565b815260200190600190039081610b9f5790505b50905060005b600254811015610f685760036000828152602001908152602001600020604051806101800160405290816000820154815260200160018201548152602001600282018054610c0d9061306b565b80601f0160208091040260200160405190810160405280929190818152602001828054610c399061306b565b8015610c865780601f10610c5b57610100808354040283529160200191610c86565b820191906000526020600020905b815481529060010190602001808311610c6957829003601f168201915b50505050508152602001600382018054610c9f9061306b565b80601f0160208091040260200160405190810160405280929190818152602001828054610ccb9061306b565b8015610d185780601f10610ced57610100808354040283529160200191610d18565b820191906000526020600020905b815481529060010190602001808311610cfb57829003601f168201915b505050505081526020016004820160009054906101000a900460ff161515151581526020016004820160019054906101000a900473ffffffffffffffffffffffffffffffffffffffff1673ffffffffffffffffffffffffffffffffffffffff1673ffffffffffffffffffffffffffffffffffffffff1681526020016005820160009054906101000a900473ffffffffffffffffffffffffffffffffffffffff1673ffffffffffffffffffffffffffffffffffffffff1673ffffffffffffffffffffffffffffffffffffffff16815260200160068201805480602002602001604051908101604052809291908181526020016000905b82821015610ee5578382906000526020600020906003020160405180606001604052908160008201548152602001600182018054610e4a9061306b565b80601f0160208091040260200160405190810160405280929190818152602001828054610e769061306b565b8015610ec35780601f10610e9857610100808354040283529160200191610ec3565b820191906000526020600020905b815481529060010190602001808311610ea657829003601f168201915b5050505050815260200160028201548152505081526020019060010190610e0d565b50505050815260200160078201548152602001600882015481526020016009820160009054906101000a900460ff161515151581526020016009820160019054906101000a900460ff161515151581525050828281518110610f4a57610f496131fa565b5b60200260200101819052508080610f6090613295565b915050610bc0565b5090565b60006001600084815260200190815260200160002060000160008373ffffffffffffffffffffffffffffffffffffffff1673ffffffffffffffffffffffffffffffffffffffff16815260200190815260200160002060009054906101000a900460ff16905092915050565b6000600560003373ffffffffffffffffffffffffffffffffffffffff1673ffffffffffffffffffffffffffffffffffffffff1681526020019081526020016000206000838152602001908152602001600020549050919050565b6000801b81565b600080600360008481526020019081526020016000209050600560003373ffffffffffffffffffffffffffffffffffffffff1673ffffffffffffffffffffffffffffffffffffffff16815260200190815260200160002060008481526020019081526020016000205481600801546110b091906132de565b915050919050565b6110c0612034565b6000600260008154809291906110d590613295565b91905055905060006003600083815260200190815260200160002090508181600001819055508a8a82600201919061110e9291906120c7565b5088888260030191906111229291906120c7565b50338160040160016101000a81548173ffffffffffffffffffffffffffffffffffffffff021916908373ffffffffffffffffffffffffffffffffffffffff16021790555060008160070181905550858160080181905550848160090160016101000a81548160ff021916908315150217905550838160090160006101000a81548160ff0219169083151502179055507f000000000000000000000000000000000000000000000000000000000000000063ffffffff16426111e39190613138565b816001018190555060005b87518110156112a0578160060160405180606001604052808381526020018a848151811061121f5761121e6131fa565b5b602002602001015181526020016000815250908060018154018082558091505060019003906000526020600020906003020160009091909190915060008201518160000155602082015181600101908051906020019061128092919061214d565b50604082015181600201555050808061129890613295565b9150506111ee565b503373ffffffffffffffffffffffffffffffffffffffff167fa6f6fe9139f021af0f5a3b1c2eca6a1c371d77c4c99fdf2be0a2fdbd215baa8d6040516112e59061335e565b60405180910390a28060405180610180016040529081600082015481526020016001820154815260200160028201805461131e9061306b565b80601f016020809104026020016040519081016040528092919081815260200182805461134a9061306b565b80156113975780601f1061136c57610100808354040283529160200191611397565b820191906000526020600020905b81548152906001019060200180831161137a57829003601f168201915b505050505081526020016003820180546113b09061306b565b80601f01602080910402602001604051908101604052809291908181526020018280546113dc9061306b565b80156114295780601f106113fe57610100808354040283529160200191611429565b820191906000526020600020905b81548152906001019060200180831161140c57829003601f168201915b505050505081526020016004820160009054906101000a900460ff161515151581526020016004820160019054906101000a900473ffffffffffffffffffffffffffffffffffffffff1673ffffffffffffffffffffffffffffffffffffffff1673ffffffffffffffffffffffffffffffffffffffff1681526020016005820160009054906101000a900473ffffffffffffffffffffffffffffffffffffffff1673ffffffffffffffffffffffffffffffffffffffff1673ffffffffffffffffffffffffffffffffffffffff16815260200160068201805480602002602001604051908101604052809291908181526020016000905b828210156115f657838290600052602060002090600302016040518060600160405290816000820154815260200160018201805461155b9061306b565b80601f01602080910402602001604051908101604052809291908181526020018280546115879061306b565b80156115d45780601f106115a9576101008083540402835291602001916115d4565b820191906000526020600020905b8154815290600101906020018083116115b757829003601f168201915b505050505081526020016002820154815250508152602001906001019061151e565b50505050815260200160078201548152602001600882015481526020016009820160009054906101000a900460ff161515151581526020016009820160019054906101000a900460ff1615151515815250509250505098975050505050505050565b611660612034565b600360008381526020019081526020016000206040518061018001604052908160008201548152602001600182015481526020016002820180546116a39061306b565b80601f01602080910402602001604051908101604052809291908181526020018280546116cf9061306b565b801561171c5780601f106116f15761010080835404028352916020019161171c565b820191906000526020600020905b8154815290600101906020018083116116ff57829003601f168201915b505050505081526020016003820180546117359061306b565b80601f01602080910402602001604051908101604052809291908181526020018280546117619061306b565b80156117ae5780601f10611783576101008083540402835291602001916117ae565b820191906000526020600020905b81548152906001019060200180831161179157829003601f168201915b505050505081526020016004820160009054906101000a900460ff161515151581526020016004820160019054906101000a900473ffffffffffffffffffffffffffffffffffffffff1673ffffffffffffffffffffffffffffffffffffffff1673ffffffffffffffffffffffffffffffffffffffff1681526020016005820160009054906101000a900473ffffffffffffffffffffffffffffffffffffffff1673ffffffffffffffffffffffffffffffffffffffff1673ffffffffffffffffffffffffffffffffffffffff16815260200160068201805480602002602001604051908101604052809291908181526020016000905b8282101561197b5783829060005260206000209060030201604051806060016040529081600082015481526020016001820180546118e09061306b565b80601f016020809104026020016040519081016040528092919081815260200182805461190c9061306b565b80156119595780601f1061192e57610100808354040283529160200191611959565b820191906000526020600020905b81548152906001019060200180831161193c57829003601f168201915b50505050508152602001600282015481525050815260200190600101906118a3565b50505050815260200160078201548152602001600882015481526020016009820160009054906101000a900460ff161515151581526020016009820160019054906101000a900460ff1615151515815250509050919050565b6119dd826104ca565b6119e681611a5f565b6119f08383611b5b565b505050565b60007f01ffc9a7000000000000000000000000000000000000000000000000000000007bffffffffffffffffffffffffffffffffffffffffffffffffffffffff1916827bffffffffffffffffffffffffffffffffffffffffffffffffffffffff1916149050919050565b611a7081611a6b611b53565b611d25565b50565b611a7d8282610f6c565b611b4f57600180600084815260200190815260200160002060000160008373ffffffffffffffffffffffffffffffffffffffff1673ffffffffffffffffffffffffffffffffffffffff16815260200190815260200160002060006101000a81548160ff021916908315150217905550611af4611b53565b73ffffffffffffffffffffffffffffffffffffffff168173ffffffffffffffffffffffffffffffffffffffff16837f2f8788117e7eff1d82e926ec794901d17c78024a50270940304540a733656f0d60405160405180910390a45b5050565b600033905090565b611b658282610f6c565b15611c395760006001600084815260200190815260200160002060000160008373ffffffffffffffffffffffffffffffffffffffff1673ffffffffffffffffffffffffffffffffffffffff16815260200190815260200160002060006101000a81548160ff021916908315150217905550611bde611b53565b73ffffffffffffffffffffffffffffffffffffffff168173ffffffffffffffffffffffffffffffffffffffff16837ff6391f5c32d9c69d2a47ea670b442974b53935d1edc7fd64eb21e047a839171b60405160405180910390a45b5050565b6000806002600184611c4f9190613138565b611c5991906133ad565b90508291505b81811015611c94578091506002818285611c7991906133ad565b611c839190613138565b611c8d91906133ad565b9050611c5f565b50919050565b60008060036000848152602001908152602001600020600101549050804210611cc7576000915050611d1f565b60004282611cd591906132de565b905060007f000000000000000000000000000000000000000000000000000000000000000063ffffffff168683611d0c91906133de565b611d1691906133ad565b90508093505050505b92915050565b611d2f8282610f6c565b611da657611d3c81611daa565b611d4a8360001c6020611dd7565b604051602001611d5b92919061350c565b6040516020818303038152906040526040517f08c379a0000000000000000000000000000000000000000000000000000000008152600401611d9d919061357f565b60405180910390fd5b5050565b6060611dd08273ffffffffffffffffffffffffffffffffffffffff16601460ff16611dd7565b9050919050565b606060006002836002611dea91906133de565b611df49190613138565b67ffffffffffffffff811115611e0d57611e0c612b3d565b5b6040519080825280601f01601f191660200182016040528015611e3f5781602001600182028036833780820191505090505b5090507f300000000000000000000000000000000000000000000000000000000000000081600081518110611e7757611e766131fa565b5b60200101907effffffffffffffffffffffffffffffffffffffffffffffffffffffffffffff1916908160001a9053507f780000000000000000000000000000000000000000000000000000000000000081600181518110611edb57611eda6131fa565b5b60200101907effffffffffffffffffffffffffffffffffffffffffffffffffffffffffffff1916908160001a90535060006001846002611f1b91906133de565b611f259190613138565b90505b6001811115611fc5577f3031323334353637383961626364656600000000000000000000000000000000600f861660108110611f6757611f666131fa565b5b1a60f81b828281518110611f7e57611f7d6131fa565b5b60200101907effffffffffffffffffffffffffffffffffffffffffffffffffffffffffffff1916908160001a905350600485901c945080611fbe906135a1565b9050611f28565b5060008414612009576040517f08c379a000000000000000000000000000000000000000000000000000000000815260040161200090613617565b60405180910390fd5b8091505092915050565b60405180606001604052806000815260200160608152602001600081525090565b60405180610180016040528060008152602001600081526020016060815260200160608152602001600015158152602001600073ffffffffffffffffffffffffffffffffffffffff168152602001600073ffffffffffffffffffffffffffffffffffffffff1681526020016060815260200160008152602001600081526020016000151581526020016000151581525090565b8280546120d39061306b565b90600052602060002090601f0160209004810192826120f5576000855561213c565b82601f1061210e57803560ff191683800117855561213c565b8280016001018555821561213c579182015b8281111561213b578235825591602001919060010190612120565b5b50905061214991906121d3565b5090565b8280546121599061306b565b90600052602060002090601f01602090048101928261217b57600085556121c2565b82601f1061219457805160ff19168380011785556121c2565b828001600101855582156121c2579182015b828111156121c15782518255916020019190600101906121a6565b5b5090506121cf91906121d3565b5090565b5b808211156121ec5760008160009055506001016121d4565b5090565b6000604051905090565b600080fd5b600080fd5b60007fffffffff0000000000000000000000000000000000000000000000000000000082169050919050565b61223981612204565b811461224457600080fd5b50565b60008135905061225681612230565b92915050565b600060208284031215612272576122716121fa565b5b600061228084828501612247565b91505092915050565b60008115159050919050565b61229e81612289565b82525050565b60006020820190506122b96000830184612295565b92915050565b6000819050919050565b6122d2816122bf565b81146122dd57600080fd5b50565b6000813590506122ef816122c9565b92915050565b60006020828403121561230b5761230a6121fa565b5b6000612319848285016122e0565b91505092915050565b600081519050919050565b600082825260208201905092915050565b6000819050602082019050919050565b600073ffffffffffffffffffffffffffffffffffffffff82169050919050565b60006123798261234e565b9050919050565b6123898161236e565b82525050565b612398816122bf565b82525050565b6080820160008201516123b46000850182612380565b5060208201516123c7602085018261238f565b5060408201516123da604085018261238f565b5060608201516123ed606085018261238f565b50505050565b60006123ff838361239e565b60808301905092915050565b6000602082019050919050565b600061242382612322565b61242d818561232d565b93506124388361233e565b8060005b8381101561246957815161245088826123f3565b975061245b8361240b565b92505060018101905061243c565b5085935050505092915050565b600060208201905081810360008301526124908184612418565b905092915050565b6000819050919050565b6124ab81612498565b81146124b657600080fd5b50565b6000813590506124c8816124a2565b92915050565b6000602082840312156124e4576124e36121fa565b5b60006124f2848285016124b9565b91505092915050565b61250481612498565b82525050565b600060208201905061251f60008301846124fb565b92915050565b61252e8161236e565b811461253957600080fd5b50565b60008135905061254b81612525565b92915050565b60008060408385031215612568576125676121fa565b5b6000612576858286016124b9565b92505060206125878582860161253c565b9150509250929050565b600081519050919050565b600082825260208201905092915050565b6000819050602082019050919050565b600081519050919050565b600082825260208201905092915050565b60005b838110156125f75780820151818401526020810190506125dc565b83811115612606576000848401525b50505050565b6000601f19601f8301169050919050565b6000612628826125bd565b61263281856125c8565b93506126428185602086016125d9565b61264b8161260c565b840191505092915050565b600060608301600083015161266e600086018261238f565b5060208301518482036020860152612686828261261d565b915050604083015161269b604086018261238f565b508091505092915050565b60006126b28383612656565b905092915050565b6000602082019050919050565b60006126d282612591565b6126dc818561259c565b9350836020820285016126ee856125ad565b8060005b8581101561272a578484038952815161270b85826126a6565b9450612716836126ba565b925060208a019950506001810190506126f2565b50829750879550505050505092915050565b6000602082019050818103600083015261275681846126c7565b905092915050565b600080600060608486031215612777576127766121fa565b5b6000612785868287016122e0565b9350506020612796868287016122e0565b92505060406127a7868287016122e0565b9150509250925092565b60006060830160008301516127c9600086018261238f565b50602083015184820360208601526127e1828261261d565b91505060408301516127f6604086018261238f565b508091505092915050565b6000602082019050818103600083015261281b81846127b1565b905092915050565b600081519050919050565b600082825260208201905092915050565b6000819050602082019050919050565b61285881612289565b82525050565b600082825260208201905092915050565b600061287a82612591565b612884818561285e565b935083602082028501612896856125ad565b8060005b858110156128d257848403895281516128b385826126a6565b94506128be836126ba565b925060208a0199505060018101905061289a565b50829750879550505050505092915050565b6000610180830160008301516128fd600086018261238f565b506020830151612910602086018261238f565b5060408301518482036040860152612928828261261d565b91505060608301518482036060860152612942828261261d565b9150506080830151612957608086018261284f565b5060a083015161296a60a0860182612380565b5060c083015161297d60c0860182612380565b5060e083015184820360e0860152612995828261286f565b9150506101008301516129ac61010086018261238f565b506101208301516129c161012086018261238f565b506101408301516129d661014086018261284f565b506101608301516129eb61016086018261284f565b508091505092915050565b6000612a0283836128e4565b905092915050565b6000602082019050919050565b6000612a2282612823565b612a2c818561282e565b935083602082028501612a3e8561283f565b8060005b85811015612a7a5784840389528151612a5b85826129f6565b9450612a6683612a0a565b925060208a01995050600181019050612a42565b50829750879550505050505092915050565b60006020820190508181036000830152612aa68184612a17565b905092915050565b612ab7816122bf565b82525050565b6000602082019050612ad26000830184612aae565b92915050565b600080fd5b600080fd5b600080fd5b60008083601f840112612afd57612afc612ad8565b5b8235905067ffffffffffffffff811115612b1a57612b19612add565b5b602083019150836001820283011115612b3657612b35612ae2565b5b9250929050565b7f4e487b7100000000000000000000000000000000000000000000000000000000600052604160045260246000fd5b612b758261260c565b810181811067ffffffffffffffff82111715612b9457612b93612b3d565b5b80604052505050565b6000612ba76121f0565b9050612bb38282612b6c565b919050565b600067ffffffffffffffff821115612bd357612bd2612b3d565b5b602082029050602081019050919050565b600080fd5b600067ffffffffffffffff821115612c0457612c03612b3d565b5b612c0d8261260c565b9050602081019050919050565b82818337600083830152505050565b6000612c3c612c3784612be9565b612b9d565b905082815260208101848484011115612c5857612c57612be4565b5b612c63848285612c1a565b509392505050565b600082601f830112612c8057612c7f612ad8565b5b8135612c90848260208601612c29565b91505092915050565b6000612cac612ca784612bb8565b612b9d565b90508083825260208201905060208402830185811115612ccf57612cce612ae2565b5b835b81811015612d1657803567ffffffffffffffff811115612cf457612cf3612ad8565b5b808601612d018982612c6b565b85526020850194505050602081019050612cd1565b5050509392505050565b600082601f830112612d3557612d34612ad8565b5b8135612d45848260208601612c99565b91505092915050565b612d5781612289565b8114612d6257600080fd5b50565b600081359050612d7481612d4e565b92915050565b60008060008060008060008060c0898b031215612d9a57612d996121fa565b5b600089013567ffffffffffffffff811115612db857612db76121ff565b5b612dc48b828c01612ae7565b9850985050602089013567ffffffffffffffff811115612de757612de66121ff565b5b612df38b828c01612ae7565b9650965050604089013567ffffffffffffffff811115612e1657612e156121ff565b5b612e228b828c01612d20565b9450506060612e338b828c016122e0565b9350506080612e448b828c01612d65565b92505060a0612e558b828c01612d65565b9150509295985092959890939650565b600061018083016000830151612e7e600086018261238f565b506020830151612e91602086018261238f565b5060408301518482036040860152612ea9828261261d565b91505060608301518482036060860152612ec3828261261d565b9150506080830151612ed8608086018261284f565b5060a0830151612eeb60a0860182612380565b5060c0830151612efe60c0860182612380565b5060e083015184820360e0860152612f16828261286f565b915050610100830151612f2d61010086018261238f565b50610120830151612f4261012086018261238f565b50610140830151612f5761014086018261284f565b50610160830151612f6c61016086018261284f565b508091505092915050565b60006020820190508181036000830152612f918184612e65565b905092915050565b600082825260208201905092915050565b7f416363657373436f6e74726f6c3a2063616e206f6e6c792072656e6f756e636560008201527f20726f6c657320666f722073656c660000000000000000000000000000000000602082015250565b6000613006602f83612f99565b915061301182612faa565b604082019050919050565b6000602082019050818103600083015261303581612ff9565b9050919050565b7f4e487b7100000000000000000000000000000000000000000000000000000000600052602260045260246000fd5b6000600282049050600182168061308357607f821691505b602082108114156130975761309661303c565b5b50919050565b7f50726f706f73616c206475726174696f6e206578706972656400000000000000600082015250565b60006130d3601983612f99565b91506130de8261309d565b602082019050919050565b60006020820190508181036000830152613102816130c6565b9050919050565b7f4e487b7100000000000000000000000000000000000000000000000000000000600052601160045260246000fd5b6000613143826122bf565b915061314e836122bf565b9250827fffffffffffffffffffffffffffffffffffffffffffffffffffffffffffffffff0382111561318357613182613109565b5b828201905092915050565b7f496e73756666696369656e7420746f6b656e7320666f7220616464726573732e600082015250565b60006131c4602083612f99565b91506131cf8261318e565b602082019050919050565b600060208201905081810360008301526131f3816131b7565b9050919050565b7f4e487b7100000000000000000000000000000000000000000000000000000000600052603260045260246000fd5b7f50524f504f53414c5f564f544500000000000000000000000000000000000000600082015250565b600061325f600d83612f99565b915061326a82613229565b602082019050919050565b6000602082019050818103600083015261328e81613252565b9050919050565b60006132a0826122bf565b91507fffffffffffffffffffffffffffffffffffffffffffffffffffffffffffffffff8214156132d3576132d2613109565b5b600182019050919050565b60006132e9826122bf565b91506132f4836122bf565b92508282101561330757613306613109565b5b828203905092915050565b7f50524f504f53414c5f5241495345440000000000000000000000000000000000600082015250565b6000613348600f83612f99565b915061335382613312565b602082019050919050565b600060208201905081810360008301526133778161333b565b9050919050565b7f4e487b7100000000000000000000000000000000000000000000000000000000600052601260045260246000fd5b60006133b8826122bf565b91506133c3836122bf565b9250826133d3576133d261337e565b5b828204905092915050565b60006133e9826122bf565b91506133f4836122bf565b9250817fffffffffffffffffffffffffffffffffffffffffffffffffffffffffffffffff048311821515161561342d5761342c613109565b5b828202905092915050565b600081905092915050565b7f416363657373436f6e74726f6c3a206163636f756e7420000000000000000000600082015250565b6000613479601783613438565b915061348482613443565b601782019050919050565b600061349a826125bd565b6134a48185613438565b93506134b48185602086016125d9565b80840191505092915050565b7f206973206d697373696e6720726f6c6520000000000000000000000000000000600082015250565b60006134f6601183613438565b9150613501826134c0565b601182019050919050565b60006135178261346c565b9150613523828561348f565b915061352e826134e9565b915061353a828461348f565b91508190509392505050565b6000613551826125bd565b61355b8185612f99565b935061356b8185602086016125d9565b6135748161260c565b840191505092915050565b600060208201905081810360008301526135998184613546565b905092915050565b60006135ac826122bf565b915060008214156135c0576135bf613109565b5b600182039050919050565b7f537472696e67733a20686578206c656e67746820696e73756666696369656e74600082015250565b6000613601602083612f99565b915061360c826135cb565b602082019050919050565b60006020820190508181036000830152613630816135f4565b905091905056fea2646970667358221220093998cfb1b43428920677b27e16cbf791e699cd5362388bc8574149c8e3382564736f6c634300080b0033",
  "immutableReferences": {
    "1730": [
      {
        "length": 32,
        "start": 4531
      },
      {
        "length": 32,
        "start": 7387
      }
    ]
  },
  "source": "// SPDX-License-Identifier: MIT\npragma solidity ^0.8.7;\n\nimport \"@openzeppelin/contracts/access/AccessControl.sol\";\nimport \"@openzeppelin/contracts/security/ReentrancyGuard.sol\";\n\ncontract Election is ReentrancyGuard, AccessControl {\n    uint32 immutable MIN_VOTE_DURATION = 5 minutes;\n    uint256 immutable MAX_TOKENS = 10;\n    uint256 totalProposals;\n\n    struct Candidate {\n        uint256 id;\n        string name;\n        uint256 votes;\n    }\n\n    struct Proposal {\n        uint256 id;\n        uint256 duration;\n        string title;\n        string description;\n        bool ended;\n        address proposer;\n        address executor; // ??\n        Candidate[] candidates;\n        uint256 totalVotes;\n        uint256 maxTokensPerAddress;\n        \n        bool linearTimeDecayEnabled;\n        bool qvEnabled;\n    }\n\n    // Vote object to keep track of votes in a proposal\n    struct Vote {\n        address voter;\n        uint256 candidateId;\n        uint256 timestamp;\n        uint256 numVotes;\n    }\n\n    mapping(uint256 => Proposal) private raisedProposals;\n    mapping(address => Vote) private votes; // Keep track of Vote per address\n\n    // Keep track of tokens spent per address for each proposal\n    mapping(address => mapping(uint256 => uint256)) private tokensSpent;\n\n    // All vote objects for a proposal\n    mapping(uint256 => Vote[]) private votedOn;\n\n    // ??\n    // mapping(address => uint256) private contributors;\n    // mapping(address => uint256) private stakeholders;\n\n    event Action(address indexed initiator, string message);\n\n    function createProposal(\n        string calldata title,\n        string calldata description,\n        string[] memory _candidateNames,\n        uint256 maxTokensPerAddress,\n        bool qvEnabled,\n        bool linearTimeDecayEnabled\n    ) external returns (Proposal memory) {\n        uint256 proposalId = totalProposals++;\n        Proposal storage proposal = raisedProposals[proposalId];\n        proposal.id = proposalId;\n        proposal.title = title;\n        proposal.description = description;\n        proposal.proposer = payable(msg.sender);\n        proposal.totalVotes = 0;\n        proposal.maxTokensPerAddress = maxTokensPerAddress;\n        proposal.qvEnabled = qvEnabled;\n        proposal.linearTimeDecayEnabled = linearTimeDecayEnabled; \n\n        // TODO: Make this variable\n        proposal.duration = block.timestamp + MIN_VOTE_DURATION;\n\n        // Init candidates\n        for (uint256 i = 0; i < _candidateNames.length; i++) {\n            proposal.candidates.push(Candidate(i, _candidateNames[i], 0));\n        }\n\n        emit Action(msg.sender, \"PROPOSAL_RAISED\");\n\n        return proposal;\n    }\n\n    function getProposals() external view returns (Proposal[] memory props) {\n        props = new Proposal[](totalProposals);\n\n        for (uint256 i = 0; i < totalProposals; i++) {\n            props[i] = raisedProposals[i];\n        }\n    }\n\n    function getProposal(\n        uint256 proposalId\n    ) external view returns (Proposal memory) {\n        return raisedProposals[proposalId];\n    }\n\n    // Might be redundant in client code\n    function getCandidates(\n        uint256 proposalId\n    ) public view returns (Candidate[] memory) {\n        return raisedProposals[proposalId].candidates;\n    }\n\n    function getTokensLeftForProposal(\n        uint256 proposalId\n    ) public view returns (uint256) {\n        Proposal storage proposal = raisedProposals[proposalId];\n\n        return\n            proposal.maxTokensPerAddress - tokensSpent[msg.sender][proposalId];\n    }\n\n    function getTokensSpent(uint256 proposalId) public view returns (uint256) {\n        return tokensSpent[msg.sender][proposalId];\n    }\n\n    function voteForCandidate(\n        uint256 proposalId,\n        uint256 candidateId,\n        uint256 numTokens \n    ) public returns (Candidate memory) {\n        Proposal storage proposal = raisedProposals[proposalId];\n        Candidate[] memory candidates = proposal.candidates;\n\n        if (proposal.ended || proposal.duration <= block.timestamp) {\n            proposal.ended = true;\n            revert(\"Proposal duration expired\");\n        }\n\n        // Check if msg.sender has enough tokens\n        // TODO: Implement quadratic voiting here\n        uint256 totalNumTokensSpent = tokensSpent[msg.sender][proposalId] +\n            numTokens;\n        require(\n            totalNumTokensSpent <= proposal.maxTokensPerAddress,\n            \"Insufficient tokens for address.\"\n        );\n\n        // Add vote to candidate\n        tokensSpent[msg.sender][proposalId] = totalNumTokensSpent;\n\n        // Quadratic voting: cost to the voter = (number of votes)^2\n        uint256 voteWeight = numTokens;\n        if (raisedProposals[proposalId].qvEnabled) {\n          voteWeight = sqrt(numTokens);\n        }\n        uint256 decayWeight = voteWeight;\n        if (raisedProposals[proposalId].linearTimeDecayEnabled) {\n          decayWeight = linearTimeDecay(decayWeight, proposalId);\n        }\n        proposal.candidates[candidateId].votes += decayWeight;\n        proposal.totalVotes += decayWeight;\n\n        // proposal.candidates = candidates; // Updated candidates\n\n        // Add vote to Address -> Vote map\n        // votes[msg.sender] = Vote(msg.sender, proposalId, candidateId, block.timestamp);\n        votedOn[proposalId].push(\n            Vote(msg.sender, candidateId, block.timestamp, decayWeight)\n        );\n\n        emit Action(msg.sender, \"PROPOSAL_VOTE\");\n\n        // TODO: Should candidate be returned here or vote?\n        return candidates[candidateId];\n    }\n\n    function linearTimeDecay(uint256 voteWeight, uint256 proposalId) internal view returns (uint256) {\n      uint256 endTime = raisedProposals[proposalId].duration;\n      if (block.timestamp >= endTime) {\n        return 0; // No voting power left\n      }\n      uint256 remainingDuration = endTime - block.timestamp;\n      // remainingDuration = 100 seconds, voteWeight = 3, endTime = 173432421;\n      uint256 decayedVote = (remainingDuration * voteWeight) / MIN_VOTE_DURATION; \n\n      return decayedVote;\n    }\n\n    function sqrt(uint256 x) internal pure returns (uint256 y) {\n      uint256 z = (x + 1) / 2;\n      y = x;\n      while (z < y) {\n        y = z;\n        z = (x / z + z) / 2;\n      }\n    }\n\n    function getVotesOfProposal(\n        uint256 proposalId\n    ) public view returns (Vote[] memory) {\n        return votedOn[proposalId];\n    }\n}\n",
  "sourcePath": "/Users/abdullahmohamed/CodeProjects/DominionDAO_GroundUp/tailwind_truffle_starter_kit/src/contracts/Election.sol",
  "compiler": {
    "name": "solc",
    "version": "0.8.11+commit.d7f03943.Emscripten.clang"
  },
  "schemaVersion": "3.4.16",
  "updatedAt": "2024-04-09T20:59:34.162Z",
  "networkType": "ethereum",
  "devdoc": {
    "kind": "dev",
    "methods": {
      "getRoleAdmin(bytes32)": {
        "details": "Returns the admin role that controls `role`. See {grantRole} and {revokeRole}. To change a role's admin, use {_setRoleAdmin}."
      },
      "grantRole(bytes32,address)": {
        "details": "Grants `role` to `account`. If `account` had not been already granted `role`, emits a {RoleGranted} event. Requirements: - the caller must have ``role``'s admin role. May emit a {RoleGranted} event."
      },
      "hasRole(bytes32,address)": {
        "details": "Returns `true` if `account` has been granted `role`."
      },
      "renounceRole(bytes32,address)": {
        "details": "Revokes `role` from the calling account. Roles are often managed via {grantRole} and {revokeRole}: this function's purpose is to provide a mechanism for accounts to lose their privileges if they are compromised (such as when a trusted device is misplaced). If the calling account had been revoked `role`, emits a {RoleRevoked} event. Requirements: - the caller must be `account`. May emit a {RoleRevoked} event."
      },
      "revokeRole(bytes32,address)": {
        "details": "Revokes `role` from `account`. If `account` had been granted `role`, emits a {RoleRevoked} event. Requirements: - the caller must have ``role``'s admin role. May emit a {RoleRevoked} event."
      },
      "supportsInterface(bytes4)": {
        "details": "See {IERC165-supportsInterface}."
      }
    },
    "version": 1
  },
  "userdoc": {
    "kind": "user",
    "methods": {},
    "version": 1
  }
}