{
  "contractName": "QuadraNFT",
  "abi": [
    {
      "inputs": [],
      "stateMutability": "nonpayable",
      "type": "constructor"
    },
    {
      "inputs": [],
      "name": "InvalidShortString",
      "type": "error"
    },
    {
      "inputs": [
        {
          "internalType": "string",
          "name": "str",
          "type": "string"
        }
      ],
      "name": "StringTooLong",
      "type": "error"
    },
    {
      "anonymous": false,
      "inputs": [
        {
          "indexed": true,
          "internalType": "address",
          "name": "owner",
          "type": "address"
        },
        {
          "indexed": true,
          "internalType": "address",
          "name": "approved",
          "type": "address"
        },
        {
          "indexed": true,
          "internalType": "uint256",
          "name": "tokenId",
          "type": "uint256"
        }
      ],
      "name": "Approval",
      "type": "event"
    },
    {
      "anonymous": false,
      "inputs": [
        {
          "indexed": true,
          "internalType": "address",
          "name": "owner",
          "type": "address"
        },
        {
          "indexed": true,
          "internalType": "address",
          "name": "operator",
          "type": "address"
        },
        {
          "indexed": false,
          "internalType": "bool",
          "name": "approved",
          "type": "bool"
        }
      ],
      "name": "ApprovalForAll",
      "type": "event"
    },
    {
      "anonymous": false,
      "inputs": [
        {
          "indexed": false,
          "internalType": "uint256",
          "name": "_fromTokenId",
          "type": "uint256"
        },
        {
          "indexed": false,
          "internalType": "uint256",
          "name": "_toTokenId",
          "type": "uint256"
        }
      ],
      "name": "BatchMetadataUpdate",
      "type": "event"
    },
    {
      "anonymous": false,
      "inputs": [
        {
          "indexed": true,
          "internalType": "address",
          "name": "delegator",
          "type": "address"
        },
        {
          "indexed": true,
          "internalType": "address",
          "name": "fromDelegate",
          "type": "address"
        },
        {
          "indexed": true,
          "internalType": "address",
          "name": "toDelegate",
          "type": "address"
        }
      ],
      "name": "DelegateChanged",
      "type": "event"
    },
    {
      "anonymous": false,
      "inputs": [
        {
          "indexed": true,
          "internalType": "address",
          "name": "delegate",
          "type": "address"
        },
        {
          "indexed": false,
          "internalType": "uint256",
          "name": "previousBalance",
          "type": "uint256"
        },
        {
          "indexed": false,
          "internalType": "uint256",
          "name": "newBalance",
          "type": "uint256"
        }
      ],
      "name": "DelegateVotesChanged",
      "type": "event"
    },
    {
      "anonymous": false,
      "inputs": [],
      "name": "EIP712DomainChanged",
      "type": "event"
    },
    {
      "anonymous": false,
      "inputs": [
        {
          "indexed": false,
          "internalType": "uint256",
          "name": "_tokenId",
          "type": "uint256"
        }
      ],
      "name": "MetadataUpdate",
      "type": "event"
    },
    {
      "anonymous": false,
      "inputs": [
        {
          "indexed": true,
          "internalType": "bytes32",
          "name": "role",
          "type": "bytes32"
        },
        {
          "indexed": true,
          "internalType": "bytes32",
          "name": "previousAdminRole",
          "type": "bytes32"
        },
        {
          "indexed": true,
          "internalType": "bytes32",
          "name": "newAdminRole",
          "type": "bytes32"
        }
      ],
      "name": "RoleAdminChanged",
      "type": "event"
    },
    {
      "anonymous": false,
      "inputs": [
        {
          "indexed": true,
          "internalType": "bytes32",
          "name": "role",
          "type": "bytes32"
        },
        {
          "indexed": true,
          "internalType": "address",
          "name": "account",
          "type": "address"
        },
        {
          "indexed": true,
          "internalType": "address",
          "name": "sender",
          "type": "address"
        }
      ],
      "name": "RoleGranted",
      "type": "event"
    },
    {
      "anonymous": false,
      "inputs": [
        {
          "indexed": true,
          "internalType": "bytes32",
          "name": "role",
          "type": "bytes32"
        },
        {
          "indexed": true,
          "internalType": "address",
          "name": "account",
          "type": "address"
        },
        {
          "indexed": true,
          "internalType": "address",
          "name": "sender",
          "type": "address"
        }
      ],
      "name": "RoleRevoked",
      "type": "event"
    },
    {
      "anonymous": false,
      "inputs": [
        {
          "indexed": true,
          "internalType": "address",
          "name": "from",
          "type": "address"
        },
        {
          "indexed": true,
          "internalType": "address",
          "name": "to",
          "type": "address"
        },
        {
          "indexed": true,
          "internalType": "uint256",
          "name": "tokenId",
          "type": "uint256"
        }
      ],
      "name": "Transfer",
      "type": "event"
    },
    {
      "inputs": [],
      "name": "ADMIN_ROLE",
      "outputs": [
        {
          "internalType": "bytes32",
          "name": "",
          "type": "bytes32"
        }
      ],
      "stateMutability": "view",
      "type": "function",
      "constant": true
    },
    {
      "inputs": [],
      "name": "CLOCK_MODE",
      "outputs": [
        {
          "internalType": "string",
          "name": "",
          "type": "string"
        }
      ],
      "stateMutability": "view",
      "type": "function",
      "constant": true
    },
    {
      "inputs": [],
      "name": "DEFAULT_ADMIN_ROLE",
      "outputs": [
        {
          "internalType": "bytes32",
          "name": "",
          "type": "bytes32"
        }
      ],
      "stateMutability": "view",
      "type": "function",
      "constant": true
    },
    {
      "inputs": [],
      "name": "DOMAIN_SEPARATOR",
      "outputs": [
        {
          "internalType": "bytes32",
          "name": "",
          "type": "bytes32"
        }
      ],
      "stateMutability": "view",
      "type": "function",
      "constant": true
    },
    {
      "inputs": [
        {
          "internalType": "address",
          "name": "to",
          "type": "address"
        },
        {
          "internalType": "uint256",
          "name": "tokenId",
          "type": "uint256"
        }
      ],
      "name": "approve",
      "outputs": [],
      "stateMutability": "nonpayable",
      "type": "function"
    },
    {
      "inputs": [
        {
          "internalType": "address",
          "name": "owner",
          "type": "address"
        }
      ],
      "name": "balanceOf",
      "outputs": [
        {
          "internalType": "uint256",
          "name": "",
          "type": "uint256"
        }
      ],
      "stateMutability": "view",
      "type": "function",
      "constant": true
    },
    {
      "inputs": [],
      "name": "clock",
      "outputs": [
        {
          "internalType": "uint48",
          "name": "",
          "type": "uint48"
        }
      ],
      "stateMutability": "view",
      "type": "function",
      "constant": true
    },
    {
      "inputs": [
        {
          "internalType": "address",
          "name": "delegatee",
          "type": "address"
        }
      ],
      "name": "delegate",
      "outputs": [],
      "stateMutability": "nonpayable",
      "type": "function"
    },
    {
      "inputs": [
        {
          "internalType": "address",
          "name": "delegatee",
          "type": "address"
        },
        {
          "internalType": "uint256",
          "name": "nonce",
          "type": "uint256"
        },
        {
          "internalType": "uint256",
          "name": "expiry",
          "type": "uint256"
        },
        {
          "internalType": "uint8",
          "name": "v",
          "type": "uint8"
        },
        {
          "internalType": "bytes32",
          "name": "r",
          "type": "bytes32"
        },
        {
          "internalType": "bytes32",
          "name": "s",
          "type": "bytes32"
        }
      ],
      "name": "delegateBySig",
      "outputs": [],
      "stateMutability": "nonpayable",
      "type": "function"
    },
    {
      "inputs": [
        {
          "internalType": "address",
          "name": "account",
          "type": "address"
        }
      ],
      "name": "delegates",
      "outputs": [
        {
          "internalType": "address",
          "name": "",
          "type": "address"
        }
      ],
      "stateMutability": "view",
      "type": "function",
      "constant": true
    },
    {
      "inputs": [],
      "name": "eip712Domain",
      "outputs": [
        {
          "internalType": "bytes1",
          "name": "fields",
          "type": "bytes1"
        },
        {
          "internalType": "string",
          "name": "name",
          "type": "string"
        },
        {
          "internalType": "string",
          "name": "version",
          "type": "string"
        },
        {
          "internalType": "uint256",
          "name": "chainId",
          "type": "uint256"
        },
        {
          "internalType": "address",
          "name": "verifyingContract",
          "type": "address"
        },
        {
          "internalType": "bytes32",
          "name": "salt",
          "type": "bytes32"
        },
        {
          "internalType": "uint256[]",
          "name": "extensions",
          "type": "uint256[]"
        }
      ],
      "stateMutability": "view",
      "type": "function",
      "constant": true
    },
    {
      "inputs": [
        {
          "internalType": "uint256",
          "name": "tokenId",
          "type": "uint256"
        }
      ],
      "name": "getApproved",
      "outputs": [
        {
          "internalType": "address",
          "name": "",
          "type": "address"
        }
      ],
      "stateMutability": "view",
      "type": "function",
      "constant": true
    },
    {
      "inputs": [
        {
          "internalType": "uint256",
          "name": "timepoint",
          "type": "uint256"
        }
      ],
      "name": "getPastTotalSupply",
      "outputs": [
        {
          "internalType": "uint256",
          "name": "",
          "type": "uint256"
        }
      ],
      "stateMutability": "view",
      "type": "function",
      "constant": true
    },
    {
      "inputs": [
        {
          "internalType": "address",
          "name": "account",
          "type": "address"
        },
        {
          "internalType": "uint256",
          "name": "timepoint",
          "type": "uint256"
        }
      ],
      "name": "getPastVotes",
      "outputs": [
        {
          "internalType": "uint256",
          "name": "",
          "type": "uint256"
        }
      ],
      "stateMutability": "view",
      "type": "function",
      "constant": true
    },
    {
      "inputs": [
        {
          "internalType": "bytes32",
          "name": "role",
          "type": "bytes32"
        }
      ],
      "name": "getRoleAdmin",
      "outputs": [
        {
          "internalType": "bytes32",
          "name": "",
          "type": "bytes32"
        }
      ],
      "stateMutability": "view",
      "type": "function",
      "constant": true
    },
    {
      "inputs": [
        {
          "internalType": "address",
          "name": "account",
          "type": "address"
        }
      ],
      "name": "getVotes",
      "outputs": [
        {
          "internalType": "uint256",
          "name": "",
          "type": "uint256"
        }
      ],
      "stateMutability": "view",
      "type": "function",
      "constant": true
    },
    {
      "inputs": [
        {
          "internalType": "bytes32",
          "name": "role",
          "type": "bytes32"
        },
        {
          "internalType": "address",
          "name": "account",
          "type": "address"
        }
      ],
      "name": "grantRole",
      "outputs": [],
      "stateMutability": "nonpayable",
      "type": "function"
    },
    {
      "inputs": [
        {
          "internalType": "bytes32",
          "name": "role",
          "type": "bytes32"
        },
        {
          "internalType": "address",
          "name": "account",
          "type": "address"
        }
      ],
      "name": "hasRole",
      "outputs": [
        {
          "internalType": "bool",
          "name": "",
          "type": "bool"
        }
      ],
      "stateMutability": "view",
      "type": "function",
      "constant": true
    },
    {
      "inputs": [
        {
          "internalType": "address",
          "name": "owner",
          "type": "address"
        },
        {
          "internalType": "address",
          "name": "operator",
          "type": "address"
        }
      ],
      "name": "isApprovedForAll",
      "outputs": [
        {
          "internalType": "bool",
          "name": "",
          "type": "bool"
        }
      ],
      "stateMutability": "view",
      "type": "function",
      "constant": true
    },
    {
      "inputs": [],
      "name": "name",
      "outputs": [
        {
          "internalType": "string",
          "name": "",
          "type": "string"
        }
      ],
      "stateMutability": "view",
      "type": "function",
      "constant": true
    },
    {
      "inputs": [
        {
          "internalType": "address",
          "name": "owner",
          "type": "address"
        }
      ],
      "name": "nonces",
      "outputs": [
        {
          "internalType": "uint256",
          "name": "",
          "type": "uint256"
        }
      ],
      "stateMutability": "view",
      "type": "function",
      "constant": true
    },
    {
      "inputs": [
        {
          "internalType": "uint256",
          "name": "tokenId",
          "type": "uint256"
        }
      ],
      "name": "ownerOf",
      "outputs": [
        {
          "internalType": "address",
          "name": "",
          "type": "address"
        }
      ],
      "stateMutability": "view",
      "type": "function",
      "constant": true
    },
    {
      "inputs": [
        {
          "internalType": "bytes32",
          "name": "role",
          "type": "bytes32"
        },
        {
          "internalType": "address",
          "name": "account",
          "type": "address"
        }
      ],
      "name": "renounceRole",
      "outputs": [],
      "stateMutability": "nonpayable",
      "type": "function"
    },
    {
      "inputs": [
        {
          "internalType": "bytes32",
          "name": "role",
          "type": "bytes32"
        },
        {
          "internalType": "address",
          "name": "account",
          "type": "address"
        }
      ],
      "name": "revokeRole",
      "outputs": [],
      "stateMutability": "nonpayable",
      "type": "function"
    },
    {
      "inputs": [
        {
          "internalType": "address",
          "name": "from",
          "type": "address"
        },
        {
          "internalType": "address",
          "name": "to",
          "type": "address"
        },
        {
          "internalType": "uint256",
          "name": "tokenId",
          "type": "uint256"
        }
      ],
      "name": "safeTransferFrom",
      "outputs": [],
      "stateMutability": "nonpayable",
      "type": "function"
    },
    {
      "inputs": [
        {
          "internalType": "address",
          "name": "from",
          "type": "address"
        },
        {
          "internalType": "address",
          "name": "to",
          "type": "address"
        },
        {
          "internalType": "uint256",
          "name": "tokenId",
          "type": "uint256"
        },
        {
          "internalType": "bytes",
          "name": "data",
          "type": "bytes"
        }
      ],
      "name": "safeTransferFrom",
      "outputs": [],
      "stateMutability": "nonpayable",
      "type": "function"
    },
    {
      "inputs": [
        {
          "internalType": "address",
          "name": "operator",
          "type": "address"
        },
        {
          "internalType": "bool",
          "name": "approved",
          "type": "bool"
        }
      ],
      "name": "setApprovalForAll",
      "outputs": [],
      "stateMutability": "nonpayable",
      "type": "function"
    },
    {
      "inputs": [],
      "name": "symbol",
      "outputs": [
        {
          "internalType": "string",
          "name": "",
          "type": "string"
        }
      ],
      "stateMutability": "view",
      "type": "function",
      "constant": true
    },
    {
      "inputs": [
        {
          "internalType": "address",
          "name": "from",
          "type": "address"
        },
        {
          "internalType": "address",
          "name": "to",
          "type": "address"
        },
        {
          "internalType": "uint256",
          "name": "tokenId",
          "type": "uint256"
        }
      ],
      "name": "transferFrom",
      "outputs": [],
      "stateMutability": "nonpayable",
      "type": "function"
    },
    {
      "inputs": [
        {
          "internalType": "address",
          "name": "account",
          "type": "address"
        }
      ],
      "name": "grantAdminRole",
      "outputs": [],
      "stateMutability": "nonpayable",
      "type": "function"
    },
    {
      "inputs": [
        {
          "internalType": "address",
          "name": "to",
          "type": "address"
        },
        {
          "internalType": "string",
          "name": "uri",
          "type": "string"
        }
      ],
      "name": "safeMint",
      "outputs": [],
      "stateMutability": "nonpayable",
      "type": "function"
    },
    {
      "inputs": [
        {
          "internalType": "bytes4",
          "name": "interfaceId",
          "type": "bytes4"
        }
      ],
      "name": "supportsInterface",
      "outputs": [
        {
          "internalType": "bool",
          "name": "",
          "type": "bool"
        }
      ],
      "stateMutability": "view",
      "type": "function",
      "constant": true
    },
    {
      "inputs": [
        {
          "internalType": "uint256",
          "name": "tokenId",
          "type": "uint256"
        }
      ],
      "name": "tokenURI",
      "outputs": [
        {
          "internalType": "string",
          "name": "",
          "type": "string"
        }
      ],
      "stateMutability": "view",
      "type": "function",
      "constant": true
    }
  ],
  "bytecode": "0x6101606040523480156200001257600080fd5b506040518060400160405280600981526020017f5175616472614e465400000000000000000000000000000000000000000000008152506040518060400160405280600181526020017f31000000000000000000000000000000000000000000000000000000000000008152506040518060400160405280600981526020017f5175616472614e465400000000000000000000000000000000000000000000008152506040518060400160405280600481526020017f514e46540000000000000000000000000000000000000000000000000000000081525081600090805190602001906200010392919062001969565b5080600190805190602001906200011c92919062001969565b5050506200013a6008836200023c60201b620013b31790919060201c565b61012081815250506200015d6009826200023c60201b620013b31790919060201c565b6101408181525050818051906020012060e08181525050808051906020012061010081815250504660a081815250506200019c620002a060201b60201c565b608081815250503073ffffffffffffffffffffffffffffffffffffffff1660c08173ffffffffffffffffffffffffffffffffffffffff168152505050506200020b7fa49807205ce4d355092ef5a8a18f56e8913cf4a201fbe287825b095693c2177533620002fd60201b60201c565b62000236336040518060800160405280604381526020016200849960439139620003ef60201b60201c565b620026f4565b600060208351101562000262576200025a836200046860201b60201c565b90506200029a565b826200027983620004d560201b620013fe1760201c565b60000190805190602001906200029192919062001969565b5060ff60001b90505b92915050565b60007f8b73c3c69bb8fe3d512ecc4cf759cc79239f7b179b0ffacaa9a75d522b39400f60e051610100514630604051602001620002e295949392919062001a94565b60405160208183030381529060405280519060200120905090565b6200030f8282620004df60201b60201c565b620003eb5760016007600084815260200190815260200160002060000160008373ffffffffffffffffffffffffffffffffffffffff1673ffffffffffffffffffffffffffffffffffffffff16815260200190815260200160002060006101000a81548160ff021916908315150217905550620003906200054a60201b60201c565b73ffffffffffffffffffffffffffffffffffffffff168173ffffffffffffffffffffffffffffffffffffffff16837f2f8788117e7eff1d82e926ec794901d17c78024a50270940304540a733656f0d60405160405180910390a45b5050565b7fa49807205ce4d355092ef5a8a18f56e8913cf4a201fbe287825b095693c2177562000421816200055260201b60201c565b6000600e6000815480929190620004389062001b20565b9190505590506200045084826200057660201b60201c565b6200046281846200059c60201b60201c565b50505050565b600080829050601f81511115620004b857826040517f305a27a9000000000000000000000000000000000000000000000000000000008152600401620004af919062001c12565b60405180910390fd5b805181620004c69062001c75565b60001c1760001b915050919050565b6000819050919050565b60006007600084815260200190815260200160002060000160008373ffffffffffffffffffffffffffffffffffffffff1673ffffffffffffffffffffffffffffffffffffffff16815260200190815260200160002060009054906101000a900460ff16905092915050565b600033905090565b6200057381620005676200054a60201b60201c565b6200065660201b60201c565b50565b620005988282604051806020016040528060008152506200070260201b60201c565b5050565b620005ad826200077060201b60201c565b620005ef576040517f08c379a0000000000000000000000000000000000000000000000000000000008152600401620005e69062001d5b565b60405180910390fd5b806006600084815260200190815260200160002090805190602001906200061892919062001969565b507ff8e1a15aba9398e019f0b49df1a4fde98ee17ae345cb5f6b5e2c27f5033e8ce7826040516200064a919062001d7d565b60405180910390a15050565b620006688282620004df60201b60201c565b620006fe576200068381620007b960201b620014081760201c565b6200069e8360001c6020620007ee60201b620014351760201c565b604051602001620006b192919062001e7c565b6040516020818303038152906040526040517f08c379a0000000000000000000000000000000000000000000000000000000008152600401620006f5919062001c12565b60405180910390fd5b5050565b62000714838362000a4960201b60201c565b62000729600084848462000c9060201b60201c565b6200076b576040517f08c379a0000000000000000000000000000000000000000000000000000000008152600401620007629062001f34565b60405180910390fd5b505050565b60008073ffffffffffffffffffffffffffffffffffffffff166200079a8362000e3a60201b60201c565b73ffffffffffffffffffffffffffffffffffffffff1614159050919050565b6060620007e78273ffffffffffffffffffffffffffffffffffffffff16601460ff16620007ee60201b60201c565b9050919050565b60606000600283600262000803919062001f56565b6200080f919062001fb7565b67ffffffffffffffff8111156200082b576200082a62002014565b5b6040519080825280601f01601f1916602001820160405280156200085e5781602001600182028036833780820191505090505b5090507f30000000000000000000000000000000000000000000000000000000000000008160008151811062000899576200089862002043565b5b60200101907effffffffffffffffffffffffffffffffffffffffffffffffffffffffffffff1916908160001a9053507f7800000000000000000000000000000000000000000000000000000000000000816001815181106200090057620008ff62002043565b5b60200101907effffffffffffffffffffffffffffffffffffffffffffffffffffffffffffff1916908160001a9053506000600184600262000942919062001f56565b6200094e919062001fb7565b90505b6001811115620009f8577f3031323334353637383961626364656600000000000000000000000000000000600f86166010811062000994576200099362002043565b5b1a60f81b828281518110620009ae57620009ad62002043565b5b60200101907effffffffffffffffffffffffffffffffffffffffffffffffffffffffffffff1916908160001a905350600485901c945080620009f09062002072565b905062000951565b506000841462000a3f576040517f08c379a000000000000000000000000000000000000000000000000000000000815260040162000a3690620020f1565b60405180910390fd5b8091505092915050565b600073ffffffffffffffffffffffffffffffffffffffff168273ffffffffffffffffffffffffffffffffffffffff16141562000abc576040517f08c379a000000000000000000000000000000000000000000000000000000000815260040162000ab39062002163565b60405180910390fd5b62000acd816200077060201b60201c565b1562000b10576040517f08c379a000000000000000000000000000000000000000000000000000000000815260040162000b0790620021d5565b60405180910390fd5b62000b2660008383600162000e7760201b60201c565b62000b37816200077060201b60201c565b1562000b7a576040517f08c379a000000000000000000000000000000000000000000000000000000000815260040162000b7190620021d5565b60405180910390fd5b6001600360008473ffffffffffffffffffffffffffffffffffffffff1673ffffffffffffffffffffffffffffffffffffffff16815260200190815260200160002060008282540192505081905550816002600083815260200190815260200160002060006101000a81548173ffffffffffffffffffffffffffffffffffffffff021916908373ffffffffffffffffffffffffffffffffffffffff160217905550808273ffffffffffffffffffffffffffffffffffffffff16600073ffffffffffffffffffffffffffffffffffffffff167fddf252ad1be2c89b69c2b068fc378daa952ba7f163c4a11628f55a4df523b3ef60405160405180910390a462000c8c60008383600162000e7d60201b60201c565b5050565b600062000cbe8473ffffffffffffffffffffffffffffffffffffffff1662000e9c60201b620016711760201c565b1562000e2d578373ffffffffffffffffffffffffffffffffffffffff1663150b7a0262000cf06200054a60201b60201c565b8786866040518563ffffffff1660e01b815260040162000d14949392919062002249565b6020604051808303816000875af192505050801562000d5357506040513d601f19601f8201168201806040525081019062000d509190620022ff565b60015b62000ddc573d806000811462000d86576040519150601f19603f3d011682016040523d82523d6000602084013e62000d8b565b606091505b5060008151141562000dd4576040517f08c379a000000000000000000000000000000000000000000000000000000000815260040162000dcb9062001f34565b60405180910390fd5b805181602001fd5b63150b7a0260e01b7bffffffffffffffffffffffffffffffffffffffffffffffffffffffff1916817bffffffffffffffffffffffffffffffffffffffffffffffffffffffff19161491505062000e32565b600190505b949350505050565b60006002600083815260200190815260200160002060009054906101000a900473ffffffffffffffffffffffffffffffffffffffff169050919050565b50505050565b62000e968484848462000ebf60201b620016941760201c565b50505050565b6000808273ffffffffffffffffffffffffffffffffffffffff163b119050919050565b62000ed284848362000ef160201b60201c565b62000eeb848484846200100360201b620016b11760201c565b50505050565b600073ffffffffffffffffffffffffffffffffffffffff168373ffffffffffffffffffffffffffffffffffffffff16141562000f5e5762000f5b600c6200100960201b620016b71762000f4f846200102160201b620016cd1760201c565b6200108f60201b60201c565b50505b600073ffffffffffffffffffffffffffffffffffffffff168273ffffffffffffffffffffffffffffffffffffffff16141562000fcb5762000fc8600c6200110660201b620017381762000fbc846200102160201b620016cd1760201c565b6200108f60201b60201c565b50505b62000ffe62000fe0846200111e60201b60201c565b62000ff1846200111e60201b60201c565b836200118760201b60201c565b505050565b50505050565b6000818362001019919062002359565b905092915050565b60007bffffffffffffffffffffffffffffffffffffffffffffffffffffffff801682111562001087576040517f08c379a00000000000000000000000000000000000000000000000000000000081526004016200107e9062002428565b60405180910390fd5b819050919050565b600080620010fa620010c3620010aa6200144c60201b60201c565b65ffffffffffff166200146960201b6200174e1760201c565b620010e4620010dd88620014bf60201b620017a11760201c565b868860201c565b876200153560201b6200180b179092919060201c565b91509150935093915050565b600081836200111691906200244a565b905092915050565b6000600a60008373ffffffffffffffffffffffffffffffffffffffff1673ffffffffffffffffffffffffffffffffffffffff16815260200190815260200160002060009054906101000a900473ffffffffffffffffffffffffffffffffffffffff169050919050565b8173ffffffffffffffffffffffffffffffffffffffff168373ffffffffffffffffffffffffffffffffffffffff1614158015620011c45750600081115b156200144757600073ffffffffffffffffffffffffffffffffffffffff168373ffffffffffffffffffffffffffffffffffffffff1614620013085760008062001273600b60008773ffffffffffffffffffffffffffffffffffffffff1673ffffffffffffffffffffffffffffffffffffffff1681526020019081526020016000206200110660201b620017381762001267866200102160201b620016cd1760201c565b6200108f60201b60201c565b7bffffffffffffffffffffffffffffffffffffffffffffffffffffffff1691507bffffffffffffffffffffffffffffffffffffffffffffffffffffffff1691508473ffffffffffffffffffffffffffffffffffffffff167fdec2bacdd2f05b59de34da9b523dff8be42e5e38e818c82fdb0bae774387a7248383604051620012fd92919062002485565b60405180910390a250505b600073ffffffffffffffffffffffffffffffffffffffff168273ffffffffffffffffffffffffffffffffffffffff16146200144657600080620013b1600b60008673ffffffffffffffffffffffffffffffffffffffff1673ffffffffffffffffffffffffffffffffffffffff1681526020019081526020016000206200100960201b620016b717620013a5866200102160201b620016cd1760201c565b6200108f60201b60201c565b7bffffffffffffffffffffffffffffffffffffffffffffffffffffffff1691507bffffffffffffffffffffffffffffffffffffffffffffffffffffffff1691508373ffffffffffffffffffffffffffffffffffffffff167fdec2bacdd2f05b59de34da9b523dff8be42e5e38e818c82fdb0bae774387a72483836040516200143b92919062002485565b60405180910390a250505b5b505050565b600062001464436200155a60201b620018281760201c565b905090565b600063ffffffff8016821115620014b7576040517f08c379a0000000000000000000000000000000000000000000000000000000008152600401620014ae9062002528565b60405180910390fd5b819050919050565b60008082600001805490509050600081146200152a57620014f883600001600183620014ec91906200254a565b620015b260201b60201c565b60000160049054906101000a90047bffffffffffffffffffffffffffffffffffffffffffffffffffffffff166200152d565b60005b915050919050565b6000806200154e856000018585620015c760201b60201c565b91509150935093915050565b600065ffffffffffff8016821115620015aa576040517f08c379a0000000000000000000000000000000000000000000000000000000008152600401620015a190620025fb565b60405180910390fd5b819050919050565b60008260005281602060002001905092915050565b600080600085805490509050600081111562001879576000620015ff87600184620015f391906200254a565b620015b260201b60201c565b6040518060400160405290816000820160009054906101000a900463ffffffff1663ffffffff1663ffffffff1681526020016000820160049054906101000a90047bffffffffffffffffffffffffffffffffffffffffffffffffffffffff167bffffffffffffffffffffffffffffffffffffffffffffffffffffffff167bffffffffffffffffffffffffffffffffffffffffffffffffffffffff168152505090508563ffffffff16816000015163ffffffff161115620016f6576040517f08c379a0000000000000000000000000000000000000000000000000000000008152600401620016ed906200266d565b60405180910390fd5b8563ffffffff16816000015163ffffffff16141562001787578462001730886001856200172491906200254a565b620015b260201b60201c565b60000160046101000a8154817bffffffffffffffffffffffffffffffffffffffffffffffffffffffff02191690837bffffffffffffffffffffffffffffffffffffffffffffffffffffffff16021790555062001867565b8660405180604001604052808863ffffffff168152602001877bffffffffffffffffffffffffffffffffffffffffffffffffffffffff168152509080600181540180825580915050600190039060005260206000200160009091909190915060008201518160000160006101000a81548163ffffffff021916908363ffffffff16021790555060208201518160000160046101000a8154817bffffffffffffffffffffffffffffffffffffffffffffffffffffffff02191690837bffffffffffffffffffffffffffffffffffffffffffffffffffffffff16021790555050505b80602001518593509350505062001961565b8560405180604001604052808763ffffffff168152602001867bffffffffffffffffffffffffffffffffffffffffffffffffffffffff168152509080600181540180825580915050600190039060005260206000200160009091909190915060008201518160000160006101000a81548163ffffffff021916908363ffffffff16021790555060208201518160000160046101000a8154817bffffffffffffffffffffffffffffffffffffffffffffffffffffffff02191690837bffffffffffffffffffffffffffffffffffffffffffffffffffffffff160217905550505060008492509250505b935093915050565b8280546200197790620026be565b90600052602060002090601f0160209004810192826200199b5760008555620019e7565b82601f10620019b657805160ff1916838001178555620019e7565b82800160010185558215620019e7579182015b82811115620019e6578251825591602001919060010190620019c9565b5b509050620019f69190620019fa565b5090565b5b8082111562001a15576000816000905550600101620019fb565b5090565b6000819050919050565b62001a2e8162001a19565b82525050565b6000819050919050565b62001a498162001a34565b82525050565b600073ffffffffffffffffffffffffffffffffffffffff82169050919050565b600062001a7c8262001a4f565b9050919050565b62001a8e8162001a6f565b82525050565b600060a08201905062001aab600083018862001a23565b62001aba602083018762001a23565b62001ac9604083018662001a23565b62001ad8606083018562001a3e565b62001ae7608083018462001a83565b9695505050505050565b7f4e487b7100000000000000000000000000000000000000000000000000000000600052601160045260246000fd5b600062001b2d8262001a34565b91507fffffffffffffffffffffffffffffffffffffffffffffffffffffffffffffffff82141562001b635762001b6262001af1565b5b600182019050919050565b600081519050919050565b600082825260208201905092915050565b60005b8381101562001baa57808201518184015260208101905062001b8d565b8381111562001bba576000848401525b50505050565b6000601f19601f8301169050919050565b600062001bde8262001b6e565b62001bea818562001b79565b935062001bfc81856020860162001b8a565b62001c078162001bc0565b840191505092915050565b6000602082019050818103600083015262001c2e818462001bd1565b905092915050565b600081519050919050565b6000819050602082019050919050565b600062001c5f825162001a19565b80915050919050565b600082821b905092915050565b600062001c828262001c36565b8262001c8e8462001c41565b905062001c9b8162001c51565b9250602082101562001cde5762001cd97fffffffffffffffffffffffffffffffffffffffffffffffffffffffffffffffff8360200360080262001c68565b831692505b5050919050565b7f45524337323155524953746f726167653a2055524920736574206f66206e6f6e60008201527f6578697374656e7420746f6b656e000000000000000000000000000000000000602082015250565b600062001d43602e8362001b79565b915062001d508262001ce5565b604082019050919050565b6000602082019050818103600083015262001d768162001d34565b9050919050565b600060208201905062001d94600083018462001a3e565b92915050565b600081905092915050565b7f416363657373436f6e74726f6c3a206163636f756e7420000000000000000000600082015250565b600062001ddd60178362001d9a565b915062001dea8262001da5565b601782019050919050565b600062001e028262001b6e565b62001e0e818562001d9a565b935062001e2081856020860162001b8a565b80840191505092915050565b7f206973206d697373696e6720726f6c6520000000000000000000000000000000600082015250565b600062001e6460118362001d9a565b915062001e718262001e2c565b601182019050919050565b600062001e898262001dce565b915062001e97828562001df5565b915062001ea48262001e55565b915062001eb2828462001df5565b91508190509392505050565b7f4552433732313a207472616e7366657220746f206e6f6e20455243373231526560008201527f63656976657220696d706c656d656e7465720000000000000000000000000000602082015250565b600062001f1c60328362001b79565b915062001f298262001ebe565b604082019050919050565b6000602082019050818103600083015262001f4f8162001f0d565b9050919050565b600062001f638262001a34565b915062001f708362001a34565b9250817fffffffffffffffffffffffffffffffffffffffffffffffffffffffffffffffff048311821515161562001fac5762001fab62001af1565b5b828202905092915050565b600062001fc48262001a34565b915062001fd18362001a34565b9250827fffffffffffffffffffffffffffffffffffffffffffffffffffffffffffffffff0382111562002009576200200862001af1565b5b828201905092915050565b7f4e487b7100000000000000000000000000000000000000000000000000000000600052604160045260246000fd5b7f4e487b7100000000000000000000000000000000000000000000000000000000600052603260045260246000fd5b60006200207f8262001a34565b9150600082141562002096576200209562001af1565b5b600182039050919050565b7f537472696e67733a20686578206c656e67746820696e73756666696369656e74600082015250565b6000620020d960208362001b79565b9150620020e682620020a1565b602082019050919050565b600060208201905081810360008301526200210c81620020ca565b9050919050565b7f4552433732313a206d696e7420746f20746865207a65726f2061646472657373600082015250565b60006200214b60208362001b79565b9150620021588262002113565b602082019050919050565b600060208201905081810360008301526200217e816200213c565b9050919050565b7f4552433732313a20746f6b656e20616c7265616479206d696e74656400000000600082015250565b6000620021bd601c8362001b79565b9150620021ca8262002185565b602082019050919050565b60006020820190508181036000830152620021f081620021ae565b9050919050565b600082825260208201905092915050565b6000620022158262001c36565b620022218185620021f7565b93506200223381856020860162001b8a565b6200223e8162001bc0565b840191505092915050565b600060808201905062002260600083018762001a83565b6200226f602083018662001a83565b6200227e604083018562001a3e565b818103606083015262002292818462002208565b905095945050505050565b600080fd5b60007fffffffff0000000000000000000000000000000000000000000000000000000082169050919050565b620022d981620022a2565b8114620022e557600080fd5b50565b600081519050620022f981620022ce565b92915050565b6000602082840312156200231857620023176200229d565b5b60006200232884828501620022e8565b91505092915050565b60007bffffffffffffffffffffffffffffffffffffffffffffffffffffffff82169050919050565b6000620023668262002331565b9150620023738362002331565b9250827bffffffffffffffffffffffffffffffffffffffffffffffffffffffff03821115620023a757620023a662001af1565b5b828201905092915050565b7f53616665436173743a2076616c756520646f65736e27742066697420696e203260008201527f3234206269747300000000000000000000000000000000000000000000000000602082015250565b60006200241060278362001b79565b91506200241d82620023b2565b604082019050919050565b60006020820190508181036000830152620024438162002401565b9050919050565b6000620024578262002331565b9150620024648362002331565b9250828210156200247a576200247962001af1565b5b828203905092915050565b60006040820190506200249c600083018562001a3e565b620024ab602083018462001a3e565b9392505050565b7f53616665436173743a2076616c756520646f65736e27742066697420696e203360008201527f3220626974730000000000000000000000000000000000000000000000000000602082015250565b60006200251060268362001b79565b91506200251d82620024b2565b604082019050919050565b60006020820190508181036000830152620025438162002501565b9050919050565b6000620025578262001a34565b9150620025648362001a34565b9250828210156200257a576200257962001af1565b5b828203905092915050565b7f53616665436173743a2076616c756520646f65736e27742066697420696e203460008201527f3820626974730000000000000000000000000000000000000000000000000000602082015250565b6000620025e360268362001b79565b9150620025f08262002585565b604082019050919050565b600060208201905081810360008301526200261681620025d4565b9050919050565b7f436865636b706f696e743a2064656372656173696e67206b6579730000000000600082015250565b600062002655601b8362001b79565b915062002662826200261d565b602082019050919050565b60006020820190508181036000830152620026888162002646565b9050919050565b7f4e487b7100000000000000000000000000000000000000000000000000000000600052602260045260246000fd5b60006002820490506001821680620026d757607f821691505b60208210811415620026ee57620026ed6200268f565b5b50919050565b60805160a05160c05160e051610100516101205161014051615d4a6200274f6000396000610de801526000610db401526000612db201526000612d9101526000611e8b01526000611ee101526000611f0a0152615d4a6000f3fe608060405234801561001057600080fd5b50600436106101fb5760003560e01c806375b238fc1161011a578063a217fddf116100ad578063c634b78e1161007c578063c634b78e14610602578063c87b56dd1461061e578063d204c45e1461064e578063d547741f1461066a578063e985e9c514610686576101fb565b8063a217fddf14610590578063a22cb465146105ae578063b88d4fde146105ca578063c3cda520146105e6576101fb565b806391d14854116100e957806391d14854146104f457806391ddadf41461052457806395d89b41146105425780639ab24eb014610560576101fb565b806375b238fc146104525780637ecebe001461047057806384b0196e146104a05780638e539e8c146104c4576101fb565b806336568abe11610192578063587cde1e11610161578063587cde1e146103a65780635c19a95c146103d65780636352211e146103f257806370a0823114610422576101fb565b806336568abe146103205780633a46b1a81461033c57806342842e0e1461036c5780634bf5d7e914610388576101fb565b806323b872dd116101ce57806323b872dd1461029a578063248a9ca3146102b65780632f2ff15d146102e65780633644e51514610302576101fb565b806301ffc9a71461020057806306fdde0314610230578063081812fc1461024e578063095ea7b31461027e575b600080fd5b61021a60048036038101906102159190613fe4565b6106b6565b604051610227919061402c565b60405180910390f35b6102386106c8565b60405161024591906140e0565b60405180910390f35b61026860048036038101906102639190614138565b61075a565b60405161027591906141a6565b60405180910390f35b610298600480360381019061029391906141ed565b6107a0565b005b6102b460048036038101906102af919061422d565b6108b8565b005b6102d060048036038101906102cb91906142b6565b610918565b6040516102dd91906142f2565b60405180910390f35b61030060048036038101906102fb919061430d565b610938565b005b61030a610959565b60405161031791906142f2565b60405180910390f35b61033a6004803603810190610335919061430d565b610968565b005b610356600480360381019061035191906141ed565b6109eb565b604051610363919061435c565b60405180910390f35b6103866004803603810190610381919061422d565b610abd565b005b610390610add565b60405161039d91906140e0565b60405180910390f35b6103c060048036038101906103bb9190614377565b610b6b565b6040516103cd91906141a6565b60405180910390f35b6103f060048036038101906103eb9190614377565b610bd4565b005b61040c60048036038101906104079190614138565b610bee565b60405161041991906141a6565b60405180910390f35b61043c60048036038101906104379190614377565b610c75565b604051610449919061435c565b60405180910390f35b61045a610d2d565b60405161046791906142f2565b60405180910390f35b61048a60048036038101906104859190614377565b610d51565b604051610497919061435c565b60405180910390f35b6104a8610da1565b6040516104bb979695949392919061449d565b60405180910390f35b6104de60048036038101906104d99190614138565b610ea3565b6040516104eb919061435c565b60405180910390f35b61050e6004803603810190610509919061430d565b610f37565b60405161051b919061402c565b60405180910390f35b61052c610fa2565b6040516105399190614542565b60405180910390f35b61054a610fb2565b60405161055791906140e0565b60405180910390f35b61057a60048036038101906105759190614377565b611044565b604051610587919061435c565b60405180910390f35b6105986110b2565b6040516105a591906142f2565b60405180910390f35b6105c860048036038101906105c39190614589565b6110b9565b005b6105e460048036038101906105df91906146fe565b6110cf565b005b61060060048036038101906105fb91906147ba565b611131565b005b61061c60048036038101906106179190614377565b611235565b005b61063860048036038101906106339190614138565b61128d565b60405161064591906140e0565b60405180910390f35b610668600480360381019061066391906148e8565b61129f565b005b610684600480360381019061067f919061430d565b6112fe565b005b6106a0600480360381019061069b9190614944565b61131f565b6040516106ad919061402c565b60405180910390f35b60006106c18261187d565b9050919050565b6060600080546106d7906149b3565b80601f0160208091040260200160405190810160405280929190818152602001828054610703906149b3565b80156107505780601f1061072557610100808354040283529160200191610750565b820191906000526020600020905b81548152906001019060200180831161073357829003601f168201915b5050505050905090565b6000610765826118f7565b6004600083815260200190815260200160002060009054906101000a900473ffffffffffffffffffffffffffffffffffffffff169050919050565b60006107ab82610bee565b90508073ffffffffffffffffffffffffffffffffffffffff168373ffffffffffffffffffffffffffffffffffffffff16141561081c576040517f08c379a000000000000000000000000000000000000000000000000000000000815260040161081390614a57565b60405180910390fd5b8073ffffffffffffffffffffffffffffffffffffffff1661083b611942565b73ffffffffffffffffffffffffffffffffffffffff16148061086a575061086981610864611942565b61131f565b5b6108a9576040517f08c379a00000000000000000000000000000000000000000000000000000000081526004016108a090614ae9565b60405180910390fd5b6108b3838361194a565b505050565b6108c96108c3611942565b82611a03565b610908576040517f08c379a00000000000000000000000000000000000000000000000000000000081526004016108ff90614b7b565b60405180910390fd5b610913838383611a98565b505050565b600060076000838152602001908152602001600020600101549050919050565b61094182610918565b61094a81611d92565b6109548383611da6565b505050565b6000610963611e87565b905090565b610970611942565b73ffffffffffffffffffffffffffffffffffffffff168173ffffffffffffffffffffffffffffffffffffffff16146109dd576040517f08c379a00000000000000000000000000000000000000000000000000000000081526004016109d490614c0d565b60405180910390fd5b6109e78282611f3e565b5050565b60006109f5610fa2565b65ffffffffffff168210610a3e576040517f08c379a0000000000000000000000000000000000000000000000000000000008152600401610a3590614c79565b60405180910390fd5b610a97610a4a8361174e565b600b60008673ffffffffffffffffffffffffffffffffffffffff1673ffffffffffffffffffffffffffffffffffffffff16815260200190815260200160002061202090919063ffffffff16565b7bffffffffffffffffffffffffffffffffffffffffffffffffffffffff16905092915050565b610ad8838383604051806020016040528060008152506110cf565b505050565b606043610ae8610fa2565b65ffffffffffff1614610b30576040517f08c379a0000000000000000000000000000000000000000000000000000000008152600401610b2790614ce5565b60405180910390fd5b6040518060400160405280601d81526020017f6d6f64653d626c6f636b6e756d6265722666726f6d3d64656661756c74000000815250905090565b6000600a60008373ffffffffffffffffffffffffffffffffffffffff1673ffffffffffffffffffffffffffffffffffffffff16815260200190815260200160002060009054906101000a900473ffffffffffffffffffffffffffffffffffffffff169050919050565b6000610bde611942565b9050610bea8183612116565b5050565b600080610bfa8361222a565b9050600073ffffffffffffffffffffffffffffffffffffffff168173ffffffffffffffffffffffffffffffffffffffff161415610c6c576040517f08c379a0000000000000000000000000000000000000000000000000000000008152600401610c6390614d51565b60405180910390fd5b80915050919050565b60008073ffffffffffffffffffffffffffffffffffffffff168273ffffffffffffffffffffffffffffffffffffffff161415610ce6576040517f08c379a0000000000000000000000000000000000000000000000000000000008152600401610cdd90614de3565b60405180910390fd5b600360008373ffffffffffffffffffffffffffffffffffffffff1673ffffffffffffffffffffffffffffffffffffffff168152602001908152602001600020549050919050565b7fa49807205ce4d355092ef5a8a18f56e8913cf4a201fbe287825b095693c2177581565b6000610d9a600d60008473ffffffffffffffffffffffffffffffffffffffff1673ffffffffffffffffffffffffffffffffffffffff168152602001908152602001600020612267565b9050919050565b600060608060008060006060610de160087f000000000000000000000000000000000000000000000000000000000000000061227590919063ffffffff16565b610e1560097f000000000000000000000000000000000000000000000000000000000000000061227590919063ffffffff16565b46306000801b600067ffffffffffffffff811115610e3657610e356145d3565b5b604051908082528060200260200182016040528015610e645781602001602082028036833780820191505090505b507f0f00000000000000000000000000000000000000000000000000000000000000959493929190965096509650965096509650965090919293949596565b6000610ead610fa2565b65ffffffffffff168210610ef6576040517f08c379a0000000000000000000000000000000000000000000000000000000008152600401610eed90614c79565b60405180910390fd5b610f12610f028361174e565b600c61202090919063ffffffff16565b7bffffffffffffffffffffffffffffffffffffffffffffffffffffffff169050919050565b60006007600084815260200190815260200160002060000160008373ffffffffffffffffffffffffffffffffffffffff1673ffffffffffffffffffffffffffffffffffffffff16815260200190815260200160002060009054906101000a900460ff16905092915050565b6000610fad43611828565b905090565b606060018054610fc1906149b3565b80601f0160208091040260200160405190810160405280929190818152602001828054610fed906149b3565b801561103a5780601f1061100f5761010080835404028352916020019161103a565b820191906000526020600020905b81548152906001019060200180831161101d57829003601f168201915b5050505050905090565b600061108d600b60008473ffffffffffffffffffffffffffffffffffffffff1673ffffffffffffffffffffffffffffffffffffffff1681526020019081526020016000206117a1565b7bffffffffffffffffffffffffffffffffffffffffffffffffffffffff169050919050565b6000801b81565b6110cb6110c4611942565b8383612325565b5050565b6110e06110da611942565b83611a03565b61111f576040517f08c379a000000000000000000000000000000000000000000000000000000000815260040161111690614b7b565b60405180910390fd5b61112b84848484612492565b50505050565b83421115611174576040517f08c379a000000000000000000000000000000000000000000000000000000000815260040161116b90614e4f565b60405180910390fd5b60006111d66111ce7fe48329057bfd03d55e49b547132e39cffd9c1820ad7b9d4c5307691425d15adf8989896040516020016111b39493929190614e6f565b604051602081830303815290604052805190602001206124ee565b858585612508565b90506111e181612533565b8614611222576040517f08c379a000000000000000000000000000000000000000000000000000000000815260040161121990614f00565b60405180910390fd5b61122c8188612116565b50505050505050565b7fa49807205ce4d355092ef5a8a18f56e8913cf4a201fbe287825b095693c2177561125f81611d92565b6112897fa49807205ce4d355092ef5a8a18f56e8913cf4a201fbe287825b095693c2177583611da6565b5050565b606061129882612591565b9050919050565b7fa49807205ce4d355092ef5a8a18f56e8913cf4a201fbe287825b095693c217756112c981611d92565b6000600e60008154809291906112de90614f4f565b9190505590506112ee84826126a4565b6112f881846126c2565b50505050565b61130782610918565b61131081611d92565b61131a8383611f3e565b505050565b6000600560008473ffffffffffffffffffffffffffffffffffffffff1673ffffffffffffffffffffffffffffffffffffffff16815260200190815260200160002060008373ffffffffffffffffffffffffffffffffffffffff1673ffffffffffffffffffffffffffffffffffffffff16815260200190815260200160002060009054906101000a900460ff16905092915050565b60006020835110156113cf576113c88361276d565b90506113f8565b826113d9836113fe565b60000190805190602001906113ef929190613ed5565b5060ff60001b90505b92915050565b6000819050919050565b606061142e8273ffffffffffffffffffffffffffffffffffffffff16601460ff16611435565b9050919050565b6060600060028360026114489190614f98565b6114529190614ff2565b67ffffffffffffffff81111561146b5761146a6145d3565b5b6040519080825280601f01601f19166020018201604052801561149d5781602001600182028036833780820191505090505b5090507f3000000000000000000000000000000000000000000000000000000000000000816000815181106114d5576114d4615048565b5b60200101907effffffffffffffffffffffffffffffffffffffffffffffffffffffffffffff1916908160001a9053507f78000000000000000000000000000000000000000000000000000000000000008160018151811061153957611538615048565b5b60200101907effffffffffffffffffffffffffffffffffffffffffffffffffffffffffffff1916908160001a905350600060018460026115799190614f98565b6115839190614ff2565b90505b6001811115611623577f3031323334353637383961626364656600000000000000000000000000000000600f8616601081106115c5576115c4615048565b5b1a60f81b8282815181106115dc576115db615048565b5b60200101907effffffffffffffffffffffffffffffffffffffffffffffffffffffffffffff1916908160001a905350600485901c94508061161c90615077565b9050611586565b5060008414611667576040517f08c379a000000000000000000000000000000000000000000000000000000000815260040161165e906150ed565b60405180910390fd5b8091505092915050565b6000808273ffffffffffffffffffffffffffffffffffffffff163b119050919050565b61169f8484836127d5565b6116ab848484846116b1565b50505050565b50505050565b600081836116c59190615135565b905092915050565b60007bffffffffffffffffffffffffffffffffffffffffffffffffffffffff8016821115611730576040517f08c379a0000000000000000000000000000000000000000000000000000000008152600401611727906151f9565b60405180910390fd5b819050919050565b600081836117469190615219565b905092915050565b600063ffffffff8016821115611799576040517f08c379a0000000000000000000000000000000000000000000000000000000008152600401611790906152bf565b60405180910390fd5b819050919050565b6000808260000180549050905060008114611800576117cf836000016001836117ca91906152df565b612891565b60000160049054906101000a90047bffffffffffffffffffffffffffffffffffffffffffffffffffffffff16611803565b60005b915050919050565b60008061181c8560000185856128a6565b91509150935093915050565b600065ffffffffffff8016821115611875576040517f08c379a000000000000000000000000000000000000000000000000000000000815260040161186c90615385565b60405180910390fd5b819050919050565b60007f7965db0b000000000000000000000000000000000000000000000000000000007bffffffffffffffffffffffffffffffffffffffffffffffffffffffff1916827bffffffffffffffffffffffffffffffffffffffffffffffffffffffff191614806118f057506118ef82612c2d565b5b9050919050565b61190081612c8e565b61193f576040517f08c379a000000000000000000000000000000000000000000000000000000000815260040161193690614d51565b60405180910390fd5b50565b600033905090565b816004600083815260200190815260200160002060006101000a81548173ffffffffffffffffffffffffffffffffffffffff021916908373ffffffffffffffffffffffffffffffffffffffff160217905550808273ffffffffffffffffffffffffffffffffffffffff166119bd83610bee565b73ffffffffffffffffffffffffffffffffffffffff167f8c5be1e5ebec7d5bd14f71427d1e84f3dd0314c0f7b2291e5b200ac8c7c3b92560405160405180910390a45050565b600080611a0f83610bee565b90508073ffffffffffffffffffffffffffffffffffffffff168473ffffffffffffffffffffffffffffffffffffffff161480611a515750611a50818561131f565b5b80611a8f57508373ffffffffffffffffffffffffffffffffffffffff16611a778461075a565b73ffffffffffffffffffffffffffffffffffffffff16145b91505092915050565b8273ffffffffffffffffffffffffffffffffffffffff16611ab882610bee565b73ffffffffffffffffffffffffffffffffffffffff1614611b0e576040517f08c379a0000000000000000000000000000000000000000000000000000000008152600401611b0590615417565b60405180910390fd5b600073ffffffffffffffffffffffffffffffffffffffff168273ffffffffffffffffffffffffffffffffffffffff161415611b7e576040517f08c379a0000000000000000000000000000000000000000000000000000000008152600401611b75906154a9565b60405180910390fd5b611b8b8383836001612ccf565b8273ffffffffffffffffffffffffffffffffffffffff16611bab82610bee565b73ffffffffffffffffffffffffffffffffffffffff1614611c01576040517f08c379a0000000000000000000000000000000000000000000000000000000008152600401611bf890615417565b60405180910390fd5b6004600082815260200190815260200160002060006101000a81549073ffffffffffffffffffffffffffffffffffffffff02191690556001600360008573ffffffffffffffffffffffffffffffffffffffff1673ffffffffffffffffffffffffffffffffffffffff168152602001908152602001600020600082825403925050819055506001600360008473ffffffffffffffffffffffffffffffffffffffff1673ffffffffffffffffffffffffffffffffffffffff16815260200190815260200160002060008282540192505081905550816002600083815260200190815260200160002060006101000a81548173ffffffffffffffffffffffffffffffffffffffff021916908373ffffffffffffffffffffffffffffffffffffffff160217905550808273ffffffffffffffffffffffffffffffffffffffff168473ffffffffffffffffffffffffffffffffffffffff167fddf252ad1be2c89b69c2b068fc378daa952ba7f163c4a11628f55a4df523b3ef60405160405180910390a4611d8d8383836001612cd5565b505050565b611da381611d9e611942565b612ce7565b50565b611db08282610f37565b611e835760016007600084815260200190815260200160002060000160008373ffffffffffffffffffffffffffffffffffffffff1673ffffffffffffffffffffffffffffffffffffffff16815260200190815260200160002060006101000a81548160ff021916908315150217905550611e28611942565b73ffffffffffffffffffffffffffffffffffffffff168173ffffffffffffffffffffffffffffffffffffffff16837f2f8788117e7eff1d82e926ec794901d17c78024a50270940304540a733656f0d60405160405180910390a45b5050565b60007f000000000000000000000000000000000000000000000000000000000000000073ffffffffffffffffffffffffffffffffffffffff163073ffffffffffffffffffffffffffffffffffffffff16148015611f0357507f000000000000000000000000000000000000000000000000000000000000000046145b15611f30577f00000000000000000000000000000000000000000000000000000000000000009050611f3b565b611f38612d6c565b90505b90565b611f488282610f37565b1561201c5760006007600084815260200190815260200160002060000160008373ffffffffffffffffffffffffffffffffffffffff1673ffffffffffffffffffffffffffffffffffffffff16815260200190815260200160002060006101000a81548160ff021916908315150217905550611fc1611942565b73ffffffffffffffffffffffffffffffffffffffff168173ffffffffffffffffffffffffffffffffffffffff16837ff6391f5c32d9c69d2a47ea670b442974b53935d1edc7fd64eb21e047a839171b60405160405180910390a45b5050565b6000808360000180549050905060008082905060058311156120a257600061204784612e02565b8461205291906152df565b90506120618760000182612891565b60000160009054906101000a900463ffffffff1663ffffffff168663ffffffff161015612090578091506120a0565b60018161209d9190614ff2565b92505b505b60006120b387600001878585612efc565b905060008114612107576120d6876000016001836120d191906152df565b612891565b60000160049054906101000a90047bffffffffffffffffffffffffffffffffffffffffffffffffffffffff1661210a565b60005b94505050505092915050565b600061212183610b6b565b905081600a60008573ffffffffffffffffffffffffffffffffffffffff1673ffffffffffffffffffffffffffffffffffffffff16815260200190815260200160002060006101000a81548173ffffffffffffffffffffffffffffffffffffffff021916908373ffffffffffffffffffffffffffffffffffffffff1602179055508173ffffffffffffffffffffffffffffffffffffffff168173ffffffffffffffffffffffffffffffffffffffff168473ffffffffffffffffffffffffffffffffffffffff167f3134e8a2e6d97e929a7e54011ea5485d7d196dd5f0ba4d4ef95803e8e3fc257f60405160405180910390a4612225818361222086612f6f565b612f81565b505050565b60006002600083815260200190815260200160002060009054906101000a900473ffffffffffffffffffffffffffffffffffffffff169050919050565b600081600001549050919050565b606060ff60001b83146122925761228b83613202565b905061231f565b81805461229e906149b3565b80601f01602080910402602001604051908101604052809291908181526020018280546122ca906149b3565b80156123175780601f106122ec57610100808354040283529160200191612317565b820191906000526020600020905b8154815290600101906020018083116122fa57829003601f168201915b505050505090505b92915050565b8173ffffffffffffffffffffffffffffffffffffffff168373ffffffffffffffffffffffffffffffffffffffff161415612394576040517f08c379a000000000000000000000000000000000000000000000000000000000815260040161238b90615515565b60405180910390fd5b80600560008573ffffffffffffffffffffffffffffffffffffffff1673ffffffffffffffffffffffffffffffffffffffff16815260200190815260200160002060008473ffffffffffffffffffffffffffffffffffffffff1673ffffffffffffffffffffffffffffffffffffffff16815260200190815260200160002060006101000a81548160ff0219169083151502179055508173ffffffffffffffffffffffffffffffffffffffff168373ffffffffffffffffffffffffffffffffffffffff167f17307eab39ab6107e8899845ad3d59bd9653f200f220920489ca2b5937696c3183604051612485919061402c565b60405180910390a3505050565b61249d848484611a98565b6124a984848484613276565b6124e8576040517f08c379a00000000000000000000000000000000000000000000000000000000081526004016124df906155a7565b60405180910390fd5b50505050565b60006125016124fb611e87565b836133fe565b9050919050565b60008060006125198787878761343f565b9150915061252681613522565b8192505050949350505050565b600080600d60008473ffffffffffffffffffffffffffffffffffffffff1673ffffffffffffffffffffffffffffffffffffffff168152602001908152602001600020905061258081612267565b915061258b81613690565b50919050565b606061259c826118f7565b60006006600084815260200190815260200160002080546125bc906149b3565b80601f01602080910402602001604051908101604052809291908181526020018280546125e8906149b3565b80156126355780601f1061260a57610100808354040283529160200191612635565b820191906000526020600020905b81548152906001019060200180831161261857829003601f168201915b5050505050905060006126466136a6565b905060008151141561265c57819250505061269f565b600082511115612691578082604051602001612679929190615603565b6040516020818303038152906040529250505061269f565b61269a846136bd565b925050505b919050565b6126be828260405180602001604052806000815250613725565b5050565b6126cb82612c8e565b61270a576040517f08c379a000000000000000000000000000000000000000000000000000000000815260040161270190615699565b60405180910390fd5b80600660008481526020019081526020016000209080519060200190612731929190613ed5565b507ff8e1a15aba9398e019f0b49df1a4fde98ee17ae345cb5f6b5e2c27f5033e8ce782604051612761919061435c565b60405180910390a15050565b600080829050601f815111156127ba57826040517f305a27a90000000000000000000000000000000000000000000000000000000081526004016127b191906140e0565b60405180910390fd5b8051816127c6906156f6565b60001c1760001b915050919050565b600073ffffffffffffffffffffffffffffffffffffffff168373ffffffffffffffffffffffffffffffffffffffff16141561282357612820600c6116b761281b846116cd565b613780565b50505b600073ffffffffffffffffffffffffffffffffffffffff168273ffffffffffffffffffffffffffffffffffffffff1614156128715761286e600c611738612869846116cd565b613780565b50505b61288c61287d84610b6b565b61288684610b6b565b83612f81565b505050565b60008260005281602060002001905092915050565b6000806000858054905090506000811115612b3d5760006128d3876001846128ce91906152df565b612891565b6040518060400160405290816000820160009054906101000a900463ffffffff1663ffffffff1663ffffffff1681526020016000820160049054906101000a90047bffffffffffffffffffffffffffffffffffffffffffffffffffffffff167bffffffffffffffffffffffffffffffffffffffffffffffffffffffff167bffffffffffffffffffffffffffffffffffffffffffffffffffffffff168152505090508563ffffffff16816000015163ffffffff1611156129c7576040517f08c379a00000000000000000000000000000000000000000000000000000000081526004016129be906157a9565b60405180910390fd5b8563ffffffff16816000015163ffffffff161415612a4c57846129f6886001856129f191906152df565b612891565b60000160046101000a8154817bffffffffffffffffffffffffffffffffffffffffffffffffffffffff02191690837bffffffffffffffffffffffffffffffffffffffffffffffffffffffff160217905550612b2c565b8660405180604001604052808863ffffffff168152602001877bffffffffffffffffffffffffffffffffffffffffffffffffffffffff168152509080600181540180825580915050600190039060005260206000200160009091909190915060008201518160000160006101000a81548163ffffffff021916908363ffffffff16021790555060208201518160000160046101000a8154817bffffffffffffffffffffffffffffffffffffffffffffffffffffffff02191690837bffffffffffffffffffffffffffffffffffffffffffffffffffffffff16021790555050505b806020015185935093505050612c25565b8560405180604001604052808763ffffffff168152602001867bffffffffffffffffffffffffffffffffffffffffffffffffffffffff168152509080600181540180825580915050600190039060005260206000200160009091909190915060008201518160000160006101000a81548163ffffffff021916908363ffffffff16021790555060208201518160000160046101000a8154817bffffffffffffffffffffffffffffffffffffffffffffffffffffffff02191690837bffffffffffffffffffffffffffffffffffffffffffffffffffffffff160217905550505060008492509250505b935093915050565b6000634906490660e01b7bffffffffffffffffffffffffffffffffffffffffffffffffffffffff1916827bffffffffffffffffffffffffffffffffffffffffffffffffffffffff19161480612c875750612c86826137d0565b5b9050919050565b60008073ffffffffffffffffffffffffffffffffffffffff16612cb08361222a565b73ffffffffffffffffffffffffffffffffffffffff1614159050919050565b50505050565b612ce184848484611694565b50505050565b612cf18282610f37565b612d6857612cfe81611408565b612d0c8360001c6020611435565b604051602001612d1d929190615861565b6040516020818303038152906040526040517f08c379a0000000000000000000000000000000000000000000000000000000008152600401612d5f91906140e0565b60405180910390fd5b5050565b60007f8b73c3c69bb8fe3d512ecc4cf759cc79239f7b179b0ffacaa9a75d522b39400f7f00000000000000000000000000000000000000000000000000000000000000007f00000000000000000000000000000000000000000000000000000000000000004630604051602001612de795949392919061589b565b60405160208183030381529060405280519060200120905090565b600080821415612e155760009050612ef7565b60006001612e22846138b2565b901c6001901b90506001818481612e3c57612e3b6158ee565b5b048201901c90506001818481612e5557612e546158ee565b5b048201901c90506001818481612e6e57612e6d6158ee565b5b048201901c90506001818481612e8757612e866158ee565b5b048201901c90506001818481612ea057612e9f6158ee565b5b048201901c90506001818481612eb957612eb86158ee565b5b048201901c90506001818481612ed257612ed16158ee565b5b048201901c9050612ef381828581612eed57612eec6158ee565b5b04613993565b9150505b919050565b60005b81831015612f64576000612f1384846139ac565b90508463ffffffff16612f268783612891565b60000160009054906101000a900463ffffffff1663ffffffff161115612f4e57809250612f5e565b600181612f5b9190614ff2565b93505b50612eff565b819050949350505050565b6000612f7a82610c75565b9050919050565b8173ffffffffffffffffffffffffffffffffffffffff168373ffffffffffffffffffffffffffffffffffffffff1614158015612fbd5750600081115b156131fd57600073ffffffffffffffffffffffffffffffffffffffff168373ffffffffffffffffffffffffffffffffffffffff16146130df5760008061304c600b60008773ffffffffffffffffffffffffffffffffffffffff1673ffffffffffffffffffffffffffffffffffffffff168152602001908152602001600020611738613047866116cd565b613780565b7bffffffffffffffffffffffffffffffffffffffffffffffffffffffff1691507bffffffffffffffffffffffffffffffffffffffffffffffffffffffff1691508473ffffffffffffffffffffffffffffffffffffffff167fdec2bacdd2f05b59de34da9b523dff8be42e5e38e818c82fdb0bae774387a72483836040516130d492919061591d565b60405180910390a250505b600073ffffffffffffffffffffffffffffffffffffffff168273ffffffffffffffffffffffffffffffffffffffff16146131fc57600080613169600b60008673ffffffffffffffffffffffffffffffffffffffff1673ffffffffffffffffffffffffffffffffffffffff1681526020019081526020016000206116b7613164866116cd565b613780565b7bffffffffffffffffffffffffffffffffffffffffffffffffffffffff1691507bffffffffffffffffffffffffffffffffffffffffffffffffffffffff1691508373ffffffffffffffffffffffffffffffffffffffff167fdec2bacdd2f05b59de34da9b523dff8be42e5e38e818c82fdb0bae774387a72483836040516131f192919061591d565b60405180910390a250505b5b505050565b6060600061320f836139d2565b90506000602067ffffffffffffffff81111561322e5761322d6145d3565b5b6040519080825280601f01601f1916602001820160405280156132605781602001600182028036833780820191505090505b5090508181528360208201528092505050919050565b60006132978473ffffffffffffffffffffffffffffffffffffffff16611671565b156133f1578373ffffffffffffffffffffffffffffffffffffffff1663150b7a026132c0611942565b8786866040518563ffffffff1660e01b81526004016132e29493929190615990565b6020604051808303816000875af192505050801561331e57506040513d601f19601f8201168201806040525081019061331b91906159f1565b60015b6133a1573d806000811461334e576040519150601f19603f3d011682016040523d82523d6000602084013e613353565b606091505b50600081511415613399576040517f08c379a0000000000000000000000000000000000000000000000000000000008152600401613390906155a7565b60405180910390fd5b805181602001fd5b63150b7a0260e01b7bffffffffffffffffffffffffffffffffffffffffffffffffffffffff1916817bffffffffffffffffffffffffffffffffffffffffffffffffffffffff1916149150506133f6565b600190505b949350505050565b60006040517f190100000000000000000000000000000000000000000000000000000000000081528360028201528260228201526042812091505092915050565b6000807f7fffffffffffffffffffffffffffffff5d576e7357a4501ddfe92f46681b20a08360001c111561347a576000600391509150613519565b60006001878787876040516000815260200160405260405161349f9493929190615a2d565b6020604051602081039080840390855afa1580156134c1573d6000803e3d6000fd5b505050602060405103519050600073ffffffffffffffffffffffffffffffffffffffff168173ffffffffffffffffffffffffffffffffffffffff16141561351057600060019250925050613519565b80600092509250505b94509492505050565b6000600481111561353657613535615a72565b5b81600481111561354957613548615a72565b5b14156135545761368d565b6001600481111561356857613567615a72565b5b81600481111561357b5761357a615a72565b5b14156135bc576040517f08c379a00000000000000000000000000000000000000000000000000000000081526004016135b390615aed565b60405180910390fd5b600260048111156135d0576135cf615a72565b5b8160048111156135e3576135e2615a72565b5b1415613624576040517f08c379a000000000000000000000000000000000000000000000000000000000815260040161361b90615b59565b60405180910390fd5b6003600481111561363857613637615a72565b5b81600481111561364b5761364a615a72565b5b141561368c576040517f08c379a000000000000000000000000000000000000000000000000000000000815260040161368390615beb565b60405180910390fd5b5b50565b6001816000016000828254019250508190555050565b606060405180602001604052806000815250905090565b60606136c8826118f7565b60006136d26136a6565b905060008151116136f2576040518060200160405280600081525061371d565b806136fc84613a22565b60405160200161370d929190615603565b6040516020818303038152906040525b915050919050565b61372f8383613afa565b61373c6000848484613276565b61377b576040517f08c379a0000000000000000000000000000000000000000000000000000000008152600401613772906155a7565b60405180910390fd5b505050565b6000806137c461379e613791610fa2565b65ffffffffffff1661174e565b6137b46137aa886117a1565b868863ffffffff16565b8761180b9092919063ffffffff16565b91509150935093915050565b60007f80ac58cd000000000000000000000000000000000000000000000000000000007bffffffffffffffffffffffffffffffffffffffffffffffffffffffff1916827bffffffffffffffffffffffffffffffffffffffffffffffffffffffff1916148061389b57507f5b5e139f000000000000000000000000000000000000000000000000000000007bffffffffffffffffffffffffffffffffffffffffffffffffffffffff1916827bffffffffffffffffffffffffffffffffffffffffffffffffffffffff1916145b806138ab57506138aa82613d18565b5b9050919050565b600080600090506000608084901c11156138d457608083901c92506080810190505b6000604084901c11156138ef57604083901c92506040810190505b6000602084901c111561390a57602083901c92506020810190505b6000601084901c111561392557601083901c92506010810190505b6000600884901c111561394057600883901c92506008810190505b6000600484901c111561395b57600483901c92506004810190505b6000600284901c111561397657600283901c92506002810190505b6000600184901c111561398a576001810190505b80915050919050565b60008183106139a257816139a4565b825b905092915050565b600060028284186139bd9190615c0b565b8284166139ca9190614ff2565b905092915050565b60008060ff8360001c169050601f811115613a19576040517fb3512b0c00000000000000000000000000000000000000000000000000000000815260040160405180910390fd5b80915050919050565b606060006001613a3184613d82565b01905060008167ffffffffffffffff811115613a5057613a4f6145d3565b5b6040519080825280601f01601f191660200182016040528015613a825781602001600182028036833780820191505090505b509050600082602001820190505b600115613aef578080600190039150507f3031323334353637383961626364656600000000000000000000000000000000600a86061a8153600a8581613ad957613ad86158ee565b5b0494506000851415613aea57613aef565b613a90565b819350505050919050565b600073ffffffffffffffffffffffffffffffffffffffff168273ffffffffffffffffffffffffffffffffffffffff161415613b6a576040517f08c379a0000000000000000000000000000000000000000000000000000000008152600401613b6190615c88565b60405180910390fd5b613b7381612c8e565b15613bb3576040517f08c379a0000000000000000000000000000000000000000000000000000000008152600401613baa90615cf4565b60405180910390fd5b613bc1600083836001612ccf565b613bca81612c8e565b15613c0a576040517f08c379a0000000000000000000000000000000000000000000000000000000008152600401613c0190615cf4565b60405180910390fd5b6001600360008473ffffffffffffffffffffffffffffffffffffffff1673ffffffffffffffffffffffffffffffffffffffff16815260200190815260200160002060008282540192505081905550816002600083815260200190815260200160002060006101000a81548173ffffffffffffffffffffffffffffffffffffffff021916908373ffffffffffffffffffffffffffffffffffffffff160217905550808273ffffffffffffffffffffffffffffffffffffffff16600073ffffffffffffffffffffffffffffffffffffffff167fddf252ad1be2c89b69c2b068fc378daa952ba7f163c4a11628f55a4df523b3ef60405160405180910390a4613d14600083836001612cd5565b5050565b60007f01ffc9a7000000000000000000000000000000000000000000000000000000007bffffffffffffffffffffffffffffffffffffffffffffffffffffffff1916827bffffffffffffffffffffffffffffffffffffffffffffffffffffffff1916149050919050565b600080600090507a184f03e93ff9f4daa797ed6e38ed64bf6a1f0100000000000000008310613de0577a184f03e93ff9f4daa797ed6e38ed64bf6a1f0100000000000000008381613dd657613dd56158ee565b5b0492506040810190505b6d04ee2d6d415b85acef81000000008310613e1d576d04ee2d6d415b85acef81000000008381613e1357613e126158ee565b5b0492506020810190505b662386f26fc100008310613e4c57662386f26fc100008381613e4257613e416158ee565b5b0492506010810190505b6305f5e1008310613e75576305f5e1008381613e6b57613e6a6158ee565b5b0492506008810190505b6127108310613e9a576127108381613e9057613e8f6158ee565b5b0492506004810190505b60648310613ebd5760648381613eb357613eb26158ee565b5b0492506002810190505b600a8310613ecc576001810190505b80915050919050565b828054613ee1906149b3565b90600052602060002090601f016020900481019282613f035760008555613f4a565b82601f10613f1c57805160ff1916838001178555613f4a565b82800160010185558215613f4a579182015b82811115613f49578251825591602001919060010190613f2e565b5b509050613f579190613f5b565b5090565b5b80821115613f74576000816000905550600101613f5c565b5090565b6000604051905090565b600080fd5b600080fd5b60007fffffffff0000000000000000000000000000000000000000000000000000000082169050919050565b613fc181613f8c565b8114613fcc57600080fd5b50565b600081359050613fde81613fb8565b92915050565b600060208284031215613ffa57613ff9613f82565b5b600061400884828501613fcf565b91505092915050565b60008115159050919050565b61402681614011565b82525050565b6000602082019050614041600083018461401d565b92915050565b600081519050919050565b600082825260208201905092915050565b60005b83811015614081578082015181840152602081019050614066565b83811115614090576000848401525b50505050565b6000601f19601f8301169050919050565b60006140b282614047565b6140bc8185614052565b93506140cc818560208601614063565b6140d581614096565b840191505092915050565b600060208201905081810360008301526140fa81846140a7565b905092915050565b6000819050919050565b61411581614102565b811461412057600080fd5b50565b6000813590506141328161410c565b92915050565b60006020828403121561414e5761414d613f82565b5b600061415c84828501614123565b91505092915050565b600073ffffffffffffffffffffffffffffffffffffffff82169050919050565b600061419082614165565b9050919050565b6141a081614185565b82525050565b60006020820190506141bb6000830184614197565b92915050565b6141ca81614185565b81146141d557600080fd5b50565b6000813590506141e7816141c1565b92915050565b6000806040838503121561420457614203613f82565b5b6000614212858286016141d8565b925050602061422385828601614123565b9150509250929050565b60008060006060848603121561424657614245613f82565b5b6000614254868287016141d8565b9350506020614265868287016141d8565b925050604061427686828701614123565b9150509250925092565b6000819050919050565b61429381614280565b811461429e57600080fd5b50565b6000813590506142b08161428a565b92915050565b6000602082840312156142cc576142cb613f82565b5b60006142da848285016142a1565b91505092915050565b6142ec81614280565b82525050565b600060208201905061430760008301846142e3565b92915050565b6000806040838503121561432457614323613f82565b5b6000614332858286016142a1565b9250506020614343858286016141d8565b9150509250929050565b61435681614102565b82525050565b6000602082019050614371600083018461434d565b92915050565b60006020828403121561438d5761438c613f82565b5b600061439b848285016141d8565b91505092915050565b60007fff0000000000000000000000000000000000000000000000000000000000000082169050919050565b6143d9816143a4565b82525050565b600081519050919050565b600082825260208201905092915050565b6000819050602082019050919050565b61441481614102565b82525050565b6000614426838361440b565b60208301905092915050565b6000602082019050919050565b600061444a826143df565b61445481856143ea565b935061445f836143fb565b8060005b83811015614490578151614477888261441a565b975061448283614432565b925050600181019050614463565b5085935050505092915050565b600060e0820190506144b2600083018a6143d0565b81810360208301526144c481896140a7565b905081810360408301526144d881886140a7565b90506144e7606083018761434d565b6144f46080830186614197565b61450160a08301856142e3565b81810360c0830152614513818461443f565b905098975050505050505050565b600065ffffffffffff82169050919050565b61453c81614521565b82525050565b60006020820190506145576000830184614533565b92915050565b61456681614011565b811461457157600080fd5b50565b6000813590506145838161455d565b92915050565b600080604083850312156145a05761459f613f82565b5b60006145ae858286016141d8565b92505060206145bf85828601614574565b9150509250929050565b600080fd5b600080fd5b7f4e487b7100000000000000000000000000000000000000000000000000000000600052604160045260246000fd5b61460b82614096565b810181811067ffffffffffffffff8211171561462a576146296145d3565b5b80604052505050565b600061463d613f78565b90506146498282614602565b919050565b600067ffffffffffffffff821115614669576146686145d3565b5b61467282614096565b9050602081019050919050565b82818337600083830152505050565b60006146a161469c8461464e565b614633565b9050828152602081018484840111156146bd576146bc6145ce565b5b6146c884828561467f565b509392505050565b600082601f8301126146e5576146e46145c9565b5b81356146f584826020860161468e565b91505092915050565b6000806000806080858703121561471857614717613f82565b5b6000614726878288016141d8565b9450506020614737878288016141d8565b935050604061474887828801614123565b925050606085013567ffffffffffffffff81111561476957614768613f87565b5b614775878288016146d0565b91505092959194509250565b600060ff82169050919050565b61479781614781565b81146147a257600080fd5b50565b6000813590506147b48161478e565b92915050565b60008060008060008060c087890312156147d7576147d6613f82565b5b60006147e589828a016141d8565b96505060206147f689828a01614123565b955050604061480789828a01614123565b945050606061481889828a016147a5565b935050608061482989828a016142a1565b92505060a061483a89828a016142a1565b9150509295509295509295565b600067ffffffffffffffff821115614862576148616145d3565b5b61486b82614096565b9050602081019050919050565b600061488b61488684614847565b614633565b9050828152602081018484840111156148a7576148a66145ce565b5b6148b284828561467f565b509392505050565b600082601f8301126148cf576148ce6145c9565b5b81356148df848260208601614878565b91505092915050565b600080604083850312156148ff576148fe613f82565b5b600061490d858286016141d8565b925050602083013567ffffffffffffffff81111561492e5761492d613f87565b5b61493a858286016148ba565b9150509250929050565b6000806040838503121561495b5761495a613f82565b5b6000614969858286016141d8565b925050602061497a858286016141d8565b9150509250929050565b7f4e487b7100000000000000000000000000000000000000000000000000000000600052602260045260246000fd5b600060028204905060018216806149cb57607f821691505b602082108114156149df576149de614984565b5b50919050565b7f4552433732313a20617070726f76616c20746f2063757272656e74206f776e6560008201527f7200000000000000000000000000000000000000000000000000000000000000602082015250565b6000614a41602183614052565b9150614a4c826149e5565b604082019050919050565b60006020820190508181036000830152614a7081614a34565b9050919050565b7f4552433732313a20617070726f76652063616c6c6572206973206e6f7420746f60008201527f6b656e206f776e6572206f7220617070726f76656420666f7220616c6c000000602082015250565b6000614ad3603d83614052565b9150614ade82614a77565b604082019050919050565b60006020820190508181036000830152614b0281614ac6565b9050919050565b7f4552433732313a2063616c6c6572206973206e6f7420746f6b656e206f776e6560008201527f72206f7220617070726f76656400000000000000000000000000000000000000602082015250565b6000614b65602d83614052565b9150614b7082614b09565b604082019050919050565b60006020820190508181036000830152614b9481614b58565b9050919050565b7f416363657373436f6e74726f6c3a2063616e206f6e6c792072656e6f756e636560008201527f20726f6c657320666f722073656c660000000000000000000000000000000000602082015250565b6000614bf7602f83614052565b9150614c0282614b9b565b604082019050919050565b60006020820190508181036000830152614c2681614bea565b9050919050565b7f566f7465733a20667574757265206c6f6f6b7570000000000000000000000000600082015250565b6000614c63601483614052565b9150614c6e82614c2d565b602082019050919050565b60006020820190508181036000830152614c9281614c56565b9050919050565b7f566f7465733a2062726f6b656e20636c6f636b206d6f64650000000000000000600082015250565b6000614ccf601883614052565b9150614cda82614c99565b602082019050919050565b60006020820190508181036000830152614cfe81614cc2565b9050919050565b7f4552433732313a20696e76616c696420746f6b656e2049440000000000000000600082015250565b6000614d3b601883614052565b9150614d4682614d05565b602082019050919050565b60006020820190508181036000830152614d6a81614d2e565b9050919050565b7f4552433732313a2061646472657373207a65726f206973206e6f74206120766160008201527f6c6964206f776e65720000000000000000000000000000000000000000000000602082015250565b6000614dcd602983614052565b9150614dd882614d71565b604082019050919050565b60006020820190508181036000830152614dfc81614dc0565b9050919050565b7f566f7465733a207369676e617475726520657870697265640000000000000000600082015250565b6000614e39601883614052565b9150614e4482614e03565b602082019050919050565b60006020820190508181036000830152614e6881614e2c565b9050919050565b6000608082019050614e8460008301876142e3565b614e916020830186614197565b614e9e604083018561434d565b614eab606083018461434d565b95945050505050565b7f566f7465733a20696e76616c6964206e6f6e6365000000000000000000000000600082015250565b6000614eea601483614052565b9150614ef582614eb4565b602082019050919050565b60006020820190508181036000830152614f1981614edd565b9050919050565b7f4e487b7100000000000000000000000000000000000000000000000000000000600052601160045260246000fd5b6000614f5a82614102565b91507fffffffffffffffffffffffffffffffffffffffffffffffffffffffffffffffff821415614f8d57614f8c614f20565b5b600182019050919050565b6000614fa382614102565b9150614fae83614102565b9250817fffffffffffffffffffffffffffffffffffffffffffffffffffffffffffffffff0483118215151615614fe757614fe6614f20565b5b828202905092915050565b6000614ffd82614102565b915061500883614102565b9250827fffffffffffffffffffffffffffffffffffffffffffffffffffffffffffffffff0382111561503d5761503c614f20565b5b828201905092915050565b7f4e487b7100000000000000000000000000000000000000000000000000000000600052603260045260246000fd5b600061508282614102565b9150600082141561509657615095614f20565b5b600182039050919050565b7f537472696e67733a20686578206c656e67746820696e73756666696369656e74600082015250565b60006150d7602083614052565b91506150e2826150a1565b602082019050919050565b60006020820190508181036000830152615106816150ca565b9050919050565b60007bffffffffffffffffffffffffffffffffffffffffffffffffffffffff82169050919050565b60006151408261510d565b915061514b8361510d565b9250827bffffffffffffffffffffffffffffffffffffffffffffffffffffffff0382111561517c5761517b614f20565b5b828201905092915050565b7f53616665436173743a2076616c756520646f65736e27742066697420696e203260008201527f3234206269747300000000000000000000000000000000000000000000000000602082015250565b60006151e3602783614052565b91506151ee82615187565b604082019050919050565b60006020820190508181036000830152615212816151d6565b9050919050565b60006152248261510d565b915061522f8361510d565b92508282101561524257615241614f20565b5b828203905092915050565b7f53616665436173743a2076616c756520646f65736e27742066697420696e203360008201527f3220626974730000000000000000000000000000000000000000000000000000602082015250565b60006152a9602683614052565b91506152b48261524d565b604082019050919050565b600060208201905081810360008301526152d88161529c565b9050919050565b60006152ea82614102565b91506152f583614102565b92508282101561530857615307614f20565b5b828203905092915050565b7f53616665436173743a2076616c756520646f65736e27742066697420696e203460008201527f3820626974730000000000000000000000000000000000000000000000000000602082015250565b600061536f602683614052565b915061537a82615313565b604082019050919050565b6000602082019050818103600083015261539e81615362565b9050919050565b7f4552433732313a207472616e736665722066726f6d20696e636f72726563742060008201527f6f776e6572000000000000000000000000000000000000000000000000000000602082015250565b6000615401602583614052565b915061540c826153a5565b604082019050919050565b60006020820190508181036000830152615430816153f4565b9050919050565b7f4552433732313a207472616e7366657220746f20746865207a65726f2061646460008201527f7265737300000000000000000000000000000000000000000000000000000000602082015250565b6000615493602483614052565b915061549e82615437565b604082019050919050565b600060208201905081810360008301526154c281615486565b9050919050565b7f4552433732313a20617070726f766520746f2063616c6c657200000000000000600082015250565b60006154ff601983614052565b915061550a826154c9565b602082019050919050565b6000602082019050818103600083015261552e816154f2565b9050919050565b7f4552433732313a207472616e7366657220746f206e6f6e20455243373231526560008201527f63656976657220696d706c656d656e7465720000000000000000000000000000602082015250565b6000615591603283614052565b915061559c82615535565b604082019050919050565b600060208201905081810360008301526155c081615584565b9050919050565b600081905092915050565b60006155dd82614047565b6155e781856155c7565b93506155f7818560208601614063565b80840191505092915050565b600061560f82856155d2565b915061561b82846155d2565b91508190509392505050565b7f45524337323155524953746f726167653a2055524920736574206f66206e6f6e60008201527f6578697374656e7420746f6b656e000000000000000000000000000000000000602082015250565b6000615683602e83614052565b915061568e82615627565b604082019050919050565b600060208201905081810360008301526156b281615676565b9050919050565b600081519050919050565b6000819050602082019050919050565b60006156e08251614280565b80915050919050565b600082821b905092915050565b6000615701826156b9565b8261570b846156c4565b9050615716816156d4565b92506020821015615756576157517fffffffffffffffffffffffffffffffffffffffffffffffffffffffffffffffff836020036008026156e9565b831692505b5050919050565b7f436865636b706f696e743a2064656372656173696e67206b6579730000000000600082015250565b6000615793601b83614052565b915061579e8261575d565b602082019050919050565b600060208201905081810360008301526157c281615786565b9050919050565b7f416363657373436f6e74726f6c3a206163636f756e7420000000000000000000600082015250565b60006157ff6017836155c7565b915061580a826157c9565b601782019050919050565b7f206973206d697373696e6720726f6c6520000000000000000000000000000000600082015250565b600061584b6011836155c7565b915061585682615815565b601182019050919050565b600061586c826157f2565b915061587882856155d2565b91506158838261583e565b915061588f82846155d2565b91508190509392505050565b600060a0820190506158b060008301886142e3565b6158bd60208301876142e3565b6158ca60408301866142e3565b6158d7606083018561434d565b6158e46080830184614197565b9695505050505050565b7f4e487b7100000000000000000000000000000000000000000000000000000000600052601260045260246000fd5b6000604082019050615932600083018561434d565b61593f602083018461434d565b9392505050565b600082825260208201905092915050565b6000615962826156b9565b61596c8185615946565b935061597c818560208601614063565b61598581614096565b840191505092915050565b60006080820190506159a56000830187614197565b6159b26020830186614197565b6159bf604083018561434d565b81810360608301526159d18184615957565b905095945050505050565b6000815190506159eb81613fb8565b92915050565b600060208284031215615a0757615a06613f82565b5b6000615a15848285016159dc565b91505092915050565b615a2781614781565b82525050565b6000608082019050615a4260008301876142e3565b615a4f6020830186615a1e565b615a5c60408301856142e3565b615a6960608301846142e3565b95945050505050565b7f4e487b7100000000000000000000000000000000000000000000000000000000600052602160045260246000fd5b7f45434453413a20696e76616c6964207369676e61747572650000000000000000600082015250565b6000615ad7601883614052565b9150615ae282615aa1565b602082019050919050565b60006020820190508181036000830152615b0681615aca565b9050919050565b7f45434453413a20696e76616c6964207369676e6174757265206c656e67746800600082015250565b6000615b43601f83614052565b9150615b4e82615b0d565b602082019050919050565b60006020820190508181036000830152615b7281615b36565b9050919050565b7f45434453413a20696e76616c6964207369676e6174757265202773272076616c60008201527f7565000000000000000000000000000000000000000000000000000000000000602082015250565b6000615bd5602283614052565b9150615be082615b79565b604082019050919050565b60006020820190508181036000830152615c0481615bc8565b9050919050565b6000615c1682614102565b9150615c2183614102565b925082615c3157615c306158ee565b5b828204905092915050565b7f4552433732313a206d696e7420746f20746865207a65726f2061646472657373600082015250565b6000615c72602083614052565b9150615c7d82615c3c565b602082019050919050565b60006020820190508181036000830152615ca181615c65565b9050919050565b7f4552433732313a20746f6b656e20616c7265616479206d696e74656400000000600082015250565b6000615cde601c83614052565b9150615ce982615ca8565b602082019050919050565b60006020820190508181036000830152615d0d81615cd1565b905091905056fea2646970667358221220faa06c31d6955a1d790780b7fa159405714ca1a8fc967881afd7402c90477ba164736f6c634300080b003368747470733a2f2f697066732e696f2f697066732f516d53367066417264536566704239463375656d777672414364657854695175513169416f6e4d686d7942773636",
  "immutableReferences": {
    "5372": [
      {
        "length": 32,
        "start": 7946
      }
    ],
    "5374": [
      {
        "length": 32,
        "start": 7905
      }
    ],
    "5376": [
      {
        "length": 32,
        "start": 7819
      }
    ],
    "5378": [
      {
        "length": 32,
        "start": 11665
      }
    ],
    "5380": [
      {
        "length": 32,
        "start": 11698
      }
    ],
    "5383": [
      {
        "length": 32,
        "start": 3508
      }
    ],
    "5386": [
      {
        "length": 32,
        "start": 3560
      }
    ]
  },
  "source": "// SPDX-License-Identifier: MIT\npragma solidity >=0.8.0 <0.9.0;\n\nimport \"@openzeppelin/contracts/token/ERC721/ERC721.sol\";\nimport \"@openzeppelin/contracts/access/AccessControl.sol\";\nimport \"@openzeppelin/contracts/utils/cryptography/draft-EIP712.sol\";\nimport \"@openzeppelin/contracts/token/ERC721/extensions/draft-ERC721Votes.sol\";\nimport \"@openzeppelin/contracts/token/ERC721/extensions/ERC721URIStorage.sol\";\n\ncontract QuadraNFT is ERC721, ERC721URIStorage, AccessControl, EIP712, ERC721Votes {\n    bytes32 public constant ADMIN_ROLE = keccak256(\"ADMIN_ROLE\");\n    uint256 private _nextTokenId;\n\n    constructor()\n        ERC721(\"QuadraNFT\", \"QNFT\")\n        EIP712(\"QuadraNFT\", \"1\")\n    {\n        _grantRole(ADMIN_ROLE, msg.sender);\n        safeMint(msg.sender, \"https://ipfs.io/ipfs/QmS6pfArdSefpB9F3uemwvrACdexTiQuQ1iAonMhmyBw66\");\n    }\n    \n    function grantAdminRole(address account) public onlyRole(ADMIN_ROLE) {\n        _grantRole(ADMIN_ROLE, account);\n    }\n\n    function safeMint(address to, string memory uri) public onlyRole(ADMIN_ROLE) {\n        uint256 tokenId = _nextTokenId++;\n        _safeMint(to, tokenId);\n        _setTokenURI(tokenId, uri);\n    }\n\n    // The following functions are overrides required by Solidity.\n    function _afterTokenTransfer(\n        address from,\n        address to,\n        uint256 tokenId,\n        uint256 batchSize\n    ) internal override(ERC721,ERC721Votes) {\n        super._afterTokenTransfer(from, to, tokenId, batchSize);\n    }\n\n    function _burn(uint256 tokenId) internal override(ERC721, ERC721URIStorage) {\n        super._burn(tokenId);\n    }\n\n    function supportsInterface(bytes4 interfaceId)\n        public\n        view\n        override(ERC721, ERC721URIStorage, AccessControl)\n        returns (bool)\n    {\n        return super.supportsInterface(interfaceId);\n    }\n\n    function tokenURI(uint256 tokenId)\n        public\n        view\n        override(ERC721, ERC721URIStorage)\n        returns (string memory)\n    {\n        return super.tokenURI(tokenId);\n    }\n}\n",
  "sourcePath": "/Users/abdullahmohamed/CodeProjects/ECE1770-QV-DAO-DApp-Project/src/contracts/QuadraNFT.sol",
  "compiler": {
    "name": "solc",
    "version": "0.8.11+commit.d7f03943.Emscripten.clang"
  },
  "schemaVersion": "3.4.16",
  "updatedAt": "2024-04-22T01:58:07.530Z",
  "networkType": "ethereum",
  "devdoc": {
    "kind": "dev",
    "methods": {
      "CLOCK_MODE()": {
        "details": "Machine-readable description of the clock as specified in EIP-6372."
      },
      "DOMAIN_SEPARATOR()": {
        "details": "Returns the contract's {EIP712} domain separator."
      },
      "approve(address,uint256)": {
        "details": "See {IERC721-approve}."
      },
      "balanceOf(address)": {
        "details": "See {IERC721-balanceOf}."
      },
      "clock()": {
        "details": "Clock used for flagging checkpoints. Can be overridden to implement timestamp based checkpoints (and voting), in which case {CLOCK_MODE} should be overridden as well to match."
      },
      "delegate(address)": {
        "details": "Delegates votes from the sender to `delegatee`."
      },
      "delegateBySig(address,uint256,uint256,uint8,bytes32,bytes32)": {
        "details": "Delegates votes from signer to `delegatee`."
      },
      "delegates(address)": {
        "details": "Returns the delegate that `account` has chosen."
      },
      "eip712Domain()": {
        "details": "See {EIP-5267}. _Available since v4.9._"
      },
      "getApproved(uint256)": {
        "details": "See {IERC721-getApproved}."
      },
      "getPastTotalSupply(uint256)": {
        "details": "Returns the total supply of votes available at a specific moment in the past. If the `clock()` is configured to use block numbers, this will return the value at the end of the corresponding block. NOTE: This value is the sum of all available votes, which is not necessarily the sum of all delegated votes. Votes that have not been delegated are still part of total supply, even though they would not participate in a vote. Requirements: - `timepoint` must be in the past. If operating using block numbers, the block must be already mined."
      },
      "getPastVotes(address,uint256)": {
        "details": "Returns the amount of votes that `account` had at a specific moment in the past. If the `clock()` is configured to use block numbers, this will return the value at the end of the corresponding block. Requirements: - `timepoint` must be in the past. If operating using block numbers, the block must be already mined."
      },
      "getRoleAdmin(bytes32)": {
        "details": "Returns the admin role that controls `role`. See {grantRole} and {revokeRole}. To change a role's admin, use {_setRoleAdmin}."
      },
      "getVotes(address)": {
        "details": "Returns the current amount of votes that `account` has."
      },
      "grantRole(bytes32,address)": {
        "details": "Grants `role` to `account`. If `account` had not been already granted `role`, emits a {RoleGranted} event. Requirements: - the caller must have ``role``'s admin role. May emit a {RoleGranted} event."
      },
      "hasRole(bytes32,address)": {
        "details": "Returns `true` if `account` has been granted `role`."
      },
      "isApprovedForAll(address,address)": {
        "details": "See {IERC721-isApprovedForAll}."
      },
      "name()": {
        "details": "See {IERC721Metadata-name}."
      },
      "nonces(address)": {
        "details": "Returns an address nonce."
      },
      "ownerOf(uint256)": {
        "details": "See {IERC721-ownerOf}."
      },
      "renounceRole(bytes32,address)": {
        "details": "Revokes `role` from the calling account. Roles are often managed via {grantRole} and {revokeRole}: this function's purpose is to provide a mechanism for accounts to lose their privileges if they are compromised (such as when a trusted device is misplaced). If the calling account had been revoked `role`, emits a {RoleRevoked} event. Requirements: - the caller must be `account`. May emit a {RoleRevoked} event."
      },
      "revokeRole(bytes32,address)": {
        "details": "Revokes `role` from `account`. If `account` had been granted `role`, emits a {RoleRevoked} event. Requirements: - the caller must have ``role``'s admin role. May emit a {RoleRevoked} event."
      },
      "safeTransferFrom(address,address,uint256)": {
        "details": "See {IERC721-safeTransferFrom}."
      },
      "safeTransferFrom(address,address,uint256,bytes)": {
        "details": "See {IERC721-safeTransferFrom}."
      },
      "setApprovalForAll(address,bool)": {
        "details": "See {IERC721-setApprovalForAll}."
      },
      "symbol()": {
        "details": "See {IERC721Metadata-symbol}."
      },
      "transferFrom(address,address,uint256)": {
        "details": "See {IERC721-transferFrom}."
      }
    },
    "version": 1
  },
  "userdoc": {
    "kind": "user",
    "methods": {},
    "version": 1
  }
}